:020000040000FA
:030000000200D328
:03001300020F1FBA
:03003B00020F555C
:03004B00020B792C
:1000830002087500000080FB1200E2B900030200C1
:10009300CDE490F100788779038002F0A3D8FCD9EE
:1000A300FA90F386AA82AB839000E57810790280F8
:1000B30015E493A3AC82AD838A828B83F0A3AA82D7
:1000C300AB838C828D83D8E9D9E712158A12008617
:1000D30075D0007581BF7510007511F102008B7921
:1000E300012244657669636520310044657669635E
:1000F300652032004C6F6F706261636B00202020BB
:1001030020000000000000000000000000000000CC
:1001130000000000000000000000004D524649208E
:100123005246206D6F64656D004465766963652092
:10013300526F6C653A20004465766963652031200F
:100143007265616479004465766963652032207263
:1001530065616479004C6F6F706261636B207265D7
:10016300616479004572723A202532642F25326426
:1001730000FFFFFFFF0367CAD4FF00000086F30000
:100183008FF30198F30221F40330313233343536DF
:1001930037383941424344454600286E756C6C201C
:1001A300706F696E746572290030313233343536BD
:1001B30037383961626364656600464C4F41545376
:1001C3003F2077726F6E6720666F726D617474651E
:1001D3007220696E7374616C6C656421003F3F3FEC
:1001E3000010000000080000000A000000000000EA
:1001F30000E066701008A3E066700A08A3E066706A
:100203000408A3E06622C3E7960809E7960809E70E
:10021300960809E796A2D265D03322E4CFC0E0E482
:10022300CEC0E0E4CDC0E0E4CCC0E075F020C3E68E
:1002330033F608E633F608E633F608E633F618181D
:1002430018EC33FCED33FDEE33FEEF33FFC3EC97D5
:1002530009ED9709EE9709EF97191919400FFFEC6C
:1002630097FC09ED97FD09EE97FE191906D5F0BE27
:10027300ECF709EDF709EEF709EFF7191919D0E0D3
:10028300FCD0E0FDD0E0FED0E0FF22E4C396F60808
:10029300E496F608E496F608E496F622E0F608A358
:1002A300E0F608A3E0F608A3E0F622E6F008A3E6EA
:1002B300F008A3E6F008A3E6F022CAC0E0E6F0A344
:1002C30008DAFAD0E0FA22CAC0E0E0A3C582CCC5BE
:1002D30082C583CDC583F0A3C582CCC582C583CD3A
:1002E300C583DAE6D0E0CA22C3E498F8E499F912A8
:1002F300032C8026C3E49AFAE49BFBE920E7E91286
:10030300032CE498F8E499F922C3E498F8E499F902
:1003130012032CE498F8E499F9C3E49AFAE49BFBFA
:1003230022EB20E7CFE920E7E0B90010BB0008E8A3
:100333008AF084F8AAF022E4FBC8FA22EB70227B4D
:1003430010C833C8C933C9335007C39AC3DBF2801B
:10035300069A50012ADBEAC833F4C8C933F4C9FA50
:100363002275F008E4C833C8C933C933C99AC99B95
:100373005004C92AC93BD5F0ECFBC833F4C8E4C91F
:10038300FA22600C08C6C313C618C613C6D5E0F418
:1003930022251010AF08F510400215118008F51042
:1003A30040021511D2AF22C0D0251010AF08F510AE
:1003B300500205118008F51050020511D2AFD0D0BC
:1003C300222510F58210AF08F510400215118008A0
:1003D300F51040021511D2AF851183222510F58245
:1003E300E43511F58322E4732510C582C0E0E511DD
:1003F30034FFC583C0E0E510C3958224F9F8E4C552
:10040300A8858311858210C5A8E8CEF0A3E520F066
:10041300A37808E608F0A3DEFAEFF0A3E58124FB56
:10042300F8E608F0A3E608F0A30808E608F0A3E658
:1004330008F0A315811581D0E0FED0E0F8158115F1
:1004430081E8C0E0EEC0E022851183851082E0A33D
:10045300FEE0A3F5207808E0A3F608DFFAE0A3FFA7
:10046300E0A3C0E0E0A3C0E0E0A3C0E0E0A3C0E0FD
:10047300E4C5A8858210858311C5A8D083D08222C4
:10048300C0D02510C582C0E0E51134FFC583C0E0AC
:10049300E510C3958224F310AF088583118582107C
:1004A3008008858311858210D2AFC8F0A3E9F0A339
:1004B300EAF0A3EBF0A37908E709F0A3D8FAECF08C
:1004C300A3EDF0A3EEF0A3EFF0A3D0E0F0A3D0E010
:1004D300F0A3D0E0F0A3E520F0A3E5F0F0A322859C
:1004E3001183851082E0C0E0A3E0F9A3E0FAA3E062
:1004F300FBA37808E0F608A3DFFAE0FCA3E0FDA382
:10050300E0FEA3E0FFA3E0C0E0A3E0C0E0A3E0F5CA
:10051300D0A3E0F520A3E0A3F5F0E4C5A8858311FB
:10052300858210C5A8D082D083D0E0F8D0E03274A1
:10053300028000C0E0F4041203C4D0E01202BD2222
:1005430074028000CCC0E0EDC0E0E510C39CCCADEC
:100553001150011D10AF068C108D1180068C108D6B
:1005630011D2AF1202CAD0E0FDD0E0FC22D083D07A
:1005730082C5F0E493A3C5F0C395F0F5F0E493A32B
:10058300C395F04005E5F0048001E475F002A4256D
:1005930082F582E5F03583F583E493A3C0E0E49329
:1005A300C0E022D083D082CCC0E0E493A3600612E3
:1005B30005D01470FAE493A360061205EF1470FAE1
:1005C300D0E0FCE493A3C0E0E493C0E022C0E0E405
:1005D30093A3D39C5010E493A3C39C400AD0E0D0D0
:1005E300E0D0E00205C3A3A3A3D0E022C0E0E493DC
:1005F300A36C7009D0E0D0E0D0E00205C3A3A3D080
:10060300E02253CBEFC2D843CB0475F00DEAA4F537
:10061300CD74FC55CB4402F5CB43CB10A2D850FC90
:1006230053CBEFC2D82274F71203EB750840750958
:100633000078081205321209C01203AA90DF36E0CF
:1006430054EF64816004C2AF80FE90DF37E0C3944F
:10065300045004C2AF80FE53BEFBE5BEA2E650FACF
:1006630053C6BF43BE0474F1F5D575D445743C90AD
:10067300DF13F0741490DF14F0743D90DF02F07414
:100683000590DF04F074FE90DF2EF0740990DF25EF
:10069300F0740A90DF07F0E490DF08F0745D90DFF8
:1006A30009F0744490DF0AF074EC90DF0BF0742DC2
:1006B30090DF0CF0743B90DF0DF0747390DF0EF05D
:1006C300742390DF0FF0743B90DF10F0E490DF11A0
:1006D300F0741D90DF15F0741C90DF16F074C79052
:1006E300DF17F0E490DF18F074B290DF19F074B6FE
:1006F30090DF1AF0741090DF1BF012140174119044
:10070300DF1FF0748890DF23F0743190DF24F074DE
:100713000290F100F07900120ADC7E007F0075E19F
:10072300027508E875090390DF3CE0545070237AA2
:10073300407B00120A51E50824C0F508E50934FF9F
:10074300F509C3E5089401E5099400A2D265D03305
:1007530050D57A10EEC333FEEF33FF90DF3AE0A2B9
:10076300E0E492E04EFE1AEA70EA74804EF5BCEFC4
:10077300F5BC120A2A90F1417414F0A3E4F090F14D
:100783004374FAF0A3E4F0439A01D2AF020B0B7463
:10079300F71203EBEAFEEBFF890975080090F100FD
:1007A300E064017004C2AF80FE120A2AEF90F145A3
:1007B300F0EE90F146F074DF90F147F074D990F1C8
:1007C30048F07420120A19744190F14CF0E5097055
:1007D3001143D60175E103E5E9A2E450FA53E9EFC9
:1007E300807D740165096004C2AF80FE75090480D1
:1007F3001D120A2A43B404740F55BC04FE90F1433E
:10080300E0FAA3E0FB120A511EEE70F1150943D67C
:100813000175E10290DF3BE0640D70F87EE87F0331
:1008230090DF3CE05450701D7A407B00120A51EE79
:1008330024C0FEEF34FFFFC3EE9401EF9400A2D275
:1008430065D03350DB75E10390DF3BE0640D600856
:10085300E5E9A2E450FA8085E5097095750801126F
:100863000A2A90F100E0640370031209CEA908027A
:100873000B0BC0E074F112048390F100E064036099
:1008830004C2AF80FEE5E9A2E4502BE5E9A2E650FD
:100893002553E9EF53E9BF539BFCE59B120A2A75E5
:1008A300083E75090078081205321209C01203AA1E
:1008B3001209CE0209BB53E9EF539BFCE59B750874
:1008C30002750900780812053290F101E004240151
:1008D300FCE434F1FD7A3F7BF11217E47402120356
:1008E300AAE0FA90F140E0A2E740030209AA8A08CD
:1008F30074012508F8E43400F9E8943FE99400C34F
:1009030065D03340030209AAEAC3940850030209DD
:10091300AA90F14DE0704490F13FE0F9120A95E995
:10092300F090F140E0C2E7F090F1017CD87DF274E1
:10093300401202CA90F2E2E0FA90F2D8E0F874F8BA
:1009430028F874FF3400F97402687001E9704D747B
:100953007F6A7048740190F321804B7C007B007A9E
:10096300008A82A882E82402F582E434F1F583E068
:10097300FD1213F6E06D70010CE82415F582E434E2
:10098300F4F583E06D70010B0AEAC3940440D2745A
:10099300046B608374046C700E02091A747E6A70AF
:1009A30006740190F320F075083E780812053212A0
:1009B30009C01203AA43D6017F020204E27C007D30
:1009C300007A017BF112188374022274F71203EB8D
:1009D30074DF90F145F074D990F146F074F190F121
:1009E30047F0740190F148F07480120A1974119061
:1009F300F14CF075D68175083E750900780812052B
:100A0300321209C01203AA43D601120A4875E10241
:100A1300439110020B0B90F149F0744090F14AF0AE
:100A2300741390F14BF022C082C0835391EF75E1B0
:100A33000490DF3BE0640170F875D68153D1FE1258
:100A43000A48020E4F539BFCE59B53E9EF2274F7D0
:100A53001203EB8A088B0974047808120385AE0825
:100A6300AF09EA7001EB6028A2AFE492E0F508C297
:100A7300AF7A107B00120605E508A2E092AFEEF80C
:100A8300EFF974FF281E74FF39FFE87001E970D88D
:100A93008076C008C009E9C39480E94019F879FF5A
:100AA3007A027B001203248808890974B92508F89F
:100AB30074FF3509800BC313F874B928F874FF3435
:100AC30000F9C3E89480E994FFA2D265D0335002C1
:100AD3007880E8F9D009D0082274F71203EB89086B
:100AE300E9C394044004C2AF80FE120A2AE5082435
:100AF30019F582E434F4F583E090DF06F090F10019
:100B0300E0640370031209CE7F0202044BA2AFE438
:100B130092E0FA7B00C2AF22EAA2E092AF22EBC3DB
:100B230013FBEA13FAC3EA9402EB940040140000A7
:100B33000000000000000000EA24FFFAEB34FFFB92
:100B430080E32274F81203EBEAFEEBFFEEF8EFF911
:100B530074FF28FE74FF39FF740068700374006922
:100B630060097AE87B03120B2180E17F0102044BC9
:100B7300D2B943E40222C0E074F212048390F14E2E
:100B8300E07002A3E0600E90F14EE0F8A3E0F5837D
:100B930088821203E9020F507A007B007901120C5C
:100BA3000C7A007B007902120C0C2274F81203EB0E
:100BB30074FD120394EBFEEAC3941140027A0F749E
:100BC30076851082851183F074011203DFE4F074DB
:100BD300016970047880800278C0E82AC0E074025A
:100BE3001203DFD0E0120CAD7476F074011203DF50
:100BF3007440F0EEF9120D9274021203DFE9120C45
:100C0300AD74031203AA0213F174F51203EB74CE4D
:100C1300120394EAFEEBFFEE7001EF606A747685CF
:100C23001082851183F074011203DFE4F07401690B
:100C3300700974021203DF7480800774021203DFE9
:100C430074C0120CAD7509007476F074011203DFE1
:100C53007440F07508028003120C8F85090A120D87
:100C6300186007E509C3941040EEE509C3941050DA
:100C7300077920120C8F80F2A908851082851183D1
:100C8300AA82AB83120CBE7432020D10120D928530
:100C9300080A851082851183E582250AF582E5839A
:100CA3001211E6E9F00508050922F079038510829F
:100CB300851183AA82AB83120CBE2274F51203EB57
:100CC300EAFEEBFF8909A29250FCA2A050F853F46C
:100CD300FBC29243FE04120E547900120D377508BD
:100CE30000800E85080A120D18120D4BE960F405F9
:100CF30008E508C3950940EBA29240FCA2A050F876
:100D0300120D21120E547901120D3780031203AA1A
:100D13007F0402044BEE250A1211E3E0F922790065
:100D2300120D3753F4FB120D2D2253FEFB53F6FB2A
:100D330053F7BF22E953F5FE7007C2A043FF0180BA
:100D43000312103E120E542274F81203EBE9FF7ED5
:100D5300087900120D37120E54EFA2E753F4FB503B
:100D630005120D2D8005C29243FE047901120D3741
:100D7300120E54EFC333FF1EEE70D6120D2179010C
:100D8300120D37A292E492E0F45401F90213F1C078
:100D930082C083E9C39461E9400CC3947B502B74F4
:100DA3008029F9020E4AC39441E94007C3945B507A
:100DB3001980ECC394204006E9C3942440E1E9C3BD
:100DC30094254006E9C3944040D5E91205A60011D5
:100DD300103C0E11400E12440E13480E24080E4010
:100DE300140E5B180E5D1C0E5F200EA3100EA70CD5
:100DF3000EC5380EC6300ED8340EE52C0EE6240E82
:100E0300F8280E4A0E7982803E79DF803A79818014
:100E13003679808032798A802E7954802A795A8073
:100E230026799D8022798C801E798F801A799C8007
:100E330016798B8012798E800E7910800A79208042
:100E43000679128002793080031203AAD083D082FC
:100E5300227A01EA1A70FC22C082C08353FF3FE565
:100E6300FF85FFFF53F1FE43F30CE5F353F4F3E582
:100E7300F453F2F3E5F275868043C480E9120570FA
:100E830004019B0E8B0E930E75C28375C50A800EEB
:100E930075C22275C50B800675C22275C50C7A50C2
:100EA3007BF11210C8D2E97A137BF21210C853F304
:100EB300DFD28543FD2043C402C28B438640D2AABE
:100EC3007901120F16808574F71203EB8A828B83E4
:100ED3008C088D097E007F008026EEFAE508C39A10
:100EE300F9E5822EFCE5833FFD7A137BF21210F2C3
:100EF300E9F8EE28FEEF3400FF7A057B00120B467B
:100F0300C3EE9508EF950940D1439A04EEFAEFFB3F
:100F1300020B0BE96003C28522D28522C0E074F282
:100F230012048374FF120394C28BE5C1851082857A
:100F33001183F0E586FA74185A700D7901AC82AD0D
:100F4300837A507BF11210F274011203AA7F01021B
:100F530004E2C0E074F212048374FF120394C2E942
:100F63007901851082851183AC82AD837A137BF27C
:100F7300121166E964017003E0F5C190F2D3E070E9
:100F830003539AFB80C2C082C08374F81203947423
:100F93008055C6FA53BEFB53C6BFE5C6A2E640FA68
:100FA3008AC6E5C66A70FB43BE0453F4FEC290438F
:100FB300FE0153F4F7C29343FE08D290D29353F346
:100FC300FD53FDFD438F0253F3BF53FDBF438F40DA
:100FD30053F3DF53FDDF438F20120D2653F5FE122B
:100FE300103E7476851082851183F074011203DF3D
:100FF300E4F074021203DF740CF074031203DF7461
:1010030021F074041203DF74A0F074051203DF747B
:1010130007F074061203DF7434F074071203DF74ED
:1010230001F07908851082851183AA82AB83120CA3
:10103300BE120B9BD2AF7408020E4C53FFFE53F744
:10104300FE53F77F2274F71203EB7907E9FA43F2B1
:1010530040C28D75B696A28D50FCE5BBF953F2BF25
:10106300747F59F9E4C990F2D6F0A3E4F090F2D674
:10107300C3E09410E494004009C3E0947DE4940039
:101083004003098023C3E09440E4940050030980A3
:10109300F1C3E09460E4940050030980F1C3E09449
:1010A30070E4940040027904EA6970A0020B0B74A7
:1010B30001697006639001E590227403697005630A
:1010C3009008E5902274F71203EBEAFEEBFF120B94
:1010D30010EE24C01210ECEE24C11210ECEE24C268
:1010E3001210EC120B1B020B0B1211E3E4F022742F
:1010F300F31203EBEAFEEBFF8C088D09890C120B4C
:10110300101211C3F8850C0AE50A28F8E43400F933
:10111300E894C0E99400C365D033750D0050368060
:101123002624C2F8EF3400F9850D0AE508250AF5EF
:1011330082E5091211E6E0C0E01211D7D0E01211E6
:10114300CB7002E4F0050DE50DC3950CEE40D21211
:1011530011C4250DF0120B1BA90D8002EEF97F06B9
:1011630002044B74F31203EBEAFEEBFF8C088D09C8
:10117300890B120B10750A008027EE24C1F8EF3497
:1011830000F91211D7E0C0E0850A0CE508250CF53B
:1011930082E5091211E6D0E01211CB7002E4F005EA
:1011A3000AE50AC3950B500A1211C3FCE50AC39C56
:1011B30040C81211C3C3950AF0120B1BA90A809EE3
:1011C300EE24C01211E3E022F088828983E004F068
:1011D300E064C02288828983E0FCEE2C1211E322B2
:1011E300F582EF3400F5832274F51203EB74E212F7
:1011F3000394EAFEEBFF90F3A1C082851082851170
:1012030083AC82AD837583F3D082741E1202CAF558
:101213000A750B0102129AE50B607575080E7509C4
:1012230000780812053212130BE0FCA3E0FD7403EF
:101233001203DFAA82AB8312195074021203AA8528
:101243001082851183AA82AB837902120C0C7B3C3A
:101253007A007902120BAE7B3E7A0F7902120BAE43
:10126300750B00750800121048E9640460067508E0
:1012730000750900E5082401F508E5093400F509BE
:10128300C3E50894F4E5099401A2D265D03340D6AE
:101293007A0A7B00120B46A281402E78007900A2C5
:1012A30081400478007900E8240108E93400F9C397
:1012B300E894F4E99401A2D265D03340E212130B0F
:1012C300A3A3E0F9741E020D10121048E964037021
:1012D300197401250AC0E08E828F83A3A3E0F5F081
:1012E300D0E084E5F0F50A02121E121048E9640208
:1012F300600302121AE50A700A8E828F83A3A3E0A9
:101303001480E2150A02121EE50A75F003A4F8A977
:10131300F08E828F83E028FAA3E0398A82F5832254
:1013230074F81203EBE9FE740790F31CF074209039
:10133300F31DF0EA90F31EF0EB90F31FF0740790A7
:10134300F318F0742090F319F0EC90F31AF0ED9089
:10135300F31BF0E490F320F090F321F090F322F0EC
:1013630090F323F0120629E5C6A2E65004C2AF802B
:10137300FE90F100E064017014121401740290F104
:1013830000F075E10490DF3BE0640170F8EEF912C0
:101393000ADC90F100E064017004C2AF80FEE064F7
:1013A3000360067403F01209CE90F31CE064FF603F
:1013B30025E090DF05F07A008A82A882E8241CF5F4
:1013C30082E434F3F583E0C0E01213F6D0E0F00AD0
:1013D300EAC3940440E290F41DE064FF7004C2AFDA
:1013E30080FE740190F14DF0740790DF03F07F01EC
:1013F30002044BE8241DF582E434F4F5832274EAF5
:1014030090DF1CF0740A90DF1DF0E490DF1EF022E1
:1014130074F31203EB8A0C8B0D90F320E07003023C
:1014230014B7120B10EAF50890F2D8E024F6FE90F8
:10143300F2E1E090F323F090F2E2E0FF8E0A750B05
:1014430000780A1205327CE37DF2AA0CAB0D12156B
:10145300841203AAE490F320F0747E6F704DEE6063
:101463004A120B10EAFF740A90F2D8F0750A047856
:101473000A12053212157C1203AA780A1205327C6D
:101483001C7DF37ADD7BF21215841203AA90F323F9
:10149300E090F2E1F0747F90F2E2F0EFFA7B001259
:1014A3000B1B79007AD87BF2120792AA087B0012F1
:1014B3000B1B80027E0002115F74F31203EB8A0C94
:1014C3008B0D89088C09120B10EAFF740A2508900A
:1014D300F2D8F0750A04750B00780A12053212155A
:1014E3007C1203AA780A1205327C1C7DF37ADD7B19
:1014F300F21215841203AA90F322E090F2E1F07441
:101503007E90F2E2F085080A780A120532AC0CAD3F
:101513000D7AE37BF21215841203AAEFFA7B001211
:101523000B1B7F00801A7E0143B404E5BC75F04EAB
:10153300A4F8A9F0742028FA744E39FB120B210F7A
:10154300EFC39509503079017AD87BF2120792E9FB
:10155300FE70EC75081480097A017B00120B4615A6
:101563000890F321E07004E50870EDE060B8E4F062
:1015730090F322E004F002115F7C187DF37AD97BAB
:10158300F212179C740222E490F385F0120F897A09
:10159300007904120E5B43E40CE5E475DB6675DA4F
:1015A3006053E4EFC2B9A2AFE492E0F8C2AF90F1A6
:1015B3004E748FF0A37417F0E8A2E092AF120B9B66
:1015C3007ABF7BF37901120C0CC2907ACD7BF3794D
:1015D30001120C0C7A2A7BF41211EBE990F384F0DC
:1015E300120B9BE070487ADB7BF37902120C0C90B0
:1015F300F38274EB1216C774DEF0A37425F079003E
:1016030090F380E0FCA3E0FD90F382E0FAA3E0FB1B
:101613001213237ABF7BF37901120C0C90F37EE44F
:10162300F0A3F090F37CF0A3F0120B7380436401FA
:1016330070157AEA7BF37902120C0C90F38274DE54
:101643001216C774EB80B2E0640270B27AF97BF3CE
:101653007902120C0C80BCEAFEEEF97C247DF37A4D
:10166300507BF1121166EEFC7D007A247BF3120E9F
:10167300CA90F384E06402701090F210E0FA60F90B
:10168300C3942D40D27E2C80D01216D090F320E04C
:1016930060DF12173A7A507BF3121413E9FA6017DA
:1016A3008A82FC7D007A507BF3120ECA8A08E58297
:1016B30065087001EB600690F37E121747790112FB
:1016C3000F1680ADF0A37425F090F3802274F81206
:1016D30003EB90F210E0FEC3942C500990F385E0E5
:1016E3006052EE604F12173AEEC3942C5004EEFF93
:1016F30080027F2CEFF97C247DF37A507BF1121169
:101703006679031210B27C05EFF97A247BF3121485
:10171300BCE9600690F37C1217477901120F165348
:10172300E4FDC2B975E20043E402D2B9120B73E4DB
:1017330090F385F00213F17900120F167AE87B0318
:10174300120B2122E02401F0A3E03400F01217541D
:1017530022C082C08374EF12039490F37E12054378
:1017630090F37C1205437C087DF474041203DFAA12
:1017730082AB831218DA74041203AA851082AA8238
:10178300AB837903120C0C7411020E4CC082C0831C
:10179300740190F385F0020E4F74F71203EB740992
:1017A3001203DFE0FEA3E0FFEAF8EBF980188C8276
:1017B3008D83E088828983F0A3A882A9838C828D9C
:1017C30083A3AC82AD838E088F0974FF25081E7432
:1017D300FF3509FFE5087002E50970D27F020204B4
:1017E3004B74F71203EB74091203DFE0F8A3E0F97B
:1017F300EAFEEBFF8A088B09C3EA9CEB9D405EEC93
:1018030028F582ED39F583C3E5829508E5839509CB
:10181300404BEA28FAEB39FBAC82AD8312187270A5
:1018230002E5096041EC24FF1CED34FFFDEA24FFCF
:101833001AEB34FFFB8C828D83E08A828B83F080EA
:10184300DB8C828D83E08A828B83F08C828D83A3F1
:10185300AC82AD838A828B83A3AA82AB8312187274
:101863007002E50970DBEEFAEFFB7F0202044B889E
:1018730008890974FF25081874FF3509F9E508225A
:1018830074F81203EB74081203DFE0F8A3E0F98A9B
:10189300828B838003ECF0A3E8FEE9FF74FF2E182C
:1018A30074FF3FF9EE7001EF70EB7F0102044BC050
:1018B30082C0838A828B83121947E9F08A828B83E1
:1018C300E02401F8A3E03400F98A828B83E8F0A3D3
:1018D300E9F0D083D0822274F71203EB74FC120375
:1018E3009474021203DFEAF0A3EBF0ECFAEDFB745D
:1018F3000D1203DFA882A983851082851183E8F086
:10190300A3E9F08510828511838582088583097890
:101913000812053274041203DF858208858309786F
:10192300081205327CB27D181219B774041203AA87
:1019330074021203DF121947E4F074041203AA7F3E
:101943000202044BE0F8A3E0F58388822274F712C5
:1019530003EB74091203DFE0FEA3E0FFEAF8EBF9FF
:101963008E088F0974FF25081E74FF3509FFE508EB
:101973007002E50960358C828D83E0A3AC82AD8370
:101983008A828B83F0A3AA82AB8370D4EEFCEFFD33
:1019930074FF2C1E74FF3DFFEC7001ED600DE48AB3
:1019A300828B83F0A3AA82AB8380E1E8FAE9FB7F11
:1019B3000202044B74F11203EB74B2120394851008
:1019C300828511831222C174101203DFECF0A3EDA0
:1019D300F0740B1203DFE4F0A38022745D1203DFC3
:1019E3001221F774041203DFE0F974101203DF12FB
:1019F30022201203E9740B1203DF1222D5F0122204
:101A0300F91203DFEAF074256A6015E070CD740BF8
:101A13001203DF1221F7744E1203AA7F0802044B4C
:101A230012222D6425700F1222DE745D1203DF1261
:101A330021F7792580B4740F1203DFE4F0740E12DA
:101A430003DFE4F074081203DFE4F074071203DF2A
:101A5300E4F0741C1203DFA882A98374021203DF6B
:101A63001222F3741A1203DF742DF0A374F4801995
:101A730074071203DFE0700774071203DFEAF085CF
:101A83001082851183E8F0A3E9F012227BFA120594
:101A9300A6000520731A23B01A2B7B1A2DA71A3020
:101AA300B41AB81A74081203DFE00480D1740E80EC
:101AB300F5740F80F1851082851183122247E0644B
:101AC3002A7053745F1203DF1222471221F78A82AE
:101AD3008B831221F174091203DFECF0A3EDF012F2
:101AE30021D81203DF1222BE74091203DF12226A05
:101AF300501F74091203DF1221F7C3E49AFAE49B1F
:101B0300FB74091203DF1222C174081203DFE0041D
:101B1300F01222ED802674091203DFE4F0A3801093
:101B230074091203DF12229974091203DF12233797
:101B33001223264007E508C3943A40E474081203CD
:101B4300DFE06007740F1203DFE4F012222D642E2E
:101B5300705C1222DE12222D642A702C745F120331
:101B6300DF122240F9888289831221F77405120358
:101B7300DF1222C1E824020808E91221D21203DF8E
:101B8300122247122337802F74051203DFE4F0A3D8
:101B93001223264023E508C3943A501C740512030C
:101BA300DF12229974051203DF12233780E27405D2
:101BB3001203DF74FFF0A3F07C0012227B1205A650
:101BC30000034CD01B68D11B6CD01BD41B0C1222FE
:101BD300ED1222F91203DFEAF01205A6016567533D
:101BE300200D00702045532047532058681D63572C
:101BF3001C64F61D69F61D6E0E1C6F3D1D70681D7D
:101C0300738B1C75681D785C1D7C20745F1203DF69
:101C1300122265602E740B1203DF1221F13395E05B
:101C2300FE8A828B83122220ECF0A3EDF0A3EEF068
:101C3300A3F0745F1203DF1222701203DF12225427
:101C4300021A00740B1203DF12220E8A828B831294
:101C5300225480DD745F1203DF122240F5838882F1
:101C6300E0C0E0741C1203DFD0E0F0745F1203DF06
:101C73001222701203DF1222471222F3741D120381
:101C8300DFAA82AB8302208C745F1203DF12225C13
:101C93008A828B8312220E1221D81203DF1222BEF4
:101CA30074021203DF1222F3E87001E9700C74026C
:101CB3001203DF743EF0A374F4F074051203DF1211
:101CC300226A500C74051203DF7410F0A37427F01A
:101CD3007E007F008008EE24010EEF3400FF7402C3
:101CE3001203DF12220E88828983A3AA82AB837434
:101CF300021203DF1222C188828983E06014740513
:101D03001203DF12220EC3EE98EF99A2D265D033ED
:101D130040C474021203DFE024FFFAA3E034FFFBA4
:101D2300C3E49EF8E49FF9EA28F8EB39F974021248
:101D330003DFE8F0A3E9F002208C740E1203DFE066
:101D4300601774051203DFE07002A3E0700B7405E3
:101D53001203DF7401F0A3E4F0741A1203DF744D6D
:101D6300F0A374F4F0745F1203DF12225C740412A4
:101D730003DFE0647070358A828B831222141203AE
:101D8300DF1223181221D01203DF1222471222F38B
:101D930090F485780812029F74161203DF780812F4
:101DA30002AE74071203DFE4F0021E79EC8A828B21
:101DB300836014780812029F74121203DF780812EA
:101DC30002AEEA240480091222141203DF1223183C
:101DD3001221D01203DF1222471223101203DFE075
:101DE300646F700590F48980AAE0647570A290F422
:101DF3008D80A0745F1203DF1222658A828B836059
:101E03000A780812029FEA24048011E0F508A3E08F
:101E1300F5093395E0F50AF50BEA24021221D012F5
:101E230003DF1222471222F374121203DF7808121F
:101E330002AE90F491780C12029F780C790812028A
:101E430009502174071203DF742DF074121203DF9B
:101E5300780812029F780812028E74121203DF7838
:101E6300081202AE90F48D780812029F74161203C2
:101E7300DF78081202AE744D1203DFA882A98374BF
:101E8300021203DF1222F3744D1203DFAA82AB8323
:101E930074121203DFC082C08390F4917808120297
:101EA3009FD083D08278081201F46009740D120365
:101EB300DF74018006740D1203DFE4F0740512036E
:101EC300DFE07002A3E0700B740D1203DFE0700318
:101ED300021FB474021203DF1222071203DF12225D
:101EE300F374121203DF780C12029F74161203DFCD
:101EF300780812029F780C790812021E741A1203D2
:101F0300DFE02508FCA3E035098C82F583E0C0E01F
:101F130074021203DF122220D0E0F074121203DFE6
:101F2300780C12029F74161203DF780812029F784E
:101F33000C790812021E74121203DF780C1202AE1F
:101F430074121203DFC082C08390F49178081202E6
:101F53009FD083D08278081201F46003021ED674E6
:101F6300051203DF12226A5048740F1203DFE06088
:101F73004074071203DFE06004D2F08002C2F07401
:101F8300091203DFA2F0E492E0F8E0C398F8A3E0BB
:101F93009400F974051203DFE8F0A3E980127402D8
:101FA3001203DF1222F374021203DF1222207430B1
:101FB300F074021203DF1222071203DF1221F18BE6
:101FC300838A82E582C39CFEE5839DFF7405120329
:101FD300DF1221F1C3EE9CEF9DA2D265D03340BE48
:101FE300740E1203DFE0700302208C740D1203DF02
:101FF300E0700302208C74041203DFE06478600550
:10200300E06458703774021203DF1223101203DFE7
:10201300E0C0E074021203DF122220D0E0F0740269
:102023001203DF1221E4F974021203DF1222F374A4
:10203300021203DF1222207430021D39E0646F7034
:102043004874021203DF1222C7E06430603B80D77A
:1020530074021203DF745EF0A374F4F07A5EFB8AF9
:10206300828B83E06023A3AA82AB8380F2851082F4
:102073008511831221E41222EC74021203DF7481AE
:10208300F0A374F4F07A847BF474021203DF122257
:102093000EEAC398F8EB99F974051203DF1222F3E1
:1020A30074091203DFC082C08374051203DFE0F8F2
:1020B300D083D082C3E098A3E099A2D265D03350F5
:1020C300067E007F00802974071203DFE06004D2DC
:1020D300F08002C2F074091203DFE0C398F8A3E0B2
:1020E30099F9A2F0E492E0FAE8C39AFEE99400FFBA
:1020F30074081203DFE070208019745D1203DF128D
:1021030021FD1203DF1222201203E9740B1203DFF5
:102113001222D01221BF50E274071203DFE060568F
:10212300745D1203DF1221F774071203DFE0F97401
:10213300101203DF1222201203E98032745D1203AE
:10214300DF1221F774021203DF122233F974101223
:1021530003DF1222201203E974021203DFE02401D9
:10216300F8A3E03400F974021203DF1222F3740BB4
:102173001203DF1222D074051203DFE024FFF0A361
:10218300E034FFF074051203DF12226A50AE7408C4
:102193001203DFE07003021A011221BF5003021A77
:1021A30001745D1203DF1221FD1203DF12222012DC
:1021B30003E9740B1203DF1222D080DDEE24FF1E2D
:1021C300EF34FFFFC39400A2D265D03322F8EB347F
:1021D30000F9745F22EA24020A0AEB3400FB745FFD
:1021E300221221E822E024FFF8A3E034FF22E0FCDE
:1021F300A3E0FD22E0FAA3E0FB22E0FAA3E0FB79EF
:10220300207410221221E8F9740222E0F8A3E0F905
:1022130022E0F8A3E0F9E8FCE9FD7412221222247B
:1022230022E0F8A3E0F5838882228510828511835A
:102233001222372212223B22122224E022122237B8
:10224300F8A3E02212224B22E0FAA3E0F5838A826C
:102253002212224BE8F0A3E9221222602212223B2F
:102263008093122260EC22C3A3E00221C81222371A
:102273002402F8A3E00221D2851082851183E012A3
:10228300228A12224BE0222401F8A3E03400F985CC
:10229300108285118322E0F8A3E0F9E875F00AA41F
:1022A300F8AAF075F00AE9A42AF9E82508F8E93450
:1022B30000F974D028F874FF39F9221222C7EAF022
:1022C300A3EBF022E0FCA3E0F5838C82221222D55B
:1022D300F022E02401F0A3E034002285108285116E
:1022E30083E0240108A3E03400F98510828511837B
:1022F300E8F0A3E9F022851082851183122237FAD0
:10230300851082851183E024010812228DE8F0A351
:10231300E9F0740422ECF0A3EDF0A3E4F0A3F0EAF7
:10232300240222122344F8A3E0F5838882E0F5080F
:10233300C3943022E8F0A3E912234412228A022232
:0A23430057F0851082851183E02217
:04000005000000D324
:00000001FF
