:020000040000FA
:030000000200D328
:03004B000209D0D7
:100083000206D100000080FB1200E2B90003020067
:10009300CDE490F10078AC79018002F0A3D8FCD9CB
:1000A300FA90F1ABAA82AB839000E5786279018084
:1000B30015E493A3AC82AD838A828B83F0A3AA82D7
:1000C300AB838C828D83D8E9D9E71211071200869E
:1000D30075D0007581BF7510007511F102008B7921
:1000E300012220202020204D4F5553452020002061
:1000F3002020204B4559424F4152442000202020CC
:1001030020000000000000000000000000000000CC
:100113000000000000000000000000202020204D0F
:1001230052464920484944202000FFFFFFFF036750
:10013300CAD4FF000000ABF100B8F101FFF1024F98
:1001430012B511CAC0E0E6F0A308DAFAD0E0FA2249
:10015300CAC0E0E0A3C582CCC582C583CDC583F008
:10016300A3C582CCC582C583CDC583DAE6D0E0CAF8
:1001730022C3E498F8E499F91201B58026C3E49AFE
:10018300FAE49BFBE920E7E91201B5E498F8E49966
:10019300F922C3E498F8E499F91201B5E498F8E474
:1001A30099F9C3E49AFAE49BFB22EB20E7CFE92019
:1001B300E7E0B90010BB0008E88AF084F8AAF0224F
:1001C300E4FBC8FA22EB70227B10C833C8C933C9D9
:1001D300335007C39AC3DBF280069A50012ADBEA45
:1001E300C833F4C8C933F4C9FA2275F008E4C83334
:1001F300C8C933C933C99AC99B5004C92AC93BD555
:10020300F0ECFBC833F4C8E4C9FA22600C08C6C397
:1002130013C618C613C6D5E0F422251010AF08F58F
:1002230010400215118008F51040021511D2AF22BB
:10023300C0D0251010AF08F510500205118008F545
:100243001050020511D2AFD0D0222510F58210AF85
:1002530008F510400215118008F51040021511D25F
:10026300AF851183222510F582E43511F58322E44D
:10027300732510C582C0E0E51134FFC583C0E0E5F6
:1002830010C3958224F9F8E4C5A8858311858210EB
:10029300C5A8E8CEF0A3E520F0A37808E608F0A30C
:1002A300DEFAEFF0A3E58124FBF8E608F0A3E60805
:1002B300F0A30808E608F0A3E608F0A3158115816A
:1002C300D0E0FED0E0F815811581E8C0E0EEC0E093
:1002D30022851183851082E0A3FEE0A3F520780830
:1002E300E0A3F608DFFAE0A3FFE0A3C0E0E0A3C0C9
:1002F300E0E0A3C0E0E0A3C0E0E4C5A885821085E8
:100303008311C5A8D083D08222C0D02510C582C056
:10031300E0E51134FFC583C0E0E510C3958224F303
:1003230010AF08858311858210800885831185822B
:1003330010D2AFC8F0A3E9F0A3EAF0A3EBF0A379DE
:1003430008E709F0A3D8FAECF0A3EDF0A3EEF0A3CD
:10035300EFF0A3D0E0F0A3D0E0F0A3D0E0F0A3E56A
:1003630020F0A3E5F0F0A322851183851082E0C07D
:10037300E0A3E0F9A3E0FAA3E0FBA37808E0F60822
:10038300A3DFFAE0FCA3E0FDA3E0FEA3E0FFA3E00C
:10039300C0E0A3E0C0E0A3E0F5D0A3E0F520A3E034
:1003A300A3F5F0E4C5A8858311858210C5A8D08282
:1003B300D083D0E0F8D0E03274028000C0E0F404CF
:1003C30012024DD0E012014622D083D082C5F0E460
:1003D30093A3C5F0C395F0F5F0E493A3C395F04060
:1003E30005E5F0048001E475F002A42582F582E5B9
:1003F300F03583F583E493A3C0E0E493C0E022D017
:1004030083D082CCC0E0E493A3600612042C147062
:10041300FAE493A3600612044B1470FAD0E0FCE4F0
:1004230093A3C0E0E493C0E022C0E0E493A3D39C91
:100433005010E493A3C39C400AD0E0D0E0D0E00284
:10044300041FA3A3A3D0E022C0E0E493A36C70092C
:10045300D0E0D0E0D0E002041FA3A3D0E02253CB2E
:10046300EFC2D843CB0475F00DEAA4F5CD74FC5567
:10047300CB4402F5CB43CB10A2D850FC53CBEFC2F5
:10048300D82274F7120274750840750900780812AF
:1004930003BB12081C12023390DF36E054EF648171
:1004A3006004C2AF80FE90DF37E0C394045004C2FF
:1004B300AF80FE53BEFBE5BEA2E650FA53C6BF4370
:1004C300BE0474F1F5D575D446743C90DF13F07413
:1004D3001490DF14F0743D90DF02F0740590DF0494
:1004E300F074FE90DF2EF0740990DF25F0740A900B
:1004F300DF07F0E490DF08F0745D90DF09F07444E7
:1005030090DF0AF074EC90DF0BF0742D90DF0CF0A9
:10051300743B90DF0DF0747390DF0EF0742390DF63
:100523000FF0743B90DF10F0E490DF11F0741D9036
:10053300DF15F0741C90DF16F074C790DF17F0E43A
:1005430090DF18F074B290DF19F074B690DF1AF0F0
:10055300741090DF1BF0121023741190DF1FF074DE
:100563008890DF23F0743190DF24F0740290F1015E
:10057300F0790012093C7E007F0075E1027508E8FE
:1005830075090390DF3CE0545070237A407B0012DE
:1005930008AEE50824C0F508E50934FFF509C3E50D
:1005A300089401E5099400A2D265D03350D57A109E
:1005B300EEC333FEEF33FF90DF3AE0A2E0E492E0D4
:1005C3004EFE1AEA70EA74804EF5BCEFF5BC1208D1
:1005D3008590F1427414F0A3E4F090F14474FAF0BE
:1005E300A3E4F0439A01D2AF0208F074F712027445
:1005F300EAFEEBFF890975080090F101E0640170E0
:1006030004C2AF80FE120885EF90F146F0EE90F140
:1006130047F074DF90F148F074D990F149F07420F9
:10062300120874744190F14DF0E509701143D6013D
:1006330075E103E5E9A2E450FA53E9EF807D740123
:1006430065096004C2AF80FE750904801D12088528
:1006530043B404740F55BC04FE90F144E0FAA3E0E4
:10066300FB1208AE1EEE70F1150943D60175E102C7
:1006730090DF3BE0640D70F87EE87F0390DF3CE0A1
:100683005450701D7A407B001208AEEE24C0FEEF7A
:1006930034FFFFC3EE9401EF9400A2D265D0335030
:1006A300DB75E10390DF3BE0640D6008E5E9A2E45C
:1006B30050FA8085E509709575080112088590F157
:1006C30001E06403700312082AA9080208F0C0E0DD
:1006D30074F112030C90F101E064036004C2AF8073
:1006E300FEE5E9A2E4502BE5E9A2E6502553E9EF44
:1006F30053E9BF539BFCE59B12088575083E7509BA
:100703000078081203BB12081C12023312082A02D3
:10071300081753E9EF539BFCE59B75080275090025
:1007230078081203BB90F102E0042402FCE434F1E4
:10073300FD7A407BF11213D67402120233E0FA9071
:10074300F141E0A2E740030208068A087401250884
:10075300F8E43400F9E8943FE99400C365D03340EA
:1007630003020806EAC39408500302080690F14EF8
:10077300E0704490F140E0F91208F5E9F090F1419E
:10078300E0C2E7F090F1027C537DF1744012015313
:1007930090F15DE0FA90F153E0F874F828F874FFF3
:1007A3003400F97402687001E9704D747F6A70480F
:1007B300740190F19C804B7C007B007A008A82A8B4
:1007C30082E82403F582E434F1F583E0FD12101886
:1007D300E06D70010CE824F3F582E434F1F583E075
:1007E3006D70010B0AEAC3940440D274046B6083F6
:1007F30074046C700E020776747E6A70067401903E
:10080300F19BF075083E78081203BB12081C120214
:100813003343D6017F0202036B7C007D007A027BA7
:10082300F112147574022274F712027474DF90F1DA
:1008330046F074D990F147F074F190F148F07402E6
:1008430090F149F07480120874741190F14DF075B1
:10085300D68175083E75090078081203BB12081C7F
:1008630012023343D6011208A575E10243911080A9
:100873007C90F14AF0744090F14BF0741390F14C7A
:10088300F022C082C0835391EF75E10490DF3BE017
:10089300640170F875D68153D1FE1208A5D083D0B8
:1008A3008222539BFCE59B53E9EF2274F7120274F7
:1008B3008A088B097404780812020EAE08AF09EA9D
:1008C3007001EB6028A2AFE492E0F508C2AF7A10A2
:1008D3007B00120461E508A2E092AFEEF8EFF97431
:1008E300FF281E74FF39FFE87001E970D87F020208
:1008F30002D4C008C009E9C39480E94019F879FF1C
:100903007A027B001201AD8808890974B92508F8B9
:1009130074FF3509800BC313F874B928F874FF34D6
:1009230000F9C3E89480E994FFA2D265D033500262
:100933007880E8F9D009D0082274F7120274890884
:10094300E9C394044004C2AF80FE120885E508247D
:10095300F7F582E434F1F583E090DF06F090F101DE
:10096300E06403700312082A8083A2AFE492E0FAE2
:100973007B00C2AF22EAA2E092AF22EBC313FBEAF1
:1009830013FAC3EA9402EB94004014000000000041
:100993000000000000EA24FFFAEB34FFFB80E322AF
:1009A30074F8120274EAFEEBFFEEF8EFF974FF2815
:1009B300FE74FF39FF740068700374006960097A7C
:1009C300E87B0312097E80E17F010202D4C0E07458
:1009D300F212030C90F14FE07002A3E0600990F172
:1009E3004F1211AC1202727F0102036BC082C083EB
:1009F30074F812021D120BE553F5FE120C0A7476FD
:100A0300851082851183F07401120268E4F0740288
:100A1300120268740CF074031202687421F07404F7
:100A230012026874A0F074051202687407F0740669
:100A33001202687434F074071202687401F07908C2
:100A4300851082851183AA82AB83120B807A007B87
:100A5300007901120AC87A007B007902120AC8746D
:100A6300081202330208A074F812027474FD120211
:100A73001DEBFEEAC3941140027A0F74768510824F
:100A8300851183F07401120268E4F0740169700443
:100A93007880800278C0E82AC0E07402120268D02D
:100AA300E0120B6F7476F074011202687440F0EE7A
:100AB300F9120C5B7402120268E9120B6F740312D1
:100AC300023302101374F512027474CE12021DEA7B
:100AD300FEEBFFEE7001EF606A747685108285117C
:100AE30083F07401120268E4F074016970097402FE
:100AF30012026874808007740212026874C0120BB9
:100B03006F7509007476F074011202687440F07511
:100B130008028003120B5085090A120BD36007E504
:100B230009C3941040EEE509C394105007792012CD
:100B33000B5080F2A908851082851183AA82AB83AA
:100B4300120B8074321202337F040202D4120C5B44
:100B530085080A851082851183E582250AF582E5D9
:100B6300833400F583E9F00508050922F07903854C
:100B73001082851183AA82AB83120B802274F51233
:100B83000274EAFEEBFF8909A29250FCA2A050F87E
:100B930053F4FBC29243FE04120D167900120BF6B6
:100BA300750800800E85080A120BD3120C14E96035
:100BB300F40508E508C3950940EBA29240FCA2A006
:100BC30050F8120BE0120D167901120BF6020B4BC3
:100BD300EE250AF582EF3400F583E0F9227900125D
:100BE3000BF653F4FB120BEC2253FEFB53F6FB53B1
:100BF300F7BF22E953F5FE7007C2A043FF0180034C
:100C0300120C0A120D162253FFFE53F7FE53F77F01
:100C13002274F8120274E9FF7E087900120BF612AF
:100C23000D16EFA2E753F4FB5005120BEC8005C23F
:100C33009243FE047901120BF6120D16EFC333FF34
:100C43001EEE70D6120BE07901120BF6A292E4921B
:100C5300E0F45401F9021013C082C083E9C3946124
:100C6300E9400CC3947B502B748029F9020D13C304
:100C73009441E94007C3945B501980ECC39420402E
:100C830006E9C3942440E1E9C394254006E9C394EB
:100C93004040D5E9120402001110050D11090D128F
:100CA3000D0D13110D24D10C40DD0C5BE10C5DE542
:100CB3000C5FE90CA3D90CA7D50CC5010DC6F90C23
:100CC300D8FD0CE5F50CE6ED0CF8F10C130D79826B
:100CD300803E79DF803A7981803679808032798AE3
:100CE300802E7954802A795A8026799D8022798CA6
:100CF300801E798F801A799C8016798B8012798E69
:100D0300800E7910800A792080067912800279306A
:100D13000208A07A01EA1A70FC22748055C6FA53BD
:100D2300BEFB53C6BFE5C6A2E640FA8AC6E5C66A5D
:100D330070FB43BE0453F4FEC29043FE0153F4F729
:100D4300C29343FE08D290D29353F3FD53FDFD4368
:100D53008F0253F3BF53FDBF438F401211A21209F9
:100D6300EFD2AF227900A281401E7800A281400415
:100D730078007900E8240108E93400F9C3E894F421
:100D8300E9120DB240E679012274205580F9601E04
:100D93007A007B00A28550047A007B00EA24010AD2
:100DA300EB3400FBC3EA94F4EB120DB240E6229459
:100DB30001A2D265D0332274F71202747907E9FADB
:100DC30043F240C28D75B696A28D50FCE5BBF95334
:100DD300F2BF747F59F9E4C990F151F0A3E4F090A4
:100DE300F151C3E09410E494004009C3E0947DE41E
:100DF30094004003098023C3E09440E4940050032B
:100E03000980F1C3E09460E4940050030980F1C3C6
:100E1300E09470E4940040027904EA6970A0020847
:100E2300F07401697003C290227403697002C29363
:100E33002274F512027474E212021DEAFEEBFF85BE
:100E43001082851183AC82AD837583F17582C6747C
:100E53001E120153F50A750B01807CE50B60717559
:100E6300080E75090078081203BB120F2DE0FCA3CE
:100E7300E0FD7403120268AA82AB831214A4740205
:100E8300120233851082851183AA82AB8379021201
:100E93000AC87B3C7A007902120A6A7B3E7A0F7990
:100EA30002120A6A750B00750800120DBAE9640490
:100EB3006006750800750900E5082401F508E509D1
:100EC3003400F509C3E50894F4E509120DB240DADC
:100ED3007A0A7B001209A3120D67E96401603F12CD
:100EE3000DBAE9640370197401250AC0E08E828F7C
:100EF30083A3A3E0F5F0D0E084E5F0F50A020E62E7
:100F0300120DBAE964026003020E5EE50A700A8EEE
:100F1300828F83A3A3E01480E2150A020E62120FEC
:100F23002DA3A3E0F9741E020B48E50A75F003A490
:100F3300F8A9F08E828F83E028FAA3E0398A82F53C
:100F4300832274F8120274E9FE740790F197F07427
:100F53002090F198F0EA90F199F0EB90F19AF07407
:100F63000790F193F0742090F194F0EC90F195F0E8
:100F7300ED90F196F0E490F19BF090F19CF090F1FC
:100F83009DF090F19EF0120485E5C6A2E65004C2DE
:100F9300AF80FE90F101E06401701412102374021B
:100FA30090F101F075E10490DF3BE0640170F8EE2D
:100FB300F912093C90F101E064017004C2AF80FEB4
:100FC300E0640360067403F012082A90F197E0646A
:100FD300FF6025E090DF05F07A008A82A882E8248A
:100FE30097F582E434F1F583E0C0E0121018D0E005
:100FF300F00AEAC3940440E290F1FBE064FF70045A
:10100300C2AF80FE740190F14EF0740790DF03F0DD
:101013007F010202D4E824FBF582E434F1F5832254
:1010230074EA90DF1CF0740A90DF1DF0E490DF1E79
:10103300F02274F31202748A0C8B0D89088C091246
:10104300096DEAFF740A250890F153F0750A0475D7
:101053000B00780A1203BB7C937DF17A547BF11267
:10106300138E7402120233780A1203BB7C977DF14C
:101073007A587BF112138E740212023390F19DE0C1
:1010830090F15CF0747E90F15DF085080A780A12A5
:1010930003BBAC0CAD0D7A5E7BF112138E7402129E
:1010A3000233EFFA7B001209787F00801A7E014336
:1010B300B404E5BC75F04EA4F8A9F0742028FA74C2
:1010C3004E39FB12097E0FEFC39509503079017A2F
:1010D300537BF11205EEE9FE70EC75081480097A72
:1010E300017B001209A3150890F19CE07004E50848
:1010F30070EDE060B8E4F090F19DE004F0EEF97F6C
:10110300060202D4120D1D1211A243F340790112FB
:101113000E2479007CDE7D257AEB7B25120F45902A
:10112300F1A8E4F0A3F07AE47BF17901120AC87A1A
:10113300057BF2120E34E9FE7A007BF17903120A81
:10114300C8EE75F003A424FFF582E5F034F1F583CE
:10115300E0FAA3E0FB7902120AC8EEC333FEE433DC
:10116300FFEE2408F582EF34F2F583E0F8A3E0F90B
:1011730090F1A8E8F0A3E9F07903120E247A9F7B9B
:10118300F190F1A81211AC120272E960F07C017ABD
:101193009F7BF11210357A057B001209A380DE5381
:1011A300F3DF53FDDF438F2022E0F8A3E0F58388CC
:1011B300822274F8120274EAFEEBFF750800E48ED3
:1011C300828F83F07402A3121231F0120DBAE91266
:1011D30003CC0003F311E111E611F011EB117508D3
:1011E30018800D7508078008750815800375080FAA
:1011F300120D8CE96003750813120D67E96005751C
:1012030008058004E50860218E828F83A3A3A3E5EC
:1012130008121231A3A312123A12123AA31212495C
:10122300121249A3F0790980027900021013F0E445
:101233008E828F83A3A32212123E22F08E828F838B
:10124300A3A3A3A3A32212123EA3A32274F8120200
:1012530074EAFEEBFF75080074018E828F83F0E45D
:10126300A3A3A3A3F0120DBAE91203CC00030B133B
:101273007B129912C312E3128E828F83A3A3A3E07E
:10128300C39481400790F1AAE0048004E490F1AA9A
:1012930012138302132A8E828F83A3A3A3E0C39422
:1012A3008050118E828F83A3A3A3E0600790F1AADD
:1012B300E0048004E490F1AAF0E0C4540F048067D2
:1012C3008E828F83A3A3E0C39481400790F1AAE0A9
:1012D300048004E490F1AA1213838E828F83804CDE
:1012E3008E828F83A3A3E0C3948050108E828F835A
:1012F300A3A3E0600790F1AAE0048004E490F1AABC
:10130300F0E0C4540F0480D28E828F83A3A3E060E5
:101313000BE48E828F83A3A3F07508018E828F83E3
:10132300A3A3A3E0600CE48E828F83A3A3A3F07531
:101333000801120D8CE98E828F83A36005E0D2E051
:10134300800CE0A2E0500B8E828F83A3C2E0F07585
:101353000801120D67E964018E828F83A37006E092
:10136300D2E1F08012E0A2E150098E828F83A3C202
:10137300E180EFE50860047905800279000210132B
:10138300F0E0C4540FFA74FFC39A2274F712027484
:101393007409120268E0FEA3E0FFEAF8EBF9801893
:1013A3008C828D83E088828983F0A3A882A9838CB1
:1013B300828D83A3AC82AD838E088F0974FF2508C9
:1013C3001E74FF3509FFE5087002E50970D27F023C
:1013D3000202D474F71202747409120268E0F8A3CB
:1013E300E0F9EAFEEBFF8A088B09C3EA9CEB9D4018
:1013F3005EEC28F582ED39F583C3E5829508E58334
:101403009509404BEA28FAEB39FBAC82AD83121401
:10141300647002E5096041EC24FF1CED34FFFDEA32
:1014230024FF1AEB34FFFB8C828D83E08A828B834B
:10143300F080DB8C828D83E08A828B83F08C828DBB
:1014430083A3AC82AD838A828B83A3AA82AB8312EC
:1014530014647002E50970DBEEFAEFFB7F0202020F
:10146300D48808890974FF25081874FF3509F9E53C
:10147300082274F81202747408120268E0F8A3E0F8
:10148300F98A828B838003ECF0A3E8FEE9FF74FF03
:101493002E1874FF3FF9EE7001EF70EB7F0102022B
:1014A300D474F71202747409120268E0FEA3E0FF19
:1014B300EAF8EBF98E088F0974FF25081E74FF35CF
:1014C30009FFE5087002E50960358C828D83E0A38E
:1014D300AC82AD838A828B83F0A3AA82AB8370D460
:1014E300EEFCEFFD74FF2C1E74FF3DFFEC7001ED6D
:1014F300600DE48A828B83F0A3AA82AB8380E1E848
:08150300FAE9FB7F020202D4A9
:04000005000000D324
:00000001FF
