:020000040000FA
:030000000200D328
:03001300020CBB21
:03003B00020CF1C3
:03004B00020A8125
:1000830002077800000080FB1200E2B900030200BF
:10009300CDE4900101789279038002F0A3D8FCD9D2
:1000A300FA900392AA82AB839000E578EA79018003
:1000B30015E493A3AC82AD838A828B83F0A3AA82D7
:1000C300AB838C828D83D8E9D9E71212BF120086E5
:1000D30075D0007581BF75100175110102008B7910
:1000E300012244657669636520310044657669635E
:1000F300652032004C6F6F706261636B004D524636
:1001030049205246206D6F64656D004465766963CE
:100113006520526F6C653A200044657669636520FB
:1001230031207265616479004465766963652032C4
:10013300207265616479004C6F6F706261636B203C
:100143007265616479004572723A202532642F2505
:100153003264000F14191A9203009B0301A40302D3
:1001630007040330313233343536373839414243AB
:1001730044454600286E756C6C20706F696E74651B
:10018300722900303132333435363738396162639E
:1001930064656600464C4F4154533F2077726F6E3F
:1001A3006720666F726D617474657220696E737413
:1001B300616C6C656421003F3F3F00100000000844
:1001C3000000000A00000000000000E06670100854
:1001D300A3E066700A08A3E066700408A3E0662241
:1001E300C3E7960809E7960809E7960809E796A280
:1001F300D265D03322E4CFC0E0E4CEC0E0E4CDC08A
:10020300E0E4CCC0E075F020C3E633F608E633F64D
:1002130008E633F608E633F6181818EC33FCED332A
:10022300FDEE33FEEF33FFC3EC9709ED9709EE972D
:1002330009EF97191919400FFFEC97FC09ED97FD8A
:1002430009EE97FE191906D5F0BEECF709EDF7098B
:10025300EEF709EFF7191919D0E0FCD0E0FDD0E073
:10026300FED0E0FF22E4C396F608E496F608E4968F
:10027300F608E496F622E0F608A3E0F608A3E0F613
:1002830008A3E0F622E6F008A3E6F008A3E6F008E8
:10029300A3E6F022CAC0E0E6F0A308DAFAD0E0FA57
:1002A30022CAC0E0E0A3C582CCC582C583CDC58385
:1002B300F0A3C582CCC582C583CDC583DAE6D0E081
:1002C300CA22600C08C6C313C618C613C6D5E0F409
:1002D30022700422600D18C6C333C608C633C6D5C0
:1002E300E0F41822251010AF08F510400215118014
:1002F30008F51040021511D2AF22C0D0251010AF5F
:1003030008F510500205118008F51050020511D2AE
:10031300AFD0D0222510F58210AF08F5104002159A
:10032300118008F51040021511D2AF8511832225E3
:1003330010F582E43511F58322E4732510C582C0DC
:10034300E0E51134FFC583C0E0E510C3958224F9CD
:10035300F8E4C5A8858311858210C5A8E8CEF0A36B
:10036300E520F0A37808E608F0A3DEFAEFF0A3E5B2
:100373008124FBF8E608F0A3E608F0A30808E608E2
:10038300F0A3E608F0A315811581D0E0FED0E0F8D4
:1003930015811581E8C0E0EEC0E022851183851048
:1003A30082E0A3FEE0A3F5207808E0A3F608DFFAD5
:1003B300E0A3FFE0A3C0E0E0A3C0E0E0A3C0E0E06F
:1003C300A3C0E0E4C5A8858210858311C5A8D083A6
:1003D300D08222C0D02510C582C0E0E51134FFC50C
:1003E30083C0E0E510C3958224F310AF0885831121
:1003F3008582108008858311858210D2AFC8F0A34F
:10040300E9F0A3EAF0A3EBF0A37908E709F0A3D896
:10041300FAECF0A3EDF0A3EEF0A3EFF0A3D0E0F03D
:10042300A3D0E0F0A3D0E0F0A3E520F0A3E5F0F043
:10043300A322851183851082E0C0E0A3E0F9A3E045
:10044300FAA3E0FBA37808E0F608A3DFFAE0FCA335
:10045300E0FDA3E0FEA3E0FFA3E0C0E0A3E0C0E073
:10046300A3E0F5D0A3E0F520A3E0A3F5F0E4C5A84D
:10047300858311858210C5A8D082D083D0E0F8D0BF
:10048300E03274028000C0E0F404120317D0E012DB
:1004930002972274028000CCC0E0EDC0E0E510C3F7
:1004A3009CCCAD1150011D10AF068C108D11800630
:1004B3008C108D11D2AF1202A4D0E0FDD0E0FC224B
:1004C300D083D082C5F0E493A3C5F0C395F0F5F0D3
:1004D300E493A3C395F04005E5F0048001E475F0CF
:1004E30002A42582F582E5F03583F583E493A3C066
:1004F300E0E493C0E022D083D082CCC0E0E493A3B5
:1005030060061205231470FAE493A36006120542F1
:100513001470FAD0E0FCE493A3C0E0E493C0E022BB
:10052300C0E0E493A3D39C5010E493A3C39C400A7C
:10053300D0E0D0E0D0E0020516A3A3A3D0E022C010
:10054300E0E493A36C7009D0E0D0E0D0E00205169C
:10055300A3A3D0E02275CB4475CC04EA33333354E0
:10056300F8F5CD43CB10A2D950FC75CB00C2D922EC
:1005730074F712033E750843750900780812048561
:100583007C007D007A027B0112152674021202FDA3
:1005930090624AE064A56004C2AF80FE906249E0C5
:1005A3007004C2AF80FE53BEFBE59DA2E650FA0085
:1005B30078F879010012089E7001E970F775C6009A
:1005C300E59E70FC43BE0474149061A9F0743F90DF
:1005D30061ABF074F8906196F074859061A8F07443
:1005E3005A9061ACF074159061B2F0E4906182F0BE
:1005F30074109061B5F0740E9061B6F0740390615D
:10060300B7F074099061FAF074FF9061E5F09061BE
:1006130072F0906173F0906189E054F34408F075CF
:10062300E1E3906199E0A2E050F8780079007C1052
:10063300E8C333F8E933F99061A7E0A2E0E492E07C
:1006430048F81CEC70EA748048F5BCE9F5BC75E128
:10065300EF75E1ED75E1ED906189E054F3F074011C
:10066300900101F0906180E0C2E0F0906181E0547C
:1006730097F090618AE0C2E0F0747F906194F07922
:10068300001208A81208F074D5906190F09001014F
:10069300E0640370031208E0439A01900145741467
:1006A300F0A3E4F012090AD2AF020BE674F71203C7
:1006B3003EEAFEEBFF8909750800900101E0640141
:1006C3007004C2AF80FE1208F05391FD900147E021
:1006D3008E828F83A3A3A3F0900147E004F07401FB
:1006E3008E828F83A3F074888E828F83A3A3F07589
:1006F300E1EE8E828F83E0FB74022BF5D97A0080C2
:1007030005A3E0F5D90AEAC39B40F6E509700B752A
:10071300E1E9E591A2E1404A80F8740165096004CA
:10072300C2AF80FE7E0480071E1208F012090A750C
:10073300E1E3906199E0A2E050F8A2AFE492E0FA1D
:10074300C2AF75E1EA906193E05408FBEAA2E0923C
:10075300AFEB6008E591A2E1400880F8EE70C9753F
:1007630008011208F0900101E0640370031208E02D
:10077300A908020BE6C0E074EF1203D6900101E072
:1007830064036004C2AF80FEE5E9A2E250FA90611F
:1007930093E0A2E6500EE0A2E7400975E1ED75E1B2
:1007A300ED02089353E9FB747F55D9F508F50A74F4
:1007B300FF250AF874FF3400F9C3E89442E9940072
:1007C300A2D265D0335007E508C3940E50107A00C7
:1007D300EAC39508400302088AE5D90A80F27E023B
:1007E3007F01750A41750B00780A1204857C007D30
:1007F300007A027B0112152674021202FD74FE2593
:1008030008900102F074FE2508F874FF3400F98E95
:10081300828F83A3AE82AF83E5D9F012089E700165
:10082300E970EC74B425D9900143F0E5D9FAA2E755
:100833005055747F5A900144F0900103E0640170B5
:1008430046900104E06488703E9001027CE17D02E1
:1008530074431202A49002EEE0FA9002E1E0F8740D
:10086300F528F874FF3400F97402687001E9700C1C
:10087300747F6A7007740190032D800A747E6A7016
:1008830006740190032CF090619BE0600302078BD8
:10089300759B0053E9FB7F04020435E824FF18E944
:1008A30034FFF9E82274F712033E8908E9C394047C
:1008B3004004C2AF80FE1208F075F005E50824037A
:1008C300F582E43404F583E0A424D490618FF0909E
:1008D3000101E0640370031208E0020BE6C082C06A
:1008E3008375E1E39061A3E0D2E2020B1FC082C0F3
:1008F300839061A3E0C2E2F075E1EF75E1ED75E18C
:10090300ED75E9FB020B20EEC0E074F355B444042B
:10091300F5B4740F55BD04FE7AFA7B0012092A1E42
:10092300EE70F5D0E0FE2274F712033E8A088B09BD
:10093300740478081202C5AE08AF09EA7001EB60CF
:1009430028A2AFE492E0F508C2AF7A107B0012054B
:1009530058E508A2E092AFEEF8EFF974FF281E7491
:10096300FF39FFE87001E970D8020BE6C008C0093F
:10097300750801750900EB78081202D4E50845F201
:10098300F5F2C28DEA494BF5B6A28D50FCE5BBFDED
:10099300E5BAFC750801750900EB78081202D4E585
:1009A30008F455F2F5F2ECFAEDFBD009D00822A2D7
:1009B300AFE492E0FA7B00C2AF22EAA2E092AF2258
:1009C300748055C6FA53BEFBE59DA2E550FAE59D3A
:1009D300A2E240F400740169700774494AF5C680C5
:1009E30005E970028AC6E5C6FAE59EFBEA6B70F973
:1009F30043BE0422E59EA2E64003790122E9700585
:100A030053C67F8008740169700343C680E5C6FA44
:100A1300E59EFBEA6B70F9790022EBC313FBEA1343
:100A2300FAEAF8EBF974FF28FA74FF39FB740068EB
:100A330070037400696013000000000000000000F0
:100A4300000000000000000080D72274F812033E6B
:100A5300EAFEEBFFEEF8EFF974FF28FE74FF39FFAF
:100A6300740068700374006960097AE87B03120AF2
:100A73001D80E17F0102039ED2B943E40222C0E05C
:100A830074F21203D6900148E07002A3E0600E9066
:100A93000148E0F8A3E0F583888212033C020CECE2
:100AA300C292C280C2F989F9A2F950FC0000000089
:100AB300D29222C292D280C2F989F9A2F950FC8063
:100AC300EB74F812033EC292D2808012C2F98A827A
:100AD3008B83E0F5F9A3AA82AB83A2F950FCECF86F
:100AE300EDF974FF281C74FF39FDE87001E970DC2F
:100AF30000000000D2927F0102039EC082C0838A5D
:100B0300828B8374FF29C454F04480F9120AA37CB6
:100B1300107D00AA82AB83120AC48001F0D083D077
:100B23008222EEC0E053F4FBD29243FE0453F3FE61
:100B3300D28043FD017915120AA37950120AA379D1
:100B43000F120AB6790E120AA37925120AA3791C89
:100B5300120AA37A157B00120A4E120B7979C0127E
:100B63000AA37E407900120AB61EEE70F7792912A5
:100B73000AA3D0E0FE22EEC0E07980120AA37E3001
:100B83007920120AB61EEE70F7D0E0FE22EEC0E026
:100B9300EBFE74FF29C454F02A4480F9120AA3EE31
:100BA300F9120AB6D0E0FE2274F712033EEA70018E
:100BB300EB60307C008A828B83E06013C0E0120B11
:100BC300EBD0E0F08A828B83A3AA82AB83800612E8
:100BD3000BEB7420F00CECC3941040D97A4A7B01E0
:100BE300120AFE7F0202039E8C08E508244AF5825E
:100BF300E43401F58322C082C08353FF3FE5FF85C0
:100C0300FFFF53F1FE43F30CE5F353F4F3E5F45321
:100C1300F2F3E5F275868043C480E91204C304014C
:100C2300360C290C310C75C23B75C50A800B75C295
:100C3300D880F675C2D875C50B7A5A7B01120E346B
:100C4300D2E97A1D7B02120E3453F3DFD28543FDC2
:100C53002043C402C28B438640D2AA7901120CB24C
:100C6300020B2074F712033E8A828B838C088D0952
:100C73007E007F008026EEFAE508C39AF9E5822E0E
:100C8300FCE5833FFD7A1D7B02120E62E9F8EE2834
:100C9300FEEF3400FF7A057B00120A4EC3EE95087F
:100CA300EF950940D1439A04EEFAEFFB020BE6E914
:100CB3006003C28522D28522C0E074F21203D67487
:100CC300FF1202E7C28BE5C1851082851183F0E52F
:100CD30086FA74185A700D7901AC82AD837A5A7B07
:100CE30001120E6274011202FD7F01020435C0E09D
:100CF30074F21203D674FF1202E7C2E97901851078
:100D030082851183AC82AD837A1D7B02120ED5E9F5
:100D130064017003E0F5C19002DDE07003539AFBB8
:100D230080C27901120DFE7902120DFE7903120DB4
:100D3300FE7904120DFE7A327B00120A4E80E379AB
:100D4300001209F7E9601079011209C37900120949
:100D5300F7E96003120D2579001209C343FE01C2AE
:100D63009043FE02C29143FE10C29443FD02C2812E
:100D730012105353F5FE53FFFE43F70143F3404371
:100D8300F10243F48043F44043F420E59EA2E0E4FF
:100D930092E0240FFA75FB8075F80074204AF5FC85
:100DA30075FA53120B25D2AF2274F712033EE9FEF4
:100DB3007B067A10798012096F8B09A909747F5910
:100DC300F9E4C9F8C39428E494004028C3E8943CA8
:100DD300E49400500309801CC3E8944AE49400504F
:100DE300030980F1C3E89454E49400500509090908
:100DF30080027904EE6970B6020BE6C082C083E913
:100E03001204C30103310E120E190E1E0E250E63BA
:100E13009001E590801863900280F7639010E5904D
:100E2300800C638002E5809002E0E06401F0020B35
:100E33002074F712033EEAFEEBFF1209B2EE24C060
:100E4300120E58EE24C1120E58EE24C2120E58127E
:100E530009BD020BE6F582EF3400F583E4F022745A
:100E6300F312033EEAFEEBFF8C088D09890C12098D
:100E7300B2120F33F8850C0AE50A28F8E43400F9B6
:100E8300E894C0E99400C365D033750D00503580F4
:100E93002524C2F8EF3400F9850D0AE508250AF583
:100EA30082E509120F39C0E0120F4BD0E0120F3F59
:100EB3007002E4F0050DE50DC3950CEE40D3120F5F
:100EC30034250DF01209BDA90D8002EEF97F06024B
:100ED300039E74F312033EEAFEEBFF8C088D09892F
:100EE3000B1209B2750A008028EE24C1F8EF340012
:100EF300F9120F4BE0C0E0850A0CE508250CF582DA
:100F0300E5093400F583D0E0120F3F7002E4F005E9
:100F13000AE50AC3950B500A120F33FCE50AC39C7A
:100F230040C7120F33C3950AF01209BDA90A809D69
:100F3300EE24C0F582EF3400F583E022F088828945
:100F430083E004F0E064C02288828983E0FCEE2C15
:100F5300F582EF3400F5832274F512033EEAFEEBCB
:100F6300FF750A00750B01805DE50B605212105D81
:100F7300E0FAA3E0FB7902120BAB7B3C7A00790326
:100F8300120B907B3E7A0F7903120B90750B007551
:100F93000800750900120DACE964046006750800C9
:100FA300750900E5082401F508E5093400F509C3CE
:100FB300E50894F4E5099401A2D265D03340D67ACA
:100FC3000A7B00120A4E7A00121053A28150237832
:100FD300007900A281500478007900E8240108E92F
:100FE3003400F9C3E894F4E99401A2D265D0334004
:100FF300E20A53F3FD9002E0E0A2E0928143FD0296
:1010030074016A603F120DACE96403701974012521
:101013000AC0E08E828F83A3A3E0F5F0D0E084E5DD
:10102300F0F50A020F70120DACE964026003020FBF
:101033006CE50A700A8E828F83A3A3E01480E21505
:101043000A020F7012105DA3A3E0F97F0402039E4E
:1010530053F3FD53FDFD438F0222E50A75F003A40C
:10106300F8A9F08E828F83E028FAA3E0398A82F50B
:10107300832274F812033EE9FE7407900328F07488
:1010830020900329F0EA90032AF0EB90032BF074ED
:1010930007900324F07420900325F0EC900326F0CE
:1010A300ED900327F0E490032CF090032DF09003D0
:1010B3002EF090032FF0120573900101E06401708C
:1010C300037402F0EEF91208A8E064017004C2AFE1
:1010D30080FEE0640360067403F01208E0900328C6
:1010E300E064FF6005E064FE7008900329E064FF9C
:1010F300603090032AE064FF700890032BE064FFE4
:101103006020900328E0906172F0900329E09061E1
:1011130073F090032AE0906174F090032BE09061E8
:1011230075F0906172E064FF6008906173E064FFA2
:101133007004C2AF80FE906180E0D2E0F0020AF951
:1011430074F312033E8A0C8B0D90032CE0700302A0
:1011530011E71209B2EAF5089002E1E024F3FE90E8
:1011630002EDE090032FF09002EEE0FF8E0A750B84
:1011730000780A1204857CEF7D02AA0CAB0D1212D3
:10118300B91202FDE490032CF0747E6F704DEE6093
:101193004A1209B2EAFF740D9002E1F0750A04786D
:1011A3000A1204851212B11202FD780A1204857C18
:1011B300287D037AE97B021212B91202FD90032FF4
:1011C300E09002EDF0747F9002EEF0EFFA7B0012F4
:1011D30009BD79007AE17B021206AFAA087B0012EF
:1011E30009BD80027E00020ECE74F312033E8A0C08
:1011F3008B0D89088C091209B2EAFF740D2508903A
:1012030002E1F0750A04750B00780A1204851212C4
:10121300B11202FD780A1204857C287D037AE97BEA
:10122300021212B91202FD90032EE09002EDF07447
:101233007E9002EEF085080A780A120485AC0CADA4
:101243000D7AEF7B021212B91202FDEFFA7B001244
:1012530009BD7F00801F7E0174F355B44404F5B4C7
:10126300E5BD75F04EA4F8A9F0742028FA744E3940
:10127300FB120A1D0FEFC39509503079017AE17B08
:10128300021206AFE9FE70EC75081480097A017B3F
:1012930000120A4E150890032DE07004E50870ED66
:1012A300E060B3E4F090032EE004F0020ECE7C2461
:1012B3007D037AE57B021214DE740222E49003912B
:1012C300F0120D427A007904120BF943E40CE5E4C1
:1012D30075DB6675DA6075E54453AFFEC2B9A2AF3C
:1012E300E492E0F8C2AF90014874D2F0A37414F012
:1012F300E8A2E092AF120B797AAD7B037901120B6E
:10130300ABD2907ABB7B037901120BAB7A107B04CF
:10131300120F5BE9900390F0120B79E0701A7AC90F
:101323007B037902120BAB90038E74EB12140774D8
:10133300DEF0A37425F08027640170157AD87B034F
:101343007902120BAB90038E74DE12140774EB80D8
:10135300E0E0640270097AE77B037902120BAB9039
:101363000390E064026015790090038CE0FCA3E035
:10137300FD90038EE0FAA3E0FB1210757AAD7B03B8
:101383007901120BAB90038AE4F0A3F0900388F089
:10139300A3F0120A7B801AEAFEEEF97C307D037A11
:1013A3005A7B01120ED5EEFC7D007A307B03120CC2
:1013B30066900390E06402701090021AE0FA60F9FC
:1013C300C3942D40D27E2C80D012141090032CE0B5
:1013D30060DF12147A7A5C7B03121143E9FA601717
:1013E3008A82FC7D007A5C7B03120C668A08E582A4
:1013F30065087001EB600690038A12148779011265
:101403000CB280ADF0A37425F090038C2274F81213
:10141300033E90021AE0FEC3942C5009900391E01E
:101423006052EE604F12147AEEC3942C5004EEFF18
:1014330080027F2CEFF97C307D037A5A7B01120EF8
:10144300D57903120DFE7C05EFF97A307B03121177
:10145300ECE960069003881214877901120CB253E9
:10146300E4FDC2B975E20043E402D2B9120A7BE497
:10147300900391F0020AF97900120CB27AE87B0327
:10148300120A1D22E02401F0A3E03400F0121494A8
:1014930022C082C08374EF1202E790038A1204967B
:1014A3009003881204967CF67D037404120332AA17
:1014B30082AB8312157D74041202FD851082AA8209
:1014C300AB837903120BAB74111202FD020B20C024
:1014D30082C0837401900391020B1F74F712033EC1
:1014E3007409120332E0FEA3E0FFEAF8EBF9801877
:1014F3008C828D83E088828983F0A3A882A9838C60
:10150300828D83A3AC82AD838E088F0974FF250877
:101513001E74FF3509FFE5087002E50970D27F02EA
:1015230002039E74F812033E7408120332E0F8A318
:10153300E0F98A828B838003ECF0A3E8FEE9FF7471
:10154300FF2E1874FF3FF9EE7001EF70EB7F01027D
:10155300039EC082C0838A828B831215EAE9F08AD4
:10156300828B83E02401F8A3E03400F98A828B8321
:10157300E8F0A3E9F0D083D0822274F712033E741B
:10158300FC1202E77402120332EAF0A3EBF0ECFA66
:10159300EDFB740D120332A882A983851082851195
:1015A30083E8F0A3E9F0851082851183858208859D
:1015B300830978081204857404120332858208852E
:1015C300830978081204857C557D151215F374047C
:1015D3001202FD74021203321215EAE4F0740412CB
:1015E30002FD7F0202039EE0F8A3E0F583888222D6
:1015F30074F112033E74B21202E7851082851183DF
:10160300121EFD7410120332ECF0A3EDF0740B12F2
:101613000332E4F0A38022745D120332121E33748A
:1016230004120332E0F97410120332121E5C120327
:101633003C740B120332121F11F0121F35120332C6
:10164300EAF074256A6015E070CD740B1203321250
:101653001E33744E1202FD7F0802039E121E69643C
:1016630025700F121F1A745D120332121E3379256F
:1016730080B4740F120332E4F0740E120332E4F0F8
:101683007408120332E4F07407120332E4F0741C9A
:10169300120332A882A9837402120332121F2F7419
:1016A3001A1203327413F0A374048019740712031B
:1016B30032E070077407120332EAF0851082851155
:1016C30083E8F0A3E9F0121EB7FA1204F90005202B
:1016D300AF1623EC162BB7162DE31630F016F416BF
:1016E3007408120332E00480D1740E80F5740F8005
:1016F300F1851082851183121E83E0642A7053746E
:101703005F120332121E83121E338A828B83121ED0
:101713002D7409120332ECF0A3EDF0121E14120320
:1017230032121EFA7409120332121EA6501F7409D4
:10173300120332121E33C3E49AFAE49BFB740912B8
:101743000332121EFD7408120332E004F0121F2943
:1017530080267409120332E4F0A380107409120383
:1017630032121ED57409120332121F73121F624004
:1017730007E508C3943A40E47408120332E06007B3
:10178300740F120332E4F0121E69642E705C121F90
:101793001A121E69642A702C745F120332121E7CA3
:1017A300F988828983121E337405120332121EFDD7
:1017B300E824020808E9121E0E120332121E8312D5
:1017C3001F73802F7405120332E4F0A3121F6240CB
:1017D30023E508C3943A501C7405120332121ED534
:1017E3007405120332121F7380E2740512033274FC
:1017F300FFF0A3F07C00121EB71204F900034C0C97
:1018030018680D186C0C1810180C121F29121F35AC
:10181300120332EAF01204F90165678F1C0D00AC64
:101823001C458F1C478F1C58A41963931864321AE4
:1018330069321A6E4A186F791970A41973C718752B
:10184300A419789819B81C745F120332121EA16090
:101853002E740B120332121E2D3395E0FE8A828BF7
:1018630083121E5CECF0A3EDF0A3EEF0A3F0745F23
:10187300120332121EAC120332121E9002163C7473
:101883000B120332121E4A8A828B83121E9080DD52
:10189300745F120332121E7CF5838882E0C0E07409
:1018A3001C120332D0E0F0745F120332121EAC122A
:1018B3000332121E83121F2F741D120332AA82AB2E
:1018C30083021CC8745F120332121E988A828B83B0
:1018D300121E4A121E14120332121EFA740212034B
:1018E30032121F2FE87001E9700C74021203327474
:1018F30024F0A37404F07405120332121EA6500CD4
:1019030074051203327410F0A37427F07E007F0075
:101913008008EE24010EEF3400FF7402120332122A
:101923001E4A88828983A3AA82AB8374021203327C
:10193300121EFD88828983E060147405120332123B
:101943001E4AC3EE98EF99A2D265D03340C4740205
:10195300120332E024FFFAA3E034FFFBC3E49EF852
:10196300E49FF9EA28F8EB39F97402120332E8F03C
:10197300A3E9F0021CC8740E120332E06017740569
:10198300120332E07002A3E0700B74051203327489
:1019930001F0A3E4F0741A1203327433F0A3740455
:1019A300F0745F120332121E987404120332E0645F
:1019B3007070358A828B83121E50120332121F54A9
:1019C300121E0C120332121E83121F2F90046B7807
:1019D3000812027974161203327808120288740707
:1019E300120332E4F0021AB5EC8A828B8360147816
:1019F3000812027974121203327808120288EA2458
:101A0300048009121E50120332121F54121E0C12AC
:101A13000332121E83121F4C120332E0646F7005EF
:101A230090046F80AAE0647570A290047380A07420
:101A33005F120332121EA18A828B83600A78081216
:101A43000279EA24048011E0F508A3E0F50933954F
:101A5300E0F50AF50BEA2402121E0C120332121EE1
:101A630083121F2F74121203327808120288900413
:101A730077780C120279780C79081201E3502174FB
:101A830007120332742DF074121203327808120213
:101A930079780812026874121203327808120288E5
:101AA30090047378081202797416120332780812BC
:101AB3000288744D120332A882A98374021203327E
:101AC300121F2F744D120332AA82AB8374121203B6
:101AD30032C082C0839004777808120279D083D011
:101AE3008278081201CE6009740D120332740180EA
:101AF30006740D120332E4F07405120332E070022F
:101B0300A3E0700B740D120332E07003021BF07438
:101B130002120332121E43120332121F2F741212C7
:101B23000332780C12027974161203327808120207
:101B330079780C79081201F8741A120332E0250837
:101B4300FCA3E035098C82F583E0C0E07402120344
:101B530032121E5CD0E0F07412120332780C1202BF
:101B63007974161203327808120279780C79081204
:101B730001F87412120332780C12028874121203E1
:101B830032C082C0839004777808120279D083D060
:101B93008278081201CE6003021B1274051203320D
:101BA300121EA65048740F120332E06040740712ED
:101BB3000332E06004D2F08002C2F07409120332EF
:101BC300A2F0E492E0F8E0C398F8A3E09400F9747B
:101BD30005120332E8F0A3E98012740212033212F1
:101BE3001F2F7402120332121E5C7430F07402123F
:101BF3000332121E43120332121E2D8B838A82E597
:101C030082C39CFEE5839DFF7405120332121E2DD1
:101C1300C3EE9CEF9DA2D265D03340BE740E120377
:101C230032E07003021CC8740D120332E070030229
:101C33001CC87404120332E064786005E0645870D1
:101C4300377402120332121F4C120332E0C0E074E5
:101C530002120332121E5CD0E0F07402120332123D
:101C63001E20F97402120332121F2F740212033260
:101C7300121E5C7430021975E0646F7048740212AE
:101C83000332121F03E06430603B80D774021203F7
:101C9300327444F0A37404F07A44FB8A828B83E0A9
:101CA3006023A3AA82AB8380F285108285118312FD
:101CB3001E20121F2874021203327467F0A37404E7
:101CC300F07A6A7B047402120332121E4AEAC39842
:101CD300F8EB99F97405120332121F2F74091203DA
:101CE30032C082C0837405120332E0F8D083D082FD
:101CF300C3E098A3E099A2D265D03350067E007F5B
:101D03000080297407120332E06004D2F08002C21B
:101D1300F07409120332E0C398F8A3E099F9A2F032
:101D2300E492E0FAE8C39AFEE99400FF7408120310
:101D330032E070208019745D120332121E391203CF
:101D430032121E5C12033C740B120332121F0C126C
:101D53001DFB50E27407120332E06056745D1203F8
:101D630032121E337407120332E0F9741012033275
:101D7300121E5C12033C8032745D120332121E3356
:101D83007402120332121E6FF97410120332121E00
:101D93005C12033C7402120332E02401F8A3E03422
:101DA30000F97402120332121F2F740B1203321242
:101DB3001F0C7405120332E024FFF0A3E034FFF09C
:101DC3007405120332121EA650AE7408120332E0D9
:101DD300700302163D121DFB500302163D745D1283
:101DE3000332121E39120332121E5C12033C740BAF
:101DF300120332121F0C80DDEE24FF1EEF34FFFFAF
:101E0300C39400A2D265D03322F8EB3400F9745F97
:101E130022EA24020A0AEB3400FB745F22121E2416
:101E230022E024FFF8A3E034FF22E0FCA3E0FD223C
:101E3300E0FAA3E0FB22E0FAA3E0FB79207410228E
:101E4300121E24F9740222E0F8A3E0F922E0F8A3B9
:101E5300E0F9E8FCE9FD741222121E6022E0F8A307
:101E6300E0F583888222851082851183121E7322F6
:101E7300121E7722121E60E022121E73F8A3E022C4
:101E8300121E8722E0FAA3E0F5838A8222121E87BC
:101E9300E8F0A3E922121E9C22121E778093121EE1
:101EA3009CEC22C3A3E0021E04121E732402F8A3B7
:101EB300E0021E0E851082851183E0121EC6121EDB
:101EC30087E0222401F8A3E03400F985108285110C
:101ED3008322E0F8A3E0F9E875F00AA4F8AAF07504
:101EE300F00AE9A42AF9E82508F8E93400F974D0DE
:101EF30028F874FF39F922121F03EAF0A3EBF0224A
:101F0300E0FCA3E0F5838C8222121F11F022E0246F
:101F130001F0A3E0340022851082851183E02401BF
:101F230008A3E03400F9851082851183E8F0A3E962
:101F3300F022851082851183121E73FA8510828523
:101F43001183E0240108121EC9E8F0A3E9F0740428
:101F530022ECF0A3EDF0A3E4F0A3F0EA24022212B2
:101F63001F80F8A3E0F5838882E0F508C39430224C
:101F7300E8F0A3E9121F80121EC6021E93F085101B
:061F830082851183E022BB
:04000005000000D324
:00000001FF
