:020000040000FA
:030000000200D328
:03004B0002086543
:1000830002055F00000080FB1200E2B900030200DA
:10009300CDE490010178B879018002F0A3D8FCD9AE
:1000A300FA9001B8AA82AB839000E5783C7901808D
:1000B30015E493A3AC82AD838A828B83F0A3AA82D7
:1000C300AB838C828D83D8E9D9E7120E1012008698
:1000D30075D0007581BF75100175110102008B7910
:1000E300012220202020204D4F5553452020002061
:1000F3002020204B4559424F4152442000202020CC
:10010300204D524649204849442020000F14191A13
:10011300B80100C50101E601025E0FC20ECAC0E0CC
:10012300E6F0A308DAFAD0E0FA22CAC0E0E0A3C5F9
:1001330082CCC582C583CDC583F0A3C582CCC582DD
:10014300C583CDC583DAE6D0E0CA22600C08C6C3F6
:1001530013C618C613C6D5E0F422700422600D1826
:10016300C6C333C608C633C6D5E0F41822C0D025AB
:100173001010AF08F510500205118008F510500259
:100183000511D2AFD0D0222510F58210AF08F5109B
:10019300400215118008F51040021511D2AF8511E8
:1001A30083222510F582E43511F58322E4732510AB
:1001B300C582C0E0E51134FFC583C0E0E510C395F7
:1001C3008224F9F8E4C5A8858311858210C5A8E8BF
:1001D300CEF0A3E520F0A37808E608F0A3DEFAEF5B
:1001E300F0A3E58124FBF8E608F0A3E608F0A308F2
:1001F30008E608F0A3E608F0A315811581D0E0FE18
:10020300D0E0F815811581E8C0E0EEC0E022851149
:1002130083851082E0A3FEE0A3F5207808E0A3F62F
:1002230008DFFAE0A3FFE0A3C0E0E0A3C0E0E0A39F
:10023300C0E0E0A3C0E0E4C5A8858210858311C5B2
:10024300A8D083D08222C0D02510C582C0E0E5119A
:1002530034FFC583C0E0E510C3958224F310AF08D3
:100263008583118582108008858311858210D2AF22
:10027300C8F0A3E9F0A3EAF0A3EBF0A37908E70938
:10028300F0A3D8FAECF0A3EDF0A3EEF0A3EFF0A304
:10029300D0E0F0A3D0E0F0A3D0E0F0A3E520F0A3FA
:1002A300E5F0F0A322851183851082E0C0E0A3E08E
:1002B300F9A3E0FAA3E0FBA37808E0F608A3DFFACA
:1002C300E0FCA3E0FDA3E0FEA3E0FFA3E0C0E0A306
:1002D300E0C0E0A3E0F5D0A3E0F520A3E0A3F5F0B0
:1002E300E4C5A8858311858210C5A8D082D083D0A8
:1002F300E0F8D0E03274028000C0E0F40412018A16
:10030300D0E012012022D083D082C5F0E493A3C5AC
:10031300F0C395F0F5F0E493A3C395F04005E5F041
:10032300048001E475F002A42582F582E5F03583AB
:10033300F583E493A3C0E0E493C0E02275CB447556
:10034300CC04EA33333354F8F5CD43CB10A2D95060
:10035300FC75CB00C2D92274F71201B1750843753D
:10036300090078081202F87C007D007A037B0112F1
:1003730010E5740212017090624AE064A56004C241
:10038300AF80FE906249E07004C2AF80FE53BEFBB3
:10039300E59DA2E650FA0078F8790100120685700F
:1003A30001E970F775C600E59E70FC43BE04741442
:1003B3009061A9F0743F9061ABF074F8906196F08E
:1003C30074859061A8F0745A9061ACF074159061D3
:1003D300B2F0E4906182F074109061B5F0740E9005
:1003E30061B6F074039061B7F074099061FAF07428
:1003F300FF9061E5F0906172F0906173F090618914
:10040300E054F34408F075E1E3906199E0A2E05011
:10041300F8780079007C10E8C333F8E933F9906188
:10042300A7E0A2E0E492E048F81CEC70EA7480488C
:10043300F5BCE9F5BC75E1EF75E1ED75E1ED9061B2
:1004430089E054F3F07401900102F0906180E0C2FE
:10045300E0F0906181E05497F090618AE0C2E0F0AF
:10046300747F906194F0790012068F1206D874D5C8
:10047300906190F0900102E0640370031206C74399
:100483009A019001467414F0A3E4F01206F2D2AF7D
:1004930002075474F71201B1EAFEEBFF89097508EC
:1004A30000900102E064017004C2AF80FE1206D81E
:1004B3005391FD900148E08E828F83A3A3A3F09014
:1004C3000148E004F074018E828F83A3F074888E58
:1004D300828F83A3A3F075E1EE8E828F83E0FB749A
:1004E300022BF5D97A008005A3E0F5D90AEAC39B6C
:1004F30040F6E509700B75E1E9E591A2E1404A8018
:10050300F8740165096004C2AF80FE7E0480071E93
:100513001206D81206F275E1E3906199E0A2E05069
:10052300F8A2AFE492E0FAC2AF75E1EA906193E01A
:100533005408FBEAA2E092AFEB6008E591A2E14028
:100543000880F8EE70C97508011206D8900102E020
:10055300640370031206C7A908020754C0E074EFCE
:10056300120249900102E064036004C2AF80FEE519
:10057300E9A2E250FA906193E0A2E6500EE0A2E70E
:10058300400975E1ED75E1ED02067A53E9FB747FED
:1005930055D9F508F50A74FF250AF874FF3400F9F4
:1005A300C3E89442E99400A2D265D0335007E5082A
:1005B300C3940E50107A00EAC395084003020671F3
:1005C300E5D90A80F27E037F01750A41750B007835
:1005D3000A1202F87C007D007A037B011210E57495
:1005E3000212017074FE2508900103F074FE2508C1
:1005F300F874FF3400F98E828F83A3AE82AF83E554
:10060300D9F01206857001E970EC74B425D9900114
:1006130044F0E5D9FAA2E75055747F5A900145F0AA
:10062300900104E064017046900105E06488703E27
:100633009001037C5D7D01744312012D90016AE0FA
:10064300FA90015DE0F874F528F874FF3400F9744A
:1006530002687001E9700C747F6A7007740190017D
:10066300A9800A747E6A700674019001A8F09061F3
:100673009BE06003020572759B0053E9FB7F040254
:1006830002A8E824FF18E934FFF9E82274F71201FD
:10069300B18908E9C394044004C2AF80FE1206D8AE
:1006A30075F005E50824E2F582E43401F583E0A45E
:1006B30024D490618FF0900102E06403700312066A
:1006C300C7020754C082C08375E1E39061A3E0D2FF
:1006D300E2F0020A82C082C0839061A3E0C2E2F02A
:1006E30075E1EF75E1ED75E1ED75E9FB020A82EE67
:1006F300C0E074F355B44404F5B4740F55BD04FE5F
:100703007AFA7B001207121EEE70F5D0E0FE227417
:10071300F71201B18A088B097404780812014EAEEE
:1007230008AF09EA7001EB6028A2AFE492E0F50894
:10073300C2AF7A107B0012033FE508A2E092AFEE4E
:10074300F8EFF974FF281E74FF39FFE87001E970B0
:10075300D87F02020211C008C0097508017509009B
:10076300EB780812015DE50845F2F5F2C28DEA491E
:100773004BF5B6A28D50FCE5BBFDE5BAFC7508014F
:10078300750900EB780812015DE508F455F2F5F2FE
:10079300ECFAEDFBD009D00822A2AFE492E0FA7B99
:1007A30000C2AF22EAA2E092AF22748055C6FA5388
:1007B300BEFBE59DA2E550FAE59DA2E240F400747C
:1007C3000169700774494AF5C68005E970028AC653
:1007D300E5C6FAE59EFBEA6B70F943BE0422E59E8B
:1007E300A2E64003790122E9700553C67F800874AD
:1007F3000169700343C680E5C6FAE59EFBEA6B70A8
:10080300F9790022EBC313FBEA13FAEAF8EBF97464
:10081300FF28FA74FF39FB74006870037400696081
:1008230013000000000000000000000000000000B2
:10083300000080D72274F81201B1EAFEEBFFEEF854
:10084300EFF974FF28FE74FF39FF740068700374B6
:10085300006960097AE87B0312080780E17F0102DF
:100863000211C0E074F2120249900149E07002A340
:10087300E06009900149120EAC1201AF7F01020240
:10088300A8C292C280C2F989F9A2F950FC00000003
:1008930000D29222C292D280C2F989F9A2F950FC05
:1008A30080EB74F81201B1C292D2808012C2F98A2D
:1008B300828B83E0F5F9A3AA82AB83A2F950FCEC07
:1008C300F8EDF974FF281C74FF39FDE87001E97035
:1008D300DC00000000D292020F3BC082C0838A82F8
:1008E3008B8374FF29C454F04480F91208847C106C
:1008F3007D00AA82AB831208A5020A82EEC0E053F0
:10090300F4FBD29243FE0453F3FED28043FD0179FC
:10091300151208847950120884790F120897790EFA
:100923001208847925120884791C1208847A157BAD
:100933000012083879801208847E307920120897D3
:100943001EEE70F779C01208847E40790012089772
:100953001EEE70F77929120884D0E0FE22EEC0E083
:10096300EBFE74FF29C454F02A4480F9120884EE84
:10097300F9120897D0E0FE2274F71201B1EA700170
:10098300EB60307C008A828B83E06013C0E0120945
:10099300B9D0E0F08A828B83A3AA82AB838006124C
:1009A30009B97420F00CECC3941040D97A4B7B0145
:1009B3001208DD0207548C08E508244BF582E43461
:1009C30001F583227901120B647902120B64790316
:1009D300120B647904120B647A327B00120838809C
:1009E300E379001207E1E9601079011207AD79009C
:1009F3001207E1E960031209C779001207AD43FE4C
:100A030001C29043FE02C29143FE10C29443FD0211
:100A1300C281120A87120E9F43F10243F48043F40A
:100A23004043F420E59EA2E0E492E0240FFA75FB34
:100A33008075F80074204AF5FC75FA531208FFD24A
:100A4300AF22C082C0837900120A87A28150227824
:100A530000A281500478007900E8240108E93400F9
:100A6300F9C3E894F4E99401A2D265D03340E27962
:100A73000153F3FD90015CE0A2E0928143FD02D0BB
:100A830083D0822253F3FD53FDFD438F022274F77B
:100A93001201B17E00A2A0E492E0FF7B067A1079F6
:100AA300801207598B09A909EF6008747F59C39411
:100AB3005450097E00E490015BF080237A037B00AD
:100AC3001208070EEEC3940340CB90015BE0700D58
:100AD3007401F0FE7A647B0012083880027E00EE17
:100AE300F902075474F71201B1E9FE7B067A107913
:100AF300801207598B09A909747F59F9E4C9F8C30E
:100B03009428E494004028C3E8943CE49400500300
:100B130009801CC3E8944AE4940050030980F1C39C
:100B2300E89454E49400500509090980027904EE1D
:100B33006970B6020754C082C083E9120309010336
:100B4300610B4D0B510B550B590BD2908010D29169
:100B5300800CD2948008D281740190015CF0020A67
:100B630082C082C083E91203090103970B780B7FCC
:100B73000B840B8B0B639001E590801863900280CC
:100B8300F7639010E590800C638002E58090015C30
:100B9300E06401F0020A8274F51201B1EAFEEBFF90
:100BA300750A00750B018056E50B604B120C55124C
:100BB3000EB57B3C7A0079031209607B3E7A0F798C
:100BC30003120960750B00750800750900120AE726
:100BD300E964046006750800750900E5082401F559
:100BE30008E5093400F509C3E50894F4E50994011F
:100BF300A2D265D03340D67A0A7B00120838120A93
:100C030045E96401603E120AE7E964037018740160
:100C1300250AC0E08E828F83A3A3E0F5F0D0E084A1
:100C2300E5F0F50A8086120AE7E964026003020B25
:100C3300ABE50A700A8E828F83A3A3E01480E315C9
:100C43000A020BAF120C55F583A3A3E0F97F04024C
:100C53000211E50A75F003A4F8A9F08E828F83E0F0
:100C630028FAA3E0398A822274F81201B1E9FE74EA
:100C7300079001A4F074209001A5F0EA9001A6F07A
:100C8300EB9001A7F074079001A0F074209001A1EC
:100C9300F0EC9001A2F0ED9001A3F0E49001A8F034
:100CA3009001A9F09001AAF09001ABF012035A90C1
:100CB3000102E0640170037402F0EEF912068FE0A2
:100CC30064017004C2AF80FEE0640360067403F045
:100CD3001206C79001A4E064FF6005E064FE70089B
:100CE3009001A5E064FF60309001A6E064FF700806
:100CF3009001A7E064FF60209001A4E0906172F08E
:100D03009001A5E0906173F09001A6E0906174F00A
:100D13009001A7E0906175F0906172E064FF600854
:100D2300906173E064FF7004C2AF80FE906180E065
:100D3300D2E0F0020F3B74F31201B18A0C8B0D89E0
:100D4300088C0912079CEAFF740D250890015DF0D9
:100D5300750A04750B00780A1202F87CA07D017AEB
:100D6300617B0112109D7402120170780A1202F85D
:100D73007CA47D017A657B0112109D7402120170BF
:100D83009001AAE0900169F0747E90016AF08508F1
:100D93000A780A1202F8AC0CAD0D7A6B7B011210C3
:100DA3009D7402120170EFFA7B001207A77F008087
:100DB3001F7E0174F355B44404F5B4E5BD75F04EDC
:100DC300A4F8A9F0742028FA744E39FB1208070F0F
:100DD300EFC39509503079017A5D7B01120496E9DE
:100DE300FE70EC75081480097A017B00120838152F
:100DF300089001A9E07004E50870EDE060B3E4F049
:100E03009001AAE004F0EEF97F060202111209E450
:100E1300120E9F7901120B3979007CDE7D257AEB66
:100E23007B25120C6B9001B5E4F0A3F07AD37B0120
:100E3300790112097B7AEC7B01120B9AE9FE7A01A4
:100E43007B01790312097BEE75F003A424E6F58296
:100E5300E5F03401120EB5EEC333FEE433FFEE24A6
:100E6300EFF582EF3401F583E0F8A3E0F99001B5E3
:100E7300E8F0A3E9F07903120B397AAC7B01900116
:100E8300B5120EAC1201AFE960F07C017AAC7B01C4
:100E9300120D397A057B0012083880DE53F5FE53B4
:100EA300FFFE43F70143F34022E0F8A3E0F5838814
:100EB3008222F583E0FAA3E0FB790212097B227414
:100EC300F81201B1EAFEEBFF750800E48E828F830E
:100ED300F07402A3120F40F0120AE7E912030900AB
:100EE30003000FEE0EF30EFD0EF80E750818800DBD
:100EF3007508078008750815800375080F120A9195
:100F0300E96003750813120A45E960057508058051
:100F130004E50860218E828F83A3A3A3E508120F43
:100F230040A3A3120F49120F49A3120F58120F58CF
:100F3300A3F07909800279007F01020211F0E48EA7
:100F4300828F83A3A322120F4D22F08E828F83A35D
:100F5300A3A3A3A322120F4DA3A32274F81201B1DA
:100F6300EAFEEBFF75080074018E828F83F0E4A321
:100F7300A3A3A3F0120AE7E912030900031A108AD4
:100F83000FA80FD20FF20F8E828F83A3A3A3E0C308
:100F9300948140079001B7E0048004E49001B71204
:100FA30010920210398E828F83A3A3A3E0C394808F
:100FB30050118E828F83A3A3A3E060079001B7E053
:100FC300048004E49001B7F0E0C4540F0480678EFA
:100FD300828F83A3A3E0C3948140079001B7E00409
:100FE3008004E49001B71210928E828F83804C8E1E
:100FF300828F83A3A3E0C3948050108E828F83A338
:10100300A3E060079001B7E0048004E49001B7F027
:10101300E0C4540F0480D28E828F83A3A3E0600BBD
:10102300E48E828F83A3A3F07508018E828F83A33E
:10103300A3A3E0600CE48E828F83A3A3A3F07508BF
:1010430001120A91E98E828F83A36005E0D2E080CA
:101053000CE0A2E0500B8E828F83A3C2E0F07508F0
:1010630001120A45E964018E828F83A37006E0D2E0
:10107300E1F08012E0A2E150098E828F83A3C2E1E6
:1010830080EFE5086004790580027900020F3BF0E8
:10109300E0C4540FFA74FFC39A2274F71201B174B7
:1010A300091201A5E0FEA3E0FFEAF8EBF980188C32
:1010B300828D83E088828983F0A3A882A9838C82AE
:1010C3008D83A3AC82AD838E088F0974FF25081E20
:1010D30074FF3509FFE5087002E50970D27F02024B
:1010E300021174F81201B174081201A5E0F8A3E02B
:1010F300F98A828B838003ECF0A3E8FEE9FF74FF97
:101103002E1874FF3FF9EE7001EF70EB7F010202BE
:0111130011CA
:04000005000000D324
:00000001FF
