:020000040000FA
:030000000200D328
:03001300020F20B9
:03003B00020F565B
:03004B00020B7A2B
:1000830002087600000080FB1200E2B900030200C0
:10009300CDE490F100788779038002F0A3D8FCD9EE
:1000A300FA90F386AA82AB839000E57810790280F8
:1000B30015E493A3AC82AD838A828B83F0A3AA82D7
:1000C300AB838C828D83D8E9D9E712158B12008616
:1000D30075D0007581BF7510007511F102008B7921
:1000E300012244657669636520310044657669635E
:1000F300652032004C6F6F706261636B00202020BB
:1001030020000000000000000000000000000000CC
:1001130000000000000000000000004D524649208E
:100123005246206D6F64656D004465766963652092
:10013300526F6C653A20004465766963652031200F
:100143007265616479004465766963652032207263
:1001530065616479004C6F6F706261636B207265D7
:10016300616479004572723A202532642F25326426
:1001730000FFFFFFFF1432506EFF00000086F30004
:100183008FF30198F30221F40330313233343536DF
:1001930037383941424344454600286E756C6C201C
:1001A300706F696E746572290030313233343536BD
:1001B30037383961626364656600464C4F41545376
:1001C3003F2077726F6E6720666F726D617474651E
:1001D3007220696E7374616C6C656421003F3F3FEC
:1001E3000010000000080000000A000000000000EA
:1001F30000E066701008A3E066700A08A3E066706A
:100203000408A3E06622C3E7960809E7960809E70E
:10021300960809E796A2D265D03322E4CFC0E0E482
:10022300CEC0E0E4CDC0E0E4CCC0E075F020C3E68E
:1002330033F608E633F608E633F608E633F618181D
:1002430018EC33FCED33FDEE33FEEF33FFC3EC97D5
:1002530009ED9709EE9709EF97191919400FFFEC6C
:1002630097FC09ED97FD09EE97FE191906D5F0BE27
:10027300ECF709EDF709EEF709EFF7191919D0E0D3
:10028300FCD0E0FDD0E0FED0E0FF22E4C396F60808
:10029300E496F608E496F608E496F622E0F608A358
:1002A300E0F608A3E0F608A3E0F622E6F008A3E6EA
:1002B300F008A3E6F008A3E6F022CAC0E0E6F0A344
:1002C30008DAFAD0E0FA22CAC0E0E0A3C582CCC5BE
:1002D30082C583CDC583F0A3C582CCC582C583CD3A
:1002E300C583DAE6D0E0CA22C3E498F8E499F912A8
:1002F300032C8026C3E49AFAE49BFBE920E7E91286
:10030300032CE498F8E499F922C3E498F8E499F902
:1003130012032CE498F8E499F9C3E49AFAE49BFBFA
:1003230022EB20E7CFE920E7E0B90010BB0008E8A3
:100333008AF084F8AAF022E4FBC8FA22EB70227B4D
:1003430010C833C8C933C9335007C39AC3DBF2801B
:10035300069A50012ADBEAC833F4C8C933F4C9FA50
:100363002275F008E4C833C8C933C933C99AC99B95
:100373005004C92AC93BD5F0ECFBC833F4C8E4C91F
:10038300FA22600C08C6C313C618C613C6D5E0F418
:1003930022251010AF08F510400215118008F51042
:1003A30040021511D2AF22C0D0251010AF08F510AE
:1003B300500205118008F51050020511D2AFD0D0BC
:1003C300222510F58210AF08F510400215118008A0
:1003D300F51040021511D2AF851183222510F58245
:1003E300E43511F58322E4732510C582C0E0E511DD
:1003F30034FFC583C0E0E510C3958224F9F8E4C552
:10040300A8858311858210C5A8E8CEF0A3E520F066
:10041300A37808E608F0A3DEFAEFF0A3E58124FB56
:10042300F8E608F0A3E608F0A30808E608F0A3E658
:1004330008F0A315811581D0E0FED0E0F8158115F1
:1004430081E8C0E0EEC0E022851183851082E0A33D
:10045300FEE0A3F5207808E0A3F608DFFAE0A3FFA7
:10046300E0A3C0E0E0A3C0E0E0A3C0E0E0A3C0E0FD
:10047300E4C5A8858210858311C5A8D083D08222C4
:10048300C0D02510C582C0E0E51134FFC583C0E0AC
:10049300E510C3958224F310AF088583118582107C
:1004A3008008858311858210D2AFC8F0A3E9F0A339
:1004B300EAF0A3EBF0A37908E709F0A3D8FAECF08C
:1004C300A3EDF0A3EEF0A3EFF0A3D0E0F0A3D0E010
:1004D300F0A3D0E0F0A3E520F0A3E5F0F0A322859C
:1004E3001183851082E0C0E0A3E0F9A3E0FAA3E062
:1004F300FBA37808E0F608A3DFFAE0FCA3E0FDA382
:10050300E0FEA3E0FFA3E0C0E0A3E0C0E0A3E0F5CA
:10051300D0A3E0F520A3E0A3F5F0E4C5A8858311FB
:10052300858210C5A8D082D083D0E0F8D0E03274A1
:10053300028000C0E0F4041203C4D0E01202BD2222
:1005430074028000CCC0E0EDC0E0E510C39CCCADEC
:100553001150011D10AF068C108D1180068C108D6B
:1005630011D2AF1202CAD0E0FDD0E0FC22D083D07A
:1005730082C5F0E493A3C5F0C395F0F5F0E493A32B
:10058300C395F04005E5F0048001E475F002A4256D
:1005930082F582E5F03583F583E493A3C0E0E49329
:1005A300C0E022D083D082CCC0E0E493A3600612E3
:1005B30005D01470FAE493A360061205EF1470FAE1
:1005C300D0E0FCE493A3C0E0E493C0E022C0E0E405
:1005D30093A3D39C5010E493A3C39C400AD0E0D0D0
:1005E300E0D0E00205C3A3A3A3D0E022C0E0E493DC
:1005F300A36C7009D0E0D0E0D0E00205C3A3A3D080
:10060300E02253CBEFC2D843CB0475F00DEAA4F537
:10061300CD74FC55CB4402F5CB43CB10A2D850FC90
:1006230053CBEFC2D82274F71203EB750840750958
:100633000078081205321209C11203AA90DF36E0CE
:1006430054EF64016004C2AF80FE90DF37E0C394CF
:10065300035004C2AF80FE53BEFBE5BEA2E650FAD0
:1006630053C6BF43BE0474F1F5D575D445743C90AD
:10067300DF13F0741490DF14F0743D90DF02F07414
:100683000590DF04F0748E90DF2EF0740990DF255F
:10069300F0741290DF07F0E490DF08F0742290DF2B
:1006A30009F074B190DF0AF0743B90DF0BF0742D06
:1006B30090DF0CF0743B90DF0DF0741390DF0EF0BD
:1006C300742290DF0FF074F890DF10F0746290DF03
:1006D30011F0741D90DF15F0741C90DF16F074C7D1
:1006E30090DF17F0E490DF18F074B090DF19F07426
:1006F300B690DF1AF0741090DF1BF0121402741F0F
:1007030090DF1FF0748890DF23F0743190DF24F0C2
:10071300740290F100F07900120ADD7E007F00750B
:10072300E10275081475090590DF3CE0545070230D
:100733007A407B00120A52E50824C0F508E5093423
:10074300FFF509C3E5089401E5099400A2D265D039
:100753003350D57A10EEC333FEEF33FF90DF3AE028
:10076300A2E0E492E04EFE1AEA70EA74804EF5BC11
:10077300EFF5BC120A2B90F1417414F0A3E4F0904E
:10078300F14374FAF0A3E4F0439A01D2AF020B0CE5
:1007930074F71203EBEAFEEBFF890975080090F189
:1007A30000E064017004C2AF80FE120A2BEF90F1E7
:1007B30045F0EE90F146F074DF90F147F074D99074
:1007C300F148F07420120A1A744190F14CF0E509D3
:1007D300701143D60175E103E5E9A2E450FA53E948
:1007E300EF807D740165096004C2AF80FE75090462
:1007F300801D120A2B43B404740F55BC04FE90F100
:1008030043E0FAA3E0FB120A521EEE70F11509430E
:10081300D60175E10290DF3BE0640D70F87E147F32
:100823000590DF3CE05450701D7A407B00120A5261
:10083300EE24C0FEEF34FFFFC3EE9401EF9400A259
:10084300D265D03350DB75E10390DF3BE0640D608C
:1008530008E5E9A2E450FA8085E509709575080179
:10086300120A2B90F100E0640370031209CFA90868
:10087300020B0CC0E074F112048390F100E06403F6
:100883006004C2AF80FEE5E9A2E4502BE5E9A2E6ED
:10089300502553E9EF53E9BF539BFCE59B120A2B09
:1008A30075083E75090078081205321209C1120352
:1008B300AA1209CF0209BC53E9EF539BFCE59B75D0
:1008C3000802750900780812053290F101E004244A
:1008D30001FCE434F1FD7A3F7BF11217E574021257
:1008E30003AAE0FA90F140E0A2E740030209AB8AD1
:1008F3000874012508F8E43400F9E8943FE994000A
:10090300C365D03340030209ABEAC3940850030222
:1009130009AB90F14DE0704490F13FE0F9120A9673
:10092300E9F090F140E0C2E7F090F1017CD87DF26C
:1009330074401202CA90F2E2E0FA90F2D8E0F8743E
:10094300F828F874FF3400F97402687001E9704DF7
:10095300747F6A7048740190F321804B7C007B00A4
:100963007A008A82A882E82402F582E434F1F583CE
:10097300E0FD1213F7E06D70010CE82415F582E435
:1009830034F4F583E06D70010B0AEAC3940440D29A
:1009930074046B608374046C700E02091B747E6AAA
:1009A3007006740190F320F075083E780812053242
:1009B3001209C11203AA43D6017F020204E27C009A
:1009C3007D007A017BF112188474022274F71203FA
:1009D300EB74DF90F145F074D990F146F074F19027
:1009E300F147F0740190F148F07480120A1A7411FF
:1009F30090F14CF075D68175083E750900780812A0
:100A030005321209C11203AA43D601120A4975E13C
:100A130002439110020B0C90F149F0744090F14A9B
:100A2300F0741390F14BF022C082C0835391EF75A1
:100A3300E10490DF3BE0640170F875D68153D1FE89
:100A4300120A49020E50539BFCE59B53E9EF2274B3
:100A5300F71203EB8A088B0974047808120385AE36
:100A630008AF09EA7001EB6028A2AFE492E0F50851
:100A7300C2AF7A107B00120605E508A2E092AFEE42
:100A8300F8EFF974FF281E74FF39FFE87001E9706D
:100A9300D88076C008C009E9C39480E94019F87981
:100AA300FF7A027B001203248808890974B725089A
:100AB300F874FF3509800BC313F874B728F874FF73
:100AC3003400F9C3E89480E994FFA2D265D033508F
:100AD300027880E8F9D009D0082274F71203EB8971
:100AE30008E9C394044004C2AF80FE120A2BE50850
:100AF3002419F582E434F4F583E090DF06F090F1F5
:100B030000E0640370031209CF7F0202044BA2AF1B
:100B1300E492E0FA7B00C2AF22EAA2E092AF22EBBA
:100B2300C313FBEA13FAC3EA9402EB9400401400E4
:100B3300000000000000000000EA24FFFAEB34FF8D
:100B4300FB80E32274F81203EBEAFEEBFFEEF8EF0F
:100B5300F974FF28FE74FF39FF7400687003740092
:100B63006960097AE87B03120B2280E17F010204AA
:100B73004BD2B943E40222C0E074F212048390F131
:100B83004EE07002A3E0600E90F14EE0F8A3E0F5B2
:100B93008388821203E9020F517A007B00790112E4
:100BA3000C0D7A007B007902120C0D2274F81203EB
:100BB300EB74FD120394EBFEEAC3941140027A0F27
:100BC3007476851082851183F074011203DFE4F0DB
:100BD30074016970047880800278C0E82AC0E074E8
:100BE300021203DFD0E0120CAE7476F0740112032C
:100BF300DF7440F0EEF9120D9374021203DFE91271
:100C03000CAE74031203AA0213F274F51203EB740D
:100C1300CE120394EAFEEBFFEE7001EF606A747686
:100C2300851082851183F074011203DFE4F07401EF
:100C330069700974021203DF74808007740212035F
:100C4300DF74C0120CAE7509007476F074011203E0
:100C5300DF7440F07508028003120C9085090A12B4
:100C63000D196007E509C3941040EEE509C394101C
:100C730050077920120C9080F2A908851082851103
:100C830083AA82AB83120CBF7432020D11120D932F
:100C930085080A851082851183E582250AF582E598
:100CA300831211E7E9F00508050922F0790385109D
:100CB30082851183AA82AB83120CBF2274F51203BF
:100CC300EBEAFEEBFF8909A29250FCA2A050F85375
:100CD300F4FBC29243FE04120E557900120D3875CF
:100CE3000800800E85080A120D19120D4CE960F4F4
:100CF3000508E508C3950940EBA29240FCA2A05069
:100D0300F8120D22120E557901120D3880031203C9
:100D1300AA7F0402044BEE250A1211E4E0F92279BA
:100D230000120D3853F4FB120D2E2253FEFB53F623
:100D3300FB53F7BF22E953F5FE7007C2A043FF013F
:100D4300800312103F120E552274F81203EBE9FFD1
:100D53007E087900120D38120E55EFA2E753F4FB0B
:100D63005005120D2E8005C29243FE047901120D27
:100D730038120E55EFC333FF1EEE70D6120D2279D3
:100D830001120D38A292E492E0F45401F90213F235
:100D9300C082C083E9C39461E9400CC3947B502BA8
:100DA300748029F9020E4BC39441E94007C3945B55
:100DB300501980ECC394204006E9C3942440E1E930
:100DC300C394254006E9C3944040D5E91205A60023
:100DD30011103D0E11410E12450E13490E24090E3A
:100DE30040150E5B190E5D1D0E5F210EA3110EA79C
:100DF3000D0EC5390EC6310ED8350EE52D0EE6257E
:100E03000EF8290E4B0E7982803E79DF803A798184
:100E1300803679808032798A802E7954802A795A73
:100E23008026799D8022798C801E798F801A799C07
:100E33008016798B8012798E800E7910800A792042
:100E4300800679128002793080031203AAD083D0FE
:100E530082227A01EA1A70FC22C082C08353FF3FC8
:100E6300E5FF85FFFF53F1FE43F30CE5F353F4F382
:100E7300E5F453F2F3E5F275868043C480E9120585
:100E83007004019C0E8C0E940E75C28375C50A8086
:100E93000E75C22275C50B800675C22275C50C7A04
:100EA300507BF11210C9D2E97A137BF21210C953A5
:100EB300F3DFD28543FD2043C402C28B438640D275
:100EC300AA7901120F17808574F71203EB8A828BBC
:100ED300838C088D097E007F008026EEFAE508C327
:100EE3009AF9E5822EFCE5833FFD7A137BF212101B
:100EF300F3E9F8EE28FEEF3400FF7A057B00120BCE
:100F030047C3EE9508EF950940D1439A04EEFAEFF3
:100F1300FB020B0CE96003C28522D28522C0E07478
:100F2300F212048374FF120394C28BE5C18510820D
:100F3300851183F0E586FA74185A700D7901AC8235
:100F4300AD837A507BF11210F374011203AA7F016F
:100F53000204E2C0E074F212048374FF120394C229
:100F6300E97901851082851183AC82AD837A137B85
:100F7300F2121167E964017003E0F5C190F2D3E066
:100F83007003539AFB80C2C082C08374F812039427
:100F9300748055C6FA53BEFB53C6BFE5C6A2E640EE
:100FA300FA8AC6E5C66A70FB43BE0453F4FEC290D8
:100FB30043FE0153F4F7C29343FE08D290D29353F6
:100FC300F3FD53FDFD438F0253F3BF53FDBF438F27
:100FD3004053F3DF53FDDF438F20120D2753F5FEFC
:100FE30012103F7476851082851183F07401120309
:100FF300DFE4F074021203DF740CF074031203DFF6
:101003007421F074041203DF74A0F074051203DF7B
:101013007407F074061203DF7434F074071203DFED
:101023007401F07908851082851183AA82AB83123B
:101033000CBF120B9CD2AF7408020E4D53FFFE532C
:10104300F7FE53F77F2274F71203EB7907E9FA43AC
:10105300F240C28D75B696A28D50FCE5BBF953F2F2
:10106300BF747F59F9E4C990F2D6F0A3E4F090F28B
:10107300D6C3E09410E494004009C3E0947DE49463
:10108300004003098023C3E09440E4940050030923
:1010930080F1C3E09460E4940050030980F1C3E05D
:1010A3009470E4940040027904EA6970A0020B0C86
:1010B3007401697006639001E590227403697005F9
:1010C300639008E5902274F71203EBEAFEEBFF123C
:1010D3000B11EE24C01210EDEE24C11210EDEE241C
:1010E300C21210ED120B1C020B0C1211E4E4F022DD
:1010F30074F31203EBEAFEEBFF8C088D09890C12E3
:101103000B111211C4F8850C0AE50A28F8E434001F
:10111300F9E894C0E99400C365D033750D005036E7
:10112300802624C2F8EF3400F9850D0AE508250A64
:10113300F582E5091211E7E0C0E01211D8D0E01200
:1011430011CC7002E4F0050DE50DC3950CEE40D211
:101153001211C5250DF0120B1CA90D8002EEF97FAB
:101163000602044B74F31203EBEAFEEBFF8C088DCB
:1011730009890B120B11750A008027EE24C1F8EFC1
:101183003400F91211D8E0C0E0850A0CE508250CFB
:10119300F582E5091211E7D0E01211CC7002E4F0F8
:1011A300050AE50AC3950B500A1211C4FCE50AC3EC
:1011B3009C40C81211C4C3950AF0120B1CA90A80E3
:1011C3009EEE24C01211E4E022F088828983E004B9
:1011D300F0E064C02288828983E0FCEE2C1211E4E3
:1011E30022F582EF3400F5832274F51203EB74E2E7
:1011F300120394EAFEEBFF90F3A1C082851082856F
:101203001183AC82AD837583F3D082741E1202CA3C
:10121300F50A750B0102129BE50B607575080E75D7
:101223000900780812053212130CE0FCA3E0FD74E8
:10123300031203DFAA82AB8312195174021203AAA9
:10124300851082851183AA82AB837902120C0D7BF0
:101253003C7A007902120BAF7B3E7A0F7902120BB4
:10126300AF750B00750800121049E9640460067538
:101273000800750900E5082401F508E5093400F5BF
:1012830009C3E50894F4E5099401A2D265D033407B
:10129300D67A0A7B00120B47A281402E7800790090
:1012A300A281400478007900E8240108E93400F9B8
:1012B300C3E894F4E99401A2D265D03340E2121357
:1012C3000CA3A3E0F9741E020D11121049E9640383
:1012D30070197401250AC0E08E828F83A3A3E0F501
:1012E300F0D0E084E5F0F50A02121F121049E96418
:1012F30002600302121BE50A700A8E828F83A3A386
:10130300E01480E2150A02121FE50A75F003A4F83F
:10131300A9F08E828F83E028FAA3E0398A82F583CD
:101323002274F81203EBE9FE740790F31CF07420A7
:1013330090F31DF0EA90F31EF0EB90F31FF07407A7
:1013430090F318F0742090F319F0EC90F31AF0ED89
:1013530090F31BF0E490F320F090F321F090F3224C
:10136300F090F323F0120629E5C6A2E65004C2AFBB
:1013730080FE90F100E06401701412140274029074
:10138300F100F075E10490DF3BE0640170F8EEF9E1
:10139300120ADD90F100E064017004C2AF80FEE048
:1013A300640360067403F01209CF90F31CE064FF3A
:1013B3006025E090DF05F07A008A82A882E8241C89
:1013C300F582E434F3F583E0C0E01213F7D0E0F0E4
:1013D3000AEAC3940440E290F41DE064FF7004C27F
:1013E300AF80FE740190F14DF0740790DF03F07F3E
:1013F3000102044BE8241DF582E434F4F5832274DE
:10140300EA90DF1CF0742A90DF1DF0E490DF1EF0F9
:101413002274F31203EB8A0C8B0D90F320E070031C
:101423000214B8120B11EAF50890F2D8E024F6FE84
:1014330090F2E1E090F323F090F2E2E0FF8E0A7580
:101443000B00780A1205327CE37DF2AA0CAB0D1275
:1014530015851203AAE490F320F0747E6F704DEEAD
:10146300604A120B11EAFF740A90F2D8F0750A046D
:10147300780A12053212157D1203AA780A12053270
:101483007C1C7DF37ADD7BF21215851203AA90F39F
:1014930023E090F2E1F0747F90F2E2F0EFFA7B0048
:1014A300120B1C79007AD87BF2120793AA087B00EF
:1014B300120B1C80027E0002116074F31203EB8A8C
:1014C3000C8B0D89088C09120B11EAFF740A25088D
:1014D30090F2D8F0750A04750B00780A12053212DF
:1014E300157D1203AA780A1205327C1C7DF37ADD7E
:1014F3007BF21215851203AA90F322E090F2E1F039
:10150300747E90F2E2F085080A780A120532AC0C78
:10151300AD0D7AE37BF21215851203AAEFFA7B0075
:10152300120B1C7F00801A7E0143B404E5BC75F0E6
:101533004EA4F8A9F0742028FA744E39FB120B223A
:101543000FEFC39509503079017AD87BF2120793D4
:10155300E9FE70EC75081480097A017B00120B47D1
:10156300150890F321E07004E50870EDE060B8E43D
:10157300F090F322E004F00211607C187DF37AD935
:101583007BF212179D740222E490F385F0120F8A06
:101593007A007904120E5C43E40CE5E475DB6675AE
:1015A300DA6053E4EFC2B9A2AFE492E0F8C2AF90BD
:1015B300F14E7490F0A37417F0E8A2E092AF120B0F
:1015C3009C7ABF7BF37901120C0DC2907ACD7BF329
:1015D3007901120C0D7A2A7BF41211ECE990F38451
:1015E300F0120B9CE070487ADB7BF37902120C0D4E
:1015F30090F38274EB1216C874DEF0A37425F079AD
:101603000090F380E0FCA3E0FD90F382E0FAA3E016
:10161300FB1213247ABF7BF37901120C0D90F37E36
:10162300E4F0A3F090F37CF0A3F0120B7480436416
:101633000170157AEA7BF37902120C0D90F3827430
:10164300DE1216C874EB80B2E0640270B27AF97BE2
:10165300F37902120C0D80BCEAFEEEF97C247DF3D3
:101663007A507BF1121167EEFC7D007A247BF31232
:101673000ECB90F384E06402701090F210E0FA60F5
:10168300F9C3942D40D27E2C80D01216D190F32032
:10169300E060DF12173B7A507BF3121414E9FA600F
:1016A300178A82FC7D007A507BF3120ECB8A08E501
:1016B3008265087001EB600690F37E12174879018A
:1016C300120F1780ADF0A37425F090F3802274F805
:1016D3001203EB90F210E0FEC3942C500990F385B3
:1016E300E06052EE604F12173BEEC3942C5004EEB1
:1016F300FF80027F2CEFF97C247DF37A507BF1127B
:10170300116779031210B37C05EFF97A247BF31286
:1017130014BDE9600690F37C1217487901120F1784
:1017230053E4FDC2B975E20043E402D2B9120B746B
:10173300E490F385F00213F27900120F177AE87B35
:1017430003120B2222E02401F0A3E03400F012176D
:101753005522C082C08374EF12039490F37E120566
:101763004390F37C1205437C087DF474041203DF79
:10177300AA82AB831218DB74041203AA851082AA0F
:1017830082AB837903120C0D7411020E4DC082C01B
:1017930083740190F385F0020E5074F71203EB7417
:1017A300091203DFE0FEA3E0FFEAF8EBF980188CEF
:1017B300828D83E088828983F0A3A882A9838C82A7
:1017C3008D83A3AC82AD838E088F0974FF25081E19
:1017D30074FF3509FFE5087002E50970D27F020244
:1017E300044B74F71203EB74091203DFE0F8A3E070
:1017F300F9EAFEEBFF8A088B09C3EA9CEB9D405E86
:10180300EC28F582ED39F583C3E5829508E58395E8
:1018130009404BEA28FAEB39FBAC82AD831218730B
:101823007002E5096041EC24FF1CED34FFFDEA245E
:10183300FF1AEB34FFFB8C828D83E08A828B83F06B
:1018430080DB8C828D83E08A828B83F08C828D8314
:10185300A3AC82AD838A828B83A3AA82AB83121843
:10186300737002E50970DBEEFAEFFB7F0202044BB3
:101873008808890974FF25081874FF3509F9E508F4
:101883002274F81203EB74081203DFE0F8A3E0F903
:101893008A828B838003ECF0A3E8FEE9FF74FF2EBA
:1018A3001874FF3FF9EE7001EF70EB7F0102044BF8
:1018B300C082C0838A828B83121948E9F08A828BA3
:1018C30083E02401F8A3E03400F98A828B83E8F0F3
:1018D300A3E9F0D083D0822274F71203EB74FC12D5
:1018E300039474021203DFEAF0A3EBF0ECFAEDFBCE
:1018F300740D1203DFA882A983851082851183E802
:10190300F0A3E9F085108285118385820885830918
:10191300780812053274041203DF8582088583096F
:1019230078081205327CB37D181219B874041203B7
:10193300AA74021203DF121948E4F074041203AA12
:101943007F0202044BE0F8A3E0F58388822274F758
:101953001203EB74091203DFE0FEA3E0FFEAF8EBE6
:10196300F98E088F0974FF25081E74FF3509FFE5FA
:10197300087002E50960358C828D83E0A3AC82ADEB
:10198300838A828B83F0A3AA82AB8370D4EEFCEFAD
:10199300FD74FF2C1E74FF3DFFEC7001ED600DE440
:1019A3008A828B83F0A3AA82AB8380E1E8FAE9FB06
:1019B3007F0202044B74F11203EB74B21203948599
:1019C30010828511831222C274101203DFECF0A37C
:1019D300EDF0740B1203DFE4F0A38022745D1203B5
:1019E300DF1221F874041203DFE0F974101203DF2D
:1019F3001222211203E9740B1203DF1222D6F01212
:101A030022FA1203DFEAF074256A6015E070CD74E0
:101A13000B1203DF1221F8744E1203AA7F0802048B
:101A23004B12222E6425700F1222DF745D1203DF26
:101A33001221F8792580B4740F1203DFE4F0740ED9
:101A43001203DFE4F074081203DFE4F074071203F7
:101A5300DFE4F0741C1203DFA882A983740212036B
:101A6300DF1222F4741A1203DF742DF0A374F480CE
:101A73001974071203DFE0700774071203DFEAF03B
:101A8300851082851183E8F0A3E9F012227CFA1213
:101A930005A6000520741A23B11A2B7C1A2DA81A47
:101AA30030B51AB91A74081203DFE00480D1740E3A
:101AB30080F5740F80F1851082851183122248E02E
:101AC300642A7053745F1203DF1222481221F88ACA
:101AD300828B831221F274091203DFECF0A3EDF081
:101AE3001221D91203DF1222BF74091203DF12225B
:101AF3006B501F74091203DF1221F8C3E49AFAE44E
:101B03009BFB74091203DF1222C274081203DFE085
:101B130004F01222EE802674091203DFE4F0A3809E
:101B23001074091203DF12229A74091203DF1223BD
:101B3300381223274007E508C3943A40E474081297
:101B430003DFE06007740F1203DFE4F012222E6458
:101B53002E705C1222DF12222E642A702C745F1204
:101B630003DF122241F9888289831221F874051256
:101B730003DF1222C2E824020808E91221D3120368
:101B8300DF122248122338802F74051203DFE4F09A
:101B9300A31223274023E508C3943A501C7405126B
:101BA30003DF12229A74051203DF12233880E274D2
:101BB300051203DF74FFF0A3F07C0012227C1205F0
:101BC300A600034CD11B68D21B6CD11BD51B0C1276
:101BD30022EE1222FA1203DFEAF01205A60165676C
:101BE30054200D00712045542047542058691D632B
:101BF300581C64F71D69F71D6E0F1C6F3E1D70693D
:101C03001D738C1C75691D785D1D7D20745F120327
:101C1300DF122266602E740B1203DF1221F233955A
:101C2300E0FE8A828B83122221ECF0A3EDF0A3EE77
:101C3300F0A3F0745F1203DF1222711203DF12228A
:101C430055021A01740B1203DF12220F8A828B834F
:101C530012225580DD745F1203DF122241F583885F
:101C630082E0C0E0741C1203DFD0E0F0745F120363
:101C7300DF1222711203DF1222481222F4741D12A2
:101C830003DFAA82AB8302208D745F1203DF12226B
:101C93005D8A828B8312220F1221D91203DF122253
:101CA300BF74021203DF1222F4E87001E9700C74AE
:101CB300021203DF743EF0A374F4F074051203DF21
:101CC30012226B500C74051203DF7410F0A37427F7
:101CD300F07E007F008008EE24010EEF3400FF74D5
:101CE300021203DF12220F88828983A3AA82AB83A5
:101CF30074021203DF1222C288828983E0601474A3
:101D0300051203DF12220FC3EE98EF99A2D265D01A
:101D13003340C474021203DFE024FFFAA3E034FF6C
:101D2300FBC3E49EF8E49FF9EA28F8EB39F974025F
:101D33001203DFE8F0A3E9F002208D740E1203DF33
:101D4300E0601774051203DFE07002A3E0700B7408
:101D5300051203DF7401F0A3E4F0741A1203DF74B5
:101D63004DF0A374F4F0745F1203DF12225D740468
:101D73001203DFE0647070358A828B83122215129E
:101D830003DF1223191221D11203DF122248122278
:101D9300F490F485780812029F74161203DF780812
:101DA3001202AE74071203DFE4F0021E7AEC8A8299
:101DB3008B836014780812029F74121203DF780871
:101DC3001202AEEA240480091222151203DF122341
:101DD300191221D11203DF1222481223111203DF39
:101DE300E0646F700590F48980AAE0647570A29036
:101DF300F48D80A0745F1203DF1222668A828B83C4
:101E0300600A780812029FEA24048011E0F508A30F
:101E1300E0F5093395E0F50AF50BEA24021221D126
:101E23001203DF1222481222F474121203DF78081D
:101E33001202AE90F491780C12029F780C7908127A
:101E43000209502174071203DF742DF07412120378
:101E5300DF780812029F780812028E74121203DFD1
:101E630078081202AE90F48D780812029F7416124D
:101E730003DF78081202AE744D1203DFA882A98330
:101E830074021203DF1222F4744D1203DFAA82AB31
:101E93008374121203DFC082C08390F49178081216
:101EA300029FD083D08278081201F46009740D1266
:101EB30003DF74018006740D1203DFE4F07405126E
:101EC30003DFE07002A3E0700B740D1203DFE07018
:101ED30003021FB574021203DF1222081203DF127A
:101EE30022F474121203DF780C12029F7416120389
:101EF300DF780812029F780C790812021E741A12F6
:101F030003DFE02508FCA3E035098C82F583E0C0FC
:101F1300E074021203DF122221D0E0F074121203E4
:101F2300DF780C12029F74161203DF780812029FE7
:101F3300780C790812021E74121203DF780C120255
:101F4300AE74121203DFC082C08390F4917808123A
:101F5300029FD083D08278081201F46003021ED757
:101F630074051203DF12226B5048740F1203DFE073
:101F7300604074071203DFE06004D2F08002C2F015
:101F830074091203DFA2F0E492E0F8E0C398F8A327
:101F9300E09400F974051203DFE8F0A3E9801274FA
:101FA300021203DF1222F474021203DF12222174DD
:101FB30030F074021203DF1222081203DF1221F23F
:101FC3008B838A82E582C39CFEE5839DFF740512A1
:101FD30003DF1221F2C3EE9CEF9DA2D265D0334002
:101FE300BE740E1203DFE0700302208D740D120322
:101FF300DFE0700302208D74041203DFE064786075
:1020030005E06458703774021203DF1223111203C0
:10201300DFE0C0E074021203DF122221D0E0F0748B
:10202300021203DF1221E5F974021203DF1222F414
:1020330074021203DF1222217430021D3AE0646F2E
:10204300704874021203DF1222C8E06430603B80E0
:10205300D774021203DF745EF0A374F4F07A5EFBAC
:102063008A828B83E06023A3AA82AB8380F28510EC
:10207300828511831221E51222ED74021203DF74AB
:1020830081F0A374F4F07A847BF474021203DF12F8
:10209300220FEAC398F8EB99F974051203DF1222B1
:1020A300F474091203DFC082C08374051203DFE0F6
:1020B300F8D083D082C3E098A3E099A2D265D0334D
:1020C30050067E007F00802974071203DFE060045E
:1020D300D2F08002C2F074091203DFE0C398F8A3C0
:1020E300E099F9A2F0E492E0FAE8C39AFEE99400D9
:1020F300FF74081203DFE070208019745D1203DFA0
:102103001221FE1203DF1222211203E9740B1203C0
:10211300DF1222D11221C050E274071203DFE06004
:1021230056745D1203DF1221F874071203DFE0F91E
:1021330074101203DF1222211203E98032745D123C
:1021430003DF1221F874021203DF122234F9741030
:102153001203DF1222211203E974021203DFE024C7
:1021630001F8A3E03400F974021203DF1222F474BD
:102173000B1203DF1222D174051203DFE024FFF0F8
:10218300A3E034FFF074051203DF12226B50AE7428
:10219300081203DFE07003021A021221C050030287
:1021A3001A02745D1203DF1221FE1203DF122221D1
:1021B3001203E9740B1203DF1222D180DDEE24FF38
:1021C3001EEF34FFFFC39400A2D265D03322F8EB95
:1021D3003400F9745F22EA24020A0AEB3400FB7428
:1021E3005F221221E922E024FFF8A3E034FF22E07A
:1021F300FCA3E0FD22E0FAA3E0FB22E0FAA3E0FB6C
:1022030079207410221221E9F9740222E0F8A3E084
:10221300F922E0F8A3E0F9E8FCE9FD7412221222A6
:102223002522E0F8A3E0F5838882228510828511B8
:10223300831222382212223C22122225E022122269
:1022430038F8A3E02212224C22E0FAA3E0F5838AB5
:10225300822212224CE8F0A3E922122261221222E6
:102263003C8093122261EC22C3A3E00221C9122213
:10227300382402F8A3E00221D3851082851183E07C
:1022830012228B12224CE0222401F8A3E03400F93D
:1022930085108285118322E0F8A3E0F9E875F00A3E
:1022A300A4F8AAF075F00AE9A42AF9E82508F8E9E0
:1022B3003400F974D028F874FF39F9221222C8EADD
:1022C300F0A3EBF022E0FCA3E0F5838C8222122240
:1022D300D6F022E02401F0A3E034002285108285A9
:1022E3001183E0240108A3E03400F98510828511ED
:1022F30083E8F0A3E9F02285108285118312223846
:10230300FA851082851183E024010812228EE8F0F9
:10231300A3E9F0740422ECF0A3EDF0A3E4F0A3F03E
:10232300EA240222122345F8A3E0F5838882E0F52C
:1023330008C3943022E8F0A3E912234512228B024A
:0B2343002258F0851082851183E022F3
:04000005000000D324
:00000001FF
