:020000040000FA
:030000000200D328
:03004B000209D1D6
:100083000206D200000080FB1200E2B90003020066
:10009300CDE490F10078AC79018002F0A3D8FCD9CB
:1000A300FA90F1ABAA82AB839000E5786279018084
:1000B30015E493A3AC82AD838A828B83F0A3AA82D7
:1000C300AB838C828D83D8E9D9E71211081200869D
:1000D30075D0007581BF7510007511F102008B7921
:1000E300012220202020204D4F5553452020002061
:1000F3002020204B4559424F4152442000202020CC
:1001030020000000000000000000000000000000CC
:100113000000000000000000000000202020204D0F
:1001230052464920484944202000FFFFFFFF143274
:10013300506EFF000000ABF100B8F101FFF1025077
:1001430012B611CAC0E0E6F0A308DAFAD0E0FA2248
:10015300CAC0E0E0A3C582CCC582C583CDC583F008
:10016300A3C582CCC582C583CDC583DAE6D0E0CAF8
:1001730022C3E498F8E499F91201B58026C3E49AFE
:10018300FAE49BFBE920E7E91201B5E498F8E49966
:10019300F922C3E498F8E499F91201B5E498F8E474
:1001A30099F9C3E49AFAE49BFB22EB20E7CFE92019
:1001B300E7E0B90010BB0008E88AF084F8AAF0224F
:1001C300E4FBC8FA22EB70227B10C833C8C933C9D9
:1001D300335007C39AC3DBF280069A50012ADBEA45
:1001E300C833F4C8C933F4C9FA2275F008E4C83334
:1001F300C8C933C933C99AC99B5004C92AC93BD555
:10020300F0ECFBC833F4C8E4C9FA22600C08C6C397
:1002130013C618C613C6D5E0F422251010AF08F58F
:1002230010400215118008F51040021511D2AF22BB
:10023300C0D0251010AF08F510500205118008F545
:100243001050020511D2AFD0D0222510F58210AF85
:1002530008F510400215118008F51040021511D25F
:10026300AF851183222510F582E43511F58322E44D
:10027300732510C582C0E0E51134FFC583C0E0E5F6
:1002830010C3958224F9F8E4C5A8858311858210EB
:10029300C5A8E8CEF0A3E520F0A37808E608F0A30C
:1002A300DEFAEFF0A3E58124FBF8E608F0A3E60805
:1002B300F0A30808E608F0A3E608F0A3158115816A
:1002C300D0E0FED0E0F815811581E8C0E0EEC0E093
:1002D30022851183851082E0A3FEE0A3F520780830
:1002E300E0A3F608DFFAE0A3FFE0A3C0E0E0A3C0C9
:1002F300E0E0A3C0E0E0A3C0E0E4C5A885821085E8
:100303008311C5A8D083D08222C0D02510C582C056
:10031300E0E51134FFC583C0E0E510C3958224F303
:1003230010AF08858311858210800885831185822B
:1003330010D2AFC8F0A3E9F0A3EAF0A3EBF0A379DE
:1003430008E709F0A3D8FAECF0A3EDF0A3EEF0A3CD
:10035300EFF0A3D0E0F0A3D0E0F0A3D0E0F0A3E56A
:1003630020F0A3E5F0F0A322851183851082E0C07D
:10037300E0A3E0F9A3E0FAA3E0FBA37808E0F60822
:10038300A3DFFAE0FCA3E0FDA3E0FEA3E0FFA3E00C
:10039300C0E0A3E0C0E0A3E0F5D0A3E0F520A3E034
:1003A300A3F5F0E4C5A8858311858210C5A8D08282
:1003B300D083D0E0F8D0E03274028000C0E0F404CF
:1003C30012024DD0E012014622D083D082C5F0E460
:1003D30093A3C5F0C395F0F5F0E493A3C395F04060
:1003E30005E5F0048001E475F002A42582F582E5B9
:1003F300F03583F583E493A3C0E0E493C0E022D017
:1004030083D082CCC0E0E493A3600612042C147062
:10041300FAE493A3600612044B1470FAD0E0FCE4F0
:1004230093A3C0E0E493C0E022C0E0E493A3D39C91
:100433005010E493A3C39C400AD0E0D0E0D0E00284
:10044300041FA3A3A3D0E022C0E0E493A36C70092C
:10045300D0E0D0E0D0E002041FA3A3D0E02253CB2E
:10046300EFC2D843CB0475F00DEAA4F5CD74FC5567
:10047300CB4402F5CB43CB10A2D850FC53CBEFC2F5
:10048300D82274F7120274750840750900780812AF
:1004930003BB12081D12023390DF36E054EF6401F0
:1004A3006004C2AF80FE90DF37E0C394035004C200
:1004B300AF80FE53BEFBE5BEA2E650FA53C6BF4370
:1004C300BE0474F1F5D575D446743C90DF13F07413
:1004D3001490DF14F0743D90DF02F0740590DF0494
:1004E300F0748E90DF2EF0740990DF25F074129073
:1004F300DF07F0E490DF08F0742290DF09F074B1B5
:1005030090DF0AF0743B90DF0BF0742D90DF0CF05A
:10051300743B90DF0DF0741390DF0EF0742290DFC4
:100523000FF074F890DF10F0746290DF11F0741D17
:1005330090DF15F0741C90DF16F074C790DF17F08E
:10054300E490DF18F074B090DF19F074B690DF1AFE
:10055300F0741090DF1BF0121024741F90DF1FF053
:10056300748890DF23F0743190DF24F0740290F1EB
:1005730001F0790012093D7E007F0075E1027508E4
:100583001475090590DF3CE0545070237A407B00DA
:100593001208AFE50824C0F508E50934FFF509C3DF
:1005A300E5089401E5099400A2D265D03350D57AC9
:1005B30010EEC333FEEF33FF90DF3AE0A2E0E492A4
:1005C300E04EFE1AEA70EA74804EF5BCEFF5BC12F9
:1005D300088690F1427414F0A3E4F090F14474FAA5
:1005E300F0A3E4F0439A01D2AF0208F174F71202C8
:1005F30074EAFEEBFF890975080090F101E06401DC
:100603007004C2AF80FE120886EF90F146F0EE90C0
:10061300F147F074DF90F148F074D990F149F07428
:1006230020120875744190F14DF0E509701143D61D
:100633000175E103E5E9A2E450FA53E9EF807D7423
:100643000165096004C2AF80FE750904801D1208AC
:100653008643B404740F55BC04FE90F144E0FAA33E
:10066300E0FB1208AF1EEE70F1150943D60175E1E8
:100673000290DF3BE0640D70F87E147F0590DF3C51
:10068300E05450701D7A407B001208AFEE24C0FE88
:10069300EF34FFFFC3EE9401EF9400A2D265D03391
:1006A30050DB75E10390DF3BE0640D6008E5E9A2F0
:1006B300E450FA8085E50970957508011208869063
:1006C300F101E06403700312082BA9080208F1C0CA
:1006D300E074F112030C90F101E064036004C2AF13
:1006E30080FEE5E9A2E4502BE5E9A2E6502553E9B3
:1006F300EF53E9BF539BFCE59B12088675083E75D3
:10070300090078081203BB12081D12023312082BCA
:1007130002081853E9EF539BFCE59B750802750922
:100723000078081203BB90F102E0042402FCE434D5
:10073300F1FD7A407BF11213D77402120233E0FA0F
:1007430090F141E0A2E740030208078A08740125FB
:1007530008F8E43400F9E8943FE99400C365D03322
:100763004003020807EAC39408500302080790F104
:100773004EE0704490F140E0F91208F6E9F090F190
:1007830041E0C2E7F090F1027C537DF17440120125
:100793005390F15DE0FA90F153E0F874F828F8749F
:1007A300FF3400F97402687001E9704D747F6A7058
:1007B30048740190F19C804B7C007B007A008A8214
:1007C300A882E82403F582E434F1F583E0FD1210F6
:1007D30019E06D70010CE824F3F582E434F1F5833C
:1007E300E06D70010B0AEAC3940440D274046B6099
:1007F3008374046C700E020777747E6A700674014A
:1008030090F19BF075083E78081203BB12081D1285
:10081300023343D6017F0202036B7C007D007A0220
:100823007BF112147674022274F712027474DF904F
:10083300F146F074D990F147F074F190F148F074F7
:100843000290F149F07480120875741190F14DF023
:1008530075D68175083E75090078081203BB120826
:100863001D12023343D6011208A675E1024391100B
:10087300807C90F14AF0744090F14BF0741390F146
:100883004CF022C082C0835391EF75E10490DF3BAB
:10089300E0640170F875D68153D1FE1208A6D083A7
:1008A300D08222539BFCE59B53E9EF2274F712029B
:1008B300748A088B097404780812020EAE08AF0913
:1008C300EA7001EB6028A2AFE492E0F508C2AF7AC8
:1008D300107B00120461E508A2E092AFEEF8EFF995
:1008E30074FF281E74FF39FFE87001E970D87F0296
:1008F3000202D4C008C009E9C39480E94019F87919
:10090300FF7A027B001201AD8808890974B72508B4
:10091300F874FF3509800BC313F874B728F874FF14
:100923003400F9C3E89480E994FFA2D265D0335030
:10093300027880E8F9D009D0082274F7120274898A
:1009430008E9C394044004C2AF80FE120886E50898
:1009530024F7F582E434F1F583E090DF06F090F1BB
:1009630001E06403700312082B8083A2AFE492E0DA
:10097300FA7B00C2AF22EAA2E092AF22EBC313FBE1
:10098300EA13FAC3EA9402EB940040140000000057
:10099300000000000000EA24FFFAEB34FFFB80E3D1
:1009A3002274F8120274EAFEEBFFEEF8EFF974FF1B
:1009B30028FE74FF39FF74006870037400696009CE
:1009C3007AE87B0312097F80E17F010202D4C0E051
:1009D30074F212030C90F14FE07002A3E0600990EF
:1009E300F14F1211AD1202727F0102036BC082C07C
:1009F3008374F812021D120BE653F5FE120C0B74EE
:100A030076851082851183F07401120268E4F07414
:100A130002120268740CF074031202687421F074F9
:100A23000412026874A0F074051202687407F0746B
:100A3300061202687434F074071202687401F079C4
:100A430008851082851183AA82AB83120B817A00F9
:100A53007B007901120AC97A007B007902120AC964
:100A630074081202330208A174F812027474FD129E
:100A7300021DEBFEEAC3941140027A0F74768510CF
:100A830082851183F07401120268E4F074016970C5
:100A9300047880800278C0E82AC0E07402120268F9
:100AA300D0E0120B707476F074011202687440F097
:100AB300EEF9120C5C7402120268E9120B707403F3
:100AC30012023302101474F512027474CE12021D52
:100AD300EAFEEBFFEE7001EF606A747685108285A3
:100AE3001183F07401120268E4F0740169700974EF
:100AF3000212026874808007740212026874C012C2
:100B03000B707509007476F074011202687440F07A
:100B13007508028003120B5185090A120BD4600772
:100B2300E509C3941040EEE509C3941050077920FA
:100B3300120B5180F2A908851082851183AA82AB1A
:100B430083120B8174321202337F040202D4120C1B
:100B53005C85080A851082851183E582250AF58262
:100B6300E5833400F583E9F00508050922F07903EC
:100B7300851082851183AA82AB83120B812274F5BF
:100B8300120274EAFEEBFF8909A29250FCA2A05064
:100B9300F853F4FBC29243FE04120D177900120BB3
:100BA300F7750800800E85080A120BD4120C15E99C
:100BB30060F40508E508C3950940EBA29240FCA246
:100BC300A050F8120BE1120D177901120BF7020B6B
:100BD3004CEE250AF582EF3400F583E0F922790023
:100BE300120BF753F4FB120BED2253FEFB53F6FBF0
:100BF30053F7BF22E953F5FE7007C2A043FF0180FC
:100C030003120C0B120D172253FFFE53F7FE53F77B
:100C13007F2274F8120274E9FF7E087900120BF741
:100C2300120D17EFA2E753F4FB5005120BED8005ED
:100C3300C29243FE047901120BF7120D17EFC3336F
:100C4300FF1EEE70D6120BE17901120BF7A292E4AC
:100C530092E0F45401F9021014C082C083E9C394F2
:100C630061E9400CC3947B502B748029F9020D1465
:100C7300C39441E94007C3945B501980ECC39420AB
:100C83004006E9C3942440E1E9C394254006E9C33F
:100C9300944040D5E9120402001110060D110A0D0B
:100CA300120E0D13120D24D20C40DE0C5BE20C5D10
:100CB300E60C5FEA0CA3DA0CA7D60CC5020DC6FA44
:100CC3000CD8FE0CE5F60CE6EE0CF8F20C140D79DC
:100CD30082803E79DF803A798180367980803279EB
:100CE3008A802E7954802A795A8026799D802279A8
:100CF3008C801E798F801A799C8016798B8012796B
:100D03008E800E7910800A7920800679128002790C
:100D1300300208A17A01EA1A70FC22748055C6FADF
:100D230053BEFB53C6BFE5C6A2E640FA8AC6E5C674
:100D33006A70FB43BE0453F4FEC29043FE0153F4B6
:100D4300F7C29343FE08D290D29353F3FD53FDFDB4
:100D5300438F0253F3BF53FDBF438F401211A312BE
:100D630009F0D2AF227900A281401E7800A281400F
:100D73000478007900E8240108E93400F9C3E89411
:100D8300F4E9120DB340E679012274205580F9602D
:100D93001E7A007B00A28550047A007B00EA2401BE
:100DA3000AEB3400FBC3EA94F4EB120DB340E622E2
:100DB3009401A2D265D0332274F71202747907E941
:100DC300FA43F240C28D75B696A28D50FCE5BBF98D
:100DD30053F2BF747F59F9E4C990F151F0A3E4F0E1
:100DE30090F151C3E09410E494004009C3E0947D72
:100DF300E494004003098023C3E09440E49400504A
:100E0300030980F1C3E09460E4940050030980F186
:100E1300C3E09470E4940040027904EA6970A0028C
:100E230008F17401697003C290227403697002C2ED
:100E3300932274F512027474E212021DEAFEEBFFB0
:100E4300851082851183AC82AD837583F17582C66B
:100E5300741E120153F50A750B01807CE50B60715A
:100E630075080E75090078081203BB120F2EE0FCFB
:100E7300A3E0FD7403120268AA82AB831214A57463
:100E830002120233851082851183AA82AB83790211
:100E9300120AC97B3C7A007902120A6B7B3E7A0FF5
:100EA3007902120A6B750B00750800120DBBE96419
:100EB300046006750800750900E5082401F508E5D6
:100EC300093400F509C3E50894F4E509120DB340AC
:100ED300DA7A0A7B001209A4120D68E96401603F03
:100EE300120DBBE9640370197401250AC0E08E82F8
:100EF3008F83A3A3E0F5F0D0E084E5F0F50A020EBA
:100F030063120DBBE964026003020E5FE50A700A17
:100F13008E828F83A3A3E01480E2150A020E63126C
:100F23000F2EA3A3E0F9741E020B49E50A75F00323
:100F3300A4F8A9F08E828F83E028FAA3E0398A828D
:100F4300F5832274F8120274E9FE740790F197F0A6
:100F5300742090F198F0EA90F199F0EB90F19AF007
:100F6300740790F193F0742090F194F0EC90F19564
:100F7300F0ED90F196F0E490F19BF090F19CF090FD
:100F8300F19DF090F19EF0120485E5C6A2E65004AF
:100F9300C2AF80FE90F101E064017014121024745A
:100FA3000290F101F075E10490DF3BE0640170F819
:100FB300EEF912093D90F101E064017004C2AF80C3
:100FC300FEE0640360067403F012082B90F197E0CF
:100FD30064FF6025E090DF05F07A008A82A882E84A
:100FE3002497F582E434F1F583E0C0E0121019D0C0
:100FF300E0F00AEAC3940440E290F1FBE064FF707E
:1010030004C2AF80FE740190F14EF0740790DF03C9
:10101300F07F010202D4E824FBF582E434F1F58386
:101023002274EA90DF1CF0742A90DF1DF0E490DF55
:101033001EF02274F31202748A0C8B0D89088C093A
:1010430012096EEAFF740A250890F153F0750A0439
:10105300750B00780A1203BB7C937DF17A547BF104
:1010630012138F7402120233780A1203BB7C977D2A
:10107300F17A587BF112138F740212023390F19DAF
:10108300E090F15CF0747E90F15DF085080A780AD7
:101093001203BBAC0CAD0D7A5E7BF112138F74029D
:1010A300120233EFFA7B001209797F00801A7E0166
:1010B30043B404E5BC75F04EA4F8A9F0742028FAF3
:1010C300744E39FB12097F0FEFC395095030790134
:1010D3007A537BF11205EFE9FE70EC750814800971
:1010E3007A017B001209A4150890F19CE07004E5D5
:1010F3000870EDE060B8E4F090F19DE004F0EEF9E3
:101103007F060202D4120D1E1211A343F34079018C
:10111300120E2579007CDE7D257AEB7B25120F46A6
:1011230090F1A8E4F0A3F07AE47BF17901120AC903
:101133007A057BF2120E35E9FE7A007BF179031210
:101143000AC9EE75F003A424FFF582E5F034F1F546
:1011530083E0FAA3E0FB7902120AC9EEC333FEE48B
:1011630033FFEE2408F582EF34F2F583E0F8A3E0D1
:10117300F990F1A8E8F0A3E9F07903120E257A9F1C
:101183007BF190F1A81211AD120272E960F07C01BB
:101193007A9F7BF11210367A057B001209A480DE58
:1011A30053F3DF53FDDF438F2022E0F8A3E0F58301
:1011B30088822274F8120274EAFEEBFF750800E4D9
:1011C3008E828F83F07402A3121232F0120DBBE9E8
:1011D3001203CC0003F411E211E711F111EC1175C4
:1011E3000818800D750807800875081580037508B1
:1011F3000F120D8DE96003750813120D68E9600580
:101203007508058004E50860218E828F83A3A3A35C
:10121300E508121232A3A312123B12123BA31212BD
:101223004A12124AA3F0790980027900021014F0DD
:10123300E48E828F83A3A32212123F22F08E828F29
:1012430083A3A3A3A3A32212123FA3A32274F8127E
:101253000274EAFEEBFF75080074018E828F83F03F
:10126300E4A3A3A3A3F0120DBBE91203CC00030C68
:10127300137C129A12C412E4128E828F83A3A3A347
:10128300E0C39481400790F1AAE0048004E490F164
:10129300AA12138402132B8E828F83A3A3A3E0C30A
:1012A300948050118E828F83A3A3A3E0600790F1F3
:1012B300AAE0048004E490F1AAF0E0C4540F04808F
:1012C300678E828F83A3A3E0C39481400790F1AA22
:1012D300E0048004E490F1AA1213848E828F838049
:1012E3004C8E828F83A3A3E0C3948050108E828F91
:1012F30083A3A3E0600790F1AAE0048004E490F1E3
:10130300AAF0E0C4540F0480D28E828F83A3A3E09B
:10131300600BE48E828F83A3A3F07508018E828F06
:1013230083A3A3A3E0600CE48E828F83A3A3A3F023
:10133300750801120D8DE98E828F83A36005E0D2BB
:10134300E0800CE0A2E0500B8E828F83A3C2E0F01A
:10135300750801120D68E964018E828F83A37006FC
:10136300E0D2E1F08012E0A2E150098E828F83A3E4
:10137300C2E180EFE508600479058002790002107C
:1013830014F0E0C4540FFA74FFC39A2274F71202E4
:10139300747409120268E0FEA3E0FFEAF8EBF98037
:1013A300188C828D83E088828983F0A3A882A98325
:1013B3008C828D83A3AC82AD838E088F0974FF2545
:1013C300081E74FF3509FFE5087002E50970D27F36
:1013D300020202D474F71202747409120268E0F86C
:1013E300A3E0F9EAFEEBFF8A088B09C3EA9CEB9DB5
:1013F300405EEC28F582ED39F583C3E5829508E577
:10140300839509404BEA28FAEB39FBAC82AD831292
:1014130014657002E5096041EC24FF1CED34FFFD07
:10142300EA24FF1AEB34FFFB8C828D83E08A828BE4
:1014330083F080DB8C828D83E08A828B83F08C82C5
:101443008D83A3AC82AD838A828B83A3AA82AB8371
:101453001214657002E50970DBEEFAEFFB7F0202FE
:1014630002D48808890974FF25081874FF3509F91F
:10147300E5082274F81202747408120268E0F8A3F3
:10148300E0F98A828B838003ECF0A3E8FEE9FF7422
:10149300FF2E1874FF3FF9EE7001EF70EB7F01022E
:1014A30002D474F71202747409120268E0FEA3E016
:1014B300FFEAF8EBF98E088F0974FF25081E74FF05
:1014C3003509FFE5087002E50960358C828D83E0FC
:1014D300A3AC82AD838A828B83F0A3AA82AB837091
:1014E300D4EEFCEFFD74FF2C1E74FF3DFFEC700186
:1014F300ED600DE48A828B83F0A3AA82AB8380E143
:09150300E8FAE9FB7F020202D4C0
:04000005000000D324
:00000001FF
