:020000040000FA
:030000000200D328
:03001300020C8F4D
:03003B00020CCCE8
:03004B00020A5353
:1000830002076200000080FB1200E2B900030200D5
:10009300CDE490F100789279038002F0A3D8FCD9E3
:1000A300FA90F391AA82AB839000E578EA79018014
:1000B30015E493A3AC82AD838A828B83F0A3AA82D7
:1000C300AB838C828D83D8E9D9E71212781200862C
:1000D30075D0007581BF7510007511F102008B7921
:1000E300012244657669636520310044657669635E
:1000F300652032004C6F6F706261636B004D524636
:1001030049205246206D6F64656D004465766963CE
:100113006520526F6C653A200044657669636520FB
:1001230031207265616479004465766963652032C4
:10013300207265616479004C6F6F706261636B203C
:100143007265616479004572723A202532642F2505
:100153003264000F14191A91F3009AF301A3F30206
:1001630006F40330313233343536373839414243BC
:1001730044454600286E756C6C20706F696E74651B
:10018300722900303132333435363738396162639E
:1001930064656600464C4F4154533F2077726F6E3F
:1001A3006720666F726D617474657220696E737413
:1001B300616C6C656421003F3F3F00100000000844
:1001C3000000000A00000000000000E06670100854
:1001D300A3E066700A08A3E066700408A3E0662241
:1001E300C3E7960809E7960809E7960809E796A280
:1001F300D265D03322E4CFC0E0E4CEC0E0E4CDC08A
:10020300E0E4CCC0E075F020C3E633F608E633F64D
:1002130008E633F608E633F6181818EC33FCED332A
:10022300FDEE33FEEF33FFC3EC9709ED9709EE972D
:1002330009EF97191919400FFFEC97FC09ED97FD8A
:1002430009EE97FE191906D5F0BEECF709EDF7098B
:10025300EEF709EFF7191919D0E0FCD0E0FDD0E073
:10026300FED0E0FF22E4C396F608E496F608E4968F
:10027300F608E496F622E0F608A3E0F608A3E0F613
:1002830008A3E0F622E6F008A3E6F008A3E6F008E8
:10029300A3E6F022CAC0E0E6F0A308DAFAD0E0FA57
:1002A30022CAC0E0E0A3C582CCC582C583CDC58385
:1002B300F0A3C582CCC582C583CDC583DAE6D0E081
:1002C300CA22600C08C6C313C618C613C6D5E0F409
:1002D30022700422600D18C6C333C608C633C6D5C0
:1002E300E0F41822251010AF08F510400215118014
:1002F30008F51040021511D2AF22C0D0251010AF5F
:1003030008F510500205118008F51050020511D2AE
:10031300AFD0D0222510F58210AF08F5104002159A
:10032300118008F51040021511D2AF8511832225E3
:1003330010F582E43511F58322E4732510C582C0DC
:10034300E0E51134FFC583C0E0E510C3958224F9CD
:10035300F8E4C5A8858311858210C5A8E8CEF0A36B
:10036300E520F0A37808E608F0A3DEFAEFF0A3E5B2
:100373008124FBF8E608F0A3E608F0A30808E608E2
:10038300F0A3E608F0A315811581D0E0FED0E0F8D4
:1003930015811581E8C0E0EEC0E022851183851048
:1003A30082E0A3FEE0A3F5207808E0A3F608DFFAD5
:1003B300E0A3FFE0A3C0E0E0A3C0E0E0A3C0E0E06F
:1003C300A3C0E0E4C5A8858210858311C5A8D083A6
:1003D300D08222C0D02510C582C0E0E51134FFC50C
:1003E30083C0E0E510C3958224F310AF0885831121
:1003F3008582108008858311858210D2AFC8F0A34F
:10040300E9F0A3EAF0A3EBF0A37908E709F0A3D896
:10041300FAECF0A3EDF0A3EEF0A3EFF0A3D0E0F03D
:10042300A3D0E0F0A3D0E0F0A3E520F0A3E5F0F043
:10043300A322851183851082E0C0E0A3E0F9A3E045
:10044300FAA3E0FBA37808E0F608A3DFFAE0FCA335
:10045300E0FDA3E0FEA3E0FFA3E0C0E0A3E0C0E073
:10046300A3E0F5D0A3E0F520A3E0A3F5F0E4C5A84D
:10047300858311858210C5A8D082D083D0E0F8D0BF
:10048300E03274028000C0E0F404120317D0E012DB
:1004930002972274028000CCC0E0EDC0E0E510C3F7
:1004A3009CCCAD1150011D10AF068C108D11800630
:1004B3008C108D11D2AF1202A4D0E0FDD0E0FC224B
:1004C300D083D082C5F0E493A3C5F0C395F0F5F0D3
:1004D300E493A3C395F04005E5F0048001E475F0CF
:1004E30002A42582F582E5F03583F583E493A3C066
:1004F300E0E493C0E022D083D082CCC0E0E493A3B5
:1005030060061205231470FAE493A36006120542F1
:100513001470FAD0E0FCE493A3C0E0E493C0E022BB
:10052300C0E0E493A3D39C5010E493A3C39C400A7C
:10053300D0E0D0E0D0E0020516A3A3A3D0E022C010
:10054300E0E493A36C7009D0E0D0E0D0E00205169C
:10055300A3A3D0E022C082C08374FE1202E78510F9
:1005630082851183EAF0A3EBF0851082851183E085
:10057300F5A47401120332E0F5A575C30075A60056
:1005830075A70075C301E5C3A2E650FA75C30074ED
:1005930002020C3274F712033E75084375090078A2
:1005A300081204857C007D007A017BF11214DA7451
:1005B300021202FD90DF61E064856004C2AF80FE39
:1005C30090DF60E0C394035004C2AF80FE53BEFBD0
:1005D300E5BEA2E650FA0078F879010012088F70A0
:1005E30001E970F775C600E5C670FC43BE0474FFED
:1005F30090DF4CF090DF4B1210F3E0A2E440FB7469
:100603000290DF05F075E1E28024780079007C1028
:10061300E8C333F8E933F990DF3AE0A2E0E492E08B
:1006230048F81CEC70EA748048F5BCE9F5BC90DF2F
:1006330039E0641F70D475E1E575E1E675E1E6E440
:1006430090DF05F090DF17E0D2E3F0740190F10042
:10065300F0743290DF0CF074F590DF0DF090DF0250
:10066300E0C2E3F0747F90DF4FF079001208991233
:1006730008D8747F90DF0BF090F100E064037003FF
:100683001208D1439A0190F1447414F0A3E4F012D8
:1006930008E8D2AF020BB374F712033EEAFEEBFF96
:1006A300890975080090F100E064017004C2AF800D
:1006B300FE1208D853E9BF90F146E08E828F83A3E0
:1006C300A3A3F090F146E004F074018E828F83A31C
:1006D300F074888E828F83A3A3F075E1E78E828FF7
:1006E30083E0FB74022BF5D97A008005A3E0F5D9EA
:1006F3000AEAC39B40F6E509700B75E1E3E5E9A25D
:10070300E6404980F8740165096004C2AF80FE7E4B
:100713000480071E1208D81208E875E1E27AE07B2C
:1007230001120908A2AFE492E0FAC2AF75E1E490C6
:10073300DF62E05410FBEAA2E092AFEB6008E5E968
:10074300A2E6400880F8EE70CA7508011208D89036
:10075300F100E0640370031208D1A908020BB3C0CF
:10076300E074EF1203D6759B00E5E9A2E5503390E0
:10077300F100E064036012C2AF80FE747E6A70060B
:10078300740190F32BF053E9DFE5E9A2E5501390F0
:10079300DF62E0A2E25013E0A2E3400E75E1E675EA
:1007A300E1E675E9FF7F04020435747F55D9F50846
:1007B300F50A74FF250AF874FF3400F9C3E894427C
:1007C300E99400A2D265D0335007E508C3940E50D4
:1007D3000D7A00EAC3950850ADE5D90A80F57E018C
:1007E3007FF1750A41750B00780A1204857C007D40
:1007F300007A017BF11214DA74021202FD74FE25F1
:100803000890F101F074FE2508F874FF3400F98EA6
:10081300828F83A3AE82AF83E5D9F012088F700174
:10082300E970EC74D325D990F142F0E5D9FAA2E747
:100833004003020789747F5A90F143F090F102E07C
:100843006401600302078990F103E0648860030296
:10085300078990F1017CE07DF274431202A490F2C7
:10086300EDE0FA90F2E0E0F874F528F874FF340054
:10087300F97402687001E9600302077E747F6A609D
:100883000302077E740190F32C020788E824FF1803
:10089300E934FFF9E82274F712033E8908E9C394A7
:1008A300044004C2AF80FE1208D875F005E50824A1
:1008B30002F582E434F4F583E0A4242E90DF11F0F2
:1008C30090F100E0640370031208D1020BB375E1E9
:1008D300E2439120225391DF75E1E575E1E675E18D
:1008E300E675E9DF22EEC0E074F355B44404F5B4D1
:1008F300740F55BD04FE7AFA7B001209081EEE70D0
:10090300F5D0E0FE2274F712033E8A088B097404C3
:1009130078081202C5AE08AF09EA7001EB6028A29D
:10092300AFE492E0F508C2AF7A107B00120558E5F8
:1009330008A2E092AFEEF8EFF974FF281E74FF39B6
:10094300FFE87001E970D8020BB3C008C00975084D
:1009530001750900EB78081202D4E50845F2F5F2B7
:10096300C28DEA494BF5B6A28D50FCE5BBFDE5BA55
:10097300FC750801750900EB78081202D4E508F448
:1009830055F2F5F2ECFAEDFBD009D00822A2AFE460
:1009930092E0FA7B00C2AF22EAA2E092AF22EEC05D
:1009A300E0748055C6FE740169701853BEFBE5BE42
:1009B300A2E550FA0074494EF5C674494E65C670F7
:1009C300F9801BE9701B53BEFBE5BEA2E650FA009B
:1009D3007A407B001209E88EC6E5C66E70FB43BE03
:1009E30004D0E0FE22EBC313FBEA13FAEAF8EBF9B7
:1009F30074FF28FA74FF39FB74006870037400698C
:100A0300601A000000000000000000000000000069
:100A13000000000000000000000080D02274F812E3
:100A2300033EEAFEEBFFEEF8EFF974FF28FE74FFD6
:100A330039FF740068700374006960097AE87B0306
:100A43001209E880E17F0102039ED2B943E4022246
:100A5300C0E074F21203D690F147E07002A3E060A5
:100A63000E90F147E0F8A3E0F583888212033C027D
:100A73000CC7C292C280C2F989F9A2F950FC0000E6
:100A83000000D29222C292D280C2F989F9A2F9500F
:100A9300FC80EB74F812033EC292D2808012C2F93A
:100AA3008A828B83E0F5F9A3AA82AB83A2F950FC77
:100AB300ECF8EDF974FF281C74FF39FDE87001E9C7
:100AC30070DC00000000D2927F0102039EC082C04E
:100AD300838A828B8374FF29C454F04480F9120AF9
:100AE300757C107D00AA82AB83120A96020C35EE48
:100AF300C0E053F4FBD29243FE0453F3FED280438F
:100B0300FD017915120A757950120A75790F120AC7
:100B130088790E120A757925120A75791C120A75DD
:100B23007A157B00120A20120B4679C0120A757ED1
:100B3300407900120A881EEE70F77929120A75D0DF
:100B4300E0FE22EEC0E07980120A757E3079201231
:100B53000A881EEE70F7D0E0FE22EEC0E0EBFE74D2
:100B6300FF29C454F02A4480F9120A75EEF9120AD7
:100B730088D0E0FE2274F712033EEA7001EB603086
:100B83007C008A828B83E06013C0E0120BB8D0E054
:100B9300F08A828B83A3AA82AB838006120BB8747C
:100BA30020F00CECC3941040D97A497BF1120AD09F
:100BB3007F0202039E8C08E5082449F582E434F1A0
:100BC300F58322C082C08353FF3FE5FF85FFFF53B8
:100BD300F1FE43F30CE5F353F4F3E5F453F2F3E5D9
:100BE300F275868043C480E91204C30401030CF642
:100BF3000BFE0B75C23B75C50A800B75C2D880F618
:100C030075C2D875C50B7A597BF1120DDAD2E97A20
:100C13001C7BF2120DDA53F3DFD28543FD2043C46C
:100C230002C28B438640D2AA7901120C868003123A
:100C330002FDD083D0822274F712033E8A828B8313
:100C43008C088D097E007F008026EEFAE508C39AA2
:100C5300F9E5822EFCE5833FFD7A1C7BF2120E0838
:100C6300E9F8EE28FEEF3400FF7A057B00120A2034
:100C7300C3EE9508EF950940D1439A04EEFAEFFBD2
:100C8300020BB3E96003C28522D28522C0E074F26D
:100C93001203D674FF1202E7C28BE5C18510828569
:100CA3001183F0E586FA74185A700F7901AC82AD9E
:100CB300837A597BF1120E0880057903120DA4740F
:100CC300011202FD7F01020435C0E074F21203D663
:100CD30074FF1202E7C2E97901851082851183ACA2
:100CE30082AD837A1C7BF2120E7BE964017003E010
:100CF300F5C190F2DCE07003539AFB80C2790012D5
:100D030009A143FE01C29043FE02C29143FE10C2F9
:100D13009443FD02C281120FF953F5FE53FFFE43C4
:100D2300F70143F34043F10243F48043F44043F4B7
:100D330020E5C6A2E0E492E0240FFA75FB8075F883
:100D43000074204AF5FC75FA53120AF2D2AF2274EA
:100D5300F712033EE9FE7B067A10798012094D8B68
:100D630009A909747F59F9E4C9F8C39428E49400E4
:100D73004028C3E8943CE49400500309801CC3E872
:100D8300944AE4940050030980F1C3E89454E49432
:100D930000500509090980027904EE6970B6020B57
:100DA300B3C082C083E91204C30103D70DB80DBFDA
:100DB3000DC40DCB0D639001E59080186390028004
:100DC300F7639010E590800C638002E58090F2DF7A
:100DD300E06401F0020C3574F712033EEAFEEBFF08
:100DE300120990EE24C0120DFEEE24C1120DFEEE88
:100DF30024C2120DFE12099B020BB3F582EF3400DD
:100E0300F583E4F02274F312033EEAFEEBFF8C0851
:100E13008D09890C120990120ED9F8850C0AE50A7E
:100E230028F8E43400F9E894C0E99400C365D033AA
:100E3300750D005035802524C2F8EF3400F9850D77
:100E43000AE508250AF582E509120EDFC0E0120E55
:100E5300E5D0E0120EF57002E4F0050DE50DC39543
:100E63000CEE40D3120EDA250DF012099BA90D806A
:100E730002EEF97F0602039E74F312033EEAFEEBD1
:100E8300FF8C088D09890B120990750A008028EEE2
:100E930024C1F8EF3400F9120EE5E0C0E0850A0C36
:100EA300E508250CF582E5093400F583D0E0120E40
:100EB300F57002E4F0050AE50AC3950B500A120E19
:100EC300D9FCE50AC39C40C7120ED9C3950AF01298
:100ED300099BA90A809DEE24C0F582EF3400F583B7
:100EE300E02288828983E0FCEE2CF582EF3400F562
:100EF3008322F088828983E004F0E064C02274F5E1
:100F030012033EEAFEEBFF750A00750B01805DE5F7
:100F13000B6052121003E0FAA3E0FB7902120B7884
:100F23007B3C7A007903120B5D7B3E7A0F790312C7
:100F33000B5D750B00750800750900120D52E9640D
:100F4300046006750800750900E5082401F508E545
:100F5300093400F509C3E50894F4E5099401A2D224
:100F630065D03340D67A0A7B00120A207A00120F2A
:100F7300F9A281502378007900A281500478007986
:100F830000E8240108E93400F9C3E894F4E9940182
:100F9300A2D265D03340E20A53F3FD90F2DFE0A220
:100FA300E0928143FD0274016A603F120D52E964CD
:100FB3000370197401250AC0E08E828F83A3A3E016
:100FC300F5F0D0E084E5F0F50A020F16120D52E9B0
:100FD30064026003020F12E50A700A8E828F83A3F4
:100FE300A3E01480E2150A020F16121003A3A3E074
:100FF300F97F0402039E53F3FD53FDFD438F022249
:10100300E50A75F003A4F8A9F08E828F83E028FA2D
:10101300A3E0398A82F5832274F812033EE9FE7451
:101023000790F327F0742090F328F0EA90F329F067
:10103300EB90F32AF0740790F323F0742090F324D9
:10104300F0EC90F325F0ED90F326F0E490F32BF021
:1010530090F32CF090F32DF090F32EF0120597906F
:10106300F100E06401700A74021210F3E0A2E4409C
:10107300FBEEF912089990F100E064017004C2AF2D
:1010830080FEE0640360067403F01208D190F32736
:10109300E064FF6005E064FE700890F328E064FFFD
:1010A300603090F329E064FF700890F32AE064FF56
:1010B300602090F327E090DF4CF090F328E090DF7E
:1010C3004BF090F329E090DF4EF090F32AE090DFAD
:1010D3004DF090DF4CE064FF600890DF4BE064FF6D
:1010E3007004C2AF80FE90DF02E0D2E3F0020ACBCD
:1010F300F090DF17E0C2E3F02274F312033E8A0C90
:101103008B0D90F32BE070030211A0120990EAF506
:101113000890F2E0E024F3FE90F2ECE090F32EF07E
:1011230090F2EDE0FF8E0A750B00780A1204857CBD
:10113300EE7DF2AA0CAB0D1212721202FDE490F3D3
:101143002BF0747E6F704DEE604A120990EAFF74C3
:101153000D90F2E0F0750A04780A12048512126AFF
:101163001202FD780A1204857C277DF37AE87BF26C
:101173001212721202FD90F32EE090F2ECF0747FE3
:1011830090F2EDF0EFFA7B0012099B79007AE07B95
:10119300F212069AAA087B0012099B80027E0002C3
:1011A3000E7474F312033E8A0C8B0D89088C09129A
:1011B3000990EAFF740D250890F2E0F0750A0475B2
:1011C3000B00780A12048512126A1202FD780A12C1
:1011D30004857C277DF37AE87BF21212721202FDFA
:1011E30090F32DE090F2ECF0747E90F2EDF0850830
:1011F3000A780A120485AC0CAD0D7AEE7BF212125A
:10120300721202FDEFFA7B0012099B7F00801F7EA2
:101213000174F355B44404F5B4E5BD75F04EA4F878
:10122300A9F0742028FA744E39FB1209E80FEFC3B2
:101233009509503079017AE07BF212069AE9FE7043
:10124300EC75081480097A017B00120A20150890B6
:10125300F32CE07004E50870EDE060B3E4F090F384
:101263002DE004F0020E747C237DF37AE47BF2120A
:101273001492740222E490F390F0120D007A007934
:1012830004120BC643E40CE5E475DB6675DA6053C0
:10129300E4EFC2B9A2AFE492E0F8C2AF90F14774B1
:1012A30085F0A37414F0E8A2E092AF7AAC7BF379F3
:1012B30001120B78D290120B467ABA7BF3790112A2
:1012C3000B787A0F7BF4120F01E990F38FF0120B76
:1012D30046E0701A7AC87BF37902120B7890F38D8B
:1012E30074EB1213BD74DEF0A37425F08027640140
:1012F30070157AD77BF37902120B7890F38D74DE35
:101303001213BD74EB80E0E0640270097AE67BF3AC
:101313007902120B7890F38FE064026015790090E4
:10132300F38BE0FCA3E0FD90F38DE0FAA3E0FB1266
:10133300101B7AAC7BF37901120B7890F389E4F0FC
:10134300A3F090F387F0A3F0120A4D801AEAFEEEA1
:10135300F97C2F7DF37A597BF1120E7BEEFC7D0035
:101363007A2F7BF3120C3A90F38FE06402701090A3
:10137300F219E0FA60F9C3942D40D27E2C80D0128A
:1013830013C690F32BE060DF1214307A5B7BF31209
:1013930010FCE9FA60178A82FC7D007A5B7BF3120A
:1013A3000C3A8A08E58265087001EB600690F389C0
:1013B30012143D7901120C8680ADF0A37425F090D0
:1013C300F38B2274F812033E90F219E0FEC3942CBF
:1013D300500990F390E06052EE604F121430EEC368
:1013E300942C5004EEFF80027F2CEFF97C2F7DF3C9
:1013F3007A597BF1120E7B7903120DA47C05EFF968
:101403007A2F7BF31211A5E9600690F38712143D3E
:101413007901120C8653E4FDC2B975E20043E4027C
:10142300D2B9120A4DE490F390F0020ACB7900127C
:101433000C867AE87B031209E822E02401F0A3E09A
:101443003400F012144A22C082C08374EF1202E700
:1014530090F38912049690F3871204967CF57DF33A
:101463007404120332AA82AB83121531740412027C
:10147300FD851082AA82AB837903120B7874110263
:101483000C32C082C083740190F390F0020C357467
:10149300F712033E7409120332E0FEA3E0FFEAF8F9
:1014A300EBF980188C828D83E088828983F0A3A86E
:1014B30082A9838C828D83A3AC82AD838E088F092E
:1014C30074FF25081E74FF3509FFE5087002E5095E
:1014D30070D27F0202039E74F812033E7408120353
:1014E30032E0F8A3E0F98A828B838003ECF0A3E86F
:1014F300FEE9FF74FF2E1874FF3FF9EE7001EF70E1
:10150300EB7F0102039EC082C0838A828B83121504
:101513009EE9F08A828B83E02401F8A3E03400F98A
:101523008A828B83E8F0A3E9F0D083D0822274F718
:1015330012033E74FC1202E77402120332EAF0A3B0
:10154300EBF0ECFAEDFB740D120332A882A983854C
:101553001082851183E8F0A3E9F085108285118359
:10156300858208858309780812048574041203327E
:1015730085820885830978081204857C097D151204
:1015830015A774041202FD740212033212159EE4AD
:10159300F074041202FD7F0202039EE0F8A3E0F55B
:1015A3008388822274F112033E74B21202E785101B
:1015B30082851183121EB17410120332ECF0A3ED75
:1015C300F0740B120332E4F0A38022745D12033231
:1015D300121DE77404120332E0F97410120332127D
:1015E3001E1012033C740B120332121EC5F0121E9E
:1015F300E9120332EAF074256A6015E070CD740BCA
:10160300120332121DE7744E1202FD7F0802039E7D
:10161300121E1D6425700F121ECE745D120332124A
:101623001DE7792580B4740F120332E4F0740E12AF
:101633000332E4F07408120332E4F0740712033245
:10164300E4F0741C120332A882A9837402120332D9
:10165300121EE3741A1203327412F0A374F4801985
:101663007407120332E070077407120332EAF0853D
:101673001082851183E8F0A3E9F0121E6BFA1204BD
:10168300F9000520631623A0162B6B162D97163031
:10169300A416A8167408120332E00480D1740E80D5
:1016A300F5740F80F1851082851183121E37E06473
:1016B3002A7053745F120332121E37121DE78A8297
:1016C3008B83121DE17409120332ECF0A3EDF012C7
:1016D3001DC8120332121EAE7409120332121E5AAF
:1016E300501F7409120332121DE7C3E49AFAE49BF4
:1016F300FB7409120332121EB17408120332E004A0
:10170300F0121EDD80267409120332E4F0A3801068
:101713007409120332121E897409120332121F272D
:10172300121F164007E508C3943A40E474081203F5
:1017330032E06007740F120332E4F0121E1D642EB0
:10174300705C121ECE121E1D642A702C745F12036D
:1017530032121E30F988828983121DE77405120341
:1017630032121EB1E824020808E9121DC212033224
:10177300121E37121F27802F7405120332E4F0A3C1
:10178300121F164023E508C3943A501C7405120334
:1017930032121E897405120332121F2780E2740568
:1017A30012033274FFF0A3F07C00121E6B1204F9D3
:1017B30000034CC01768C1176CC017C4170C121E66
:1017C300DD121EE9120332EAF01204F901656743E0
:1017D3001C0D00601C45431C47431C5858196347A4
:1017E3001864E61969E6196EFE176F2D19705819FA
:1017F300737B18755819784C196C1C745F1203327B
:10180300121E55602E740B120332121DE13395E044
:10181300FE8A828B83121E10ECF0A3EDF0A3EEF090
:10182300A3F0745F120332121E60120332121E44BD
:101833000215F0740B120332121DFE8A828B83127F
:101843001E4480DD745F120332121E30F5838882DA
:10185300E0C0E0741C120332D0E0F0745F12033274
:10186300121E60120332121E37121EE3741D12037E
:1018730032AA82AB83021C7C745F120332121E4CA9
:101883008A828B83121DFE121DC8120332121EAEF2
:101893007402120332121EE3E87001E9700C740241
:1018A3001203327423F0A374F4F07405120332129A
:1018B3001E5A500C74051203327410F0A37427F0EF
:1018C3007E007F008008EE24010EEF3400FF7402D7
:1018D300120332121DFE88828983A3AA82AB83740A
:1018E30002120332121EB188828983E060147405E8
:1018F300120332121DFEC3EE98EF99A2D265D033C4
:1019030040C47402120332E024FFFAA3E034FFFB65
:10191300C3E49EF8E49FF9EA28F8EB39F97402125C
:101923000332E8F0A3E9F0021C7C740E120332E0E8
:1019330060177405120332E07002A3E0700B7405A4
:101943001203327401F0A3E4F0741A1203327432F6
:10195300F0A374F4F0745F120332121E4C74041279
:101963000332E0647070358A828B83121E04120383
:1019730032121F08121DC0120332121E37121EE349
:1019830090F46A78081202797416120332780812F6
:1019930002887407120332E4F0021A69EC8A828B1C
:1019A30083601478081202797412120332780812D1
:1019B3000288EA24048009121E04120332121F084B
:1019C300121DC0120332121E37121F00120332E01F
:1019D300646F700590F46E80AAE0647570A290F451
:1019E3007280A0745F120332121E558A828B836049
:1019F3000A7808120279EA24048011E0F508A3E0CA
:101A0300F5093395E0F50AF50BEA2402121DC0121D
:101A13000332121E37121EE37412120332780812B5
:101A2300028890F476780C120279780C7908120106
:101A3300E350217407120332742DF074121203322F
:101A43007808120279780812026874121203327845
:101A53000812028890F4727808120279741612033D
:101A6300327808120288744D120332A882A9837453
:101A730002120332121EE3744D120332AA82AB83A5
:101A83007412120332C082C08390F4767808120273
:101A930079D083D08278081201CE6009740D1203C5
:101AA3003274018006740D120332E4F074051203DC
:101AB30032E07002A3E0700B740D120332E0700386
:101AC300021BA47402120332121DF7120332121EF8
:101AD300E37412120332780C120279741612033271
:101AE3007808120279780C79081201F8741A120333
:101AF30032E02508FCA3E035098C82F583E0C0E0E1
:101B03007402120332121E10D0E0F0741212033268
:101B1300780C12027974161203327808120279785B
:101B23000C79081201F87412120332780C1202882D
:101B33007412120332C082C08390F47678081202C2
:101B430079D083D08278081201CE6003021AC6745A
:101B530005120332121E5A5048740F120332E0600A
:101B6300407407120332E06004D2F08002C2F074C2
:101B730009120332A2F0E492E0F8E0C398F8A3E07C
:101B83009400F97405120332E8F0A3E98012740299
:101B9300120332121EE37402120332121E10743047
:101BA300F07402120332121DF7120332121DE18B7D
:101BB300838A82E582C39CFEE5839DFF740512033D
:101BC30032121DE1C3EE9CEF9DA2D265D03340BE1D
:101BD300740E120332E07003021C7C740D12033284
:101BE300E07003021C7C7404120332E06478600525
:101BF300E0645870377402120332121F001203326A
:101C0300E0C0E07402120332121E10D0E0F074023E
:101C1300120332121DD4F97402120332121EE3743A
:101C230002120332121E107430021929E0646F701D
:101C3300487402120332121EB7E06430603B80D74F
:101C430074021203327443F0A374F4F07A43FB8AF0
:101C5300828B83E06023A3AA82AB8380F285108208
:101C6300851183121DD4121EDC74021203327466B2
:101C7300F0A374F4F07A697BF47402120332121D38
:101C8300FEEAC398F8EB99F97405120332121EE3C6
:101C93007409120332C082C0837405120332E0F860
:101CA300D083D082C3E098A3E099A2D265D0335009
:101CB300067E007F0080297407120332E06004D29D
:101CC300F08002C2F07409120332E0C398F8A3E073
:101CD30099F9A2F0E492E0FAE8C39AFEE99400FFCE
:101CE3007408120332E070208019745D12033212FB
:101CF3001DED120332121E1012033C740B12033239
:101D0300121EC0121DAF50E27407120332E0605678
:101D1300745D120332121DE77407120332E0F97483
:101D230010120332121E1012033C8032745D120330
:101D330032121DE77402120332121E23F9741012B9
:101D43000332121E1012033C7402120332E0240108
:101D5300F8A3E03400F97402120332121EE3740B89
:101D6300120332121EC07405120332E024FFF0A3E3
:101D7300E034FFF07405120332121E5A50AE740899
:101D8300120332E070030215F1121DAF5003021566
:101D9300F1745D120332121DED120332121E101282
:101DA300033C740B120332121EC080DDEE24FF1EAF
:101DB300EF34FFFFC39400A2D265D03322F8EB3493
:101DC30000F9745F22EA24020A0AEB3400FB745F11
:101DD30022121DD822E024FFF8A3E034FF22E0FC06
:101DE300A3E0FD22E0FAA3E0FB22E0FAA3E0FB7903
:101DF30020741022121DD8F9740222E0F8A3E0F92E
:101E030022E0F8A3E0F9E8FCE9FD741222121E14A3
:101E130022E0F8A3E0F5838882228510828511836E
:101E2300121E2722121E2B22121E14E022121E271C
:101E3300F8A3E022121E3B22E0FAA3E0F5838A8294
:101E430022121E3BE8F0A3E922121E5022121E2B7F
:101E53008093121E50EC22C3A3E0021DB8121E276A
:101E63002402F8A3E0021DC2851082851183E012CB
:101E73001E7A121E3BE0222401F8A3E03400F98508
:101E8300108285118322E0F8A3E0F9E875F00AA433
:101E9300F8AAF075F00AE9A42AF9E82508F8E93464
:101EA30000F974D028F874FF39F922121EB7EAF04A
:101EB300A3EBF022E0FCA3E0F5838C8222121EC583
:101EC300F022E02401F0A3E0340022851082851182
:101ED30083E0240108A3E03400F98510828511838F
:101EE300E8F0A3E9F022851082851183121E27FAF8
:101EF300851082851183E0240108121E7DE8F0A37A
:101F0300E9F0740422ECF0A3EDF0A3E4F0A3F0EA0B
:101F1300240222121F34F8A3E0F5838882E0F50837
:101F2300C3943022E8F0A3E9121F34121E7A021E72
:0A1F330047F0851082851183E0223B
:04000005000000D324
:00000001FF
