:020000040000FA
:030000000200E11A
:03003300020EF5C5
:03004B00020B4F56
:1000830002086300000080FB1200F0B900030200C5
:10009300DBE479127807B800028004F709D8FCE49E
:1000A30090010178F679038002F0A3D8FCD9FA9085
:1000B30003F6AA82AB839000F3788A79018015E472
:1000C30093A3AC82AD838A828B83F0A3AA82AB8392
:1000D3008C828D83D8E9D9E7121DDC12008675D096
:1000E300007581BF75100175110102008B79012222
:1000F3004572723A202532642F253264000F141999
:100103001A7C011F021F021F021F02270200960012
:100113000030313233343536373839414243444580
:100123004600286E756C6C20706F696E7465722959
:1001330000303132333435363738396162636465C0
:100143006600464C4F4154533F2077726F6E6720D1
:10015300666F726D617474657220696E7374616C1D
:100163006C656421003F3F3F001000000008000061
:10017300000A00000000000000120100020200005B
:10018300205104A8160900010203010902430002D9
:100193000100801909040000010202010005240086
:1001A30010010424020205240600010524010001B4
:1001B3000705820340004009040100020A00000011
:1001C30007058402400001070504024000010403FF
:1001D30009042403540065007800610073002000C3
:1001E30049006E0073007400720075006D006500B5
:1001F3006E00740073001E03430043003200350099
:10020300330031002000550053004200200043001A
:100213004400430008033000300031009701000020
:10022300BA010000E066701008A3E066700A08A334
:10023300E066700408A3E06622C3E7960809E79620
:100243000809E7960809E796A2D265D03322BB01D5
:1002530002E722C082C08389828A83BB0003E080D5
:1002630002E493D083D08222BB000EC082C0838A73
:10027300838982F0D083D08222BB0101F722E4CFAD
:10028300C0E0E4CEC0E0E4CDC0E0E4CCC0E075F073
:1002930020C3E633F608E633F608E633F608E6331A
:1002A300F6181818EC33FCED33FDEE33FEEF33FF95
:1002B300C3EC9709ED9709EE9709EF9719191940C0
:1002C3000FFFEC97FC09ED97FD09EE97FE19190650
:1002D300D5F0BEECF709EDF709EEF709EFF71919B9
:1002E30019D0E0FCD0E0FDD0E0FED0E0FF22E4C373
:1002F30096F608E496F608E496F608E496F622E005
:10030300F608A3E0F608A3E0F608A3E0F622E6F079
:1003130008A3E6F008A3E6F008A3E6F022CAC0E0CB
:10032300E6F0A308DAFAD0E0FA22CAC0E0E0A3C5F7
:1003330082CCC582C583CDC583F0A3C582CCC582DB
:10034300C583CDC583DAE6D0E0CA22600C08C6C3F4
:1003530013C618C613C6D5E0F422700422600D1824
:10036300C6C333C608C633C6D5E0F4182225101019
:10037300AF08F510400215118008F5104002151161
:10038300D2AF22C0D0251010AF08F51050020511CE
:100393008008F51050020511D2AFD0D0222510F5F8
:1003A3008210AF08F510400215118008F5104002C5
:1003B3001511D2AF851183222510F582E43511F58D
:1003C3008322E4732510C582C0E0E51134FFC583A1
:1003D300C0E0E510C3958224F9F8E4C5A88583112C
:1003E300858210C5A8E8CEF0A3E520F0A37808E63F
:1003F30008F0A3DEFAEFF0A3E58124FBF8E608F0AA
:10040300A3E608F0A30808E608F0A3E608F0A3159E
:10041300811581D0E0FED0E0F815811581E8C0E0B8
:10042300EEC0E022851183851082E0A3FEE0A3F5F0
:10043300207808E0A3F608DFFAE0A3FFE0A3C0E01A
:10044300E0A3C0E0E0A3C0E0E0A3C0E0E4C5A8856A
:100453008210858311C5A8D083D08222C0D02510F5
:10046300C582C0E0E51134FFC583C0E0E510C39544
:100473008224F310AF088583118582108008858359
:1004830011858210D2AFC8F0A3E9F0A3EAF0A3EB81
:10049300F0A37908E709F0A3D8FAECF0A3EDF0A3F1
:1004A300EEF0A3EFF0A3D0E0F0A3D0E0F0A3D0E010
:1004B300F0A3E520F0A3E5F0F0A3228511838510D6
:1004C30082E0C0E0A3E0F9A3E0FAA3E0FBA378088D
:1004D300E0F608A3DFFAE0FCA3E0FDA3E0FEA3E05F
:1004E300FFA3E0C0E0A3E0C0E0A3E0F5D0A3E0F504
:1004F30020A3E0A3F5F0E4C5A8858311858210C588
:10050300A8D082D083D0E0F8D0E0327403800474A2
:10051300028000C0E0F4041203A0D0E01203202202
:100523007403800474028000CCC0E0EDC0E0E510E9
:10053300C39CCCAD1150011D10AF068C108D1180E2
:10054300068C108D11D2AF12032DD0E0FDD0E0FC4C
:1005530022D083D082C5F0E493A3C5F0C395F0F510
:10056300F0E493A3C395F04005E5F0048001E4753E
:10057300F002A42582F582E5F03583F583E493A3A5
:10058300C0E0E493C0E022D083D082CCC0E0E49307
:10059300A360061205B41470FAE493A3600612056F
:1005A300D31470FAD0E0FCE493A3C0E0E493C0E07A
:1005B30022C0E0E493A3D39C5010E493A3C39C40D4
:1005C3000AD0E0D0E0D0E00205A7A3A3A3D0E022A5
:1005D300C0E0E493A36C7009D0E0D0E0D0E0020562
:0605E300A7A3A3D0E02253
:1005EC0074F71203C774FE120370900101E0F50852
:1005FC00EA8508F0A4FAACF08508F0EBA42CFB8596
:10060C001082851183EAF0A3EBF0851082851183AB
:10061C00120FEF74FF28FA74FF39FB8510828511D5
:10062C0083EAF0A3EBF0E87001E970DE74021203C8
:10063C008602104074F71203C775084375090078D9
:10064C00081205127C007D007A037B0112201574C0
:10065C000212038690624AE064B56004C2AF80FE69
:10066C00906249E07004C2AF80FE53BEFBE59DA2D0
:10067C00E650FA0078F87901001209897001E970E6
:10068C00F775C600E59E70FC43BE0474149061A916
:10069C00F0743F9061ABF074F8906196F0748590B3
:1006AC0061A8F0745A9061ACF074159061B2F0E4EA
:1006BC00906182F074109061B5F0740E9061B6F098
:1006CC0074039061B7F074099061FAF074FF906153
:1006DC00E5F0906172F0906173F0906189E054F3F1
:1006EC004408F075E1E3906199E0A2E050F87800DD
:1006FC0079007C10E8C333F8E933F99061A7E0A2E4
:10070C00E0E492E048F81CEC70EA748048F5BCE92F
:10071C00F5BC75E1EF75E1ED75E1ED906189E054A3
:10072C00F3F07401900102F0906180E0C2E0F0906F
:10073C006181E05497F090618AE0C2E0F0747F90A0
:10074C006194F079001209931209F374D5906190B9
:10075C00F0900102E0640370031209E4439A0190E3
:10076C0001467414F0A3E4F0120A1BD2AF0210403D
:10077C0074F71203C7EAFEEBFF89097508009001B4
:10078C0002E064017004C2AF80FE1209F35391FDC4
:10079C00900148E08E828F83A3A3A3F0900148E0E0
:1007AC0004F074018E828F83A3F074888E828F8301
:1007BC00A3A3F075E1EE8E828F83E0FB74022BF520
:1007CC00D97A008005A3E0F5D90AEAC39B40F6E587
:1007DC0009700B75E1E9E591A2E1404A80F87401DA
:1007EC0065096004C2AF80FE7E0480071E1209F307
:1007FC00120A1B75E1E3906199E0A2E050F8A2AFF8
:10080C00E492E0FAC2AF75E1EA906193E05408FB20
:10081C00EAA2E092AFEB6008E591A2E1400880F813
:10082C00EE70C97508011209F3900102E0640370BF
:10083C00031209E4A908021040C082C0839001028F
:10084C00E064017004C2AF80FEE0640360067403D0
:10085C00F01209E4020A16C0E074EF12045F900172
:10086C0002E064036004C2AF80FEE5E9A2E250FA44
:10087C00906193E0A2E6500EE0A2E7400975E1ED2D
:10088C0075E1ED02097E53E9FB747F55D9F508F546
:10089C000A74FF250AF874FF3400F9C3E89442E99E
:1008AC009400A2D265D0335007E508C3940E5010C3
:1008BC007A00EAC395084003020975E5D90A80F26B
:1008CC007E037F01750A41750B00780A1205127CB4
:1008DC00007D007A037B01122015740212038674CA
:1008EC00FE2508900103F074FE2508F874FF34000F
:1008FC00F98E828F83A3AE82AF83E5D9F01209897A
:10090C007001E970EC74B425D9900144F0E5D9FA82
:10091C00A2E75055747F5A900145F0900104E064B1
:10092C00017046900105E06488703E9001037C459F
:10093C007D03744312032D900352E0FA900345E0BB
:10094C00F874F528F874FF3400F97402687001E942
:10095C00700C747F6A70077401900391800A747E26
:10096C006A70067401900390F090619BE060030242
:10097C000876759B0053E9FB7F040204BEE824FF54
:10098C0018E934FFF9E82274F71203C78908E9C3A0
:10099C0094044004C2AF80FE1209F375F005E5081B
:1009AC002403F582E43404F583E0A424D490618F0D
:1009BC00F0900102E0640370031209E4021040C0DD
:1009CC0082C083900102E06401600BE06403700359
:1009DC001209F37401F08032C082C08375E1E39098
:1009EC0061A3E0D2E28022C082C0839061A3E0C206
:1009FC00E2F075E1EF75E1ED75E1ED75E9FB800A6B
:100A0C00C082C0837404900329F0D083D08222EE7C
:100A1C00C0E074F355B44404F5B4740F55BD04FE32
:100A2C007AFA7B00120A3B1EEE70F5D0E0FE2274BF
:100A3C00F71203C78A088B097404780812034EAEA8
:100A4C0008AF09EA7001EB6028A2AFE492E0F50868
:100A5C00C2AF7A107B001205ECE508A2E092AFEE73
:100A6C00F8EFF974FF281E74FF39FFE87001E97084
:100A7C00D8021040A2AFE492E0FA7B00C2AF22EAA7
:100A8C00A2E092AF22748055C6FA53BEFBE59DA23C
:100A9C00E550FAE59DA2E240F40074016970077418
:100AAC00494AF5C68005E970028AC6E5C6FAE59E94
:100ABC00FBEA6B70F943BE0422E59EA2E640037983
:100ACC000122E9700553C67F8008740169700343E5
:100ADC00C680E5C6FAE59EFBEA6B70F9790022EB5D
:100AEC00C313FBEA13FAEAF8EBF974FF28FA74FF64
:100AFC0039FB740068700374006960130000000017
:100B0C000000000000000000000000000080D72260
:100B1C0074F81203C7EAFEEBFFEEF8EFF974FF2846
:100B2C00FE74FF39FF740068700374006960097A01
:100B3C00E87B03120AEB80E17F01020427D2B94360
:100B4C00E40222C0E074F212045F900149E07002EA
:100B5C00A3E06009900149120EE81203C57F01025F
:100B6C0004BE7901120B967902120B967A647B0003
:100B7C00120B1C80ED7401697003D291227402690E
:100B8C0060057403697002C2802274016970066387
:100B9C009002E59022740269600574036970056324
:100BAC008001E5802274F51203C78A828B838C083E
:100BBC008D097E007F008008EE250AFEEF3400FFD1
:100BCC00C3EE9508EF95095011120BED70EA7A05FA
:100BDC007B00120B1C120BED70DEEEFAEFFB021712
:100BEC0081EEFAE508C39AF9E5822EFCE5833FFD18
:100BFC007A0E7B02121A79E9F50A22C082C0839020
:100C0C00033CE06422702B900329E0704590033D77
:100C1C00120FEF9002D8E8F0A3E9F09002D8E07040
:100C2C0002A3E060077902120B818002D280740269
:100C3C00801CE064207015900329E0701590033639
:100C4C0074D1F0A37402F0A3E4F080E27404900376
:100C5C0029F0020A16C082C08390033CE064217024
:100C6C0019900329E0701990033674D1F0A3740223
:100C7C00121356740712134F80027404900329F058
:100C8C00020A16020A0C020A0C74F51203C78A082F
:100C9C008B098C0A8D0B9002D17808120311E49009
:100CAC0002D5F09002D6F074089002D7F09002D8DA
:100CBC00E4F0A3F074019002DAF07A00F91210104B
:100CCC008A828B83A3A3A3A3A3A3A3E493A2E6503A
:100CDC000474018001E4900335F0E4900334F07463
:100CEC000390620FF0E0A2E750FB90620BE0D2E1C0
:100CFC00F07512007513007514007515FF7516FF4D
:100D0C0074FFF0906207F0743E906209F0758B00EE
:100D1C00C2E843AC20439A0253F4FED29043FE0146
:100D2C00D2AF02178174F61203C7120E409002DA8A
:100D3C00E07003020E2F9002D8E07002A3E0700363
:100D4C00020E2FC2AF90620E120E34906214E0A20B
:100D5C00E0506C906216E0FF906217E090020BE09E
:100D6C00F874C0C398F8E49400F98F08C3E89508A8
:100D7C00E99400A2D265D0335008E0FA74C0C39A4B
:100D8C008001EFFEEE60387508DB750902750A000C
:100D9C00780812050EEEF97A287B621213B17403EF
:100DAC00120386EEF97CDB7D027A4B7B01121A79F9
:100DBC00EE6F700B740490620EF0E4906214F0907D
:100DCC00031BE090620EF0D2AFC2AF120E349062F1
:100DDC0011E0A2E040439002CEE0FE603CC394419F
:100DEC0040027E40EEF97CDB7D027A0E7B02121A09
:100DFC00EC7508DB750902750A00780812050EEE11
:100E0C00F97A287B621213D6740312038674049049
:100E1C00620EF07401906211F090031BE090620E70
:100E2C00F0D2AF7F03020427E090031BF074049010
:100E3C00620EF022C082C083A812E85404602078AD
:100E4C001274FB56F67402900322F0E4900323F024
:100E5C00900329F07903121379751700751800A8FF
:100E6C0012E854106009781274EF56F6121045A867
:100E7C0012E8A2E05063781274FE56F690031CE060
:100E8C007002A3E0600990031C120EE81203C575F2
:100E9C008B00C2E843AC20439A0290620FE0C2E19F
:100EAC00F0E0A2E740FBC29175BE05121FC8E51425
:100EBC0070F6E59DA2E650FA7403F0E0A2E750FB51
:100ECC0090031EE07002A3E0600990031E120EE86E
:100EDC001203C5781274FD56F6020A16120EEC2295
:100EEC00E0F8A3E0F583888222C0E074F112045F7D
:100EFC00E59DA2E650FA906206E0FAA2E25035A80F
:100F0C0015E890620BF0F508851609740478081240
:100F1C00034EE508906207F08515088516097409DB
:100F2C00780812034EE508543E906209F090620175
:100F3C00E0D2E0F07812EA46F6906202E0F508752D
:100F4C0009007404780812035D7812E50846F60867
:100F5C00E50946F6906204E0F50875090074097815
:100F6C000812035D781208E50946F6EAA2E0500380
:100F7C0075140174065A6003751400E58BA2E550D4
:100F8C0006758BDF751400758B00C2E87F020204B6
:100F9C00BEC082C083E9FCEAFD7A007B008007902A
:100FAC000321E0120FF5900320120FEF900409E0DB
:100FBC00687003A3E069601C120FE36C700D900362
:100FCC0020E0FAA3E0FB120FF58009120FE36D701D
:100FDC00CEED60CB020A16900321E0F5838882A344
:100FEC00E49322E0F8A3E0F922F5838882E493F8F5
:100FFC00900320E028F8A3E03400F9900320E8F0F7
:10100C00A3E9F02274F71203C7E9FEEAFF1217B244
:10101C00800E8A828B83A3A3A3A3A3E4936E601494
:10102C007A007902120F9DEA7001EB6007EE70E214
:10103C00EF1F70EC7F0202042774F51203C7906255
:10104C000EE0FEE4F0906211E0FFA2E4501F748009
:10105C00F07407900329F0E5177002E51860098514
:10106C0017828518831203C5E4900329F0EFA2E2DE
:10107C00500CE4906211F0900329F002110E9003D1
:10108C0029E064027065906216E0F50A900336124E
:10109C000523A90A7A207B621213B174031203860A
:1010AC00850A0812136B12135E250A12133E900365
:1010BC0039E07002A3E060047A4080027A48EA903A
:1010CC006211F0900339E07002A3E07016E517701E
:1010DC0002E51860098517828518831203C5E49010
:1010EC000329F0EE90620EF0021781E0640670099D
:1010FC008517828518831203C5900329E0600302CB
:10110C001249EFA2E050DC75083B750903750A0023
:10111C00780812050E79087A207B621213B17403D9
:10112C0012038675170075180090033BE054E0120B
:10113C00058A000600541120CF1240BD1280EA111E
:10114C00A0DA12C0C612C81190033CE012058A0046
:10115C000501D11103BD11056E1109DE110BE4114E
:10116C00C81190033FE07002A3E07050900341E07F
:10117C007002A3E0704690033DE05480F8A3E0F9C0
:10118C00E87001E9703690033DE0906200F0900346
:10119C003DE0900322600EE0640260030212E374EF
:1011AC0003F00212E3E0640360030212E3740280B2
:1011BC00F079011214FFE960030212E37404900346
:1011CC0029F00212EE79001214FFE960030212E317
:1011DC0080EA1219230212E31219CD0212E39003D2
:1011EC003CE012058A0004000112060712080D12D9
:1011FC000A7112C8111214160212E31215B402125B
:10120C00E390033DE07002A3E070B190033FE07007
:10121C0002A3E070A7900341E064017002A3E070A8
:10122C009B9003367423F0A37403121356740112AB
:10123C00134F900329F07A40EA906211F090032941
:10124C00E06401600302132A7F02900339C3E09427
:10125C0020A3E0940040030212F3900339E0F50A56
:10126C007F0A0212F6900322E0640460030211C8A4
:10127C0090033BE0648160030211C890033DE07071
:10128C0002A3E060030211C8900341E06401700204
:10129C00A3E060030211C890033FE02424F508A3E7
:1012AC00E03403F509900336E508F0A3E5090212D2
:1012BC003675178F75180C0211C875179275180CA6
:1012CC000211C875170775180C120C0780097517D1
:1012DC006175180C120C61900329E0640460030220
:1012EC0012427A60021244750A20900336120523CA
:1012FC00A90A7A207B621213D67403120386850A1C
:10130C000812135E250812133E12136BEF90621134
:10131C00F0E50AC3942040030210EF0210D9E064F8
:10132C000560030210EF8517828518831203C5022E
:10133C0010EFF9EA3400FA900336E9F0A3EAF0A3CF
:10134C00EBF022F0A3E4F0740122F0A3E4F090039C
:10135C003922900336E0F9A3E0FAA3E0FBE92290EE
:10136C000339C3E09508F0A3E09400F02274F7125F
:10137C0003C77A008A08E508242AF582E43403F5C9
:10138C0083E9F00AEAC3940540EA7A008A08E50882
:10139C00242FF582E43403F583E9F00AEAC39405BB
:1013AC0040EA02104074F61203C7EAFCEBFDE9FEBA
:1013BC00740A1203BB121406600D8C828D83E0122A
:1013CC00026B1213FB70F3020E2F74F61203C7EAB2
:1013DC00FCEBFDE9FE740A1203BB121406600D123D
:1013EC0002518C828D83F01213FB70F3020E2FE9E5
:1013FC00240109EA3400FA1EEE22E0F508A3E0F518
:10140C0009A3E0A908AA09FBEE2274F71203C790FE
:10141C00033DE07002A3E07017900340E0F9E47024
:10142C0001E9700C900341E064027002A3E06005D6
:10143C0074040214E490033BE012055480023C1443
:10144C0052147A148A1490033FE070E4900335E050
:10145C006004780180027800900343E8F0A3E4F084
:10146C00900334E06059900343E04402804D9003B4
:10147C0022E0640470BA900343E4F0A3804090032C
:10148C003FE0547FF508900322E0640470A2E50865
:10149C00C39406509B90033FE05480600E1214F5E9
:1014AC00F583E06403700E7801800C1214EBF58365
:1014BC00E0640360F27800900343E8F0A3E4F0905A
:1014CC000329E0640460159003367443F0A374039D
:1014DC00121356740212134F900329F0021040E5B8
:1014EC0008242EF582E4340322E5082429F582E44D
:1014FC0034032274F71203C7900341E07002A3E097
:10150C007012900322E06404601290033FE07002BA
:10151C00A3E0600874049003290215AE90033BE02D
:10152C00541F120554000220153B1543154D159000
:10153C00033DE0640160047900806AE99003348023
:10154C006190033FE0547FF50890033DE070E8E5BF
:10155C0008C3940650BEE50890620EF090033FE07D
:10156C005480601CE960047A1080027A40EA906230
:10157C0011F0E960047A0380027A001214F5801AE3
:10158C00E960047A2080027A80EA906214F0E960C3
:10159C00047A0380027A001214EBF583EAF0E490EB
:1015AC00620EF0790102104074F51203C790033EED
:1015BC00E012055401022E16CA15E415191612175D
:1015CC00B27A007901120F9D121786120251900304
:1015DC0039F0A3E4F002173D90033DE0FA790012D4
:1015EC001010121786E924020909EA3400FA1202D3
:1015FC0051FC1919E0FAE92403090909EA3400FA43
:10160C00120251F9EC900339F0A3E980C790033D25
:10161C00E0FE1217B27A007903120F9DEE1E70F5E0
:10162C0080A6900336E4F0A3F0A3F0FA021711752C
:10163C0009007403780812035D90040BE02508FB85
:10164C00A3E035098B82F583E493C0E090033EE080
:10165C00F8D0E06860030217108A0875090074035B
:10166C00780812035D1217A2E493C0E090033DE0EA
:10167C00F8D0E06860030217108A0875090074033B
:10168C00780812035D12179DE493C0E0900340E0CC
:10169C00F8D0E068706E8A08750900740378081237
:1016AC00035D12179DA3E493C0E090033FE0F8D0D4
:1016BC00E06870508A087509007403780812035D9D
:1016CC0090040BE02508F8A3E03509F9888289839A
:1016DC00A3A3A3A3E493F508740193F5099003362F
:1016EC00E508F0A3E509F0A37480F088828983A350
:1016FC00A3A3A3A3A3E493F8740193F9900339E88B
:10170C00F0A3E9F00A8A0890040B120FEF7583041A
:10171C0075820DE0C398F50AA3E099F50B74037874
:10172C000A12034EC3E508950AE4950B5003021602
:10173C003B900336E0FCA3E0FDA3E0FEEC4D4E70C5
:10174C00047404802C900329E0640460289003390D
:10175C00120FEF758303758241C3E098A3E0995093
:10176C000E900341120FEF900339E8F0A3E9F074E7
:10177C0001900329F07F04020427900336EAF0A3BA
:10178C00EBF0A37480F0900336E0F9A3E0FA7B80D1
:10179C00221217A2A32290040BE02508A3E035091E
:1017AC008B82F583A322900407E0F8A3E0021006D5
:1017BC0074F11203C774FE120370851082851183B5
:1017CC00EAF0A3EBF0121913602B90040FE0FEA3C8
:1017DC00E08007EE2404FEEF3400FF8E828F83E45A
:1017EC0093F8740193F9851082851183E068700376
:1017FC00A3E06970DE75080080497490906214F063
:10180C0074101219047003750940750A01750B00E8
:10181C00E50C780A12035D8E828F83A3A3A39355E4
:10182C000A6006E509D2E0F509E509906215F0EACF
:10183C00906213F0E50C1214EDF583E4F090620E57
:10184C00F00508121913FAE508C39A40030218FAB6
:10185C007A007905120F9D8A0A8B0BAC0AAD0BEC42
:10186C007001ED60DCEC2402F50EED3400F50F8513
:10187C000E82F583E493540FF50C90620EF075090B
:10188C00008C828D83A3A3A3A3E4932407F50AA35E
:10189C00E4933400F50B7403780A12034EAA0A85FC
:1018AC000E82850F8393A2E74003021806744890BA
:1018BC006211F074081219047003750940750A015D
:1018CC00750B00E50C780A12035D8E828F83A3A33F
:1018DC0093550A6006E509D2E0F509E50990621214
:1018EC00F0EA906210F0E50C1214F702184574023D
:1018FC001203867F08020427F08C828D83A3A3A396
:10190C00E4935403640122851082851183120EEC3A
:10191C00A3A3A3A3E4932274F51203C7900322E0BC
:10192C006402601F90033FE07002A3E07015900307
:10193C0041E07002A3E0700B90033EE0F9E470010B
:10194C00E960087404900329F0807390033DE06013
:10195C005F7A00F91210108A088B09AE08AF09EEF5
:10196C007001EF60DE7404900322F090033DE09070
:10197C000323F07508008E828F83A3A3A3A3E493A3
:10198C00FAE508C39A503785080AE50A2424F5823B
:10199C00E43403F583E4F07A007904120F9D8A8213
:1019AC008B83A3A3A3E49370EE1217BC050880C627
:1019BC00900323F07403900322F0F91213790217A9
:1019CC008174F71203C7900322E064047012900331
:1019DC003BE06401700A900341E07002A3E06008F0
:1019EC007404900329F0805490033DE0FE90033F73
:1019FC00E0FF7A00900323E0F91210107A027904C8
:101A0C00120F9DEA7001EB60D78A828B83A3A3E44B
:101A1C00936F70E88A828B83A3A3A3E4936E70DC2C
:101A2C0090033DE0C0E090033FE02424F8A3E034B1
:101A3C0003F988828983D0E0F01217BC021040743D
:101A4C00F71203C7EAFEEBFF120A80EE24C0121A4B
:101A5C006FEE24C1121A6FEE24C2121A6F120A8B87
:101A6C00021040F582EF3400F583E4F02274F31297
:101A7C0003C7EAFEEBFF8C088D09890C120A801251
:101A8C001B4AF8850C0AE50A28F8E43400F9E894B6
:101A9C00C0E99400C365D033750D00503580252402
:101AAC00C2F8EF3400F9850D0AE508250AF582E540
:101ABC0009121B50C0E0121B62D0E0121B567002C0
:101ACC00E4F0050DE50DC3950CEE40D3121B4B2530
:101ADC000DF0120A8BA90D8002EEF97F0602042785
:101AEC0074F31203C7EAFEEBFF8C088D09890B1205
:101AFC000A80750A008028EE24C1F8EF3400F91230
:101B0C001B62E0C0E0850A0CE508250CF582E509AE
:101B1C003400F583D0E0121B567002E4F0050AE5A0
:101B2C000AC3950B500A121B4AFCE50AC39C40C71A
:101B3C00121B4AC3950AF0120A8BA90A809DEE2447
:101B4C00C0F582EF3400F583E022F088828983E0CF
:101B5C0004F0E064C02288828983E0FCEE2CF582DC
:101B6C00EF3400F5832274F81203C7E9FE90031CCE
:101B7C0074CBF0A37409F090031E74C7F0A3741D0A
:101B8C00F07401900101F0740790038CF0742090B4
:101B9C00038DF0EA90038EF0EB90038FF0740790B6
:101BAC000388F07420900389F0EC90038AF0ED9098
:101BBC00038BF0E4900390F0900391F0900392F07B
:101BCC00900393F0120640900102E06401700374DC
:101BDC0002F0EEF912099312084590038CE064FFB1
:101BEC006005E064FE700890038DE064FF60309047
:101BFC00038EE064FF700890038FE064FF60209018
:101C0C00038CE0906172F090038DE0906173F09022
:101C1C00038EE0906174F090038FE0906175F0900A
:101C2C006172E064FF6008906173E064FF7004C24D
:101C3C00AF80FE906180E0D2E0F07F010204277457
:101C4C00F31203C78A0C8B0D900390E07003021CF7
:101C5C00EF120A80EAF508900345E024F3FE9003A6
:101C6C0051E0900393F0900352E0FF8E0A750B0045
:101C7C00780A1205127C537D03AA0CAB0D121DC100
:101C8C00120386E4900390F0747E6F704DEE604A00
:101C9C00120A80EAFF740D900345F0750A04780A65
:101CAC00120512121DB9120386780A1205127C8CC9
:101CBC007D037A4D7B03121DC1120386900393E0C2
:101CCC00900351F0747F900352F0EFFA7B00120AEC
:101CDC008B79007A457B0312077CAA087B00120AD9
:101CEC008B80027E00021AE574F31203C78A0C8BF8
:101CFC000D89088C09120A80EAFF740D25089003DF
:101D0C0045F0750A04750B00780A120512121DB9FC
:101D1C00120386780A1205127C8C7D037A4D7B03A4
:101D2C00121DC1120386900392E0900351F0747E51
:101D3C00900352F085080A780A120512AC0CAD0D0E
:101D4C007A537B03121DC1120386EFFA7B00120A31
:101D5C008B7F00801F7E0174F355B44404F5B4E509
:101D6C00BD75F04EA4F8A9F0742028FA744E39FB16
:101D7C00120AEB0FEFC39509503079017A457B03BA
:101D8C0012077CE9FE70EC75081480097A017B005F
:101D9C00120B1C1508900391E07004E50870EDE03F
:101DAC0060B3E4F0900392E004F0021AE57C887DC5
:101DBC00037A497B03121FCD740222C082C0839028
:101DCC000102E0640170037402F0120845020A1665
:101DDC00E49003F5F0F9120AC5E960107901120AD2
:101DEC00917900120AC5E96003120B6E7900120A90
:101DFC009153F4FDC29143FE0253F3FED28043FD96
:101E0C00017A4B7B01121A4B7A0E7B02121A4B9001
:101E1C0004137808120302AA08AB09AC0AAD0B1222
:101E2C000C9543E40CE5E475DB6675DA6075E54406
:101E3C0053AFFEC2B9A2AFE492E0F8C2AF90014931
:101E4C0074BCF0A3741FF0E8A2E092AF7901120BFE
:101E5C008174019003F4F09003F274DEF0A3742506
:101E6C00F09003F074EBF0A37425F079007CEBFD9B
:101E7C007ADEFB121B729003EEE4F0A3F09003ECFD
:101E8C00F0A3F0120B49801AEAFEEEF97C947D0364
:101E9C007A4B7B01121AECEEFC7D007A947B0312D8
:101EAC000BB1120D319003F4E06402701090020B30
:101EBC00E0FA60EEC3942D40CF7E2C80CD121F052E
:101ECC00900390E060DC121F707AC07B03121C4BF5
:101EDC00E9FA60178A82FC7D007AC07B03120BB191
:101EEC008A08E58265087001EB60069003EE121F0C
:101EFC007D74019002DAF080A974F81203C7900285
:101F0C000BE0FEC3942C50099003F5E06053EE6097
:101F1C0050121F70EEC3942C5004EEFF80027F2CE5
:101F2C00EFF97C947D037A4B7B01121AEC79031246
:101F3C000B967C05EFF97A947B03121CF4E960068E
:101F4C009003EC121F7D74019002DAF053E4FDC291
:101F5C00B975E20043E402D2B9120B49E49003F5DF
:101F6C00F0021C46E49002DAF07AE87B03120AEBEA
:101F7C0022E02401F0A3E03400F0121F8A22C08278
:101F8C00C08374EF1203709003EE1205279003ECDC
:101F9C001205277CF67D0374041203BBAA82AB8363
:101FAC0012206C74041203867411120386020A1632
:101FBC00C082C08374019003F5020A157587010075
:101FCC002274F71203C774091203BBE0FEA3E0FFEF
:101FDC00EAF8EBF980188C828D83E088828983F093
:101FEC00A3A882A9838C828D83A3AC82AD838E0837
:101FFC008F0974FF25081E74FF3509FFE508700270
:10200C00E50970D27F0202042774F81203C7740822
:10201C001203BBE0F8A3E0F98A828B838003ECF017
:10202C00A3E8FEE9FF74FF2E1874FF3FF9EE700170
:10203C00EF70EB7F01020427C082C0838A828B83FE
:10204C001220D9E9F08A828B83E02401F8A3E034D2
:10205C0000F98A828B83E8F0A3E9F0D083D0822246
:10206C0074F71203C774FC12037074021203BBEAF8
:10207C00F0A3EBF0ECFAEDFB740D1203BBA882A9F4
:10208C0083851082851183E8F0A3E9F085108285A1
:10209C00118385820885830978081205127404124D
:1020AC0003BB85820885830978081205127C447D60
:1020BC00201220E2740412038674021203BB122055
:1020CC00D9E4F074041203867F02020427E0F8A31B
:1020DC00E0F58388822274F11203C774B212037084
:1020EC008510828511831229EC74101203BBECF05D
:1020FC00A3EDF0740B1203BBE4F0A38022745D1209
:10210C0003BB12292274041203BBE0F974101203EE
:10211C00BB12294B1203C5740B1203BB122A00F01D
:10212C00122A241203BBEAF074256A6015E070CD04
:10213C00740B1203BB122922744E1203867F080201
:10214C0004271229586425700F122A09745D120392
:10215C00BB122922792580B4740F1203BBE4F074EE
:10216C000E1203BBE4F074081203BBE4F074071204
:10217C0003BBE4F0741C1203BBA882A98374021283
:10218C0003BB122A1E741A1203BB7417F0A3740437
:10219C00801974071203BBE0700774071203BBEAC3
:1021AC00F0851082851183E8F0A3E9F01229A6FAD4
:1021BC0012058A0005209E2123DB212BA6212DD27E
:1021CC002130DF21E32174081203BBE00480D174B9
:1021DC000E80F5740F80F18510828511831229729F
:1021EC00E0642A7053745F1203BB12297212292205
:1021FC008A828B8312291C74091203BBECF0A3EDA9
:10220C00F01229031203BB1229E974091203BB1241
:10221C002995501F74091203BB122922C3E49AFAA0
:10222C00E49BFB74091203BB1229EC74081203BB68
:10223C00E004F0122A18802674091203BBE4F0A300
:10224C00801074091203BB1229C474091203BB1247
:10225C002A62122A514007E508C3943A40E47408F4
:10226C001203BBE06007740F1203BBE4F012295891
:10227C00642E705C122A09122958642A702C745F1F
:10228C001203BB12296BF9888289831229227405E7
:10229C001203BB1229ECE824020808E91228FD12EB
:1022AC0003BB122972122A62802F74051203BBE43D
:1022BC00F0A3122A514023E508C3943A501C74052C
:1022CC001203BB1229C474051203BB122A6280E2EA
:1022DC0074051203BB74FFF0A3F07C001229A61244
:1022EC00058A00034CFB2268FC226CFB22FF220CAB
:1022FC00122A18122A241203BBEAF012058A01656D
:10230C00677E270D009B27457E27477E2758932401
:10231C006382236421256921256E39236F6824701B
:10232C00932473B623759324788724A727745F129C
:10233C0003BB122990602E740B1203BB12291C33A1
:10234C0095E0FE8A828B8312294BECF0A3EDF0A36F
:10235C00EEF0A3F0745F1203BB12299B1203BB12A5
:10236C00297F02212B740B1203BB1229398A828B11
:10237C008312297F80DD745F1203BB12296BF583F6
:10238C008882E0C0E0741C1203BBD0E0F0745F12D2
:10239C0003BB12299B1203BB122972122A1E741D35
:1023AC001203BBAA82AB830227B7745F1203BB1262
:1023BC0029878A828B831229391229031203BB12B3
:1023CC0029E974021203BB122A1EE87001E9700C91
:1023DC0074021203BB7428F0A37404F07405120386
:1023EC00BB122995500C74051203BB7410F0A37426
:1023FC0027F07E007F008008EE24010EEF3400FFF2
:10240C0074021203BB12293988828983A3AA82AB76
:10241C008374021203BB1229EC88828983E0601456
:10242C0074051203BB122939C3EE98EF99A2D26539
:10243C00D03340C474021203BBE024FFFAA3E0348F
:10244C00FFFBC3E49EF8E49FF9EA28F8EB39F97432
:10245C00021203BBE8F0A3E9F00227B7740E1203D3
:10246C00BBE0601774051203BBE07002A3E0700BB5
:10247C0074051203BB7401F0A3E4F0741A1203BBCD
:10248C007437F0A37404F0745F1203BB12298774C1
:10249C00041203BBE0647070358A828B8312293F6F
:1024AC001203BB122A431228FB1203BB122972120D
:1024BC002A1E90046F780812030274161203BB785C
:1024CC000812031174071203BBE4F00225A4EC8A72
:1024DC00828B836014780812030274121203BB7887
:1024EC0008120311EA2404800912293F1203BB12BB
:1024FC002A431228FB1203BB122972122A3B120325
:10250C00BBE0646F700590047380AAE0647570A2E0
:10251C0090047780A0745F1203BB1229908A828B7F
:10252C0083600A7808120302EA24048011E0F5089B
:10253C00A3E0F5093395E0F50AF50BEA240212281D
:10254C00FB1203BB122972122A1E74121203BB78DF
:10255C000812031190047B780C120302780C790892
:10256C0012023C502174071203BB742DF07412122A
:10257C0003BB780812030278081202F174121203DA
:10258C00BB780812031190047778081203027416B2
:10259C001203BB7808120311744D1203BBA882A955
:1025AC008374021203BB122A1E744D1203BBAA823F
:1025BC00AB8374121203BBC082C08390047B780877
:1025CC00120302D083D08278081202276009740D9E
:1025DC001203BB74018006740D1203BBE4F0740586
:1025EC001203BBE07002A3E0700B740D1203BBE08E
:1025FC0070030226DF74021203BB1229321203BBD2
:10260C00122A1E74121203BB780C120302741612D7
:10261C0003BB7808120302780C7908120281741A31
:10262C001203BBE02508FCA3E035098C82F583E09E
:10263C00C0E074021203BB12294BD0E0F0741212EA
:10264C0003BB780C12030274161203BB7808120336
:10265C0002780C790812028174121203BB780C12E6
:10266C00031174121203BBC082C08390047B7808E0
:10267C00120302D083D0827808120227600302264C
:10268C000174051203BB1229955048740F1203BB39
:10269C00E0604074071203BBE06004D2F08002C219
:1026AC00F074091203BBA2F0E492E0F8E0C398F8CE
:1026BC00A3E09400F974051203BBE8F0A3E98012BF
:1026CC0074021203BB122A1E74021203BB12294B92
:1026DC007430F074021203BB1229321203BB12299C
:1026EC001C8B838A82E582C39CFEE5839DFF740567
:1026FC001203BB12291CC3EE9CEF9DA2D265D033F2
:10270C0040BE740E1203BBE070030227B7740D12A7
:10271C0003BBE070030227B774041203BBE06478B8
:10272C006005E06458703774021203BB122A3B1226
:10273C0003BBE0C0E074021203BB12294BD0E0F0E3
:10274C0074021203BB12290FF974021203BB122A72
:10275C001E74021203BB12294B7430022464E06411
:10276C006F704874021203BB1229F2E06430603BB4
:10277C0080D774021203BB7448F0A37404F07A4837
:10278C00FB8A828B83E06023A3AA82AB8380F285D1
:10279C00108285118312290F122A1774021203BB9F
:1027AC00746BF0A37404F07A6E7B0474021203BB96
:1027BC00122939EAC398F8EB99F974051203BB1284
:1027CC002A1E74091203BBC082C08374051203BB9A
:1027DC00E0F8D083D082C3E098A3E099A2D265D070
:1027EC003350067E007F00802974071203BBE06023
:1027FC0004D2F08002C2F074091203BBE0C398F853
:10280C00A3E099F9A2F0E492E0FAE8C39AFEE99405
:10281C0000FF74081203BBE070208019745D120372
:10282C00BB1229281203BB12294B1203C5740B12BD
:10283C0003BB1229FB1228EA50E274071203BBE017
:10284C006056745D1203BB12292274071203BBE09D
:10285C00F974101203BB12294B1203C58032745D3C
:10286C001203BB12292274021203BB12295EF974E3
:10287C00101203BB12294B1203C574021203BBE0E6
:10288C002401F8A3E03400F974021203BB122A1ECF
:10289C00740B1203BB1229FB74051203BBE024FF5B
:1028AC00F0A3E034FFF074051203BB12299550AE6F
:1028BC0074081203BBE0700302212C1228EA5003A7
:1028CC0002212C745D1203BB1229281203BB12299E
:1028DC004B1203C5740B1203BB1229FB80DDEE24D3
:1028EC00FF1EEF34FFFFC39400A2D265D03322F851
:1028FC00EB3400F9745F22EA24020A0AEB3400FB81
:10290C00745F2212291322E024FFF8A3E034FF2283
:10291C00E0FCA3E0FD22E0FAA3E0FB22E0FAA3E056
:10292C00FB7920741022122913F9740222E0F8A307
:10293C00E0F922E0F8A3E0F9E8FCE9FD74122212B8
:10294C00294F22E0F8A3E0F5838882228510828546
:10295C001183122962221229662212294FE02212B7
:10296C002962F8A3E02212297622E0FAA3E0F5838B
:10297C008A8222122976E8F0A3E92212298B2212EC
:10298C002966809312298BEC22C3A3E00228F31250
:10299C0029622402F8A3E00228FD851082851183A8
:1029AC00E01229B5122976E0222401F8A3E03400C4
:1029BC00F985108285118322E0F8A3E0F9E875F01F
:1029CC000AA4F8AAF075F00AE9A42AF9E82508F88F
:1029DC00E93400F974D028F874FF39F9221229F27D
:1029EC00EAF0A3EBF022E0FCA3E0F5838C82221248
:1029FC002A00F022E02401F0A3E0340022851082AA
:102A0C00851183E0240108A3E03400F98510828548
:102A1C001183E8F0A3E9F022851082851183122935
:102A2C0062FA851082851183E02401081229B8E826
:102A3C00F0A3E9F0740422ECF0A3EDF0A3E4F0A30E
:102A4C00F0EA240222122A6FF8A3E0F5838882E0D0
:102A5C00F508C3943022E8F0A3E9122A6F1229B5C5
:0C2A6C00022982F0851082851183E0228F
:04000005000000E116
:00000001FF
