:020000040000FA
:030000000200F407
:03003300020F5366
:03004B00020A9C0A
:100083000207C200000080FB120103B90003020053
:10009300EEE479347813B800028004F709D8FCE45D
:1000A30090010178C979018002F0A3D8FCD9FA78CC
:1000B300219001067A13BA00028007E493A3F6089D
:1000C300DAF99001C9AA82AB8390011978117901F9
:1000D3008015E493A3AC82AD838A828B83F0A3AAB9
:1000E30082AB838C828D83D8E9D9E7121C4212003C
:1000F3008675D0007581BF75100175110102008BE3
:100103007901220000000000000000000000000050
:100113000101FF00FF000F14191A2901BC012F026E
:100123004F024F02000012010002000000205104A0
:10013300A91600010102000109023B00020100802F
:100143001909040000010301010009211101000143
:10015300223F000705810308000A09040100010387
:100163000102000921100100012234000705820366
:1001730008000A040309042403540065007800619D
:10018300007300200049006E007300740072007554
:10019300006D0065006E00740073001E035500536C
:1001A3000042002000430043003200350033003199
:1001B30000200048004900440005010906A10195FB
:1001C300087501050719E029E71500250181029546
:1001D3000175088101950575010508190129059126
:1001E3000295017503910195067508050719002904
:1001F30065150025658100C005010902A1010901FA
:10020300A1009505750105091901290515002501A9
:100213008102950175038101950375080501093074
:10022300093109381581257F8106C0C022000000ED
:10023300BC013F0022000001FB013400210000004B
:100243004D0109002100000166010900440100007D
:100253005D010000BB0102E722C082C08389828A5C
:1002630083BB0003E08002E493D083D08222BB00EF
:100273000EC082C0838A838982F0D083D08222BB5E
:100283000101F722CAC0E0E6F0A308DAFAD0E0FAE7
:1002930022CAC0E0E0A3C582CCC582C583CDC58395
:1002A300F0A3C582CCC582C583CDC583DAE6D0E091
:1002B300CA22600C08C6C313C618C613C6D5E0F419
:1002C30022700422600D18C6C333C608C633C6D5D0
:1002D300E0F41822251010AF08F510400215118024
:1002E30008F51040021511D2AF22C0D0251010AF6F
:1002F30008F510500205118008F51050020511D2BF
:10030300AFD0D0222510F58210AF08F510400215AA
:10031300118008F51040021511D2AF8511832225F3
:1003230010F582E43511F58322E4732510C582C0EC
:10033300E0E51134FFC583C0E0E510C3958224F9DD
:10034300F8E4C5A8858311858210C5A8E8CEF0A37B
:10035300E520F0A37808E608F0A3DEFAEFF0A3E5C2
:100363008124FBF8E608F0A3E608F0A30808E608F2
:10037300F0A3E608F0A315811581D0E0FED0E0F8E4
:1003830015811581E8C0E0EEC0E022851183851058
:1003930082E0A3FEE0A3F5207808E0A3F608DFFAE5
:1003A300E0A3FFE0A3C0E0E0A3C0E0E0A3C0E0E07F
:1003B300A3C0E0E4C5A8858210858311C5A8D083B6
:1003C300D08222C0D02510C582C0E0E51134FFC51C
:1003D30083C0E0E510C3958224F310AF0885831131
:1003E3008582108008858311858210D2AFC8F0A35F
:1003F300E9F0A3EAF0A3EBF0A37908E709F0A3D8A7
:10040300FAECF0A3EDF0A3EEF0A3EFF0A3D0E0F04D
:10041300A3D0E0F0A3D0E0F0A3E520F0A3E5F0F053
:10042300A322851183851082E0C0E0A3E0F9A3E055
:10043300FAA3E0FBA37808E0F608A3DFFAE0FCA345
:10044300E0FDA3E0FEA3E0FFA3E0C0E0A3E0C0E083
:10045300A3E0F5D0A3E0F520A3E0A3F5F0E4C5A85D
:10046300858311858210C5A8D082D083D0E0F8D0CF
:10047300E0327403800474028000C0E0F4041203C9
:1004830007D0E01202872274038000CCC0E0EDC0E5
:10049300E0E510C39CCCAD1150011D10AF068C10CC
:1004A3008D1180068C108D11D2AF120294D0E0FD15
:1004B300D0E0FC22D083D082C5F0E493A3C5F0C37F
:1004C30095F0F5F0E493A3C395F04005E5F00480BF
:1004D30001E475F002A42582F582E5F03583F58306
:1004E300E493A3C0E0E493C0E022D083D082CCC0E5
:1004F300E0E493A360061205171470FAE493A36073
:10050300061205361470FAD0E0FCE493A3C0E0E4CD
:1005130093C0E022C0E0E493A3D39C5010E493A3E0
:10052300C39C400AD0E0D0E0D0E002050AA3A3A315
:10053300D0E022C0E0E493A36C7009D0E0D0E0D017
:10054300E002050AA3A3D0E02274F712032E74FE7F
:100553001202D7900101E0F508EA8508F0A4FAAC8D
:10056300F08508F0EBA42CFB851082851183EAF05B
:10057300A3EBF085108285118312104D74FF28FAC6
:1005830074FF39FB851082851183EAF0A3EBF0E851
:100593007001E970DE74021202ED02109E74F7120C
:1005A300032E75084375090078081204797C007DD1
:1005B300007A037B01121D6D74021202ED90624AF0
:1005C300E064B56004C2AF80FE906249E07004C28B
:1005D300AF80FE53BEFBE59DA2E650FA0078F879A2
:1005E30001001208E87001E970F775C600E59E7016
:1005F300FC43BE0474149061A9F0743F9061ABF0A6
:1006030074F8906196F074859061A8F0745A9061C3
:10061300ACF074159061B2F0E4906182F0741090C4
:1006230061B5F0740E9061B6F074039061B7F07425
:10063300099061FAF074FF9061E5F0906172F090B7
:100643006173F0906189E054F34408F075E1E3903D
:100653006199E0A2E050F8780079007C10E8C33398
:10066300F8E933F99061A7E0A2E0E492E048F81CCE
:10067300EC70EA748048F5BCE9F5BC75E1EF75E10F
:10068300ED75E1ED906189E054F3F074019001029E
:10069300F0906180E0C2E0F0906181E05497F090C7
:1006A300618AE0C2E0F0747F906194F079001208EF
:1006B300F212095474D5906190F0900102E0640342
:1006C3007003120944439A019001467414120EC137
:1006D30012096ED2AF02109E74F712032EEAFEEBDC
:1006E300FF8909750800900102E064017004C2AF3C
:1006F30080FE1209545391FD900148E08E828F834E
:10070300A3A3A3F0900148E004F074018E828F83C9
:10071300A3F074888E828F83A3A3F075E1EE8E829B
:100723008F83E0FB74022BF5D97A008005A3E0F5F3
:10073300D90AEAC39B40F6E509700B75E1E9E59137
:10074300A2E1404A80F8740165096004C2AF80FEEB
:100753007E0480071E12095412096E75E1E390614D
:1007630099E0A2E050F8A2AFE492E0FAC2AF75E1DB
:10077300EA906193E05408FBEAA2E092AFEB6008D1
:10078300E591A2E1400880F8EE70C97508011209ED
:1007930054900102E064037003120944A908021093
:1007A3009EC082C083900102E064017004C2AF80E6
:1007B300FEE0640360067403F0120944020B62C096
:1007C300E074EF1203C6900102E064036004C2AF59
:1007D30080FEE5E9A2E250FA906193E0A2E6500EB2
:1007E300E0A2E7400975E1ED75E1ED0208DD53E9AB
:1007F300FB747F55D9F508F50A74FF250AF874FFD1
:100803003400F9C3E89442E99400A2D265D033508E
:1008130007E508C3940E50107A00EAC39508400315
:100823000208D4E5D90A80F27E037F01750A417577
:100833000B00780A1204797C007D007A037B011295
:100843001D6D74021202ED74FE2508900103F0740D
:10085300FE2508F874FF3400F98E828F83A3AE82DD
:10086300AF83E5D9F01208E87001E970EC74B425A0
:10087300D9900144F0E5D9FAA2E75055747F5A9014
:100883000145F0900104E064017046900105E064C5
:1008930088703E9001037C717D0174431202949031
:1008A300017EE0FA900171E0F874F528F874FF34E2
:1008B30000F97402687001E9700C747F6A70077440
:1008C300019001BD800A747E6A700674019001BCB8
:1008D300F090619BE060030207D5759B0053E9FB31
:1008E3007F04020425E824FF18E934FFF9E82274A1
:1008F300F712032E8908E9C394044004C2AF80FEB3
:1009030012095475F005E50824C9F582E43401F5AC
:1009130083E0A424D490618FF0900102E06403701B
:100923000312094402109EC082C083900102E06456
:1009330001600BE0640370031209547401F0020BAD
:1009430062C082C08375E1E39061A3E0D2E2020B4F
:1009530061C082C0839061A3E0C2E2F075E1EF75EC
:10096300E1ED75E1ED75E9FB020B62EEC0E074F3B6
:1009730055B44404F5B4740F55BD04FE7AFA7B00F4
:1009830012098E1EEE70F5D0E0FE2274F712032ECC
:100993008A088B09740478081202B5AE08AF09EA15
:1009A3007001EB6028A2AFE492E0F508C2AF7A10C1
:1009B3007B0012054CE508A2E092AFEEF8EFF97464
:1009C300FF281E74FF39FFE87001E970D802109EFA
:1009D300A2AFE492E0FA7B00C2AF22EAA2E092AFB8
:1009E30022748055C6FA53BEFBE59DA2E550FAE595
:1009F3009DA2E240F400740169700774494AF5C688
:100A03008005E970028AC6E5C6FAE59EFBEA6B70CB
:100A1300F943BE0422E59EA2E64003790122E97070
:100A23000553C67F8008740169700343C680E5C619
:100A3300FAE59EFBEA6B70F9790022EBC313FBEA3C
:100A430013FAEAF8EBF974FF28FA74FF39FB740020
:100A53006870037400696013000000000000000068
:100A630000000000000000000080D72274F8120389
:100A73002EEAFEEBFFEEF8EFF974FF28FE74FF3960
:100A8300FF740068700374006960097AE87B0312DD
:100A93000A3E80E17F0102038EC0E074F21203C6B6
:100AA300900149E07002A3E06009900149120C151E
:100AB30012032C7F010204257901120ACE79021256
:100AC3000ACE7A647B00120A6F80ED7401697006A6
:100AD300639002E5902274026960057403697005EE
:100AE300638001E58022C082C0837A0079011210FD
:100AF3006E8A828B83A3A3A3A3A3A3A3E493A2E6F7
:100B0300500474018001E4900161F0E4900160F00D
:100B1300740390620FF0E0A2E750FB90620BE0D207
:100B2300E1F07540007541007542007543FF75445F
:100B3300FF74FFF0906207F0743E906209F0758BCA
:100B430000C2E843AC20439A0253F4FED29043FE22
:100B530001D2AF800AC082C0837404900155F0D0E3
:100B630083D08222C082C083A840E85404602675E3
:100B730040007541007402900151F0E4900152F07D
:100B8300900155F079031213C6754500754600743C
:100B930001906201F0A840E854106009784074EFB6
:100BA30056F61210A3A840E8A2E05063784074FE02
:100BB30056F690014BE07002A3E0600990014B12DE
:100BC3000C1512032C758B00C2E843AC20439A0228
:100BD30090620FE0C2E1F0E0A2E740FBC29175BE74
:100BE30005121D20E54270F6E59DA2E650FA740356
:100BF300F0E0A2E750FB90014DE07002A3E0600932
:100C030090014D120C1512032C784074FD56F60218
:100C13000B62120C1922E0F8A3E0F5838882227498
:100C2300F612032E8A828B83A3E0F53C701E8A8220
:100C33008B83A3A3E0F53D8A828B83A3A3A3E0F573
:100C43003E8A828B83A3A3A3A3E0F53F1209D38536
:100C53003C2A853D2B853E2C853F2D7B001209DEEA
:100C63001209D3EAFE740290620EF0906211E0A2C0
:100C7300E0402375082A750900750A0178081204F3
:100C83007579047A247B6212142574031202ED90A1
:100C93006211E0D2E0F0EEFA7B001209DE021420CA
:100CA300C082C083900168E01204B70902860DB8C0
:100CB3000C4A0D030D900155E06003020D8C900169
:100CC3006AE0F9E470037402696003020D8690011F
:100CD3006BE07002A3E06003020D8690016DE06497
:100CE300017002A3E06003020D867402900155F0C7
:100CF3009001627421120EB87401F0A3E4020D8B0B
:100D0300900155E06003020D8C900169E054FEF8F8
:100D1300A3E0F9E87001E9706A90016DE07002A345
:100D2300E07060120EC6505B90016BE01204B700D6
:100D3300018C0D3A0D420D900169E0F52E804A9029
:100D43000169E0F52F8042900155E0703C90016D00
:100D5300E07002A3E0702C120EC6502790016BE0E6
:100D63001204B700018C0D6E0D7A0D900169E0F548
:100D730030A3E0F5318012900169E0F532A3E0F58C
:100D83003380067404900155F0020B62C082C08365
:100D9300900168E01204B70102A40EA40D600E1CBA
:100DA3000E900155E06003020EAA90016AE0F9E497
:100DB30070037401696003020EA490016BE070027A
:100DC300A3E0702590016DE064087002A3E0600366
:100DD300020EA47401900155F09001627422120E68
:100DE300B87408F0A3E4020EA990016BE0640170EB
:100DF30002A3E06003020EA490016DE0640470029C
:100E0300A3E06003020EA47401900155F090016207
:100E1300742A120EB8740480CA900155E06003026C
:100E23000EAA900169E07002A3E0707590016DE075
:100E330064017002A3E07069120EC6506490016BE6
:100E4300E01204B700019F0E4F0E590E9001627419
:100E53002EF0A3E48041900162742F80F490015539
:100E6300E0704490016DE064017002A3E0703212FF
:100E73000EC6502D90016BE01204B700019F0E8641
:100E83000E910E9001627431F0A3740080099001F9
:100E9300627433F0A37400F0A37401F0120EAD80FA
:100EA300027404900155F0020B6290016574011203
:100EB3000EC1740122120EC1A3F090016522F0A3AA
:100EC300E4F02290016BC3E09402A3E094002202B9
:100ED3000B58020B5874F612032E7E001209D3EA44
:100EE300FF740190620EF0906211E0A2E04023755E
:100EF30008228E09750A01780812047579087A2286
:100F03007B6212142574031202ED906211E0D2E0A9
:100F1300F00EEFFA7B001209DEEEF902142074F8EA
:100F230012032EE9FE1209D3EEF8E6F5220808E6CD
:100F3300F52408E6F52508E6F52608E6F52708E68C
:100F4300F52808E6F5297B001209DE7F0102038EEE
:100F5300C0E074F11203C6E59DA2E650FA90620662
:100F6300E0FAA2E25035A843E890620BF0F5088559
:100F73004409740478081202B5E508906207F08505
:100F83004308854409740978081202B5E508543EFC
:100F9300906209F0906201E0D2E0F07840EA46F610
:100FA300906202E0F508750900740478081202C41F
:100FB3007840E50846F608E50946F6906204E0F550
:100FC30008750900740978081202C4784008E50915
:100FD30046F6EAA2E0500375420174065A600375AF
:100FE3004200E58BA2E55006758BDF754200758BD9
:100FF30000C2E87F02020425C082C083E9FCEAFD47
:101003007A007B008007900150E012105390014F4B
:1010130012104D9001CFE0687003A3E069601C12C9
:1010230010416C700D90014FE0FAA3E0FB121053D6
:1010330080091210416D70CEED60CB020B629001FE
:1010430050E0F5838882A3E49322E0F8A3E0F92239
:10105300F5838882E493F890014FE028F8A3E03405
:1010630000F990014FE8F0A3E9F02274F712032E80
:10107300E9FEEAFF121800800E8A828B83A3A3A3E2
:10108300A3A3E4936E60147A007902120FFBEA7053
:1010930001EB6007EE70E2EF1F70EC7F0202038E3C
:1010A30074F512032E90620EE0FEE4F0906211E0FC
:1010B300FFA2E4501F7480F07407900155F0E545DA
:1010C3007002E546600985458285468312032CE458
:1010D300900155F0EFA2E2500CE4906211F0900100
:1010E30055F002116C900155E06402706590621630
:1010F300E0F50A90016212048AA90A7A207B62123F
:1011030013FE74031202ED850A081213AB1213B90E
:10111300250A12139A900165E07002A3E060047A35
:101123004080027A48EA906211F0900165E0700213
:10113300A3E07016E5457002E546600985458285A2
:10114300468312032CE4900155F0EE90620EF002F8
:101153001A18E06406700985458285468312032CBC
:10116300900155E060030212A5EFA2E050DC750880
:1011730067750901750A00780812047579087A20E1
:101183007B621213FE74031202ED7545007546006F
:10119300900167E054E01204ED000600B211202B29
:1011A30013401913804812A03613C022132612903D
:1011B3000168E01204ED0005012F12031B1205CC98
:1011C30011093C120B4212261290016BE07002A32C
:1011D300E0705090016DE07002A3E07046900169E9
:1011E300E05480F8A3E0F9E87001E97036900169F2
:1011F300E0906200F0900169E0900151600EE064BC
:1012030002600302133F7403F002133FE0640360C0
:101213000302133F740280F0790112154FE9600352
:1012230002133F7404900155F002134A790012151A
:101233004FE9600302133F80EA12197102133F1250
:101243001A1D02133F900168E01204ED0004005FD1
:1012530012066512086B120ACD12261212146402CA
:10126300133F12160402133F900169E07002A3E0DA
:1012730070B190016BE07002A3E070A790016DE084
:1012830064017002A3E0709B9001627452F0A37436
:1012930001120EC1120EAD900155F07A40EA906230
:1012A30011F0900155E0640160030213867F029000
:1012B3000165C3E09420A3E09400400302134F9020
:1012C3000165E0F50A7F0A021352900151E06404BC
:1012D3006003021226900167E06481600302122614
:1012E300900169E07002A3E0600302122690016D91
:1012F300E064017002A3E0600302122690016BE038
:101303002453F508A3E03401F509900162E508F0E0
:10131300A3E5090212947545D275460E021226758D
:1013230045D575460E0212267545A375460C120C5B
:10133300A3800975458F75460D120D8F900155E0F9
:101343006404600302129E7A600212A0750A209060
:10135300016212048AA90A7A207B6212142574039B
:101363001202ED850A081213B9250812139A1213F3
:10137300ABEF906211F0E50AC39420400302114DD4
:10138300021137E06405600302114D8545828546ED
:101393008312032C02114DF9EA3400FA900162E939
:1013A300F0A3EAF0A3EBF022900165C3E09508F007
:1013B300A3E09400F022900162E0F9A3E0FAA3E035
:1013C300FBE92274F712032E7A008A08E5082456F3
:1013D300F582E43401F583E9F00AEAC3940540EAAF
:1013E3007A008A08E508245BF582E43401F583E991
:1013F300F00AEAC3940540EA02109E74F612032E23
:10140300EAFCEBFDE9FE740A120322121454600D88
:101413008C828D83E012027112144970F37F0302F0
:10142300038E74F612032EEAFCEBFDE9FE740A1236
:101433000322121454600D1202578C828D83F01212
:10144300144970F380D7E9240109EA3400FA1EEE47
:1014530022E0F508A3E0F509A3E0A908AA09FBEE39
:101463002274F712032E900169E07002A3E0701753
:1014730090016CE0F9E47001E9700C90016DE06497
:10148300027002A3E060057404021534900167E062
:101493001204B780028A14A014C714D71490016BE6
:1014A300E070E4900161E0600478018002780090CC
:1014B300016FE8120EC1900160E0605990016FE086
:1014C3004402804D900151E0640470BB90016FE4CD
:1014D300F0A3804090016BE0547FF508900151E048
:1014E300640470A3E508C39406509C90016BE05418
:1014F30080600E121545F583E06403700E78018059
:101503000C12153BF583E0640360F2780090016FE1
:10151300E8F0A3E4F0900155E064046018900162E0
:10152300746FF0A37401120EC19001657402120E60
:10153300B2900155F002109EE508245AF582E43476
:101543000122E5082455F582E434012274F71203DD
:101553002E90016DE07002A3E07012900151E064DF
:1015630004601290016BE07002A3E06008740490C1
:1015730001550215FE900167E0541F1204B70002E3
:1015830070158B1593159D15900169E06401600436
:101593007900806AE9900160806190016BE0547F7B
:1015A300F508900169E070E8E508C3940650BEE5CC
:1015B3000890620EF090016BE05480601CE96004B7
:1015C3007A1080027A40EA906211F0E960047A03AB
:1015D30080027A00121545801AE960047A2080029D
:1015E3007A80EA906214F0E960047A0380027A0058
:1015F30012153BF583EAF0E490620EF079010210D4
:101603009E74F512032E90016AE01204B701027E64
:10161300161A16341669161218007A007901120F79
:10162300FB1217D4120257900165F0A3E4F00217DE
:101633008D900169E0FA790012106E1217D4E92433
:10164300020909EA3400FA120257FC1919E0FAE90F
:101653002403090909EA3400FA120257F9EC90014C
:1016630065F0A3E980C7900169E0FE1218007A00D3
:101673007903120FFBEE1E70F580A6900162E4F071
:10168300A3F0A3F0FA021761750900740378081236
:1016930002C49001D1E02508FBA3E035098B82F554
:1016A30083E493C0E090016AE0F8D0E0686003024D
:1016B30017608A08750900740378081202C41217A8
:1016C300F0E493C0E0900169E0F8D0E068600302C1
:1016D30017608A08750900740378081202C4121788
:1016E300EBE493C0E090016CE0F8D0E068706E8AA0
:1016F30008750900740378081202C41217EBA3E4F7
:1017030093C0E090016BE0F8D0E06870508A0875F0
:101713000900740378081202C49001D1E02508F887
:10172300A3E03509F988828983A3A3A3A3E493F5EE
:1017330008740193F509900162E508F0A3E509F047
:10174300A37480F088828983A3A3A3A3A3A3E493B0
:10175300F8740193F9900165E8F0A3E9F00A8A08A7
:101763009001D112104D7583017582D3E0C398F5B2
:101773000AA3E099F50B7403780A1202B5C3E508CE
:10178300950AE4950B500302168B900162E0FCA3CB
:10179300E0FDA3E0FEEC4D4E70047404802C900138
:1017A30055E06404602890016512104D758301753E
:1017B300826DC3E098A3E099500E90016D12104D15
:1017C300900165E8F0A3E9F07401900155F0021A65
:1017D30018900162EAF0A3EBF0A37480F090016229
:1017E300E0F9A3E0FA7B80221217F0A3229001D143
:1017F300E02508A3E035098B82F583A3229001CD70
:10180300E0F8A3E002106474F112032E74FE1202D6
:10181300D7851082851183EAF0A3EBF0121961607A
:101823002B9001D5E0FEA3E08007EE2404FEEF3405
:1018330000FF8E828F83E493F8740193F9851082FD
:10184300851183E0687003A3E06970DE750800808A
:10185300497490906214F074101219527003750950
:1018630040750A01750B00E50C780A1202C48E82DA
:101873008F83A3A3A393550A6006E509D2E0F50974
:10188300E509906215F0EA906213F0E50C12153D3C
:10189300F583E4F090620EF00508121961FAE50889
:1018A300C39A40030219487A007905120FFB8A0A8A
:1018B3008B0BAC0AAD0BEC7001ED60DCEC2402F594
:1018C3000EED3400F50F850E82F583E493540FF586
:1018D3000C90620EF07509008C828D83A3A3A3A3E1
:1018E300E4932407F50AA3E4933400F50B74037817
:1018F3000A1202B5AA0A850E82850F8393A2E740D6
:10190300030218547448906211F07408121952704B
:1019130003750940750A01750B00E50C780A12027C
:10192300C48E828F83A3A393550A6006E509D2E090
:10193300F509E509906212F0EA906210F0E50C12E5
:10194300154702189374021202ED7F0802038EF00A
:101953008C828D83A3A3A3E4935403640122851093
:1019630082851183120C19A3A3A3A3E4932274F514
:1019730012032E900151E06402601F90016BE0702E
:1019830002A3E0701590016DE07002A3E0700B906C
:10199300016AE0F9E47001E960087404900155F00C
:1019A3008073900169E0605F7A00F912106E8A0813
:1019B3008B09AE08AF09EE7001EF60DE740490018D
:1019C30051F0900169E0900152F07508008E828F0A
:1019D30083A3A3A3A3E493FAE508C39A5037850826
:1019E3000AE50A2453F582E43401F583E4F07A002E
:1019F3007904120FFB8A828B83A3A3A3E49370EE73
:101A030012180A050880C6900152F0740390015120
:101A1300F0F91213C67F0402038E74F712032E909B
:101A23000151E064047012900167E06401700A9050
:101A3300016DE07002A3E060087404900155F0802A
:101A430054900169E0FE90016BE0FF7A009001522F
:101A5300E0F912106E7A027904120FFBEA7001EBBF
:101A630060D78A828B83A3A3E4936F70E88A828B07
:101A730083A3A3A3E4936E70DC900169E0C0E090BC
:101A8300016BE02453F8A3E03401F988828983D001
:101A9300E0F012180A02109E74F812032EE9FE9069
:101AA300014B742AF0A37409F090014D742DF0A337
:101AB300741CF07401900101F074079001B8F07484
:101AC300209001B9F0EA9001BAF0EB9001BBF074F9
:101AD300079001B4F074209001B5F0EC9001B6F0DA
:101AE300ED9001B7F0E49001BCF09001BDF09001DE
:101AF300BEF09001BFF01205A0900102E0640170F6
:101B0300037402F0EEF91208F21207A49001B8E090
:101B130064FF6005E064FE70089001B9E064FF6053
:101B2300309001BAE064FF70089001BBE064FF608D
:101B3300209001B8E0906172F09001B9E090617378
:101B4300F09001BAE0906174F09001BBE090617590
:101B5300F0906172E064FF6008906173E064FF706D
:101B630004C2AF80FE906180E0D2E0F0020F4E74B9
:101B7300F312032E8A0C8B0D9001BCE07003021C40
:101B8300241209D3EAF508900171E024F3FE9001D1
:101B93007DE09001BFF090017EE0FF8E0A750B009F
:101BA300780A1204797C7F7D01AA0CAB0D121D25E6
:101BB30074021202EDE49001BCF0747E6F7059EE72
:101BC30060561209D3EAFF740D900171F0750A048F
:101BD300780A1204797CB47D017A757B01121D2584
:101BE30074021202ED780A1204797CB87D017A79C5
:101BF3007B01121D2574021202ED9001BFE09001DA
:101C03007DF0747F90017EF0EFFA7B001209DE799C
:101C1300007A717B011206DBAA087B001209DE80C1
:101C2300027E00EEF97F0602038EC082C08390011C
:101C330002E0640170037402F01207A4020B6279DC
:101C430000120A18E9601079011209E47900120AF6
:101C530018E96003120ABB79001209E453F4FDC2C8
:101C63009143FE0253F3FED28043FD01120AE97948
:101C7300007CEB7D257ADE7B25121A9BD291120B19
:101C8300679001BCE060F77AC07B01121B72E9FE2A
:101C930060EC9001C0E0706174096E70E19001C165
:101CA300E0F5349001C2E0F5357A008A08E50824AE
:101CB300C3F582E43401F583E0C0E074362AF8D03A
:101CC300E0F60AEAC3940640E27934120F21120EB9
:101CD300D8E960207534007535007A0074362AF827
:101CE30076000AEAC3940640F37934120F21120EE8
:101CF300D8E960FA7901120ACE9001C0E06401606C
:101D030003021C8174056E6003021C817AC07B018F
:101D1300120C227901120ACE021C81000075870180
:101D2300002274F712032E7409120322E0FEA3E0CB
:101D3300FFEAF8EBF980188C828D83E0888289832F
:101D4300F0A3A882A9838C828D83A3AC82AD838EFA
:101D5300088F0974FF25081E74FF3509FFE5087015
:101D630002E50970D27F0202038E74F812032E7407
:101D730008120322E0F8A3E0F98A828B838003EC44
:101D8300F0A3E8FEE9FF74FF2E1874FF3FF9EE702D
:091D930001EF70EB7F0102038EE9
:04000005000000F403
:00000001FF
