:020000040000FA
:030000000200E11A
:03003300020F7643
:03004B00020C8E16
:03006B0002101070
:100083000208F700000080FB1200F0B90003020031
:10009300DBE479127807B800028004F709D8FCE49E
:1000A30090F100780979048002F0A3D8FCD9FA9082
:1000B300F408AA82AB839000F3789279018015E467
:1000C30093A3AC82AD838A828B83F0A3AA82AB8392
:1000D3008C828D83D8E9D9E7121EFF12008675D072
:1000E300007581BF7510007511F102008B79012233
:1000F3004572723A202532642F25326400FFFFFFD8
:10010300FF0367CAD4FF00000084012702270227E8
:100113000227022F02009600003031323334353685
:1001230037383941424344454600286E756C6C208C
:10013300706F696E7465722900303132333435362D
:1001430037383961626364656600464C4F415453E6
:100153003F2077726F6E6720666F726D617474658E
:100163007220696E7374616C6C656421003F3F3F5C
:100173000010000000080000000A0000000000005A
:100183000012010002020000205104A4160900011C
:10019300020301090243000201008019090400005F
:1001A30001020201000524001001042402020524B7
:1001B30006000105240100010705820340004009F0
:1001C300040100020A000000070584024000010741
:1001D30005040240000104030904240354006500DC
:1001E300780061007300200049006E007300740002
:1001F300720075006D0065006E00740073001E03CD
:100203004300430032003500310031002000550027
:100213005300420020004300440043000803300021
:10022300300031009F010000C2010000E066701041
:1002330008A3E066700A08A3E066700408A3E066FA
:1002430022C3E7960809E7960809E7960809E7969F
:10025300A2D265D03322BB0102E722C082C08389C8
:10026300828A83BB0003E08002E493D083D082229E
:10027300BB000EC082C0838A838982F0D083D08280
:1002830022BB0101F722E4CFC0E0E4CEC0E0E4CD1D
:10029300C0E0E4CCC0E075F020C3E633F608E633F3
:1002A300F608E633F608E633F6181818EC33FCEDD7
:1002B30033FDEE33FEEF33FFC3EC9709ED9709EE01
:1002C3009709EF97191919400FFFEC97FC09ED9760
:1002D300FD09EE97FE191906D5F0BEECF709EDF707
:1002E30009EEF709EFF7191919D0E0FCD0E0FDD0BA
:1002F300E0FED0E0FF22E4C396F608E496F608E4B5
:1003030096F608E496F622E0F608A3E0F608A3E0E2
:10031300F608A3E0F622E6F008A3E6F008A3E6F069
:1003230008A3E6F022CAC0E0E6F0A308DAFAD0E0B8
:10033300FA22CAC0E0E0A3C582CCC582C583CDC57D
:1003430083F0A3C582CCC582C583CDC583DAE6D04D
:10035300E0CA22C3E498F8E499F91203978026C30C
:10036300E49AFAE49BFBE920E7E9120397E498F89F
:10037300E499F922C3E498F8E499F9120397E4980D
:10038300F8E499F9C3E49AFAE49BFB22EB20E7CF64
:10039300E920E7E0B90010BB0008E88AF084F8AA76
:1003A300F022E4FBC8FA22EB70227B10C833C8C9E1
:1003B30033C9335007C39AC3DBF280069A50012A2C
:1003C300DBEAC833F4C8C933F4C9FA2275F008E488
:1003D300C833C8C933C933C99AC99B5004C92AC988
:1003E3003BD5F0ECFBC833F4C8E4C9FA22600C082F
:1003F300C6C313C618C613C6D5E0F4227004226020
:100403000D18C6C333C608C633C6D5E0F418222573
:100413001010AF08F510400215118008F5104002C6
:100423001511D2AF22C0D0251010AF08F51050021D
:1004330005118008F51050020511D2AFD0D0222546
:1004430010F58210AF08F510400215118008F51061
:1004530040021511D2AF851183222510F582E435B0
:1004630011F58322E4732510C582C0E0E51134FF42
:10047300C583C0E0E510C3958224F9F8E4C5A885D7
:100483008311858210C5A8E8CEF0A3E520F0A378F8
:1004930008E608F0A3DEFAEFF0A3E58124FBF8E613
:1004A30008F0A3E608F0A30808E608F0A3E608F0BE
:1004B300A315811581D0E0FED0E0F815811581E800
:1004C300C0E0EEC0E022851183851082E0A3FEE048
:1004D300A3F5207808E0A3F608DFFAE0A3FFE0A382
:1004E300C0E0E0A3C0E0E0A3C0E0E0A3C0E0E4C557
:1004F300A8858210858311C5A8D083D08222C0D05D
:100503002510C582C0E0E51134FFC583C0E0E510C6
:10051300C3958224F310AF08858311858210800868
:10052300858311858210D2AFC8F0A3E9F0A3EAF066
:10053300A3EBF0A37908E709F0A3D8FAECF0A3ED55
:10054300F0A3EEF0A3EFF0A3D0E0F0A3D0E0F0A38C
:10055300D0E0F0A3E520F0A3E5F0F0A3228511831A
:10056300851082E0C0E0A3E0F9A3E0FAA3E0FBA3D7
:100573007808E0F608A3DFFAE0FCA3E0FDA3E0FEC1
:10058300A3E0FFA3E0C0E0A3E0C0E0A3E0F5D0A3B5
:10059300E0F520A3E0A3F5F0E4C5A88583118582E7
:1005A30010C5A8D082D083D0E0F8D0E032740380A5
:1005B3000474028000C0E0F404120442D0E0120389
:1005C30028227403800474028000CCC0E0EDC0E0F4
:1005D300E510C39CCCAD1150011D10AF068C108DDE
:1005E3001180068C108D11D2AF120335D0E0FDD0EF
:1005F300E0FC22D083D082C5F0E493A3C5F0C39579
:10060300F0F5F0E493A3C395F04005E5F004800111
:10061300E475F002A42582F582E5F03583F583E4E1
:1006230093A3C0E0E493C0E022D083D082CCC0E0A7
:10063300E493A360061206561470FAE493A36006CB
:100643001206751470FAD0E0FCE493A3C0E0E493BF
:10065300C0E022C0E0E493A3D39C5010E493A3C36F
:100663009C400AD0E0D0E0D0E0020649A3A3A3D087
:10067300E022C0E0E493A36C7009D0E0D0E0D0E0C6
:10068300020649A3A3D0E02253CBEFC2D843CB0445
:1006930075F00CEAA4F5CD74FC55CB4402F5CB43BD
:1006A300CB10A2D850FC53CBEFC2D82274F712045C
:1006B3006975084075090078081205B4120A4212D8
:1006C300042890DF36E054EF64816004C2AF80FEFB
:1006D30090DF37E0C394045004C2AF80FE53BEFBE7
:1006E300E5BEA2E650FA53C6BF43BE0474F1F5D586
:1006F30075D445743C90DF13F0741490DF14F074D8
:100703003D90DF02F0740590DF04F074FE90DF2E5D
:10071300F0740990DF25F0740A90DF07F0E490DFAE
:1007230008F0746590DF09F0740A90DF0AF074AA88
:1007330090DF0BF0741D90DF0CF0745590DF0DF01B
:10074300747390DF0EF0742390DF0FF0745590DF15
:1007530010F0E490DF11F0741D90DF15F0741C901D
:10076300DF16F074C790DF17F0E490DF18F074B26F
:1007730090DF19F074B690DF1AF0741090DF1BF05D
:10078300120AA7741190DF1FF0748890DF23F074AE
:100793003190DF24F0740290F100F07900120BF332
:1007A3007E007F0075E1027508E875090390DF3C60
:1007B300E05450701F7A407B00120B67E50824C099
:1007C300F508E50934FFF509C3E5089401E50912C5
:1007D30008EF50D97A10EEC333FEEF33FF90DF3AC0
:1007E300E0A2E0E492E04EFE1AEA70EA74804EF56D
:1007F300BCEFF5BC120B3290F14174141214B49097
:10080300F14374FA1214B4439A01D2AF02119D74E6
:10081300F7120469EAFEEBFF890975080090F100FD
:10082300E064017004C2AF80FE120B32EF90F14519
:10083300F0EE90F146F074DF90F147F074D990F147
:1008430048F07420120B04744190F14CF0E50970E8
:100853001143D60175E103E5E9A2E450FA53E9EF48
:100863008077740165096004C2AF80FE7509048056
:100873001B120B3243B404740F55BC04FE90F143B6
:10088300121146120B671EEE70F3150943D601755C
:10089300E10290DF3BE0640D70F87EE87F0390DFB8
:1008A3003CE0545070197A407B00120B67EE24C071
:1008B300FEEF34FFFFC3EE9401EF1208EF50DF7534
:1008C300E10390DF3BE0640D6008E5E9A2E450FA40
:1008D300808BE509709B750801120B3290F100E0E3
:1008E30064037003120AB9A90802119D9400A2D2ED
:1008F30065D03322C0E074F112050190F100E06489
:10090300036004C2AF80FEE5E9A2E4502BE5E9A24F
:10091300E6502553E9EF53E9BF539BFCE59B120BCC
:100923003275083E75090078081205B4120A42129E
:100933000428120AB9020A3D53E9EF539BFCE59BD5
:1009430075080275090078081205B490F101E004F6
:100953002401FCE434F1FD7A3F7BF112212474027B
:10096300120428E0FA90F140E0A2E74003020A2CC7
:100973008A0874012508F8E43400F9E8943FE994FF
:1009830000C365D0334003020A2CEAC39408500322
:10099300020A2C90F14DE0704490F13FE0F9120B04
:1009A300ACE9F090F140E0C2E7F090F1017C5A7DB0
:1009B300F3744012033590F364E0FA90F35AE0F8CD
:1009C30074F828F874FF3400F97402687001E97050
:1009D3004D747F6A7048740190F3A3804B7C007B55
:1009E300007A008A82A882E82402F582E434F1F5D1
:1009F30083E0FD121D76E06D70010CE82415F5828D
:100A0300E434F4F583E06D70010B0AEAC394044007
:100A1300D274046B608374046C700E02099C747E40
:100A23006A7006740190F3A2F075083E7808120507
:100A3300B4120A4212042843D6017F020205607CE5
:100A4300007D007A017BF11221C374022274F81233
:100A5300046990F100E064016018A2AFE492E0FE43
:100A6300C2AFE064037003120B327401F0EEA2E034
:100A730092AF7F010204C9C082C083E5C6A2E650DB
:100A830004C2AF80FE90F100E064017014120AA763
:100A9300740290F100F075E10490DF3BE0640170B3
:100AA300F8020B5974EA90DF1CF0740A90DF1DF012
:100AB300E490DF1EF02274F712046974DF90F145AD
:100AC300F074D990F146F074F190F147F07401900D
:100AD300F148F07480120B04741190F14CF075D648
:100AE3008175083E75090078081205B4120A42128E
:100AF300042843D601120B5E75E1024391100211E3
:100B03009D90F149F0744090F14AF0741390F14BC9
:100B1300F022C082C08390F100E064017004C2AF90
:100B230080FEE0640360067403F0120AB98027C0F4
:100B330082C0835391EF75E10490DF3BE064017061
:100B4300F875D68153D1FE120B5E800AC082C08332
:100B5300740490F33EF0D083D08222539BFCE59B38
:100B630053E9EF2274F71204698A088B0974047835
:100B7300081203F0AE08AF09EA7001EB6028A2AFD8
:100B8300E492E0F508C2AF7A107B0012068BE50809
:100B9300A2E092AFEEF8EFF974FF281E74FF39FF5D
:100BA300E87001E970D802119DC008C009E9C39437
:100BB30080E94019F879FF7A027B0012038F8808D5
:100BC300890974B92508F874FF3509800BC313F834
:100BD30074B928F874FF3400F9C3E89480E994FFEA
:100BE300A2D265D03350027880E8F9D009D0082228
:100BF30074F71204698908E9C394044004C2AF80FE
:100C0300FE120B32E5082419F582E434F4F583E08F
:100C130090DF06F090F100E064037003120AB9025A
:100C2300119DA2AFE492E0FA7B00C2AF22EAA2E0F8
:100C330092AF22EBC313FBEA13FAC3EA9402EB94D9
:100C430000401400000000000000000000EA24FF40
:100C5300FAEB34FFFB80E32274F8120469EAFEEB3B
:100C6300FFEEF8EFF974FF28FE74FF39FF74006894
:100C7300700374006960097AE87B03120C3680E123
:100C83007F010204C9D2B943E40222C0E074F21224
:100C9300050190F14EE07002A3E0600990F14E125D
:100CA30010CC1204677F0102056074F51204698A8F
:100CB300828B838C088D097E007F008008EE250AD5
:100CC300FEEF3400FFC3EE9508EF95095011120CA7
:100CD300E970EA7A057B00120C5B120CE970DEEE18
:100CE300FAEFFB0218D5EEFAE508C39AF9E5822E6E
:100CF300FCE5833FFD7A137BF2121BCDE9F50A2253
:100D0300C082C08390F351E06422702890F33EE0E8
:100D1300704190F35212114C90F2DDE8F0A3E9F028
:100D230090F2DDE07002A3E06004D2918002C291F0
:100D33007402801BE06420701490F33EE070149002
:100D4300F34B74D6F0A374F21214B480E3740490DA
:100D5300F33EF0020B59C082C08390F351E064214B
:100D6300701990F33EE0701990F34B74D6F0A374AE
:100D7300F21214B974071214AE8002740490F33E95
:100D8300F0020B59020B4F020B4F74F51204698AE0
:100D9300088B098C0A8D0B90F2D67808120319E49C
:100DA30090F2DAF090F2DBF0740890F2DCF090F25B
:100DB300DDE4F0A3F0740190F2DFF07A00F9121190
:100DC3006D8A828B83A3A3A3A3A3A3A3E493A2E625
:100DD300500474018001E490F34AF0E490F349F085
:100DE30043BE80D2BDF512F513F5147515FF7516C4
:100DF300FF74FF90DE0BF090DE07F0743E90DE0987
:100E0300F0438C10758900C2C5758B00C2E8439A04
:100E13000253F4FED29043FE01D2AF0218D574F60A
:100E2300120469A812E854046020781274FB56F681
:100E3300740290F337F0E490F338F090F33EF079D6
:100E4300031214CE751700751800A812E854106029
:100E530009781274EF56F61211A2A812E8A2E05014
:100E63000F781274FE56F6121030781274FD56F68F
:100E730090F2DFE07003020F6590F2DDE07002A3F1
:100E8300E07003020F65C2AF90DE0E120F6A90DEB0
:100E930014E0A2E0506890DE16E0FF90DE17E090C9
:100EA300F210E0F874C0C398F8E49400F98F08C313
:100EB300E89508E91208EF5008E0FA74C0C39A8075
:100EC30001EFFEEE60387508E07509F2750A0078E7
:100ED300081205B0EEF97A287BDE121506740312A8
:100EE3000428EEF97CE07DF27A507BF1121BCDEE03
:100EF3006F700B740490DE0EF0E490DE14F090F348
:100F030020E090DE0EF0D2AFC2AF120F6A90DE1176
:100F1300E0A2E0404390F2D3E0FE603CC394414042
:100F2300027E40EEF97CE07DF27A137BF2121C42E2
:100F33007508E07509F2750A0078081205B0EEF934
:100F43007A287BDE12152B7403120428740490DEB6
:100F53000EF0740190DE11F090F320E090DE0EF0BD
:100F6300D2AF7F030204C9E090F320F0740490DE53
:100F73000EF022C0E074F1120501E5BEA2E650FABC
:100F830090DE06E0FAA2E25035A815E890DE0BF0F9
:100F9300F508851609740478081203F0E50890DE55
:100FA30007F0851508851609740978081203F0E51A
:100FB30008543E90DE09F090DE01E0D2E0F07812B2
:100FC300EA46F690DE02E0F5087509007404780835
:100FD3001203FF7812E50846F608E50946F690DEA7
:100FE30004E0F508750900740978081203FF781204
:100FF30008E50946F6EAA2E0500375140174065A9F
:101003006003751400758B00C2E8020A3DC0E074EA
:10101300F2120501E5BEA2E650FAE589A2E7500502
:10102300C2BD1210D9758900C2C5020CA8C082C006
:1010330083C29190F331E07002A3E0600990F33131
:101043001210CC120467745390F321F074BE90F322
:1010530022F074FC90F323F0744390F324F074BEF5
:1010630090F325F0740190F326F0747590F327F054
:10107300748790F328F0740190F329F074E590F3EA
:101083002AF0741490F32BF0747090F32CF074F333
:1010930090F32DF0742290F32EF0758900C2C5D21F
:1010A300BD90F32F7421F0A374F3F0758221F583BF
:1010B30012046790F333E07002A3E0600990F33306
:1010C3001210CC120467020B591210D022E0F8A3BD
:1010D300E0F583888222C082C083E490F326F090F7
:1010E300F327F090F328F090F329020B58C082C045
:1010F30083E9FCEAFD7A007B00800790F336E01277
:10110300115290F33512114C90F423E0687003A34D
:10111300E069601A1211346C700B90F335121146AA
:1011230012115280091211346D70D0ED60CD020B93
:101133005990F336E0F5838882A3E4932290F34B2E
:10114300E0F9A3E0FAA3E0FB22E0F8A3E0F922F53B
:10115300838882E493F890F335E028F8A3E0340021
:10116300F990F335E8F0A3E9F02274F7120469E982
:10117300FEEAFF121906800E8A828B83A3A3A3A320
:10118300A3E4936E60147A0079021210F0EA7001FE
:10119300EB6007EE70E2EF1F70EC7F020204C9748C
:1011A300F512046990DE0EE0FEE4F090DE11E0FF3C
:1011B300A2E4501F7480F0740790F33EF0E51770BB
:1011C30002E5186009851782851883120467E49085
:1011D300F33EF0EFA2E2500CE490DE11F090F33E08
:1011E300F002126C90F33EE06402706690DE16E04B
:1011F300F50A90F34B1205C5A90A7A207BDE121576
:10120300067403120428850A081214C0121140E957
:10121300250A12149D90F34EE07002A3E060047A55
:101223004080027A48EA90DE11F090F34EE07002BB
:10123300A3E07016E5177002E5186009851782852B
:101243001883120467E490F33EF0EE90DE0EF00292
:1012530018D5E06406700985178285188312046720
:1012630090F33EE060030213A7EFA2E050DC7508A1
:10127300507509F3750A0078081205B079087A20C9
:101283007BDE121506740312042875170075180007
:1012930090F350E054E012062C000600B212202D09
:1012A30014401B14804813A03814C0241426139030
:1012B300F351E012062C0005012F13031B1305CC79
:1012C30012093C130B4213261390F354E07002A34C
:1012D300E0705090F356E07002A3E0704690F35232
:1012E300E05480F8A3E0F9E87001E9703690F35216
:1012F300E090DE00F090F352E090F337600EE0648C
:101303000260030214417403F0021441E0640360B9
:1013130003021441740280F07901121653E9600349
:10132300021441740490F33EF002144C7900121637
:1013330053E9600302144180EA121A77021441123E
:101343001B2102144190F351E012062C0004005FAC
:1013530013066513086B130ACF13261312156B02BA
:10136300144112170802144190F352E07002A3E0F3
:1013730070B190F354E07002A3E070A790F356E0CD
:1013830064017002A3E0709B90F34B7438F0A37474
:10139300F31214B974011214AE90F33EF07A40EADA
:1013A30090DE11F090F33EE0640160030214897F44
:1013B3000290F34EC3E09420A3E094004003021490
:1013C3005190F34EE0F50A7F0A02145490F337E08C
:1013D3006404600302132690F350E0648160030207
:1013E300132690F352E07002A3E0600302132690E9
:1013F300F356E064017002A3E0600302132690F346
:1014030054E02439F508A3E034F3F50990F34BE5F0
:1014130008F0A3E50902139475178775180D0213D5
:101423002675178A75180D02132675170375180D7F
:10143300120D03800975175975180D120D5990F384
:101443003EE0640460030213A07A600213A2750AEB
:101453002090F34B1205C5A90A7A207BDE12152BC7
:101463007403120428850A08121140E9250812148E
:101473009D1214C0EF90DE11F0E50AC394204003DF
:1014830002124D021237E06405600302124D851704
:101493008285188312046702124DF9EA3400FA9028
:1014A300F34BE9F0A3EAF0A3EBF0221214B47401B6
:1014B30022F0A3E4F0221214B490F34E2290F34EE0
:1014C300C3E09508F0A3E09400F02274F7120469D6
:1014D3007A008A08E508243FF582E434F3F583E9CA
:1014E300F00AEAC3940540EA7A008A08E50824442E
:1014F300F582E434F3F583E9F00AEAC3940540EA9C
:1015030002119D74F6120469EAFCEBFDE9FE740A0C
:1015130012045D12155B600D8C828D83E0120273E1
:1015230012155070F3020F6574F6120469EAFCEBAE
:10153300FDE9FE740A12045D12155B600D12025977
:101543008C828D83F012155070F3020F65E924012C
:1015530009EA3400FA1EEE22E0F508A3E0F509A338
:10156300E0A908AA09FBEE2274F712046990F3526A
:10157300E07002A3E0701790F355E0F9E47001E91D
:10158300700C90F356E064027002A3E060057404EB
:1015930002163890F350E01205F680029115A71554
:1015A300CE15DE1590F354E070E490F34AE0600446
:1015B30078018002780090F358E81214B490F3494C
:1015C300E0605990F358E04402804D90F337E064B3
:1015D3000470BB90F358E4F0A3804090F354E054BC
:1015E3007FF50890F337E0640470A3E508C394061D
:1015F300509C90F354E05480600E121649F583E03A
:101603006403700E7801800C12163FF583E06403C7
:1016130060F2780090F358E8F0A3E4F090F33EE032
:101623006404601590F34B7458F0A374F31214B967
:1016330074021214AE90F33EF002119DE5082443A8
:10164300F582E434F322E508243EF582E434F32200
:1016530074F712046990F356E07002A3E0701290DD
:10166300F337E06404601290F354E07002A3E06087
:1016730008740490F33E02170290F350E0541F12D3
:1016830005F6000274168F169716A11690F352E012
:10169300640160047900806AE990F349806190F302
:1016A30054E0547FF50890F352E070E8E508C394E2
:1016B3000650BEE50890DE0EF090F354E0548060CF
:1016C3001CE960047A1080027A40EA90DE11F0E9A6
:1016D30060047A0380027A00121649801AE96004D2
:1016E3007A2080027A80EA90DE14F0E960047A03BB
:1016F30080027A0012163FF583EAF0E490DE0EF0E2
:10170300790102119D74F512046990F353E01205F7
:10171300F6010282171E1738176D171219067A0081
:1017230079011210F01218DA12025990F34EF0A355
:10173300E4F002189190F352E0FA790012116D125D
:1017430018DAE924020909EA3400FA120259FC19E9
:1017530019E0FAE92403090909EA3400FA120259E3
:10176300F9EC90F34EF0A3E980C790F352E0FE1238
:1017730019067A0079031210F0EE1E70F580A69018
:10178300F34BE4F0A3F0A3F0FA02186575090074B3
:101793000378081203FF90F425E02508FBA3E03546
:1017A300098B82F583E493C0E090F353E0F8D0E033
:1017B3006860030218648A087509007403780812C4
:1017C30003FF1218F6E493C0E090F352E0F8D0E080
:1017D3006860030218648A087509007403780812A4
:1017E30003FF1218F1E493C0E090F355E0F8D0E062
:1017F30068706E8A08750900740378081203FF1273
:1018030018F1A3E493C0E090F354E0F8D0E06870DB
:10181300508A08750900740378081203FF90F425B1
:10182300E02508F8A3E03509F988828983A3A3A3F7
:10183300A3E493F508740193F50990F34BE508F0DD
:10184300A3E509F0A37480F088828983A3A3A3A3EB
:10185300A3A3E493F8740193F990F34EE8F0A3E99A
:10186300F00A8A0890F42512114C7583F4758227C7
:10187300E0C398F50AA3E099F50B7403780A120301
:10188300F0C3E508950AE4950B500302178F90F314
:101893004BE0FCA3E0FDA3E0FEEC4D4E70047404AA
:1018A300802C90F33EE06404602890F34E12114CB8
:1018B3007583F3758256C3E098A3E099500E90F3B5
:1018C3005612114C90F34EE8F0A3E9F0740190F333
:1018D3003EF07F040204C990F34BEAF0A3EBF0A3BC
:1018E3007480F090F34BE0F9A3E0FA7B80221218A6
:1018F300F6A32290F425E02508A3E035098B82F5B1
:1019030083A32290F421E0F8A3E002116374F1129F
:10191300046974FE120412851082851183EAF0A310
:10192300EBF0121A67602B90F429E0FEA3E0800726
:10193300EE2404FEEF3400FF8E828F83E493F87469
:101943000193F9851082851183E0687003A3E06930
:1019530070DE7508008049749090DE14F0741012E4
:101963001A587003750940750A01750B00E50C7868
:101973000A1203FF8E828F83A3A3A393550A6006E3
:10198300E509D2E0F509E50990DE15F0EA90DE13EA
:10199300F0E50C121641F583E4F090DE0EF0050835
:1019A300121A67FAE508C39A4003021A4E7A0079BD
:1019B300051210F08A0A8B0BAC0AAD0BEC7001ED2B
:1019C30060DCEC2402F50EED3400F50F850E82F594
:1019D30083E493540FF50C90DE0EF07509008C82AE
:1019E3008D83A3A3A3A3E4932407F50AA3E4933469
:1019F30000F50B7403780A1203F0AA0A850E828598
:101A03000F8393A2E7400302195A744890DE11F042
:101A13007408121A587003750940750A01750B0092
:101A2300E50C780A1203FF8E828F83A3A393550AD2
:101A33006006E509D2E0F509E50990DE12F0EA90C7
:101A4300DE10F0E50C12164B0219997402120428E9
:101A53007F080204C9F08C828D83A3A3A3E493546B
:101A6300036401228510828511831210D0A3A3A3DE
:101A7300A3E4932274F512046990F337E0640260DF
:101A83001F90F354E07002A3E0701590F356E070DA
:101A930002A3E0700B90F353E0F9E47001E96008EE
:101AA300740490F33EF0807390F352E0605F7A0029
:101AB300F912116D8A088B09AE08AF09EE7001EFB8
:101AC30060DE740490F337F090F352E090F338F053
:101AD3007508008E828F83A3A3A3A3E493FAE5087A
:101AE300C39A503785080AE50A2439F582E434F3AA
:101AF300F583E4F07A0079041210F08A828B83A3D1
:101B0300A3A3E49370EE121910050880C690F3386E
:101B1300F0740390F337F0F91214CE0218D574F76A
:101B230012046990F337E06404701290F350E06498
:101B330001700A90F356E07002A3E0600874049009
:101B4300F33EF0805490F352E0FE90F354E0FF7ABA
:101B53000090F338E0F912116D7A0279041210F053
:101B6300EA7001EB60D78A828B83A3A3E4936F703F
:101B7300E88A828B83A3A3A3E4936E70DC90F35271
:101B8300E0C0E090F354E02439F8A3E034F3F9889B
:101B9300828983D0E0F012191002119D74F71204A8
:101BA30069EAFEEBFF120C25EE24C0121BC3EE24E0
:101BB300C1121BC3EE24C2121BC3120C3002119DAF
:101BC300F582EF3400F583E4F02274F3120469EA3A
:101BD300FEEBFF8C088D09890C120C25121CA0F852
:101BE300850C0AE50A28F8E43400F9E894C0E9947E
:101BF30000C365D033750D005037802724C2F8EF3A
:101C03003400F9850D0AE508250AF582E509340053
:101C1300F583E0C0E0121CB8D0E0121CAC7002E403
:101C2300F0050DE50DC3950CEE40D1121CA1250D59
:101C3300F0120C30A90D8002EEF97F060204C9747C
:101C4300F3120469EAFEEBFF8C088D09890B120C71
:101C530025750A008028EE24C1F8EF3400F9121C20
:101C6300B8E0C0E0850A0CE508250CF582E50934E7
:101C730000F583D0E0121CAC7002E4F0050AE50A1B
:101C8300C3950B500A121CA0FCE50AC39C40C71263
:101C93001CA0C3950AF0120C30A90A809DEE24C043
:101CA300F582EF3400F583E022F088828983E00433
:101CB300F0E064C02288828983E0FCEE2CF582EF99
:101CC3003400F5832274F8120469E9FE90F3317449
:101CD30050F0A3740AF090F33374F8F0A3741EF079
:101CE300740790F39EF0742090F39FF0EA90F3A0B2
:101CF300F0EB90F3A1F0740790F39AF0742090F353
:101D03009BF0EC90F39CF0ED90F39DF0E490F3A244
:101D1300F090F3A3F090F3A4F090F3A5F01206AFC4
:101D2300120A7AEEF9120BF3120B1590F39EE0648C
:101D3300FF6025E090DF05F07A008A82A882E8241C
:101D43009EF582E434F3F583E0C0E0121D76D0E023
:101D5300F00AEAC3940440E290F41DE064FF7004C7
:101D6300C2AF80FE740190F14DF0740790DF03F071
:101D7300020A75E8241DF582E434F4F5832274F332
:101D83001204698A0C8B0D90F3A2E07003021E25E6
:101D9300120C25EAF50890F35AE024F6FE90F3635B
:101DA300E090F3A5F090F364E0FF8E0A750B0078E2
:101DB3000A1205B47C657DF3AA0CAB0D121EF21258
:101DC3000428E490F3A2F0747E6F704DEE604A1223
:101DD3000C25EAFF740A90F35AF0750A04780A1284
:101DE30005B4121EEA120428780A1205B47C9E7DFB
:101DF300F37A5F7BF3121EF212042890F3A5E090AE
:101E0300F363F0747F90F364F0EFFA7B00120C300D
:101E130079007A5A7BF3120812AA087B00120C305D
:101E230080027E00021C3B74F31204698A0C8B0D42
:101E330089088C09120C25EAFF740A250890F35AC5
:101E4300F0750A04750B00780A1205B4121EEA1223
:101E53000428780A1205B47C9E7DF37A5F7BF31223
:101E63001EF212042890F3A4E090F363F0747E90C2
:101E7300F364F085080A780A1205B4AC0CAD0D7A48
:101E8300657BF3121EF2120428EFFA7B00120C306A
:101E93007F00801A7E0143B404E5BC75F04EA4F8BC
:101EA300A9F0742028FA744E39FB120C360FEFC3D5
:101EB3009509503079017A5A7BF3120812E9FE70C2
:101EC300EC75081480097A017B00120C5B150890ED
:101ED300F3A3E07004E50870EDE060B8E4F090F37C
:101EE300A4E004F0021C3B7C9A7DF37A5B7BF31243
:101EF30020DC740222120A7A120B1522E490F407F2
:101F0300F0748055C6FA53BEFB53C6BFE5C6A2E6BE
:101F130040FA8AC6E5C66A70FB43BE0453F4FDC2A9
:101F23009143FE027A507BF1121B9F7A137BF212CC
:101F33001B9F90F42D780812030AAA08AB09AC0A78
:101F4300AD0B120D8D43E40CE5E475DB6675DA60C9
:101F530053E4EFC2B9A2AFE492E0F8C2AF90F14EFE
:101F630074D0F0A37420F0E8A2E092AFD291740190
:101F730090F406F090F40474DEF0A37425F090F46A
:101F83000274EBF0A37425F079007CEBFD7ADEFBA1
:101F9300121CC890F400E4F0A3F090F3FEF0A3F059
:101FA300120C88801AEAFEEEF97CA67DF37A507B48
:101FB300F1121C42EEFC7D007AA67BF3120CAD12EB
:101FC3000E2190F406E06402701090F210E0FA60C3
:101FD300EEC3942D40CF7E2C80CD12201990F3A216
:101FE300E060DC1220847AD27BF3121D81E9FA606F
:101FF300178A82FC7D007AD27BF3120CAD8A08E546
:102003008265087001EB600690F400122091740160
:1020130090F2DFF080A974F812046990F210E0FEE8
:10202300C3942C500990F407E06053EE60501220E3
:1020330084EEC3942C5004EEFF80027F2CEFF97CD6
:10204300A67DF37A507BF1121C42639002E5907CEB
:1020530005EFF97AA67BF3121E2AE9600690F3FED8
:10206300122091740190F2DFF053E4FDC2B975E2DE
:102073000043E402D2B9120C88E490F407F0020A98
:1020830075E490F2DFF07AE87B03120C3622E02449
:1020930001F0A3E03400F012209E22C082C08374BA
:1020A300EF12041290F4001205C990F3FE1205C951
:1020B3007C087DF4740412045DAA82AB8312221A95
:1020C30074041204287411120428020B59C082C02C
:1020D30083740190F407020B5874F71204697409AE
:1020E30012045DE0FEA3E0FFEAF8EBF980188C82AE
:1020F3008D83E088828983F0A3A882A9838C828D53
:1021030083A3AC82AD838E088F0974FF25081E74E8
:10211300FF3509FFE5087002E50970D27F0202046A
:10212300C974F7120469740912045DE0F8A3E0F9B5
:10213300EAFEEBFF8A088B09C3EA9CEB9D405EEC49
:1021430028F582ED39F583C3E5829508E583950982
:10215300404BEA28FAEB39FBAC82AD831221B27013
:1021630002E5096041EC24FF1CED34FFFDEA24FF86
:102173001AEB34FFFB8C828D83E08A828B83F080A1
:10218300DB8C828D83E08A828B83F08C828D83A3A8
:10219300AC82AD838A828B83A3AA82AB831221B2E2
:1021A3007002E50970DBEEFAEFFB7F020204C988D7
:1021B30008890974FF25081874FF3509F9E5082211
:1021C30074F8120469740812045DE0F8A3E0F98A54
:1021D300828B838003ECF0A3E8FEE9FF74FF2E18E3
:1021E30074FF3FF9EE7001EF70EB7F010204C9C089
:1021F30082C0838A828B83122287E9F08A828B834F
:10220300E02401F8A3E03400F98A828B83E8F0A389
:10221300E9F0D083D0822274F712046974FC1204AB
:1022230012740212045DEAF0A3EBF0ECFAEDFB7416
:102233000D12045DA882A983851082851183E8F0BD
:10224300A3E9F08510828511838582088583097847
:10225300081205B4740412045D8582088583097825
:10226300081205B47CF27D21122290740412042812
:10227300740212045D122287E4F074041204287FAE
:10228300020204C9E0F8A3E0F58388822274F11204
:10229300046974B2120412851082851183122B9A79
:1022A300741012045DECF0A3EDF0740B12045DE402
:1022B300F0A38022745D12045D122AD07404120408
:1022C3005DE0F9741012045D122AF9120467740BAD
:1022D30012045D122BAEF0122BD212045DEAF074DD
:1022E300256A6015E070CD740B12045D122AD07458
:1022F3004E1204287F080204C9122B066425700FAE
:10230300122BB7745D12045D122AD0792580B47440
:102313000F12045DE4F0740E12045DE4F07408120D
:10232300045DE4F0740712045DE4F0741C12045DB0
:10233300A882A983740212045D122BCC741A1204AE
:102343005D7431F0A374F48019740712045DE070B6
:1023530007740712045DEAF0851082851183E8F0A3
:10236300A3E9F0122B54FA12062C0005204C232368
:1023730089232B54232D8023308D2391237408121A
:10238300045DE00480D1740E80F5740F80F1851034
:1023930082851183122B20E0642A7053745F120428
:1023A3005D122B20122AD08A828B83122ACA7409C7
:1023B30012045DECF0A3EDF0122AB112045D122BAE
:1023C30097740912045D122B43501F740912045DA4
:1023D300122AD0C3E49AFAE49BFB740912045D1237
:1023E3002B9A740812045DE004F0122BC680267445
:1023F3000912045DE4F0A38010740912045D122B2A
:1024030072740912045D122C10122BFF4007E508A9
:10241300C3943A40E4740812045DE06007740F1239
:10242300045DE4F0122B06642E705C122BB7122BA2
:1024330006642A702C745F12045D122B19F98882CA
:102443008983122AD0740512045D122B9AE82402A0
:102453000808E9122AAB12045D122B20122C1080FB
:102463002F740512045DE4F0A3122BFF4023E5084B
:10247300C3943A501C740512045D122B7274051236
:10248300045D122C1080E2740512045D74FFF0A346
:10249300F07C00122B5412062C00034CA92468AACA
:1024A300246CA924AD240C122BC6122BD212045D6A
:1024B300EAF012062C0165672C290D004929452CE9
:1024C30029472C2958412663302564CF2669CF2616
:1024D3006EE7246F162670412673642575412678AE
:1024E30035265529745F12045D122B3E602E740B42
:1024F30012045D122ACA3395E0FE8A828B83122A64
:10250300F9ECF0A3EDF0A3EEF0A3F0745F12045D19
:10251300122B4912045D122B2D0222D9740B1204C3
:102523005D122AE78A828B83122B2D80DD745F1262
:10253300045D122B19F5838882E0C0E0741C120439
:102543005DD0E0F0745F12045D122B4912045D123A
:102553002B20122BCC741D12045DAA82AB8302299B
:1025630065745F12045D122B358A828B83122AE70E
:10257300122AB112045D122B97740212045D122BFE
:10258300CCE87001E9700C740212045D7442F0A38C
:1025930074F4F0740512045D122B43500C7405128D
:1025A300045D7410F0A37427F07E007F008008EEB2
:1025B30024010EEF3400FF740212045D122AE7882F
:1025C300828983A3AA82AB83740212045D122B9ABD
:1025D30088828983E06014740512045D122AE7C3BC
:1025E300EE98EF99A2D265D03340C4740212045D11
:1025F300E024FFFAA3E034FFFBC3E49EF8E49FF971
:10260300EA28F8EB39F9740212045DE8F0A3E9F063
:10261300022965740E12045DE06017740512045DEF
:10262300E07002A3E0700B740512045D7401F0A363
:10263300E4F0741A12045D7451F0A374F4F0745F3F
:1026430012045D122B35740412045DE0647070355E
:102653008A828B83122AED12045D122BF1122AA9AE
:1026630012045D122B20122BCC90F48978081203EC
:102673000A741612045D7808120319740712045DB4
:10268300E4F0022752EC8A828B83601478081203E9
:102693000A741212045D7808120319EA24048009EB
:1026A300122AED12045D122BF1122AA912045D12F3
:1026B3002B20122BE912045DE0646F700590F48DFA
:1026C30080AAE0647570A290F49180A0745F1204F4
:1026D3005D122B3E8A828B83600A780812030AEA12
:1026E30024048011E0F508A3E0F5093395E0F50A29
:1026F300F50BEA2402122AA912045D122B20122BD5
:10270300CC741212045D780812031990F495780CB6
:1027130012030A780C790812024450217407120438
:102723005D742DF0741212045D780812030A7808A0
:102733001202F9741212045D780812031990F491CD
:10274300780812030A741612045D780812031974C8
:102753004D12045DA882A983740212045D122BCC6E
:10276300744D12045DAA82AB83741212045DC0829D
:10277300C08390F495780812030AD083D082780836
:1027830012022F6009740D12045D74018006740D2A
:1027930012045DE4F0740512045DE07002A3E070BE
:1027A3000B740D12045DE0700302288D7402120491
:1027B3005D122AE012045D122BCC741212045D78B0
:1027C3000C12030A741612045D780812030A780CBB
:1027D3007908120289741A12045DE02508FCA3E04B
:1027E30035098C82F583E0C0E0740212045D122A7D
:1027F300F9D0E0F0741212045D780C12030A741617
:1028030012045D780812030A780C7908120289749D
:102813001212045D780C120319741212045DC08243
:10282300C08390F495780812030AD083D082780885
:1028330012022F60030227AF740512045D122B43AB
:102843005048740F12045DE06040740712045DE0A9
:102853006004D2F08002C2F0740912045DA2F0E4B5
:1028630092E0F8E0C398F8A3E09400F97405120429
:102873005DE8F0A3E98012740212045D122BCC749C
:102883000212045D122AF97430F0740212045D120C
:102893002AE012045D122ACA8B838A82E582C39CD2
:1028A300FEE5839DFF740512045D122ACAC3EE9CE4
:1028B300EF9DA2D265D03340BE740E12045DE0706A
:1028C30003022965740D12045DE070030229657427
:1028D3000412045DE064786005E0645870377402A4
:1028E30012045D122BE912045DE0C0E074021204CD
:1028F3005D122AF9D0E0F0740212045D122ABDF9C8
:10290300740212045D122BCC740212045D122AF9B4
:102913007430022612E0646F7048740212045D1270
:102923002BA0E06430603B80D7740212045D7462B4
:10293300F0A374F4F07A62FB8A828B83E06023A3B2
:10294300AA82AB8380F2851082851183122ABD127D
:102953002BC5740212045D7485F0A374F4F07A88B5
:102963007BF4740212045D122AE7EAC398F8EB9928
:10297300F9740512045D122BCC740912045DC08234
:10298300C083740512045DE0F8D083D082C3E0985D
:10299300A3E099A2D265D03350067E007F00802940
:1029A300740712045DE06004D2F08002C2F074097F
:1029B30012045DE0C398F8A3E099F9A2F0E492E071
:1029C300FAE8C39AFEE99400FF740812045DE0700C
:1029D300208019745D12045D122AD612045D122A36
:1029E300F9120467740B12045D122BA9122A985072
:1029F300E2740712045DE06056745D12045D122AEE
:102A0300D0740712045DE0F9741012045D122AF900
:102A13001204678032745D12045D122AD0740212AC
:102A2300045D122B0CF9741012045D122AF91204BE
:102A330067740212045DE02401F8A3E03400F97422
:102A43000212045D122BCC740B12045D122BA974B9
:102A53000512045DE024FFF0A3E034FFF0740512D7
:102A6300045D122B4350AE740812045DE070030240
:102A730022DA122A9850030222DA745D12045D12DC
:102A83002AD612045D122AF9120467740B12045D2C
:102A9300122BA980DDEE24FF1EEF34FFFFC3940049
:102AA300A2D265D03322F8EB3400F9745F22EA2412
:102AB300020A0AEB3400FB745F22122AC122E024CB
:102AC300FFF8A3E034FF22E0FCA3E0FD22E0FAA339
:102AD300E0FB22E0FAA3E0FB7920741022122AC162
:102AE300F9740222E0F8A3E0F922E0F8A3E0F9E8A0
:102AF300FCE9FD741222122AFD22E0F8A3E0F5831B
:102B0300888222851082851183122B1022122B14A6
:102B130022122AFDE022122B10F8A3E022122B240A
:102B230022E0FAA3E0F5838A8222122B24E8F0A3A1
:102B3300E922122B3922122B148093122B39EC2207
:102B4300C3A3E0022AA1122B102402F8A3E0022A55
:102B5300AB851082851183E0122B63122B24E022B4
:102B63002401F8A3E03400F985108285118322E063
:102B7300F8A3E0F9E875F00AA4F8AAF075F00AE9F9
:102B8300A42AF9E82508F8E93400F974D028F87480
:102B9300FF39F922122BA0EAF0A3EBF022E0FCA309
:102BA300E0F5838C8222122BAEF022E02401F0A305
:102BB300E0340022851082851183E0240108A3E01C
:102BC3003400F9851082851183E8F0A3E9F02285AA
:102BD3001082851183122B10FA851082851183E0F0
:102BE300240108122B66E8F0A3E9F0740422ECF048
:102BF300A3EDF0A3E4F0A3F0EA240222122C1DF8C3
:102C0300A3E0F5838882E0F508C3943022E8F0A3BB
:102C1300E9122C1D122B63022B30F08510828511D3
:032C230083E02229
:04000005000000E116
:00000001FF
