:020000040000FA
:030000000200F407
:03003300020ED8E2
:03004B00020B990C
:03006B00020F720F
:1000830002085A00000080FB120103B900030200BA
:10009300EEE47934780BB800028004F709D8FCE465
:1000A30090F10078DC79018002F0A3D8FCD9FA78CA
:1000B300219001067A13BA00028007E493A3F6089D
:1000C300DAF990F1DBAA82AB8390011978197901EF
:1000D3008015E493A3AC82AD838A828B83F0A3AAB9
:1000E30082AB838C828D83D8E9D9E7121C6B120013
:1000F3008675D0007581BF7510007511F102008BF4
:100103007901220000000000000000000000000050
:100113000101FF00FF00FFFFFFFF0367CAD4FF00D9
:1001230000003101C40137025702570200001201D7
:100133000002000000205104A51600010102000185
:1001430009023B00020100801909040000010301B8
:100153000100092111010001223F00070581030865
:10016300000A090401000103010200092110010032
:10017300012234000705820308000A04030904244A
:100183000354006500780061007300200049006E8D
:100193000073007400720075006D0065006E0074DA
:1001A3000073001E03550053004200200043004328
:1001B300003200350031003100200048004900447E
:1001C3000005010906A10195087501050719E02934
:1001D300E7150025018102950175088101950575D3
:1001E30001050819012905910295017503910195EE
:1001F300067508050719002965150025658100C0E6
:1002030005010902A1010901A1009505750105096F
:100213001901290515002501810295017503810145
:100223009503750805010930093109381581257FC2
:100233008106C0C022000000C4013F00220000016B
:1002430003023400210000005501090021000001D0
:100253006E0109004C01000065010000BB0102E7CB
:1002630022C082C08389828A83BB0003E08002E4C8
:1002730093D083D08222BB000EC082C0838A83893D
:1002830082F0D083D08222BB0101F722CAC0E0E60C
:10029300F0A308DAFAD0E0FA22CAC0E0E0A3C582EC
:1002A300CCC582C583CDC583F0A3C582CCC582C529
:1002B30083CDC583DAE6D0E0CA22C3E498F8E49993
:1002C300F91202FE8026C3E49AFAE49BFBE920E7D5
:1002D300E91202FEE498F8E499F922C3E498F8E4F9
:1002E30099F91202FEE498F8E499F9C3E49AFAE45E
:1002F3009BFB22EB20E7CFE920E7E0B90010BB002E
:1003030008E88AF084F8AAF022E4FBC8FA22EB702A
:10031300227B10C833C8C933C9335007C39AC3DB20
:10032300F280069A50012ADBEAC833F4C8C933F4D1
:10033300C9FA2275F008E4C833C8C933C933C99A66
:10034300C99B5004C92AC93BD5F0ECFBC833F4C898
:10035300E4C9FA22600C08C6C313C618C613C6D56F
:10036300E0F422700422600D18C6C333C608C633F6
:10037300C6D5E0F41822251010AF08F51040021579
:10038300118008F51040021511D2AF22C0D02510FC
:1003930010AF08F510500205118008F51050020542
:1003A30011D2AFD0D0222510F58210AF08F510403E
:1003B3000215118008F51040021511D2AF85118383
:1003C300222510F582E43511F58322E4732510C547
:1003D30082C0E0E51134FFC583C0E0E510C3958218
:1003E30024F9F8E4C5A8858311858210C5A8E8CE51
:1003F300F0A3E520F0A37808E608F0A3DEFAEFF017
:10040300A3E58124FBF8E608F0A3E608F0A30808B7
:10041300E608F0A3E608F0A315811581D0E0FED02D
:10042300E0F815811581E8C0E0EEC0E02285118374
:10043300851082E0A3FEE0A3F5207808E0A3F60888
:10044300DFFAE0A3FFE0A3C0E0E0A3C0E0E0A3C0C5
:10045300E0E0A3C0E0E4C5A8858210858311C5A8A8
:10046300D083D08222C0D02510C582C0E0E51134EC
:10047300FFC583C0E0E510C3958224F310AF088560
:1004830083118582108008858311858210D2AFC8BD
:10049300F0A3E9F0A3EAF0A3EBF0A37908E709F0EE
:1004A300A3D8FAECF0A3EDF0A3EEF0A3EFF0A3D002
:1004B300E0F0A3D0E0F0A3D0E0F0A3E520F0A3E5C3
:1004C300F0F0A322851183851082E0C0E0A3E0F958
:1004D300A3E0FAA3E0FBA37808E0F608A3DFFAE0C1
:1004E300FCA3E0FDA3E0FEA3E0FFA3E0C0E0A3E0E4
:1004F300C0E0A3E0F5D0A3E0F520A3E0A3F5F0E48A
:10050300C5A8858311858210C5A8D082D083D0E089
:10051300F8D0E0327403800474028000C0E0F40475
:100523001203A9D0E012028F2274038000CCC0E032
:10053300EDC0E0E510C39CCCAD1150011D10AF061A
:100543008C108D1180068C108D11D2AF12029CD0AD
:10055300E0FDD0E0FC22D083D082C5F0E493A3C5B4
:10056300F0C395F0F5F0E493A3C395F04005E5F0EF
:10057300048001E475F002A42582F582E5F0358359
:10058300F583E493A3C0E0E493C0E022D083D08258
:10059300CCC0E0E493A360061205B91470FAE493A7
:1005A300A360061205D81470FAD0E0FCE493A3C04C
:1005B300E0E493C0E022C0E0E493A3D39C5010E4B2
:1005C30093A3C39C400AD0E0D0E0D0E00205ACA3E3
:1005D300A3A3D0E022C0E0E493A36C7009D0E0D0E1
:1005E300E0D0E00205ACA3A3D0E02253CBEFC2D806
:1005F30043CB0475F00CEAA4F5CD74FC55CB44024F
:10060300F5CB43CB10A2D850FC53CBEFC2D8227406
:10061300F71203D0750840750900780812051B12FC
:1006230009A512038F90DF36E054EF64816004C2A2
:10063300AF80FE90DF37E0C394045004C2AF80FE66
:1006430053BEFBE5BEA2E650FA53C6BF43BE0474D5
:10065300F1F5D575D445743C90DF13F0741490DF35
:1006630014F0743D90DF02F0740590DF04F074FE23
:1006730090DF2EF0740990DF25F0740A90DF07F005
:10068300E490DF08F0746590DF09F0740A90DF0AE4
:10069300F074AA90DF0BF0741D90DF0CF07455908A
:1006A300DF0DF0747390DF0EF0742390DF0FF0749E
:1006B3005590DF10F0E490DF11F0741D90DF15F01A
:1006C300741C90DF16F074C790DF17F0E490DF1806
:1006D300F074B290DF19F074B690DF1AF0741090D2
:1006E300DF1BF0120A0A741190DF1FF0748890DF89
:1006F30023F0743190DF24F0740290F100F079005C
:10070300120B567E007F0075E1027508E875090338
:1007130090DF3CE0545070237A407B00120ACAE514
:100723000824C0F508E50934FFF509C3E508940179
:10073300E5099400A2D265D03350D57A10EEC333C5
:10074300FEEF33FF90DF3AE0A2E0E492E04EFE1AC0
:10075300EA70EA74804EF5BCEFF5BC120A9590F18D
:10076300417414120EC190F14374FA120EC1439AEC
:1007730001D2AF0210F974F71203D0EAFEEBFF893E
:100783000975080090F100E064017004C2AF80FEB7
:10079300120A95EF90F145F0EE90F146F074DF9078
:1007A300F147F074D990F148F07420120A6774414C
:1007B30090F14CF0E509701143D60175E103E5E9C9
:1007C300A2E450FA53E9EF807B740165096004C227
:1007D300AF80FE750904801B120A9543B404740F9D
:1007E30055BC04FE90F1431210A8120ACA1EEE7003
:1007F300F3150943D60175E10290DF3BE0640D7008
:10080300F87EE87F0390DF3CE05450701D7A407B14
:1008130000120ACAEE24C0FEEF34FFFFC3EE9401B8
:10082300EF9400A2D265D03350DB75E10390DF3B38
:10083300E0640D6008E5E9A2E450FA8087E50970F9
:1008430097750801120A9590F100E0640370031292
:100853000A1CA9080210F9C0E074F112046890F1AF
:1008630000E064036004C2AF80FEE5E9A2E4502B1C
:10087300E5E9A2E6502553E9EF53E9BF539BFCE5B5
:100883009B120A9575083E750900780812051B121C
:1008930009A512038F120A1C0209A053E9EF539B07
:1008A300FCE59B750802750900780812051B90F199
:1008B30001E0042401FCE434F1FD7A3F7BF1121DD5
:1008C30070740212038FE0FA90F140E0A2E7400354
:1008D30002098F8A0874012508F8E43400F9E894C2
:1008E3003FE99400C365D033400302098FEAC39400
:1008F30008500302098F90F14DE0704490F13FE0FE
:10090300F9120B0FE9F090F140E0C2E7F090F1012A
:100913007C867DF1744012029C90F190E0FA90F194
:1009230086E0F874F828F874FF3400F974026870EC
:1009330001E9704D747F6A7048740190F1CF804B68
:100943007C007B007A008A82A882E82402F582E494
:1009530034F1F583E0FD121B9EE06D70010CE82479
:10096300DBF582E434F1F583E06D70010B0AEAC331
:10097300940440D274046B608374046C700E020898
:10098300FF747E6A7006740190F1CEF075083E78AC
:100993000812051B1209A512038F43D6017F020219
:1009A30004C77C007D007A017BF1121E0F740222C2
:1009B30074F81203D090F100E064016018A2AFE470
:1009C30092E0FEC2AFE064037003120A957401F073
:1009D300EEA2E092AF7F01020430C082C083E5C67D
:1009E300A2E65004C2AF80FE90F100E064017014EF
:1009F300120A0A740290F100F075E10490DF3BE003
:100A0300640170F8020ABC74EA90DF1CF0740A9067
:100A1300DF1DF0E490DF1EF02274F71203D074DFC1
:100A230090F145F074D990F146F074F190F147F0EC
:100A3300740190F148F07480120A67741190F14CBC
:100A4300F075D68175083E750900780812051B12EA
:100A530009A512038F43D601120AC175E10243911E
:100A6300100210F990F149F0744090F14AF07413B8
:100A730090F14BF022C082C08390F100E0640170DA
:100A830004C2AF80FEE0640360067403F0120A1C24
:100A93008027C082C0835391EF75E10490DF3BE070
:100AA300640170F875D68153D1FE120AC1800AC061
:100AB30082C083740490F16AF0D083D08222539B66
:100AC300FCE59B53E9EF2274F71203D08A088B09E4
:100AD30074047808120357AE08AF09EA7001EB609B
:100AE30028A2AFE492E0F508C2AF7A107B001205AA
:100AF300EEE508A2E092AFEEF8EFF974FF281E745A
:100B0300FF39FFE87001E970D80210F9C008C00985
:100B1300E9C39480E94019F879FF7A027B00120255
:100B2300F68808890974B92508F874FF3509800B1C
:100B3300C313F874B928F874FF3400F9C3E8948038
:100B4300E994FFA2D265D03350027880E8F9D00946
:100B5300D0082274F71203D08908E9C3940440042F
:100B6300C2AF80FE120A95E50824DFF582E434F172
:100B7300F583E090DF06F090F100E0640370031268
:100B83000A1C0210F9A2AFE492E0FA7B00C2AF2282
:100B9300EAA2E092AF22C0E074F212046890F14E30
:100BA300E07002A3E0600990F14E12102E1203CE02
:100BB3007F010204C7C082C0837A0079011210C981
:100BC3008A828B83A3A3A3A3A3A3A3E493A2E65044
:100BD3000474018001E490F176F0E490F175F04340
:100BE300BE80D2BDF538F539F53A753BFF753CFF4C
:100BF30074FF90DE0BF090DE07F0743E90DE09F098
:100C0300438C10758900C2C5758B00C2E8439A02F4
:100C130053F4FED29043FE01D2AF020ABC74F61223
:100C230003D08A828B83A3E0F534701E8A828B8380
:100C3300A3A3E0F5358A828B83A3A3A3E0F5368AC9
:100C4300828B83A3A3A3A3E0F537120B8885342AF1
:100C530085352B85362C85372D7B00120B93120B94
:100C630088EAFE740290DE0EF090DE11E0A2E0400E
:100C73002375082A750900750A0178081205177982
:100C8300047A247BDE121473740312038F90DE1133
:100C9300E0D2E0F0EEFA7B00120B937F0302043004
:100CA300C082C08390F17DE01205590902860DB818
:100CB3000C4A0D030D90F16AE06003020D8C90F174
:100CC3007FE0F9E470037402696003020D8690F11A
:100CD30080E07002A3E06003020D8690F182E0647D
:100CE300017002A3E06003020D86740290F16AF0C2
:100CF30090F1777421120EB87401F0A3E4020D8B06
:100D030090F16AE06003020D8C90F17EE054FEF8EE
:100D1300A3E0F9E87001E9706A90F182E07002A340
:100D2300E07060120EC6505B90F180E0120559002E
:100D3300018C0D3A0D420D90F17EE0F52E804A9024
:100D4300F17EE0F52F804290F16AE0703C90F182F1
:100D5300E07002A3E0702C120EC6502790F180E0E1
:100D630012055900018C0D6E0D7A0D90F17EE0F5A0
:100D730030A3E0F531801290F17EE0F532A3E0F587
:100D8300338006740490F16AF0020ABCC082C08307
:100D930090F17DE01205590102A40EA40D600E1C12
:100DA3000E90F16AE06003020EAA90F17FE0F9E48D
:100DB30070037401696003020EA490F180E0700275
:100DC300A3E0702590F182E064087002A3E0600361
:100DD300020EA4740190F16AF090F1777422120E5E
:100DE300B87408F0A3E4020EA990F180E0640170E6
:100DF30002A3E06003020EA490F182E06404700297
:100E0300A3E06003020EA4740190F16AF090F177FD
:100E1300742A120EB8740480CA90F16AE060030267
:100E23000EAA90F17EE07002A3E0707590F182E06B
:100E330064017002A3E07069120EC6506490F180E1
:100E4300E012055900019F0E4F0E590E90F1777471
:100E53002EF0A3E4804190F177742F80F490F16A2F
:100E6300E0704490F182E064017002A3E0703212FA
:100E73000EC6502D90F180E012055900019F0E8699
:100E83000E910E90F1777431F0A37400800990F104
:100E9300777433F0A37400F0A37401F0120EAD80E5
:100EA30002740490F16AF0020ABC90F17A740112A0
:100EB3000EC1740122120EC1A3F090F17A22F0A3A5
:100EC300E4F02290F180C3E09402A3E094002202B4
:100ED3000AB2020AB2C0E074F1120468E5BEA2E6E7
:100EE30050FA90DE06E0FAA2E25035A83BE890DE25
:100EF3000BF0F508853C0974047808120357E508DC
:100F030090DE07F0853B08853C09740978081203D5
:100F130057E508543E90DE09F090DE01E0D2E0F0A0
:100F23007838EA46F690DE02E0F5087509007404A5
:100F330078081203667838E50846F608E50946F6A8
:100F430090DE04E0F5087509007409780812036659
:100F5300783808E50946F6EAA2E05003753A0174C9
:100F6300065A6003753A00758B00C2E80209A0C0F7
:100F7300E074F2120468E5BEA2E650FAE589A2E73E
:100F83005005C2BD12103B758900C2C5020BB3C028
:100F930082C083C29190F160E07002A3E060099087
:100FA300F16012102E1203CE745390F150F074BE00
:100FB30090F151F074FC90F152F0744390F153F0BE
:100FC30074BE90F154F0740190F155F0747590F182
:100FD30056F0748790F157F0740190F158F074E56E
:100FE30090F159F0743A90F15AF0747090F15BF00B
:100FF30074F390F15CF0742290F15DF0758900C296
:10100300C5D2BD90F15E7450F0A374F1F0758250B7
:10101300F5831203CE90F162E07002A3E0600990C1
:10102300F16212102E1203CE020ABC12103222E019
:10103300F8A3E0F583888222C082C083E490F1554F
:10104300F090F156F090F157F090F158020ABBC0BE
:1010530082C083E9FCEAFD7A007B00800790F1659A
:10106300E01210AE90F16412183A90F1E9E0687062
:1010730003A3E069601A1210966C700B90F164126E
:1010830010A81210AE80091210966D70D0ED60CDCD
:10109300020ABC90F165E0F5838882A3E493229071
:1010A300F177E0F9A3E0FAA3E0FB22F5838882E479
:1010B30093F890F164E028F8A3E03400F990F16428
:1010C300E8F0A3E9F02274F71203D0E9FEEAFF1275
:1010D3001855800E8A828B83A3A3A3A3A3E4936EE4
:1010E30060147A007902121052EA7001EB6007EE85
:1010F30070E2EF1F70EC7F0202043074F51203D02C
:1011030090DE0EE0FEE4F090DE11E0FFA2E4501F5B
:101113007480F0740790F16AF0E53D7002E53E607B
:1011230009853D82853E831203CEE490F16AF0EF98
:10113300A2E2500CE490DE11F090F16AF00211C8C3
:1011430090F16AE06402706690DE16E0F50A90F1B1
:101153007712052CA90A7A207BDE12144E7403122F
:10116300038F850A081214081210A2E9250A121324
:10117300F790F17AE07002A3E060047A4080027A8B
:1011830048EA90DE11F090F17AE07002A3E0701665
:10119300E53D7002E53E6009853D82853E8312038D
:1011A300CEE490F16AF0EE90DE0EF0021A6DE06488
:1011B300067009853D82853E831203CE90F16AE075
:1011C3006003021301EFA2E050DC75087C7509F19E
:1011D300750A00780812051779087A207BDE121445
:1011E3004E740312038F753D00753E0090F17CE051
:1011F30054E012058F0006000E122087134075136A
:1012030080A412A09213C07E13821290F17DE0128B
:10121300058F0005018B1203771205281209981216
:101223000B9E12821290F180E07002A3E070509046
:10123300F182E07002A3E0704690F17EE05480F802
:10124300A3E0F9E87001E9703690F17EE090DE00EA
:10125300F090F17EE090F166600EE06402600302BC
:10126300139B7403F002139BE06403600302139B5C
:10127300740280F0790112159EE9600302139B74D6
:101283000490F16AF00213A6790012159EE9600337
:1012930002139B80EA1219C602139B121A720213DD
:1012A3009B90F17DE012058F000400BB1206C11272
:1012B30008C7120A291382121214B302139B1216BF
:1012C3005302139B90F17EE07002A3E070B190F1A2
:1012D30080E07002A3E070A790F182E064017002E5
:1012E300A3E0709B90F1777467F0A374F1120EC1C1
:1012F300120EAD90F16AF07A40EA90DE11F090F1AF
:101303006AE0640160030213E37F0290F17AC3E0B1
:101313009420A3E0940040030213AB90F17AE0F52C
:101323000A7F0A0213AE90F166E0640460030212BE
:101333008290F17CE06481600302128290F17EE08E
:101343007002A3E0600302128290F182E0640170F4
:1013530002A3E0600302128290F180E02468F508A2
:10136300A3E034F1F50990F177E508F0A3E509026C
:1013730012F0753DD2753E0E021282753DD5753E53
:101383000E021282753DA3753E0C120CA3800975E3
:101393003D8F753E0D120D8F90F16AE0640460037A
:1013A3000212FA7A600212FC750A2090F177120594
:1013B3002CA90A7A207BDE121473740312038F851F
:1013C3000A081210A2E925081213F7121408EF9065
:1013D300DE11F0E50AC3942040030211A902119320
:1013E300E0640560030211A9853D82853E831203F3
:1013F300CE0211A9F9EA3400FA90F177E9F0A3EAF1
:10140300F0A3EBF02290F17AC3E09508F0A3E09407
:1014130000F02274F71203D07A008A08E508246BDF
:10142300F582E434F1F583E9F00AEAC3940540EA6E
:101433007A008A08E5082470F582E434F1F583E93B
:10144300F00AEAC3940540EA0210F974F61203D0D5
:10145300EAFCEBFDE9FE740A1203C41214A3600D47
:101463008C828D83E012027912149870F3020C9E21
:1014730074F61203D0EAFCEBFDE9FE740A1203C40E
:101483001214A3600D12025F8C828D83F0121498E4
:1014930070F3020C9EE9240109EA3400FA1EEE22DD
:1014A300E0F508A3E0F509A3E0A908AA09FBEE22E9
:1014B30074F71203D090F17EE07002A3E0701790EE
:1014C300F181E0F9E47001E9700C90F182E06402CB
:1014D3007002A3E06005740402158390F17CE012AE
:1014E30005598002D914EF141615261590F180E0E2
:1014F30070E490F176E0600478018002780090F166
:1015030084E8120EC190F175E0605990F184E044D3
:1015130002804D90F166E0640470BB90F184E4F0C6
:10152300A3804090F180E0547FF50890F166E06479
:101533000470A3E508C39406509C90F180E05480A6
:10154300600E121594F583E06403700E7801800C2D
:1015530012158AF583E0640360F2780090F184E861
:10156300F0A3E4F090F16AE06404601890F17774FA
:1015730084F0A374F1120EC190F17A7402120EB2C8
:1015830090F16AF00210F9E508246FF582E434F172
:1015930022E508246AF582E434F12274F71203D0B9
:1015A30090F182E07002A3E0701290F166E06404AF
:1015B300601290F180E07002A3E06008740490F17F
:1015C3006A02164D90F17CE0541F1205590002BFC8
:1015D30015DA15E215EC1590F17EE06401600479EB
:1015E30000806AE990F175806190F180E0547FF5A5
:1015F3000890F17EE070E8E508C3940650BEE50864
:1016030090DE0EF090F180E05480601CE960047A73
:101613001080027A40EA90DE11F0E960047A0380D8
:10162300027A00121594801AE960047A2080027A03
:1016330080EA90DE14F0E960047A0380027A0012F3
:10164300158AF583EAF0E490DE0EF079010210F9D1
:1016530074F51203D090F17FE01205590102CD1603
:1016630069168316B8161218557A007901121052AA
:1016730012182312025F90F17AF0A3E4F00217DC50
:1016830090F17EE0FA79001210C9121823E92402BE
:101693000909EA3400FA12025FFC1919E0FAE92495
:1016A30003090909EA3400FA12025FF9EC90F17AAE
:1016B300F0A3E980C790F17EE0FE1218557A007915
:1016C30003121052EE1E70F580A690F177E4F0A39A
:1016D300F0A3F0FA0217B075090074037808120337
:1016E3006690F1EBE02508FBA3E035098B82F583D7
:1016F300E493C0E090F17FE0F8D0E0686003021764
:10170300AF8A087509007403780812036612184536
:10171300E493C0E090F17EE0F8D0E0686003021744
:10172300AF8A08750900740378081203661218401B
:10173300E493C0E090F181E0F8D0E068706E8A082D
:1017430075090074037808120366121840A3E49322
:10175300C0E090F180E0F8D0E06870508A08750925
:10176300007403780812036690F1EBE02508F8A3F0
:10177300E03509F988828983A3A3A3A3E493F50839
:10178300740193F50990F177E508F0A3E509F0A357
:101793007480F088828983A3A3A3A3A3A3E493F80B
:1017A300740193F990F17AE8F0A3E9F00A8A0890BA
:1017B300F1EB12183A7583F17582EDE0C398F50ADF
:1017C300A3E099F50B7403780A120357C3E5089550
:1017D3000AE4950B50030216DA90F177E0FCA3E0DC
:1017E300FDA3E0FEEC4D4E70047404802C90F16A6E
:1017F300E06404602890F17A12183A7583F17582D7
:1018030082C3E098A3E099500E90F18212183A90A7
:10181300F17AE8F0A3E9F0740190F16AF0021A6D2D
:1018230090F177EAF0A3EBF0A37480F090F177E006
:10183300F9A3E0FA7B8022E0F8A3E0F9221218452D
:10184300A32290F1EBE02508A3E035098B82F58311
:10185300A32290F1E7E0F8A3E00210BF74F11203B2
:10186300D074FE120379851082851183EAF0A3EB0D
:10187300F01219B6602B90F1EFE0FEA3E08007EEC3
:101883002404FEEF3400FF8E828F83E493F8740107
:1018930093F9851082851183E0687003A3E0697072
:1018A300DE7508008049749090DE14F074101219EC
:1018B300A77003750940750A01750B00E50C780ADA
:1018C3001203668E828F83A3A3A393550A6006E552
:1018D30009D2E0F509E50990DE15F0EA90DE13F090
:1018E300E50C12158CF583E4F090DE0EF00508127A
:1018F30019B6FAE508C39A400302199D7A007905DF
:101903001210528A0A8B0BAC0AAD0BEC7001ED601E
:10191300DCEC2402F50EED3400F50F850E82F58321
:10192300E493540FF50C90DE0EF07509008C828D54
:1019330083A3A3A3A3E4932407F50AA3E4933400A6
:10194300F50B7403780A120357AA0A850E82850FD2
:101953008393A2E740030218A9744890DE11F07440
:10196300081219A77003750940750A01750B00E584
:101973000C780A1203668E828F83A3A393550A60A1
:1019830006E509D2E0F509E50990DE12F0EA90DEFA
:1019930010F0E50C1215960218E8740212038F7FFB
:1019A30008020430F08C828D83A3A3A3E493540331
:1019B300640122851082851183121032A3A3A3A38D
:1019C300E4932274F51203D090F166E06402601F81
:1019D30090F180E07002A3E0701590F182E0700254
:1019E300A3E0700B90F17FE0F9E47001E960087403
:1019F3000490F16AF0807390F17EE0605F7A00F901
:101A03001210C98A088B09AE08AF09EE7001EF60A6
:101A1300DE740490F166F090F17EE090F167F0756A
:101A230008008E828F83A3A3A3A3E493FAE508C3DC
:101A33009A503785080AE50A2468F582E434F1F5FB
:101A430083E4F07A0079041210528A828B83A3A371
:101A5300A3E49370EE12185F050880C690F167F057
:101A6300740390F166F0F91214167F0402043074C3
:101A7300F71203D090F166E06404701290F17CE0F9
:101A83006401700A90F182E07002A3E060087404BC
:101A930090F16AF0805490F17EE0FE90F180E0FFD7
:101AA3007A0090F167E0F91210C97A0279041210F2
:101AB30052EA7001EB60D78A828B83A3A3E4936F0E
:101AC30070E88A828B83A3A3A3E4936E70DC90F106
:101AD3007EE0C0E090F180E02468F8A3E034F1F9FF
:101AE30088828983D0E0F012185F0210F974F8122B
:101AF30003D0E9FE90F16074B3F0A37409F090F1A0
:101B0300627464F0A3741CF0740790F1CAF074203B
:101B130090F1CBF0EA90F1CCF0EB90F1CDF07407BB
:101B230090F1C6F0742090F1C7F0EC90F1C8F0ED9D
:101B330090F1C9F0E490F1CEF090F1CFF090F1D0B4
:101B4300F090F1D1F01206121209DDEEF9120B56E4
:101B5300120A7890F1CAE064FF6025E090DF05F097
:101B63007A008A82A882E824CAF582E434F1F583F4
:101B7300E0C0E0121B9ED0E0F00AEAC3940440E206
:101B830090F1E3E064FF7004C2AF80FE740190F152
:101B93004DF0740790DF03F00209D8E824E3F582DF
:101BA300E434F1F5832274F31203D08A0C8B0D9085
:101BB300F1CEE07003021C5B120B88EAF50890F18A
:101BC30086E024F6FE90F18FE090F1D1F090F19051
:101BD300E0FF8E0A750B00780A12051B7C917DF1DC
:101BE300AA0CAB0D121D28740212038FE490F1CEE0
:101BF300F0747E6F7059EE6056120B88EAFF740A18
:101C030090F186F0750A04780A12051B7CC67DF1F3
:101C13007A877BF1121D28740212038F780A12054A
:101C23001B7CCA7DF17A8B7BF1121D28740212038F
:101C33008F90F1D1E090F18FF0747F90F190F0EFFD
:101C4300FA7B00120B9379007A867BF1120779AA4B
:101C5300087B00120B9380027E00EEF97F060204DC
:101C6300301209DD120A7822748055C6FA53BEFB7E
:101C730053C6BFE5C6A2E640FA8AC6E5C66A70FB4C
:101C830043BE0453F4FDC29143FE02120BB8790024
:101C93007CEB7D257ADE7B25121AF0D291801564C8
:101CA30001701174056A700C7AD27BF1120C2063F7
:101CB3009002E590A838E854046026753800753919
:101CC30000740290F166F0E490F167F090F16AF02D
:101CD3007903121416753D00753E00740190DE0100
:101CE300F0A838E854106009783874EF56F61210EB
:101CF300FEA838E8A2E0500F783874FE56F6120FAB
:101D030092783874FD56F690F1CEE060A77AD27BD4
:101D1300F1121BA9E9FA609C90F1D2E07081740979
:101D23006A7091808A74F71203D074091203C4E0B5
:101D3300FEA3E0FFEAF8EBF980188C828D83E0883C
:101D4300828983F0A3A882A9838C828D83A3AC822A
:101D5300AD838E088F0974FF25081E74FF3509FFB4
:101D6300E5087002E50970D27F0202043074F712AD
:101D730003D074091203C4E0F8A3E0F9EAFEEBFF11
:101D83008A088B09C3EA9CEB9D405EEC28F582ED43
:101D930039F583C3E5829508E5839509404BEA2825
:101DA300FAEB39FBAC82AD83121DFE7002E50960CC
:101DB30041EC24FF1CED34FFFDEA24FF1AEB34FF52
:101DC300FB8C828D83E08A828B83F080DB8C828D17
:101DD30083E08A828B83F08C828D83A3AC82AD8374
:101DE3008A828B83A3AA82AB83121DFE7002E5094C
:101DF30070DBEEFAEFFB7F02020430880889097476
:101E0300FF25081874FF3509F9E5082274F8120351
:101E1300D074081203C4E0F8A3E0F98A828B8380AC
:101E230003ECF0A3E8FEE9FF74FF2E1874FF3FF9FB
:0B1E3300EE7001EF70EB7F0102043045
:04000005000000F403
:00000001FF
