:020000040000FA
:030000000200E11A
:03003300020F7742
:03004B00020C8F15
:03006B000210116F
:100083000208F800000080FB1200F0B90003020030
:10009300DBE479127807B800028004F709D8FCE49E
:1000A30090F100780979048002F0A3D8FCD9FA9082
:1000B300F408AA82AB839000F3789279018015E467
:1000C30093A3AC82AD838A828B83F0A3AA82AB8392
:1000D3008C828D83D8E9D9E7121F0012008675D070
:1000E300007581BF7510007511F102008B79012233
:1000F3004572723A202532642F25326400FFFFFFD8
:10010300FF1432506EFF00000084012702270227EC
:100113000227022F02009600003031323334353685
:1001230037383941424344454600286E756C6C208C
:10013300706F696E7465722900303132333435362D
:1001430037383961626364656600464C4F415453E6
:100153003F2077726F6E6720666F726D617474658E
:100163007220696E7374616C6C656421003F3F3F5C
:100173000010000000080000000A0000000000005A
:100183000012010002020000205104A6160900011A
:10019300020301090243000201008019090400005F
:1001A30001020201000524001001042402020524B7
:1001B30006000105240100010705820340004009F0
:1001C300040100020A000000070584024000010741
:1001D30005040240000104030904240354006500DC
:1001E300780061007300200049006E007300740002
:1001F300720075006D0065006E00740073001E03CD
:10020300430043003100310031003100200055002C
:100213005300420020004300440043000803300021
:10022300300031009F010000C2010000E066701041
:1002330008A3E066700A08A3E066700408A3E066FA
:1002430022C3E7960809E7960809E7960809E7969F
:10025300A2D265D03322BB0102E722C082C08389C8
:10026300828A83BB0003E08002E493D083D082229E
:10027300BB000EC082C0838A838982F0D083D08280
:1002830022BB0101F722E4CFC0E0E4CEC0E0E4CD1D
:10029300C0E0E4CCC0E075F020C3E633F608E633F3
:1002A300F608E633F608E633F6181818EC33FCEDD7
:1002B30033FDEE33FEEF33FFC3EC9709ED9709EE01
:1002C3009709EF97191919400FFFEC97FC09ED9760
:1002D300FD09EE97FE191906D5F0BEECF709EDF707
:1002E30009EEF709EFF7191919D0E0FCD0E0FDD0BA
:1002F300E0FED0E0FF22E4C396F608E496F608E4B5
:1003030096F608E496F622E0F608A3E0F608A3E0E2
:10031300F608A3E0F622E6F008A3E6F008A3E6F069
:1003230008A3E6F022CAC0E0E6F0A308DAFAD0E0B8
:10033300FA22CAC0E0E0A3C582CCC582C583CDC57D
:1003430083F0A3C582CCC582C583CDC583DAE6D04D
:10035300E0CA22C3E498F8E499F91203978026C30C
:10036300E49AFAE49BFBE920E7E9120397E498F89F
:10037300E499F922C3E498F8E499F9120397E4980D
:10038300F8E499F9C3E49AFAE49BFB22EB20E7CF64
:10039300E920E7E0B90010BB0008E88AF084F8AA76
:1003A300F022E4FBC8FA22EB70227B10C833C8C9E1
:1003B30033C9335007C39AC3DBF280069A50012A2C
:1003C300DBEAC833F4C8C933F4C9FA2275F008E488
:1003D300C833C8C933C933C99AC99B5004C92AC988
:1003E3003BD5F0ECFBC833F4C8E4C9FA22600C082F
:1003F300C6C313C618C613C6D5E0F4227004226020
:100403000D18C6C333C608C633C6D5E0F418222573
:100413001010AF08F510400215118008F5104002C6
:100423001511D2AF22C0D0251010AF08F51050021D
:1004330005118008F51050020511D2AFD0D0222546
:1004430010F58210AF08F510400215118008F51061
:1004530040021511D2AF851183222510F582E435B0
:1004630011F58322E4732510C582C0E0E51134FF42
:10047300C583C0E0E510C3958224F9F8E4C5A885D7
:100483008311858210C5A8E8CEF0A3E520F0A378F8
:1004930008E608F0A3DEFAEFF0A3E58124FBF8E613
:1004A30008F0A3E608F0A30808E608F0A3E608F0BE
:1004B300A315811581D0E0FED0E0F815811581E800
:1004C300C0E0EEC0E022851183851082E0A3FEE048
:1004D300A3F5207808E0A3F608DFFAE0A3FFE0A382
:1004E300C0E0E0A3C0E0E0A3C0E0E0A3C0E0E4C557
:1004F300A8858210858311C5A8D083D08222C0D05D
:100503002510C582C0E0E51134FFC583C0E0E510C6
:10051300C3958224F310AF08858311858210800868
:10052300858311858210D2AFC8F0A3E9F0A3EAF066
:10053300A3EBF0A37908E709F0A3D8FAECF0A3ED55
:10054300F0A3EEF0A3EFF0A3D0E0F0A3D0E0F0A38C
:10055300D0E0F0A3E520F0A3E5F0F0A3228511831A
:10056300851082E0C0E0A3E0F9A3E0FAA3E0FBA3D7
:100573007808E0F608A3DFFAE0FCA3E0FDA3E0FEC1
:10058300A3E0FFA3E0C0E0A3E0C0E0A3E0F5D0A3B5
:10059300E0F520A3E0A3F5F0E4C5A88583118582E7
:1005A30010C5A8D082D083D0E0F8D0E032740380A5
:1005B3000474028000C0E0F404120442D0E0120389
:1005C30028227403800474028000CCC0E0EDC0E0F4
:1005D300E510C39CCCAD1150011D10AF068C108DDE
:1005E3001180068C108D11D2AF120335D0E0FDD0EF
:1005F300E0FC22D083D082C5F0E493A3C5F0C39579
:10060300F0F5F0E493A3C395F04005E5F004800111
:10061300E475F002A42582F582E5F03583F583E4E1
:1006230093A3C0E0E493C0E022D083D082CCC0E0A7
:10063300E493A360061206561470FAE493A36006CB
:100643001206751470FAD0E0FCE493A3C0E0E493BF
:10065300C0E022C0E0E493A3D39C5010E493A3C36F
:100663009C400AD0E0D0E0D0E0020649A3A3A3D087
:10067300E022C0E0E493A36C7009D0E0D0E0D0E0C6
:10068300020649A3A3D0E02253CBEFC2D843CB0445
:1006930075F00CEAA4F5CD74FC55CB4402F5CB43BD
:1006A300CB10A2D850FC53CBEFC2D82274F712045C
:1006B3006975084075090078081205B4120A4312D7
:1006C300042890DF36E054EF64016004C2AF80FE7B
:1006D30090DF37E0C394035004C2AF80FE53BEFBE8
:1006E300E5BEA2E650FA53C6BF43BE0474F1F5D586
:1006F30075D445743C90DF13F0741490DF14F074D8
:100703003D90DF02F0740590DF04F0748E90DF2ECD
:10071300F0740990DF25F0741290DF07F0E490DFA6
:1007230008F0742590DF09F0749590DF0AF0745592
:1007330090DF0BF0741D90DF0CF0745590DF0DF01B
:10074300741390DF0EF0742390DF0FF0741190DFB9
:1007530010F0746390DF11F0741D90DF15F0741CBA
:1007630090DF16F074C790DF17F0E490DF18F07491
:10077300B090DF19F074B690DF1AF0741090DF1B9D
:10078300F0120AA8741F90DF1FF0748890DF23F023
:10079300743190DF24F0740290F100F07900120BB1
:1007A300F47E007F0075E10275081475090590DF7A
:1007B3003CE05450701F7A407B00120B68E508241C
:1007C300C0F508E50934FFF509C3E5089401E50917
:1007D3001208F050D97A10EEC333FEEF33FF90DFE7
:1007E3003AE0A2E0E492E04EFE1AEA70EA74804E28
:1007F300F5BCEFF5BC120B3390F14174141214B530
:1008030090F14374FA1214B5439A01D2AF02119EC8
:1008130074F7120469EAFEEBFF890975080090F189
:1008230000E064017004C2AF80FE120B33EF90F15D
:1008330045F0EE90F146F074DF90F147F074D990F3
:10084300F148F07420120B05744190F14CF0E50966
:10085300701143D60175E103E5E9A2E450FA53E9C7
:10086300EF8077740165096004C2AF80FE750904E7
:10087300801B120B3343B404740F55BC04FE90F178
:1008830043121147120B681EEE70F3150943D6018C
:1008930075E10290DF3BE0640D70F87E147F0590F4
:1008A300DF3CE0545070197A407B00120B68EE2451
:1008B300C0FEEF34FFFFC3EE9401EF1208F050DFE8
:1008C30075E10390DF3BE0640D6008E5E9A2E450C5
:1008D300FA808BE509709B750801120B3390F100C8
:1008E300E064037003120ABAA90802119E9400A2DD
:1008F300D265D03322C0E074F112050190F100E01B
:1009030064036004C2AF80FEE5E9A2E4502BE5E98D
:10091300A2E6502553E9EF53E9BF539BFCE59B1235
:100923000B3375083E75090078081205B4120A43A3
:10093300120428120ABA020A3E53E9EF539BFCE55C
:100943009B75080275090078081205B490F101E05F
:10095300042401FCE434F1FD7A3F7BF11221257478
:1009630002120428E0FA90F140E0A2E74003020AF1
:100973002D8A0874012508F8E43400F9E8943FE966
:100983009400C365D0334003020A2DEAC394085090
:1009930003020A2D90F14DE0704490F13FE0F9120B
:1009A3000BADE9F090F140E0C2E7F090F1017C5A21
:1009B3007DF3744012033590F364E0FA90F35AE048
:1009C300F874F828F874FF3400F97402687001E9C8
:1009D300704D747F6A7048740190F3A3804B7C0060
:1009E3007B007A008A82A882E82402F582E434F14B
:1009F300F583E0FD121D77E06D70010CE82415F519
:100A030082E434F4F583E06D70010B0AEAC39404C5
:100A130040D274046B608374046C700E02099D747D
:100A23007E6A7006740190F3A2F075083E7808128E
:100A330005B4120A4312042843D6017F020205605B
:100A43007C007D007A017BF11221C474022274F8C8
:100A530012046990F100E064016018A2AFE492E02F
:100A6300FEC2AFE064037003120B337401F0EEA215
:100A7300E092AF7F010204C9C082C083E5C6A2E64B
:100A83005004C2AF80FE90F100E064017014120ABA
:100A9300A8740290F100F075E10490DF3BE064017B
:100AA30070F8020B5A74EA90DF1CF0742A90DF1D71
:100AB300F0E490DF1EF02274F712046974DF90F102
:100AC30045F074D990F146F074F190F147F0740158
:100AD30090F148F07480120B05741190F14CF0758D
:100AE300D68175083E75090078081205B4120A43C9
:100AF30012042843D601120B5F75E10243911002E1
:100B0300119E90F149F0744090F14AF0741390F102
:100B13004BF022C082C08390F100E064017004C2F4
:100B2300AF80FEE0640360067403F0120ABA802704
:100B3300C082C0835391EF75E10490DF3BE0640111
:100B430070F875D68153D1FE120B5F800AC082C044
:100B530083740490F33EF0D083D08222539BFCE550
:100B63009B53E9EF2274F71204698A088B09740412
:100B730078081203F0AE08AF09EA7001EB6028A20F
:100B8300AFE492E0F508C2AF7A107B0012068BE562
:100B930008A2E092AFEEF8EFF974FF281E74FF3954
:100BA300FFE87001E970D802119EC008C009E9C3CB
:100BB3009480E94019F879FF7A027B0012038F8849
:100BC30008890974B72508F874FF3509800BC31326
:100BD300F874B728F874FF3400F9C3E89480E994F3
:100BE300FFA2D265D03350027880E8F9D009D0084B
:100BF3002274F71204698908E9C394044004C2AF5C
:100C030080FE120B33E5082419F582E434F4F583EE
:100C1300E090DF06F090F100E064037003120ABA7B
:100C230002119EA2AFE492E0FA7B00C2AF22EAA2D5
:100C3300E092AF22EBC313FBEA13FAC3EA9402EB8D
:100C43009400401400000000000000000000EA24AB
:100C5300FFFAEB34FFFB80E32274F8120469EAFE27
:100C6300EBFFEEF8EFF974FF28FE74FF39FF740011
:100C730068700374006960097AE87B03120C37809B
:100C8300E17F010204C9D2B943E40222C0E074F255
:100C930012050190F14EE07002A3E0600990F14E5D
:100CA3001210CD1204677F0102056074F512046906
:100CB3008A828B838C088D097E007F008008EE2555
:100CC3000AFEEF3400FFC3EE9508EF9509501112A9
:100CD3000CEA70EA7A057B00120C5C120CEA70DEF7
:100CE300EEFAEFFB0218D6EEFAE508C39AF9E582AD
:100CF3002EFCE5833FFD7A137BF2121BCEE9F50A46
:100D030022C082C08390F351E06422702890F33EA6
:100D1300E0704190F35212114D90F2DDE8F0A3E937
:100D2300F090F2DDE07002A3E06004D2918002C291
:100D3300917402801BE06420701490F33EE0701401
:100D430090F34B74D6F0A374F21214B580E37404D9
:100D530090F33EF0020B5AC082C08390F351E064DB
:100D630021701990F33EE0701990F34B74D6F0A301
:100D730074F21214BA74071214AF8002740490F35D
:100D83003EF0020B5A020B50020B5074F512046929
:100D93008A088B098C0A8D0B90F2D67808120319F6
:100DA300E490F2DAF090F2DBF0740890F2DCF09069
:100DB300F2DDE4F0A3F0740190F2DFF07A00F912AF
:100DC300116E8A828B83A3A3A3A3A3A3A3E493A2F9
:100DD300E6500474018001E490F34AF0E490F3498F
:100DE300F043BE80D2BDF512F513F5147515FF75EA
:100DF30016FF74FF90DE0BF090DE07F0743E90DE7A
:100E030009F0438C10758900C2C5758B00C2E84395
:100E13009A0253F4FED29043FE01D2AF0218D67465
:100E2300F6120469A812E854046020781274FB5681
:100E3300F6740290F337F0E490F338F090F33EF059
:100E430079031214CF751700751800A812E854100F
:100E53006009781274EF56F61211A3A812E8A2E003
:100E6300500F781274FE56F6121031781274FD5634
:100E7300F690F2DFE07003020F6690F2DDE070029D
:100E8300A3E07003020F66C2AF90DE0E120F6B90E9
:100E9300DE14E0A2E0506890DE16E0FF90DE17E07B
:100EA30090F210E0F874C0C398F8E49400F98F0846
:100EB300C3E89508E91208F05008E0FA74C0C39A31
:100EC3008001EFFEEE60387508E07509F2750A00DF
:100ED30078081205B0EEF97A287BDE121507740341
:100EE300120428EEF97CE07DF27A507BF1121BCEDE
:100EF300EE6F700B740490DE0EF0E490DE14F0904D
:100F0300F320E090DE0EF0D2AFC2AF120F6B90DE93
:100F130011E0A2E0404390F2D3E0FE603CC3944171
:100F230040027E40EEF97CE07DF27A137BF2121CE4
:100F3300437508E07509F2750A0078081205B0EEEA
:100F4300F97A287BDE12152C74031204287404909A
:100F5300DE0EF0740190DE11F090F320E090DE0ECF
:100F6300F0D2AF7F030204C9E090F320F074049041
:100F7300DE0EF022C0E074F1120501E5BEA2E650D8
:100F8300FA90DE06E0FAA2E25035A815E890DE0BEF
:100F9300F0F508851609740478081203F0E5089043
:100FA300DE07F0851508851609740978081203F021
:100FB300E508543E90DE09F090DE01E0D2E0F078DF
:100FC30012EA46F690DE02E0F5087509007404782B
:100FD300081203FF7812E50846F608E50946F6907D
:100FE300DE04E0F508750900740978081203FF7838
:100FF3001208E50946F6EAA2E050037514017406E7
:101003005A6003751400758B00C2E8020A3EC0E003
:1010130074F2120501E5BEA2E650FAE589A2E75093
:1010230005C2BD1210DA758900C2C5020CA9C082BF
:10103300C083C29190F331E07002A3E0600990F3A2
:10104300311210CD120467745390F321F074BE90E3
:10105300F322F074FC90F323F0744390F324F074C0
:10106300BE90F325F0740190F326F0747590F32786
:10107300F0748790F328F0740190F329F074E590ED
:10108300F32AF0741490F32BF0747090F32CF07433
:10109300F390F32DF0742290F32EF0758900C2C5FE
:1010A300D2BD90F32F7421F0A374F3F0758221F570
:1010B3008312046790F333E07002A3E0600990F3B6
:1010C300331210CD120467020B5A1210D122E0F82A
:1010D300A3E0F583888222C082C083E490F326F0E4
:1010E30090F327F090F328F090F329020B59C08274
:1010F300C083E9FCEAFD7A007B00800790F336E0C9
:1011030012115390F33512114D90F423E0687003DC
:10111300A3E069601A1211356C700B90F33512114C
:101123004712115380091211356D70D0ED60CD0255
:101133000B5A90F336E0F5838882A3E4932290F36D
:101143004BE0F9A3E0FAA3E0FB22E0F8A3E0F922E5
:10115300F5838882E493F890F335E028F8A3E0342C
:1011630000F990F335E8F0A3E9F02274F71204696B
:10117300E9FEEAFF121907800E8A828B83A3A3A3D9
:10118300A3A3E4936E60147A0079021210F1EA705B
:1011930001EB6007EE70E2EF1F70EC7F020204C9FF
:1011A30074F512046990DE0EE0FEE4F090DE11E0C7
:1011B300FFA2E4501F7480F0740790F33EF0E5172C
:1011C3007002E5186009851782851883120467E4A5
:1011D30090F33EF0EFA2E2500CE490DE11F090F3B6
:1011E3003EF002126D90F33EE06402706690DE16EC
:1011F300E0F50A90F34B1205C5A90A7A207BDE12AB
:1012030015077403120428850A081214C112114128
:10121300E9250A12149E90F34EE07002A3E06004E5
:101223007A4080027A48EA90DE11F090F34EE07043
:1012330002A3E07016E5177002E5186009851782AE
:10124300851883120467E490F33EF0EE90DE0EF00F
:101253000218D6E064067009851782851883120484
:101263006790F33EE060030213A8EFA2E050DC7541
:1012730008507509F3750A0078081205B079087AE1
:10128300207BDE12150774031204287517007518E6
:101293000090F350E054E012062C000600B3122035
:1012A3002E14401C14804913A03914C0251427138D
:1012B30090F351E012062C0005013013031C1305B3
:1012C300CD12093D130B4313271390F354E070021F
:1012D300A3E0705090F356E07002A3E0704690F3E1
:1012E30052E05480F8A3E0F9E87001E9703690F316
:1012F30052E090DE00F090F352E090F337600EE09E
:10130300640260030214427403F0021442E06403B3
:101313006003021442740280F07901121654E960EA
:1013230003021442740490F33EF002144D79001248
:101333001654E9600302144280EA121A7802144236
:10134300121B2202144290F351E012062C000400F7
:101353006013066613086C130AD013271312156C57
:1013630002144212170902144290F352E07002A3CE
:10137300E070B190F354E07002A3E070A790F356CD
:10138300E064017002A3E0709B90F34B7438F0A308
:1013930074F31214BA74011214AF90F33EF07A404E
:1013A300EA90DE11F090F33EE06401600302148AD8
:1013B3007F0290F34EC3E09420A3E0940040030225
:1013C300145290F34EE0F50A7F0A02145590F33756
:1013D300E06404600302132790F350E06481600328
:1013E30002132790F352E07002A3E0600302132775
:1013F30090F356E064017002A3E0600302132790A8
:10140300F354E02439F508A3E034F3F50990F34BE2
:10141300E508F0A3E50902139575178875180D0201
:10142300132775178B75180D021327751704751875
:101433000D120D04800975175A75180D120D5A9067
:10144300F33EE0640460030213A17A600213A37500
:101453000A2090F34B1205C5A90A7A207BDE1215E8
:101463002C7403120428850A08121141E925081275
:10147300149E1214C1EF90DE11F0E50AC3942040CC
:101483000302124E021238E06405600302124E8515
:10149300178285188312046702124EF9EA3400FAA0
:1014A30090F34BE9F0A3EAF0A3EBF0221214B57426
:1014B3000122F0A3E4F0221214B590F34E2290F32C
:1014C3004EC3E09508F0A3E09400F02274F71204F1
:1014D300697A008A08E508243FF582E434F3F5834A
:1014E300E9F00AEAC3940540EA7A008A08E5082489
:1014F30044F582E434F3F583E9F00AEAC394054042
:10150300EA02119E74F6120469EAFCEBFDE9FE742B
:101513000A12045D12155C600D8C828D83E0120249
:101523007312155170F3020F6674F6120469EAFC24
:10153300EBFDE9FE740A12045D12155C600D1202E4
:10154300598C828D83F012155170F3020F66E924D2
:101553000109EA3400FA1EEE22E0F508A3E0F509DA
:10156300A3E0A908AA09FBEE2274F712046990F319
:1015730052E07002A3E0701790F355E0F9E47001B4
:10158300E9700C90F356E064027002A3E060057406
:101593000402163990F350E01205F680029215A862
:1015A30015CF15DF1590F354E070E490F34AE06033
:1015B3000478018002780090F358E81214B590F390
:1015C30049E0605990F358E04402804D90F337E0CE
:1015D300640470BB90F358E4F0A3804090F354E0AC
:1015E300547FF50890F337E0640470A3E508C394CF
:1015F30006509C90F354E05480600E12164AF58313
:10160300E06403700E7801800C121640F583E064E9
:101613000360F2780090F358E8F0A3E4F090F33E0F
:10162300E06404601590F34B7458F0A374F3121440
:10163300BA74021214AF90F33EF002119EE508242F
:1016430043F582E434F322E508243EF582E434F3DF
:101653002274F712046990F356E07002A3E070124B
:1016630090F337E06404601290F354E07002A3E057
:101673006008740490F33E02170390F350E0541F84
:101683001205F60002751690169816A21690F352DC
:10169300E0640160047900806AE990F34980619015
:1016A300F354E0547FF50890F352E070E8E508C383
:1016B300940650BEE50890DE0EF090F354E054809B
:1016C300601CE960047A1080027A40EA90DE11F02F
:1016D300E960047A0380027A0012164A801AE960EC
:1016E300047A2080027A80EA90DE14F0E960047ABA
:1016F3000380027A00121640F583EAF0E490DE0ECE
:10170300F0790102119E74F512046990F353E0120B
:1017130005F6010283171F1739176E171219077A77
:101723000079011210F11218DB12025990F34EF0F6
:10173300A3E4F002189290F352E0FA790012116ECA
:101743001218DBE924020909EA3400FA120259FCEF
:101753001919E0FAE92403090909EA3400FA120223
:1017630059F9EC90F34EF0A3E980C790F352E0FEF1
:101773001219077A0079031210F1EE1E70F580A694
:1017830090F34BE4F0A3F0A3F0FA02186675090096
:10179300740378081203FF90F425E02508FBA3E007
:1017A30035098B82F583E493C0E090F353E0F8D0DE
:1017B300E06860030218658A0875090074037808F5
:1017C3001203FF1218F7E493C0E090F352E0F8D04D
:1017D300E06860030218658A0875090074037808D5
:1017E3001203FF1218F2E493C0E090F355E0F8D02F
:1017F300E068706E8A08750900740378081203FFA5
:101803001218F2A3E493C0E090F354E0F8D0E06838
:1018130070508A08750900740378081203FF90F466
:1018230025E02508F8A3E03509F988828983A3A375
:10183300A3A3E493F508740193F50990F34BE5082A
:10184300F0A3E509F0A37480F088828983A3A3A39E
:10185300A3A3A3E493F8740193F990F34EE8F0A3E0
:10186300E9F00A8A0890F42512114D7583F4758204
:1018730027E0C398F50AA3E099F50B7403780A12DD
:1018830003F0C3E508950AE4950B50030217909003
:10189300F34BE0FCA3E0FDA3E0FEEC4D4E700474BB
:1018A30004802C90F33EE06404602890F34E121100
:1018B3004D7583F3758256C3E098A3E099500E905B
:1018C300F35612114D90F34EE8F0A3E9F074019032
:1018D300F33EF07F040204C990F34BEAF0A3EBF06C
:1018E300A37480F090F34BE0F9A3E0FA7B8022121B
:1018F30018F7A32290F425E02508A3E035098B828D
:10190300F583A32290F421E0F8A3E002116474F1BB
:1019130012046974FE120412851082851183EAF0A1
:10192300A3EBF0121A68602B90F429E0FEA3E08089
:1019330007EE2404FEEF3400FF8E828F83E493F8D6
:10194300740193F9851082851183E0687003A3E025
:101953006970DE7508008049749090DE14F074108D
:10196300121A597003750940750A01750B00E50CCD
:10197300780A1203FF8E828F83A3A3A393550A6071
:1019830006E509D2E0F509E50990DE15F0EA90DEF7
:1019930013F0E50C121642F583E4F090DE0EF00529
:1019A30008121A68FAE508C39A4003021A4F7A002C
:1019B30079051210F18A0A8B0BAC0AAD0BEC70019E
:1019C300ED60DCEC2402F50EED3400F50F850E829C
:1019D300F583E493540FF50C90DE0EF07509008C3B
:1019E300828D83A3A3A3A3E4932407F50AA3E4931B
:1019F3003400F50B7403780A1203F0AA0A850E82E9
:101A0300850F8393A2E7400302195B744890DE11AC
:101A1300F07408121A597003750940750A01750BA1
:101A230000E50C780A1203FF8E828F83A3A39355DC
:101A33000A6006E509D2E0F509E50990DE12F0EA4D
:101A430090DE10F0E50C12164C02199A740212047F
:101A5300287F080204C9F08C828D83A3A3A3E49397
:101A630054036401228510828511831210D1A3A32C
:101A7300A3A3E4932274F512046990F337E064029C
:101A8300601F90F354E07002A3E0701590F356E0EA
:101A93007002A3E0700B90F353E0F9E47001E96086
:101AA30008740490F33EF0807390F352E0605F7A21
:101AB30000F912116E8A088B09AE08AF09EE7001A6
:101AC300EF60DE740490F337F090F352E090F33854
:101AD300F07508008E828F83A3A3A3A3E493FAE592
:101AE30008C39A503785080AE50A2439F582E43495
:101AF300F3F583E4F07A0079041210F18A828B8380
:101B0300A3A3A3E49370EE121911050880C690F302
:101B130038F0740390F337F0F91214CF0218D67427
:101B2300F712046990F337E06404701290F350E005
:101B33006401700A90F356E07002A3E06008740435
:101B430090F33EF0805490F352E0FE90F354E0FFA4
:101B53007A0090F338E0F912116E7A0279041210C8
:101B6300F1EA7001EB60D78A828B83A3A3E4936FBE
:101B730070E88A828B83A3A3A3E4936E70DC90F353
:101B830052E0C0E090F354E02439F8A3E034F3F9D1
:101B930088828983D0E0F012191102119E74F71222
:101BA3000469EAFEEBFF120C26EE24C0121BC4EEFE
:101BB30024C1121BC4EE24C2121BC4120C31021125
:101BC3009EF582EF3400F583E4F02274F312046986
:101BD300EAFEEBFF8C088D09890C120C26121CA15E
:101BE300F8850C0AE50A28F8E43400F9E894C0E91A
:101BF3009400C365D033750D005037802724C2F895
:101C0300EF3400F9850D0AE508250AF582E5093464
:101C130000F583E0C0E0121CB9D0E0121CAD7002E5
:101C2300E4F0050DE50DC3950CEE40D1121CA22581
:101C33000DF0120C31A90D8002EEF97F060204C9E2
:101C430074F3120469EAFEEBFF8C088D09890B1209
:101C53000C26750A008028EE24C1F8EF3400F9122F
:101C63001CB9E0C0E0850A0CE508250CF582E509FE
:101C73003400F583D0E0121CAD7002E4F0050AE5F0
:101C83000AC3950B500A121CA1FCE50AC39C40C76A
:101C9300121CA1C3950AF0120C31A90A809DEE24EF
:101CA300C0F582EF3400F583E022F088828983E077
:101CB30004F0E064C02288828983E0FCEE2CF58284
:101CC300EF3400F5832274F8120469E9FE90F331CE
:101CD3007451F0A3740AF090F33374F9F0A3741EF3
:101CE300F0740790F39EF0742090F39FF0EA90F362
:101CF300A0F0EB90F3A1F0740790F39AF0742090A6
:101D0300F39BF0EC90F39CF0ED90F39DF0E490F3F3
:101D1300A2F090F3A3F090F3A4F090F3A5F01206D1
:101D2300AF120A7BEEF9120BF4120B1690F39EE03E
:101D330064FF6025E090DF05F07A008A82A882E8DC
:101D4300249EF582E434F3F583E0C0E0121D77D0DE
:101D5300E0F00AEAC3940440E290F41DE064FF70EB
:101D630004C2AF80FE740190F14DF0740790DF035D
:101D7300F0020A76E8241DF582E434F4F583227434
:101D8300F31204698A0C8B0D90F3A2E07003021E18
:101D930026120C26EAF50890F35AE024F6FE90F397
:101DA30063E090F3A5F090F364E0FF8E0A750B00F7
:101DB300780A1205B47C657DF3AA0CAB0D121EF3F1
:101DC300120428E490F3A2F0747E6F704DEE604A23
:101DD300120C26EAFF740A90F35AF0750A04780A83
:101DE3001205B4121EEB120428780A1205B47C9E65
:101DF3007DF37A5F7BF3121EF312042890F3A5E0C0
:101E030090F363F0747F90F364F0EFFA7B00120CAD
:101E13003179007A5A7BF3120813AA087B00120C5B
:101E23003180027E00021C3C74F31204698A0C8B1D
:101E33000D89088C09120C26EAFF740A250890F311
:101E43005AF0750A04750B00780A1205B4121EEBDA
:101E5300120428780A1205B47C9E7DF37A5F7BF323
:101E6300121EF312042890F3A4E090F363F0747E3F
:101E730090F364F085080A780A1205B4AC0CAD0D32
:101E83007A657BF3121EF3120428EFFA7B00120C1F
:101E9300317F00801A7E0143B404E5BC75F04EA483
:101EA300F8A9F0742028FA744E39FB120C370FEF9F
:101EB300C39509503079017A5A7BF3120813E9FE6E
:101EC30070EC75081480097A017B00120C5C15080C
:101ED30090F3A3E07004E50870EDE060B8E4F090DF
:101EE300F3A4E004F0021C3C7C9A7DF37A5B7BF361
:101EF3001220DD740222120A7B120B1622E490F4E4
:101F030007F0748055C6FA53BEFB53C6BFE5C6A29D
:101F1300E640FA8AC6E5C66A70FB43BE0453F4FD85
:101F2300C29143FE027A507BF1121BA07A137BF21B
:101F3300121BA090F42D780812030AAA08AB09AC6F
:101F43000AAD0B120D8E43E40CE5E475DB6675DA1E
:101F53006053E4EFC2B9A2AFE492E0F8C2AF90F1EC
:101F63004E74D1F0A37420F0E8A2E092AFD2917442
:101F73000190F406F090F40474DEF0A37425F0905D
:101F8300F40274EBF0A37425F079007CEBFD7ADEA8
:101F9300FB121CC990F400E4F0A3F090F3FEF0A34D
:101FA300F0120C89801AEAFEEEF97CA67DF37A50D2
:101FB3007BF1121C43EEFC7D007AA67BF3120CAE80
:101FC300120E2290F406E06402701090F210E0FA10
:101FD30060EEC3942D40CF7E2C80CD12201A90F357
:101FE300A2E060DC1220857AD27BF3121D82E9FA2B
:101FF30060178A82FC7D007AD27BF3120CAE8A08CA
:10200300E58265087001EB600690F400122092747B
:102013000190F2DFF080A974F812046990F210E0E5
:10202300FEC3942C500990F407E06053EE60501205
:102033002085EEC3942C5004EEFF80027F2CEFF931
:102043007CA67DF37A507BF1121C43639002E590EA
:102053007C05EFF97AA67BF3121E2BE9600690F359
:10206300FE122092740190F2DFF053E4FDC2B975C1
:10207300E20043E402D2B9120C89E490F407F002BF
:102083000A76E490F2DFF07AE87B03120C3722E061
:102093002401F0A3E03400F012209F22C082C08309
:1020A30074EF12041290F4001205C990F3FE1205A6
:1020B300C97C087DF4740412045DAA82AB831222E6
:1020C3001B74041204287411120428020B5AC082D0
:1020D300C083740190F407020B5974F712046974F6
:1020E3000912045DE0FEA3E0FFEAF8EBF980188C27
:1020F300828D83E088828983F0A3A882A9838C825E
:102103008D83A3AC82AD838E088F0974FF25081ECF
:1021130074FF3509FFE5087002E50970D27F0202FA
:1021230004C974F7120469740912045DE0F8A3E0AA
:10213300F9EAFEEBFF8A088B09C3EA9CEB9D405E3C
:10214300EC28F582ED39F583C3E5829508E583959F
:1021530009404BEA28FAEB39FBAC82AD831221B379
:102163007002E5096041EC24FF1CED34FFFDEA2415
:10217300FF1AEB34FFFB8C828D83E08A828B83F022
:1021830080DB8C828D83E08A828B83F08C828D83CB
:10219300A3AC82AD838A828B83A3AA82AB831221F1
:1021A300B37002E50970DBEEFAEFFB7F020204C9AC
:1021B3008808890974FF25081874FF3509F9E508AB
:1021C3002274F8120469740812045DE0F8A3E0F9BC
:1021D3008A828B838003ECF0A3E8FEE9FF74FF2E71
:1021E3001874FF3FF9EE7001EF70EB7F010204C931
:1021F300C082C0838A828B83122288E9F08A828B11
:1022030083E02401F8A3E03400F98A828B83E8F0A9
:10221300A3E9F0D083D0822274F712046974FC120C
:102223000412740212045DEAF0A3EBF0ECFAEDFB86
:10223300740D12045DA882A983851082851183E839
:10224300F0A3E9F0851082851183858208858309CF
:1022530078081205B4740412045D85820885830925
:1022630078081205B47CF37D2112229174041204C0
:1022730028740212045D122288E4F0740412042804
:102283007F020204C9E0F8A3E0F58388822274F197
:1022930012046974B2120412851082851183122B01
:1022A3009B741012045DECF0A3EDF0740B12045D4B
:1022B300E4F0A38022745D12045D122AD174041227
:1022C300045DE0F9741012045D122AFA12046774B3
:1022D3000B12045D122BAFF0122BD312045DEAF044
:1022E30074256A6015E070CD740B12045D122AD157
:1022F300744E1204287F080204C9122B0764257048
:102303000F122BB8745D12045D122AD1792580B4A3
:10231300740F12045DE4F0740E12045DE4F07408AB
:1023230012045DE4F0740712045DE4F0741C1204FB
:102333005DA882A983740212045D122BCD741A1254
:10234300045D7431F0A374F48019740712045DE022
:102353007007740712045DEAF0851082851183E823
:10236300F0A3E9F0122B55FA12062C0005204D2399
:10237300238A232B55232D8123308E239223740804
:1023830012045DE00480D1740E80F5740F80F18532
:102393001082851183122B21E0642A7053745F121B
:1023A300045D122B21122AD18A828B83122ACB74C9
:1023B3000912045DECF0A3EDF0122AB212045D12CF
:1023C3002B98740912045D122B44501F74091204D4
:1023D3005D122AD1C3E49AFAE49BFB740912045DEB
:1023E300122B9B740812045DE004F0122BC78026A5
:1023F300740912045DE4F0A38010740912045D12E1
:102403002B73740912045D122C11122C004007E582
:1024130008C3943A40E4740812045DE06007740F43
:1024230012045DE4F0122B07642E705C122BB812B9
:102433002B07642A702C745F12045D122B1AF9881F
:10244300828983122AD1740512045D122B9BE8241E
:10245300020808E9122AAC12045D122B21122C1176
:10246300802F740512045DE4F0A3122C004023E5D1
:1024730008C3943A501C740512045D122B7374053F
:1024830012045D122C1180E2740512045D74FFF0D6
:10249300A3F07C00122B5512062C00034CAA2468CF
:1024A300AB246CAA24AE240C122BC7122BD3120418
:1024B3005DEAF012062C0165672D290D004A2945B6
:1024C3002D29472D2958422663312564D02669D00A
:1024D300266EE8246F1726704226736525754226FB
:1024E3007836265629745F12045D122B3F602E74D2
:1024F3000B12045D122ACB3395E0FE8A828B831282
:102503002AFAECF0A3EDF0A3EEF0A3F0745F12044B
:102513005D122B4A12045D122B2E0222DA740B1267
:10252300045D122AE88A828B83122B2E80DD745F6E
:1025330012045D122B1AF5838882E0C0E0741C122A
:10254300045DD0E0F0745F12045D122B4A12045D47
:10255300122B21122BCD741D12045DAA82AB8302B0
:102563002966745F12045D122B368A828B83122ACA
:10257300E8122AB212045D122B98740212045D123F
:102583002BCDE87001E9700C740212045D7442F003
:10259300A374F4F0740512045D122B44500C7405FB
:1025A30012045D7410F0A37427F07E007F0080088E
:1025B300EE24010EEF3400FF740212045D122AE8C8
:1025C30088828983A3AA82AB83740212045D122BCF
:1025D3009B88828983E06014740512045D122AE8E3
:1025E300C3EE98EF99A2D265D03340C474021204AB
:1025F3005DE024FFFAA3E034FFFBC3E49EF8E49F0D
:10260300F9EA28F8EB39F9740212045DE8F0A3E95A
:10261300F0022966740E12045DE06017740512045B
:102623005DE07002A3E0700B740512045D7401F0A9
:10263300A3E4F0741A12045D7451F0A374F4F074FB
:102643005F12045D122B36740412045DE064707033
:10265300358A828B83122AEE12045D122BF2122A20
:10266300AA12045D122B21122BCD90F48978081243
:10267300030A741612045D7808120319740712040E
:102683005DE4F0022753EC8A828B8360147808128E
:10269300030A741212045D7808120319EA240480F1
:1026A30009122AEE12045D122BF2122AAA12045DF9
:1026B300122B21122BEA12045DE0646F700590F473
:1026C3008D80AAE0647570A290F49180A0745F126B
:1026D300045D122B3F8A828B83600A780812030AF7
:1026E300EA24048011E0F508A3E0F5093395E0F549
:1026F3000AF50BEA2402122AAA12045D122B2112F4
:102703002BCD741212045D780812031990F4957896
:102713000C12030A780C7908120244502174071230
:10272300045D742DF0741212045D780812030A78A4
:10273300081202F9741212045D780812031990F456
:1027430091780812030A741612045D7808120319AB
:10275300744D12045DA882A983740212045D122BC6
:10276300CD744D12045DAA82AB83741212045DC052
:1027730082C08390F495780812030AD083D08278BC
:102783000812022F6009740D12045D74018006742F
:102793000D12045DE4F0740512045DE07002A3E021
:1027A300700B740D12045DE0700302288E74021224
:1027B300045D122AE112045D122BCD741212045D22
:1027C300780C12030A741612045D780812030A784F
:1027D3000C7908120289741A12045DE02508FCA31F
:1027E300E035098C82F583E0C0E0740212045D12C7
:1027F3002AFAD0E0F0741212045D780C12030A7402
:102803001612045D780812030A780C7908120289FB
:10281300741212045D780C120319741212045DC051
:1028230082C08390F495780812030AD083D082780B
:102833000812022F60030227B0740512045D122BE5
:10284300445048740F12045DE06040740712045D45
:10285300E06004D2F08002C2F0740912045DA2F0B9
:10286300E492E0F8E0C398F8A3E09400F974051249
:10287300045DE8F0A3E98012740212045D122BCD0B
:10288300740212045D122AFA7430F0740212045DA9
:10289300122AE112045D122ACB8B838A82E582C35A
:1028A3009CFEE5839DFF740512045D122ACBC3EEE3
:1028B3009CEF9DA2D265D03340BE740E12045DE03E
:1028C3007003022966740D12045DE0700302296629
:1028D300740412045DE064786005E0645870377432
:1028E3000212045D122BEA12045DE0C0E0740212CE
:1028F300045D122AFAD0E0F0740212045D122ABEBB
:10290300F9740212045D122BCD740212045D122AB3
:10291300FA7430022613E0646F7048740212045D87
:10292300122BA1E06430603B80D7740212045D7403
:1029330062F0A374F4F07A62FB8A828B83E06023F3
:10294300A3AA82AB8380F2851082851183122ABEEB
:10295300122BC6740212045D7485F0A374F4F07A2A
:10296300887BF4740212045D122AE8EAC398F8EB38
:1029730099F9740512045D122BCD740912045DC01C
:1029830082C083740512045DE0F8D083D082C3E073
:1029930098A3E099A2D265D03350067E007F0080D1
:1029A30029740712045DE06004D2F08002C2F0745F
:1029B3000912045DE0C398F8A3E099F9A2F0E49248
:1029C300E0FAE8C39AFEE99400FF740812045DE09C
:1029D30070208019745D12045D122AD712045D12EF
:1029E3002AFA120467740B12045D122BAA122A9995
:1029F30050E2740712045DE06056745D12045D12C8
:102A03002AD1740712045DE0F9741012045D122ACE
:102A1300FA1204678032745D12045D122AD17402C3
:102A230012045D122B0DF9741012045D122AFA12AE
:102A33000467740212045DE02401F8A3E03400F992
:102A4300740212045D122BCD740B12045D122BAAB7
:102A5300740512045DE024FFF0A3E034FFF0740575
:102A630012045D122B4450AE740812045DE070032F
:102A73000222DB122A9950030222DB745D12045DE9
:102A8300122AD712045D122AFA120467740B120475
:102A93005D122BAA80DDEE24FF1EEF34FFFFC394EB
:102AA30000A2D265D03322F8EB3400F9745F22EA36
:102AB30024020A0AEB3400FB745F22122AC222E0CA
:102AC30024FFF8A3E034FF22E0FCA3E0FD22E0FAB8
:102AD300A3E0FB22E0FAA3E0FB7920741022122A80
:102AE300C2F9740222E0F8A3E0F922E0F8A3E0F9C6
:102AF300E8FCE9FD741222122AFE22E0F8A3E0F5B5
:102B030083888222851082851183122B1122122B36
:102B13001522122AFEE022122B11F8A3E022122B17
:102B23002522E0FAA3E0F5838A8222122B25E8F01E
:102B3300A3E922122B3A22122B158093122B3AEC83
:102B430022C3A3E0022AA2122B112402F8A3E0025B
:102B53002AAC851082851183E0122B64122B25E0A9
:102B6300222401F8A3E03400F98510828511832221
:102B7300E0F8A3E0F9E875F00AA4F8AAF075F00A02
:102B8300E9A42AF9E82508F8E93400F974D028F80B
:102B930074FF39F922122BA1EAF0A3EBF022E0FC37
:102BA300A3E0F5838C8222122BAFF022E02401F004
:102BB300A3E0340022851082851183E0240108A359
:102BC300E03400F9851082851183E8F0A3E9F0224F
:102BD300851082851183122B11FA8510828511834A
:102BE300E0240108122B67E8F0A3E9F0740422EC57
:102BF300F0A3EDF0A3E4F0A3F0EA240222122C1ECA
:102C0300F8A3E0F5838882E0F508C3943022E8F066
:102C1300A3E9122C1E122B64022B31F0851082853E
:042C23001183E02217
:04000005000000E116
:00000001FF
