:020000040000FA
:030000000200F407
:0300330002101A9E
:03004B00020BECB9
:03006B000210B4CC
:1000830002085B00000080FB120103B900030200B9
:10009300EEE479347813B800028004F709D8FCE45D
:1000A30090F10078DC79018002F0A3D8FCD9FA78CA
:1000B300219001067A13BA00028007E493A3F6089D
:1000C300DAF990F1DBAA82AB8390011978197901EF
:1000D3008015E493A3AC82AD838A828B83F0A3AAB9
:1000E30082AB838C828D83D8E9D9E7121DAC1200D1
:1000F3008675D0007581BF7510007511F102008BF4
:100103007901220000000000000000000000000050
:100113000101FF00FF00FFFFFFFF1432506EFF00DD
:1001230000003101C40137025702570200001201D7
:100133000002000000205104A71600010102000183
:1001430009023B00020100801909040000010301B8
:100153000100092111010001223F00070581030865
:10016300000A090401000103010200092110010032
:10017300012234000705820308000A04030904244A
:100183000354006500780061007300200049006E8D
:100193000073007400720075006D0065006E0074DA
:1001A3000073001E03550053004200200043004328
:1001B3000031003100310031002000480049004483
:1001C3000005010906A10195087501050719E02934
:1001D300E7150025018102950175088101950575D3
:1001E30001050819012905910295017503910195EE
:1001F300067508050719002965150025658100C0E6
:1002030005010902A1010901A1009505750105096F
:100213001901290515002501810295017503810145
:100223009503750805010930093109381581257FC2
:100233008106C0C022000000C4013F00220000016B
:1002430003023400210000005501090021000001D0
:100253006E0109004C01000065010000BB0102E7CB
:1002630022C082C08389828A83BB0003E08002E4C8
:1002730093D083D08222BB000EC082C0838A83893D
:1002830082F0D083D08222BB0101F722CAC0E0E60C
:10029300F0A308DAFAD0E0FA22CAC0E0E0A3C582EC
:1002A300CCC582C583CDC583F0A3C582CCC582C529
:1002B30083CDC583DAE6D0E0CA22C3E498F8E49993
:1002C300F91202FE8026C3E49AFAE49BFBE920E7D5
:1002D300E91202FEE498F8E499F922C3E498F8E4F9
:1002E30099F91202FEE498F8E499F9C3E49AFAE45E
:1002F3009BFB22EB20E7CFE920E7E0B90010BB002E
:1003030008E88AF084F8AAF022E4FBC8FA22EB702A
:10031300227B10C833C8C933C9335007C39AC3DB20
:10032300F280069A50012ADBEAC833F4C8C933F4D1
:10033300C9FA2275F008E4C833C8C933C933C99A66
:10034300C99B5004C92AC93BD5F0ECFBC833F4C898
:10035300E4C9FA22600C08C6C313C618C613C6D56F
:10036300E0F422700422600D18C6C333C608C633F6
:10037300C6D5E0F41822251010AF08F51040021579
:10038300118008F51040021511D2AF22C0D02510FC
:1003930010AF08F510500205118008F51050020542
:1003A30011D2AFD0D0222510F58210AF08F510403E
:1003B3000215118008F51040021511D2AF85118383
:1003C300222510F582E43511F58322E4732510C547
:1003D30082C0E0E51134FFC583C0E0E510C3958218
:1003E30024F9F8E4C5A8858311858210C5A8E8CE51
:1003F300F0A3E520F0A37808E608F0A3DEFAEFF017
:10040300A3E58124FBF8E608F0A3E608F0A30808B7
:10041300E608F0A3E608F0A315811581D0E0FED02D
:10042300E0F815811581E8C0E0EEC0E02285118374
:10043300851082E0A3FEE0A3F5207808E0A3F60888
:10044300DFFAE0A3FFE0A3C0E0E0A3C0E0E0A3C0C5
:10045300E0E0A3C0E0E4C5A8858210858311C5A8A8
:10046300D083D08222C0D02510C582C0E0E51134EC
:10047300FFC583C0E0E510C3958224F310AF088560
:1004830083118582108008858311858210D2AFC8BD
:10049300F0A3E9F0A3EAF0A3EBF0A37908E709F0EE
:1004A300A3D8FAECF0A3EDF0A3EEF0A3EFF0A3D002
:1004B300E0F0A3D0E0F0A3D0E0F0A3E520F0A3E5C3
:1004C300F0F0A322851183851082E0C0E0A3E0F958
:1004D300A3E0FAA3E0FBA37808E0F608A3DFFAE0C1
:1004E300FCA3E0FDA3E0FEA3E0FFA3E0C0E0A3E0E4
:1004F300C0E0A3E0F5D0A3E0F520A3E0A3F5F0E48A
:10050300C5A8858311858210C5A8D082D083D0E089
:10051300F8D0E0327403800474028000C0E0F40475
:100523001203A9D0E012028F2274038000CCC0E032
:10053300EDC0E0E510C39CCCAD1150011D10AF061A
:100543008C108D1180068C108D11D2AF12029CD0AD
:10055300E0FDD0E0FC22D083D082C5F0E493A3C5B4
:10056300F0C395F0F5F0E493A3C395F04005E5F0EF
:10057300048001E475F002A42582F582E5F0358359
:10058300F583E493A3C0E0E493C0E022D083D08258
:10059300CCC0E0E493A360061205B91470FAE493A7
:1005A300A360061205D81470FAD0E0FCE493A3C04C
:1005B300E0E493C0E022C0E0E493A3D39C5010E4B2
:1005C30093A3C39C400AD0E0D0E0D0E00205ACA3E3
:1005D300A3A3D0E022C0E0E493A36C7009D0E0D0E1
:1005E300E0D0E00205ACA3A3D0E02253CBEFC2D806
:1005F30043CB0475F00CEAA4F5CD74FC55CB44024F
:10060300F5CB43CB10A2D850FC53CBEFC2D8227406
:10061300F71203D0750840750900780812051B12FC
:1006230009A612038F90DF36E054EF64016004C221
:10063300AF80FE90DF37E0C394035004C2AF80FE67
:1006430053BEFBE5BEA2E650FA53C6BF43BE0474D5
:10065300F1F5D575D445743C90DF13F0741490DF35
:1006630014F0743D90DF02F0740590DF04F0748E93
:1006730090DF2EF0740990DF25F0741290DF07F0FD
:10068300E490DF08F0742590DF09F0749590DF0A99
:10069300F0745590DF0BF0741D90DF0CF0745590DF
:1006A300DF0DF0741390DF0EF0742390DF0FF074FE
:1006B3001190DF10F0746390DF11F0741D90DF155B
:1006C300F0741C90DF16F074C790DF17F0E490DF2E
:1006D30018F074B090DF19F074B690DF1AF074104C
:1006E30090DF1BF0120A0B741F90DF1FF0748890C9
:1006F300DF23F0743190DF24F0740290F100F0797D
:1007030000120B577E007F0075E10275081475090E
:100713000590DF3CE0545070237A407B00120ACBF3
:10072300E50824C0F508E50934FFF509C3E5089495
:1007330001E5099400A2D265D03350D57A10EEC3F7
:1007430033FEEF33FF90DF3AE0A2E0E492E04EFEA7
:100753001AEA70EA74804EF5BCEFF5BC120A969063
:10076300F1417414120F8A90F14374FA120F8A4301
:100773009A01D2AF020CE674F71203D0EAFEEBFF44
:10078300890975080090F100E064017004C2AF802C
:10079300FE120A96EF90F145F0EE90F146F074DF09
:1007A30090F147F074D990F148F07420120A6874FC
:1007B3004190F14CF0E509701143D60175E103E571
:1007C300E9A2E450FA53E9EF807B74016509600400
:1007D300C2AF80FE750904801B120A9643B40474E9
:1007E3000F55BC04FE90F1431211EA120ACB1EEE20
:1007F30070F3150943D60175E10290DF3BE0640D08
:1008030070F87E147F0590DF3CE05450701D7A40F1
:100813007B00120ACBEE24C0FEEF34FFFFC3EE943D
:1008230001EF9400A2D265D03350DB75E10390DF72
:100833003BE0640D6008E5E9A2E450FA8087E5092E
:100843007097750801120A9690F100E06403700333
:10085300120A1DA908020CE6C0E074F112046890A4
:10086300F100E064036004C2AF80FEE5E9A2E45056
:100873002BE5E9A2E6502553E9EF53E9BF539BFC6F
:10088300E59B120A9675083E750900780812051B48
:100893001209A612038F120A1D0209A153E9EF538D
:1008A3009BFCE59B750802750900780812051B90EF
:1008B300F101E0042401FCE434F1FD7A3F7BF11201
:1008C3001EC0740212038FE0FA90F140E0A2E740E9
:1008D300030209908A0874012508F8E43400F9E852
:1008E300943FE99400C365D0334003020990EAC3FF
:1008F3009408500302099090F14DE0704490F13F49
:10090300E0F9120B10E9F090F140E0C2E7F090F14A
:10091300017C867DF1744012029C90F190E0FA9084
:10092300F186E0F874F828F874FF3400F97402686B
:100933007001E9704D747F6A7048740190F1CF8043
:100943004B7C007B007A008A82A882E82402F5822D
:10095300E434F1F583E0FD121CDFE06D70010CE877
:1009630024DBF582E434F1F583E06D70010B0AEAD0
:10097300C3940440D274046B608374046C700E02DD
:100983000900747E6A7006740190F1CEF075083E1A
:10099300780812051B1209A612038F43D6017F02A2
:1009A3000204C77C007D007A017BF1121F5F740291
:1009B3002274F81203D090F100E064016018A2AF32
:1009C300E492E0FEC2AFE064037003120A9674017E
:1009D300F0EEA2E092AF7F01020430C082C083E553
:1009E300C6A2E65004C2AF80FE90F100E06401703D
:1009F30014120A0B740290F100F075E10490DF3BCE
:100A0300E0640170F8020ABD74EA90DF1CF0742AF6
:100A130090DF1DF0E490DF1EF02274F71203D07410
:100A2300DF90F145F074D990F146F074F190F147FD
:100A3300F0740190F148F07480120A68741190F117
:100A43004CF075D68175083E750900780812051BB0
:100A53001209A612038F43D601120AC275E102439B
:100A63009110020CE690F149F0744090F14AF07451
:100A73001390F14BF022C082C08390F100E0640137
:100A83007004C2AF80FEE0640360067403F0120AD0
:100A93001D8027C082C0835391EF75E10490DF3B33
:100AA300E0640170F875D68153D1FE120AC2800A40
:100AB300C082C083740490F16AF0D083D082225341
:100AC3009BFCE59B53E9EF2274F71203D08A088B52
:100AD3000974047808120357AE08AF09EA7001EBF2
:100AE3006028A2AFE492E0F508C2AF7A107B00124F
:100AF30005EEE508A2E092AFEEF8EFF974FF281EC9
:100B030074FF39FFE87001E970D8020CE6C008C031
:100B130009E9C39480E94019F879FF7A027B00124E
:100B230002F68808890974B72508F874FF35098027
:100B33000BC313F874B728F874FF3400F9C3E894AF
:100B430080E994FFA2D265D03350027880E8F9D0CF
:100B530009D0082274F71203D08908E9C39404402A
:100B630004C2AF80FE120A96E50824DFF582E4345E
:100B7300F1F583E090DF06F090F100E06403700389
:100B8300120A1D020CE6A2AFE492E0FA7B00C2AFA8
:100B930022EAA2E092AF22EBC313FBEA13FAC3EA01
:100BA3009402EB94004014000000000000000000D9
:100BB30000EA24FFFAEB34FFFB80E32274F812030C
:100BC300D0EAFEEBFFEEF8EFF974FF28FE74FF396D
:100BD300FF740068700374006960097AE87B03128C
:100BE3000B9A80E17F01020430C0E074F2120468C2
:100BF30090F14EE07002A3E0600990F14E12117083
:100C03001203CE7F010204C7C082C0837A00790138
:100C130012120B8A828B83A3A3A3A3A3A3A3E4939C
:100C2300A2E6500474018001E490F176F0E490F1BF
:100C330075F043BE80D2BDF540F541F5427543FFE3
:100C43007544FF74FF90DE0BF090DE07F0743E9066
:100C5300DE09F0438C10758900C2C5758B00C2E8AC
:100C6300439A0253F4FED29043FE01D2AF020ABD6F
:100C730074F71203D08A828B83A3E0F5348A828BC4
:100C830083A3A3E0F5357E008E08EA2508F582EB01
:100C93003400F583A3A3A3E0C0E074362EF8D0E0BC
:100CA300F60EEEC3940640E07934120FEA120FA158
:100CB300E960307534007535007E0074362EF876A1
:100CC300000EEEC3940640F37934120FEA7E00124D
:100CD3000FA1E9700E7A017B00120BBF0EEEC394D5
:100CE3006440EC7F0202043074F61203D08A828BD4
:100CF30083A3E0F53C701E8A828B83A3A3E0F53DBA
:100D03008A828B83A3A3A3E0F53E8A828B83A3A36A
:100D1300A3A3E0F53F120B89853C2A853D2B853E35
:100D23002C853F2D7B00120B94120B89EAFE740273
:100D330090DE0EF090DE11E0A2E0402375082A75E4
:100D43000900750A01780812051779047A247BDEF5
:100D53001215B5740312038F90DE11E0D2E0F0EEAA
:100D6300FA7B00120B940215B0C082C08390F17D10
:100D7300E012055909024F0E810D130ECC0D90F1AF
:100D83006AE06003020E5590F17FE0F9E4700374AA
:100D930002696003020E4F90F180E07002A3E060ED
:100DA30003020E4F90F182E064017002A3E060033E
:100DB300020E4F740290F16AF090F1777421120FD2
:100DC300817401F0A3E4020E5490F16AE06003021F
:100DD3000E5590F17EE054FEF8A3E0F9E87001E9C6
:100DE300706A90F182E07002A3E07060120F8F507E
:100DF3005B90F180E01205590001550E030E0B0EB6
:100E030090F17EE0F52E804A90F17EE0F52F80424E
:100E130090F16AE0703C90F182E07002A3E0702CE4
:100E2300120F8F502790F180E01205590001550EE3
:100E3300370E430E90F17EE0F530A3E0F5318012DA
:100E430090F17EE0F532A3E0F5338006740490F16F
:100E53006AF0020ABDC082C08390F17DE012055999
:100E630001026D0F6D0E290FE50E90F16AE060032C
:100E7300020F7390F17FE0F9E4700374016960037A
:100E8300020F6D90F180E07002A3E0702590F18273
:100E9300E064087002A3E06003020F6D740190F137
:100EA3006AF090F1777422120F817408F0A3E402C0
:100EB3000F7290F180E064017002A3E06003020FFF
:100EC3006D90F182E064047002A3E06003020F6D91
:100ED300740190F16AF090F177742A120F8174040F
:100EE30080CA90F16AE06003020F7390F17EE070B4
:100EF30002A3E0707590F182E064017002A3E070D8
:100F030069120F8F506490F180E012055900016857
:100F13000F180F220F90F177742EF0A3E480419005
:100F2300F177742F80F490F16AE0704490F182E0DD
:100F330064017002A3E07032120F8F502D90F18084
:100F4300E01205590001680F4F0F5A0F90F17774A3
:100F530031F0A37400800990F1777433F0A3740027
:100F6300F0A37401F0120F768002740490F16AF01A
:100F7300020ABD90F17A7401120F8A740122120FD2
:100F83008AA3F090F17A22F0A3E4F02290F180C3D7
:100F9300E09402A3E0940022020AB3020AB374F6B7
:100FA3001203D07E00120B89EAFF740190DE0EF06B
:100FB30090DE11E0A2E040237508228E09750A0134
:100FC300780812051779087A227BDE1215B57403A7
:100FD30012038F90DE11E0D2E0F00EEFFA7B0012E5
:100FE3000B94EEF90215B074F81203D0E9FE120B5C
:100FF30089EEF8E6F5220808E6F52408E6F5250863
:10100300E6F52608E6F52708E6F52808E6F5297B40
:1010130000120B940209D9C0E074F1120468E5BE12
:10102300A2E650FA90DE06E0FAA2E25035A843E8C1
:1010330090DE0BF0F5088544097404780812035711
:10104300E50890DE07F085430885440974097808AC
:10105300120357E508543E90DE09F090DE01E0D21A
:10106300E0F07840EA46F690DE02E0F50875090004
:10107300740478081203667840E50846F608E50923
:1010830046F690DE04E0F508750900740978081245
:101093000366784008E50946F6EAA2E05003754284
:1010A3000174065A6003754200758B00C2E8020999
:1010B300A1C0E074F2120468E5BEA2E650FAE58925
:1010C300A2E75005C2BD12117D758900C2C5020C8D
:1010D30006C082C083C29190F160E07002A3E06019
:1010E3000990F1601211701203CE745390F150F015
:1010F30074BE90F151F074FC90F152F0744390F18E
:1011030053F074BE90F154F0740190F155F074757E
:1011130090F156F0748790F157F0740190F158F004
:1011230074E590F159F0744290F15AF0747090F1B3
:101133005BF074F390F15CF0742290F15DF07589CB
:1011430000C2C5D2BD90F15E7450F0A374F1F07586
:101153008250F5831203CE90F162E07002A3E06047
:101163000990F1621211701203CE020ABD121174BA
:1011730022E0F8A3E0F583888222C082C083E49052
:10118300F155F090F156F090F157F090F158020AB2
:10119300BCC082C083E9FCEAFD7A007B0080079033
:1011A300F165E01211F090F16412197B90F1E9E01E
:1011B300687003A3E069601A1211D86C700B90F188
:1011C300641211EA1211F080091211D86D70D0ED7A
:1011D30060CD020ABD90F165E0F5838882A3E493B4
:1011E3002290F177E0F9A3E0FAA3E0FB22F58388EC
:1011F30082E493F890F164E028F8A3E03400F990D6
:10120300F164E8F0A3E9F02274F71203D0E9FEEAEF
:10121300FF121996800E8A828B83A3A3A3A3A3E450
:10122300936E60147A007902121194EA7001EB60F4
:1012330007EE70E2EF1F70EC020CE674F51203D0B8
:1012430090DE0EE0FEE4F090DE11E0FFA2E4501F1A
:101253007480F0740790F16AF0E5457002E546602A
:10126300098545828546831203CEE490F16AF0EF47
:10127300A2E2500CE490DE11F090F16AF002130840
:1012830090F16AE06402706690DE16E0F50A90F170
:101293007712052CA90A7A207BDE12158E740312AD
:1012A300038F850A081215481211E4E9250A12155D
:1012B3003790F17AE07002A3E060047A4080027A0A
:1012C30048EA90DE11F090F17AE07002A3E0701624
:1012D300E5457002E546600985458285468312032C
:1012E300CEE490F16AF0EE90DE0EF0021BAEE06405
:1012F3000670098545828546831203CE90F16AE024
:101303006003021441EFA2E050DC75087C7509F11B
:10131300750A00780812051779087A207BDE121502
:101323008E740312038F75450075460090F17CE0BF
:1013330054E012058F0006004E1320C71440B51465
:1013430080E413A0D214C0BE14C21390F17DE01246
:10135300058F000501CB1303B71305681309D813D1
:101363000BDE13C21390F180E07002A3E070509083
:10137300F182E07002A3E0704690F17EE05480F8C1
:10138300A3E0F9E87001E9703690F17EE090DE00A9
:10139300F090F17EE090F166600EE064026003027B
:1013A30014DB7403F00214DBE0640360030214DB58
:1013B300740280F079011216DFE960030214DB7412
:1013C3000490F16AF00214E679001216DFE9600373
:1013D3000214DB80EA121B070214DB121BB3021494
:1013E300DB90F17DE012058F000400FB130601146E
:1013F3000807140A6914C2131215F40214DB121736
:10140300940214DB90F17EE07002A3E070B190F1DE
:1014130080E07002A3E070A790F182E064017002A3
:10142300A3E0709B90F1777467F0A374F1120F8AB5
:10143300120F7690F16AF07A40EA90DE11F090F1A3
:101443006AE0640160030215237F0290F17AC3E02E
:101453009420A3E0940040030214EB90F17AE0F5AA
:101463000A7F0A0214EE90F166E06404600302133B
:10147300C290F17CE0648160030213C290F17EE0CC
:101483007002A3E060030213C290F182E064017072
:1014930002A3E060030213C290F180E02468F50820
:1014A300A3E034F1F50990F177E508F0A3E509022B
:1014B300143075459B75460F0213C275459E7546DC
:1014C3000F0213C275456C75460D120D6C800975BC
:1014D300455875460E120E5890F16AE06404600395
:1014E30002143A7A6002143C750A2090F1771205CF
:1014F3002CA90A7A207BDE1215B5740312038F859B
:101503000A081211E4E92508121537121548EF905D
:10151300DE11F0E50AC3942040030212E90212D35C
:10152300E0640560030212E9854582854683120360
:10153300CE0212E9F9EA3400FA90F177E9F0A3EA6E
:10154300F0A3EBF02290F17AC3E09508F0A3E094C6
:1015530000F02274F71203D07A008A08E508246B9E
:10156300F582E434F1F583E9F00AEAC3940540EA2D
:101573007A008A08E5082470F582E434F1F583E9FA
:10158300F00AEAC3940540EA020CE674F61203D0AB
:10159300EAFCEBFDE9FE740A1203C41215E4600DC4
:1015A3008C828D83E01202791215D970F37F0302C6
:1015B300043074F61203D0EAFCEBFDE9FE740A1260
:1015C30003C41215E4600D12025F8C828D83F01246
:1015D30015D970F380D7E9240109EA3400FA1EEE25
:1015E30022E0F508A3E0F509A3E0A908AA09FBEEA8
:1015F3002274F71203D090F17EE07002A3E070171B
:1016030090F181E0F9E47001E9700C90F182E064FB
:10161300027002A3E0600574040216C490F17CE03A
:1016230012055980021A1630165716671690F18064
:10163300E070E490F176E060047801800278009035
:10164300F184E8120F8A90F175E0605990F184E01B
:101653004402804D90F166E0640470BB90F184E431
:10166300F0A3804090F180E0547FF50890F166E0AC
:10167300640470A3E508C39406509C90F180E05481
:1016830080600E1216D5F583E06403700E78018036
:101693000C1216CBF583E0640360F2780090F184BA
:1016A300E8F0A3E4F090F16AE06404601890F17745
:1016B3007484F0A374F1120F8A90F17A7402120FFA
:1016C3007B90F16AF0020CE6E508246FF582E434BE
:1016D300F122E508246AF582E434F12274F7120357
:1016E300D090F182E07002A3E0701290F166E064A2
:1016F30004601290F180E07002A3E060087404902B
:10170300F16A02178E90F17CE0541F120559000212
:1017130000171B1723172D1790F17EE06401600457
:101723007900806AE990F175806190F180E0547FDF
:10173300F50890F17EE070E8E508C3940650BEE535
:101743000890DE0EF090F180E05480601CE96004A4
:101753007A1080027A40EA90DE11F0E960047A039D
:1017630080027A001216D5801AE960047A2080027A
:101773007A80EA90DE14F0E960047A0380027A004A
:101783001216CBF583EAF0E490DE0EF07901020C39
:10179300E674F51203D090F17FE012055901020EB1
:1017A30018AA17C417F9171219967A00790112119A
:1017B3009412196412025F90F17AF0A3E4F0021913
:1017C3001D90F17EE0FA790012120B121964E924DC
:1017D300020909EA3400FA12025FFC1919E0FAE976
:1017E3002403090909EA3400FA12025FF9EC90F1C3
:1017F3007AF0A3E980C790F17EE0FE1219967A0091
:101803007903121194EE1E70F580A690F177E4F03F
:10181300A3F0A3F0FA0218F1750900740378081213
:10182300036690F1EBE02508FBA3E035098B82F515
:1018330083E493C0E090F17FE0F8D0E068600302B6
:1018430018F08A08750900740378081203661219E0
:1018530086E493C0E090F17EE0F8D0E06860030294
:1018630018F08A08750900740378081203661219C0
:1018730081E493C0E090F181E0F8D0E068706E8A73
:101883000875090074037808120366121981A3E42A
:1018930093C0E090F180E0F8D0E06870508A08755A
:1018A30009007403780812036690F1EBE02508F849
:1018B300A3E03509F988828983A3A3A3A3E493F55D
:1018C30008740193F50990F177E508F0A3E509F0B1
:1018D300A37480F088828983A3A3A3A3A3A3E4931F
:1018E300F8740193F990F17AE8F0A3E9F00A8A0811
:1018F30090F1EB12197B7583F17582EDE0C398F5D6
:101903000AA3E099F50B7403780A120357C3E50899
:10191300950AE4950B500302181B90F177E0FCA3A2
:10192300E0FDA3E0FEEC4D4E70047404802C90F1B6
:101933006AE06404602890F17A12197B7583F1756B
:101943008282C3E098A3E099500E90F18212197B32
:1019530090F17AE8F0A3E9F0740190F16AF0021BC8
:10196300AE90F177EAF0A3EBF0A37480F090F177F7
:10197300E0F9A3E0FA7B8022E0F8A3E0F922121950
:1019830086A32290F1EBE02508A3E035098B82F5CD
:1019930083A32290F1E7E0F8A3E002120174F112AD
:1019A30003D074FE120379851082851183EAF0A3B4
:1019B300EBF0121AF7602B90F1EFE0FEA3E0800743
:1019C300EE2404FEEF3400FF8E828F83E493F874D9
:1019D3000193F9851082851183E0687003A3E069A0
:1019E30070DE7508008049749090DE14F074101254
:1019F3001AE87003750940750A01750B00E50C7848
:101A03000A1203668E828F83A3A3A393550A6006EB
:101A1300E509D2E0F509E50990DE15F0EA90DE1359
:101A2300F0E50C1216CDF583E4F090DE0EF0050818
:101A3300121AF7FAE508C39A4003021ADE7A00790C
:101A4300051211948A0A8B0BAC0AAD0BEC7001EDF5
:101A530060DCEC2402F50EED3400F50F850E82F503
:101A630083E493540FF50C90DE0EF07509008C821D
:101A73008D83A3A3A3A3E4932407F50AA3E49334D8
:101A830000F50B7403780A120357AA0A850E8285A0
:101A93000F8393A2E740030219EA744890DE11F022
:101AA3007408121AE87003750940750A01750B0072
:101AB300E50C780A1203668E828F83A3A393550ADB
:101AC3006006E509D2E0F509E50990DE12F0EA9037
:101AD300DE10F0E50C1216D7021A29740212038FD6
:101AE3007F08020430F08C828D83A3A3A3E4935474
:101AF30003640122851082851183121174A3A3A3A9
:101B0300A3E4932274F51203D090F166E0640260BB
:101B13001F90F180E07002A3E0701590F182E070F5
:101B230002A3E0700B90F17FE0F9E47001E9600833
:101B3300740490F16AF0807390F17EE0605F7A0044
:101B4300F912120B8A088B09AE08AF09EE7001EF88
:101B530060DE740490F166F090F17EE090F167F03E
:101B63007508008E828F83A3A3A3A3E493FAE508E9
:101B7300C39A503785080AE50A2468F582E434F1EC
:101B8300F583E4F07A0079041211948A828B83A39B
:101B9300A3A3E49370EE1219A0050880C690F16721
:101BA300F0740390F166F0F91215567F04020430C5
:101BB30074F71203D090F166E06404701290F17C24
:101BC300E06401700A90F182E07002A3E06008749F
:101BD3000490F16AF0805490F17EE0FE90F180E091
:101BE300FF7A0090F167E0F912120B7A027904127E
:101BF3001194EA7001EB60D78A828B83A3A3E493E9
:101C03006F70E88A828B83A3A3A3E4936E70DC9046
:101C1300F17EE0C0E090F180E02468F8A3E034F1C5
:101C2300F988828983D0E0F01219A0020CE674F8D7
:101C33001203D0E9FE90F16074B4F0A37409F0903C
:101C4300F16274A5F0A3741DF0740790F1CAF074E7
:101C53002090F1CBF0EA90F1CCF0EB90F1CDF07461
:101C63000790F1C6F0742090F1C7F0EC90F1C8F042
:101C7300ED90F1C9F0E490F1CEF090F1CFF090F156
:101C8300D0F090F1D1F01206121209DEEEF9120B28
:101C930057120A7990F1CAE064FF6025E090DF05EE
:101CA300F07A008A82A882E824CAF582E434F1F546
:101CB30083E0C0E0121CDFD0E0F00AEAC3940440E2
:101CC300E290F1E3E064FF7004C2AF80FE74019020
:101CD300F14DF0740790DF03F00209D9E824E3F52E
:101CE30082E434F1F5832274F31203D08A0C8B0D52
:101CF30090F1CEE07003021D9C120B89EAF5089067
:101D0300F186E024F6FE90F18FE090F1D1F090F1AE
:101D130090E0FF8E0A750B00780A12051B7C917DFB
:101D2300F1AA0CAB0D121E78740212038FE490F12A
:101D3300CEF0747E6F7059EE6056120B89EAFF7411
:101D43000A90F186F0750A04780A12051B7CC67D99
:101D5300F17A877BF1121E78740212038F780A12CC
:101D6300051B7CCA7DF17A8B7BF1121E78740212FB
:101D7300038F90F1D1E090F18FF0747F90F190F0A8
:101D8300EFFA7B00120B9479007A867BF112077AC3
:101D9300AA087B00120B9480027E00EEF97F0602F4
:101DA30004301209DE120A7922748055C6FA53BE32
:101DB300FB53C6BFE5C6A2E640FA8AC6E5C66A700B
:101DC300FB43BE0453F4FDC29143FE02120C0B7994
:101DD300007CEB7D257ADE7B25121C31D291A84055
:101DE300E854046026754000754100740290F16662
:101DF300F0E490F167F090F16AF0790312155675EB
:101E03004500754600740190DE01F0A840E85410C7
:101E13006009784074EF56F612123EA840E8A2E03B
:101E2300500F784074FE56F61210D4784074FD5665
:101E3300F690F1CEE060A77AD27BF1121CEAE9FEBC
:101E4300609C90F1D2E0701174096E70917AD27B2C
:101E5300F1120C73639002E590E0640170807405E5
:101E63006E6003021DE17AD27BF1120CEB639002E8
:101E7300E590021DE174F71203D074091203C4E064
:101E8300FEA3E0FFEAF8EBF980188C828D83E088EB
:101E9300828983F0A3A882A9838C828D83A3AC82D9
:101EA300AD838E088F0974FF25081E74FF3509FF63
:101EB300E5087002E50970D27F0202043074F7125C
:101EC30003D074091203C4E0F8A3E0F9EAFEEBFFC0
:101ED3008A088B09C3EA9CEB9D405EEC28F582EDF2
:101EE30039F583C3E5829508E5839509404BEA28D4
:101EF300FAEB39FBAC82AD83121F4E7002E5096029
:101F030041EC24FF1CED34FFFDEA24FF1AEB34FF00
:101F1300FB8C828D83E08A828B83F080DB8C828DC5
:101F230083E08A828B83F08C828D83A3AC82AD8322
:101F33008A828B83A3AA82AB83121F4E7002E509A8
:101F430070DBEEFAEFFB7F02020430880889097424
:101F5300FF25081874FF3509F9E5082274F8120300
:101F6300D074081203C4E0F8A3E0F98A828B83805B
:101F730003ECF0A3E8FEE9FF74FF2E1874FF3FF9AA
:0B1F8300EE7001EF70EB7F01020430F4
:04000005000000F403
:00000001FF
