:0400000002006B325D
:01000B0032C2
:0100130032BA
:01001B0032B2
:0100230032AA
:01002B0032A2
:01003300329A
:01003B003292
:01004300328A
:01004B003282
:01005300327A
:03005B000202C5D9
:0300630002020492
:0300C400020066D1
:030066000203A5ED
:2000C700AE82AF83758201C007C00612063FD006D0077C007D007A207B03001ABAFF011B2E
:2000E700EA4B70F60CBC00010DC3EC94A0ED6480948F40E2758201C007C006120647D006D5
:20010700D0077C007D007A907B01001ABAFF011BEA4B70F60CBC00010DC3EC94E8ED648026
:20012700948340E27C007D008CF005F0AA06AB07EF3392D28008A2D2EB13FBEA13FAD5F07C
:20014700F5EA4B70030201D6EA30E016758201C007C006C005C00412063FD004D005D0062E
:20016700D0077A007B00789079010018B8FF0119E84970F60ABA00010BC3EA94D0EB6480FA
:20018700948740E2758201C007C006C005C004120647D004D005D006D0077A007B0078905B
:2001A70079010018B8FF0119E84970F60ABA00010BC3EA94E8EB6480948340E20CBC000174
:2001C7000DC3EC9410ED64809480500302012F75820112063F7E007F007C207D03001CBC0E
:2001E700FF011DEC4D70F60EBE00010FC3EE94A0EF6480948F40E2758201020647C020C07C
:20020700E0C0F0C082C083C007C006C005C004C003C002C001C000C0D075D000120A6990BC
:2002270000337431F0E4A3F09000227431F090002175F0001209FE120A5F900012E0FEA364
:20024700E0FF900010E0FCA3E0FD7A0079007B00C006C00774FFC0E0C0E0C004C005740809
:20026700C0E0E4C0E08A8289838BF012073DE58124F8F58190003DE02401F0A3E03400F009
:200287007E007F00EE2403F582EF3400F583747FF00EBE00010FC3EE9404EF648094804004
:2002A700E3D0D0D000D001D002D003D004D005D006D007D083D082D0F0D0E0D02032C02001
:2002C700C0E0C0F0C082C083C007C006C005C004C003C002C001C000C0D075D00090003D84
:2002E700E0FEA3E0FFC3EE9403EF64809480503C90003BE02401F0A3E03400F090003BE0CA
:20030700FEA3E0FFBE040BBF000890003BE4F0E4A3F090003BE0FEA3E0FFEE242FF582EFDA
:200327003400F583E0FF900014F0801790003BE4F0E4A3F090002FE0FF900014F075E1ED75
:2003470075E1ED1209F69000357431F0E4A3F090001E7431F090001D75F00012098B12095B
:20036700EC90001075F00012065790003BE0FEA3E0FFEE242FF582EF3400F583E090000721
:20038700F0D0D0D000D001D002D003D004D005D006D007D083D082D0F0D0E0D020321208D9
:2003A700BC12063B7582071208C5900000E4F0E4A3F09000027404F07E007F00EE2403F56E
:2003C70082EF3400F583747FF00EBE00010FC3EE9404EF6480948040E390003BE0FEA3E0BB
:2003E700FFEE242FF582EF3400F583E0900007F09000127437F07412A3F09000107411F0D2
:200407007420A3F090003BE0FEA3E0FFEE242FF582EF3400F583E0900014F090001574F5AE
:20042700F090001075F000120657D2AF9000217407F0900033E0FEA3E0900022EEF0900070
:20044700237404F07402A3F090002175F0001209FE90001D7407F0900035E0FEA3E0900004
:200467001EEEF090001F74C5F07402A3F090001D75F00012098B120A5F1208AFE58260F9DC
:200487007E087F007D007416C0E07400C0E0E4C0E07408C0E08E828F838DF01207F5AF8217
:2004A700E58124FCF581BF08D0120A691209F690003DE4F0E4A3F0900008E0FEA3E0FF906C
:2004C700001BEEF0EFA3F090000AE0FF900017F0EF3395E0FE900018EFF0EEA3F0C3E49FA7
:2004E700E464808EF063F08095F0E433FDC374049FE464808EF063F08095F0B3E433FF5DA5
:20050700700302048075820112063F900018E0FEA3E0FF7406C39EFEE49FFFC006C007900C
:200527000007120A8CAE82AF8315811581900035EEF0EFA3F090001EEEF090001D75F000B4
:2005470012098B1209EC900018E0FEA3E0FFC374049EE464808FF063F08095F0505474044B
:20056700C39EFCE49FFD74032CFCE43DFDC007C006C004C005900007120A8CAC82AD831512
:20058700811581D006D00790003374152CF0E43DA3F07405C39EFCE49FFD90001BE0FAA3F6
:2005A700E0FBEC2AFAED3BFB900000EAF0EBA3F080487403C39EFCE49FFDC007C006C004D1
:2005C700C005900007120A8CAC82AD8315811581D006D007900033ECF0EDA3F090001BE02F
:2005E700FCA3E0FD74042CFCE43DFDECC39EFCED9FFD900000ECF0EDA3F0900033E0FEA3B8
:20060700E0900022EEF090002175F0001209FE120A5F900018E0FEA3E0EE142403FEE43471
:1406270000FF900016E08E828F83F07582011206470204804B
:100ACC001A0B1015E300E30000000000000000000A
:1C063B0043FE0122AF82BF0102C29022AF82BF0102D29022AF82BF0102B290220A
:20065700AD82AE83AFF09061A97414F09061AB743FF09061A87485F09061AC745AF0906165
:20067700B27415F0906182E4F09061B57410F09061B6740EF09061B77403F09061FA740947
:20069700F09061E574FFF074052DFAE43EFB8F048A828B838CF0120AAC906190F074042D56
:2006B700FAE43EFB8F048A828B838CF0120AAC24F575F005A4240B90618FF0906189744027
:2006D700F074022DFAE43EFB8F048A828B838CF0120AACF8A3120AAC906174E8F08A828B31
:2006F700838CF0120AACA3120AACFA906175EAF08D828E838FF0120AACFBA3120AAC9061B9
:2007170072EBF08D828E838FF0120AACA3120AACFD906173EDF0906180740DF0906181749D
:2007370010F075E1E322C008858108C082C083C0F0900025E02401F0AC9174FD5CF591758D
:20075700E1EF75E1EE75E1EEE50824FCF88604740D2CF5D975D90175D988900025E0F5D998
:20077700E50824FAF886048CD9E50824FAF80886038BD9E50824F8F886D9E50824F8F8080F
:2007970086D98CD98BD9E50824F6F886D9E50824F6F80886D97C00ECFA3395E0FBE5082440
:2007B700FCF8C3EA96EB64800886F063F08095F0501BA80808EC26FAE40836FB0886078ADB
:2007D700828B838FF0120AACF5D90C80CA75E1E9E59130E1FB75E1E3850881D00822C0083D
:2007F700858108C082C083C0F075E9009000011200C7E50824FDF88603E63395E0FC740E3C
:200817002BFAE43CFF4A600C75E1ED75E1ED7582000208A97F0CE5D9DFFC74022BFBE43CB7
:20083700FC4B600B75E1ED75E1ED75820080637F00E50824FDF8C3EF648086F063F0809596
:20085700F0501BA80808EF26FCE40836FD0886068C828D838EF0E5D9120A710F80D3E50874
:2008770024FAF88605088606088607ACD974B42CFC8D828E838FF0120A71E5D9FF30E702C0
:200897008009E50824FDF886828007E50824FDF88682850881D00822E5E930E6047582012D
:0508B700227582002201
:2008BC0075C6807480B59EFB22E582FF30E10543C6208007AEC674DF5EF5C6EF30E00543AA
:1B08DC00C6108007AEC674F75EF5C6EF30E00443C60822AFC674F75FF5C6225A
:2008F700C020C0E0C0F0C082C083C007C006C005C004C003C002C001C000C0D075D00090AB
:200917000026E0F8A3E0F5838882120069D0D0D000D001D002D003D004D005D006D007D036
:2009370083D082D0F0D0E0D02032C020C0E0C0F0C082C083C007C006C005C004C003C002E9
:20095700C001C000C0D075D000900028E0F8A3E0F5838882120069D0D0D000D001D002D037
:2009770003D004D005D006D007D083D082D0F0D0E0D02032AD82AE83AFF043CB048D828E22
:20099700838FF0120AACC42354E0F5CB43CB0843B80843CB0174012DFAE43EFB8F048A821B
:2009B7008B838CF0120AACF5CD8A828B838CF0120AAC90002AF074022DFDE43EFE8D828EA7
:2009D700838FF0120AACFDA3120AACFE900026EDF0EEA3F02290002AE0F5CD43CB1022AF4F
:2009F700CB74EF5FF5CB22AD82AE83AFF043EB048D828E838FF0120AACC42354E0F5EB439B
:200A1700EB0843B81043EB0174012DFAE43EFB8F048A828B838CF0120AACF5ED8A828B83EC
:200A37008CF0120AAC90002BF074022DFDE43EFE8D828E838FF0120AACFDA3120AACFE9093
:1A0A57000028EDF0EEA3F02290002BE0F5ED43EB1022AFEB74EF5FF5EB22A2
:06009A00E478FFF6D8FD3A
:200078007910E94400601B7A01900ACC782F75A000E493F2A308B8000205A0D9F4DAF27519
:02009800A0FFC7
:1B0A710020F71130F6138883A88220F509F6A8837583002280FEF280F5F02284
:200A8C00AA83AB828BF090002DE0A4F8A9F08AF0E0A429F98BF0A3E0A429F58388822222F2
:2000A0007800E84400600A790075A000E4F309D8FC782FE84400600C7901900000E4F0A330
:0400C000D8FCD9FA95
:02006900E4733E
:0D006B00758120120AC8E58260030200665C
:1C0AAC0020F71430F6148883A88220F507E6A88375830022E280F7E49322E02259
:040AC8007582002211
:00000001FF
